{
	"contracts/FresaCoin.sol": {
		"FresaCoin": {
			"abi": [
				{
					"inputs": [
						{
							"internalType": "uint256",
							"name": "_initialSupply",
							"type": "uint256"
						},
						{
							"internalType": "uint256",
							"name": "_rewardRate",
							"type": "uint256"
						},
						{
							"internalType": "uint256",
							"name": "_lockDuration",
							"type": "uint256"
						}
					],
					"stateMutability": "nonpayable",
					"type": "constructor"
				},
				{
					"inputs": [
						{
							"internalType": "address",
							"name": "spender",
							"type": "address"
						},
						{
							"internalType": "uint256",
							"name": "allowance",
							"type": "uint256"
						},
						{
							"internalType": "uint256",
							"name": "needed",
							"type": "uint256"
						}
					],
					"name": "ERC20InsufficientAllowance",
					"type": "error"
				},
				{
					"inputs": [
						{
							"internalType": "address",
							"name": "sender",
							"type": "address"
						},
						{
							"internalType": "uint256",
							"name": "balance",
							"type": "uint256"
						},
						{
							"internalType": "uint256",
							"name": "needed",
							"type": "uint256"
						}
					],
					"name": "ERC20InsufficientBalance",
					"type": "error"
				},
				{
					"inputs": [
						{
							"internalType": "address",
							"name": "approver",
							"type": "address"
						}
					],
					"name": "ERC20InvalidApprover",
					"type": "error"
				},
				{
					"inputs": [
						{
							"internalType": "address",
							"name": "receiver",
							"type": "address"
						}
					],
					"name": "ERC20InvalidReceiver",
					"type": "error"
				},
				{
					"inputs": [
						{
							"internalType": "address",
							"name": "sender",
							"type": "address"
						}
					],
					"name": "ERC20InvalidSender",
					"type": "error"
				},
				{
					"inputs": [
						{
							"internalType": "address",
							"name": "spender",
							"type": "address"
						}
					],
					"name": "ERC20InvalidSpender",
					"type": "error"
				},
				{
					"inputs": [
						{
							"internalType": "address",
							"name": "owner",
							"type": "address"
						}
					],
					"name": "OwnableInvalidOwner",
					"type": "error"
				},
				{
					"inputs": [
						{
							"internalType": "address",
							"name": "account",
							"type": "address"
						}
					],
					"name": "OwnableUnauthorizedAccount",
					"type": "error"
				},
				{
					"anonymous": false,
					"inputs": [
						{
							"indexed": true,
							"internalType": "address",
							"name": "owner",
							"type": "address"
						},
						{
							"indexed": true,
							"internalType": "address",
							"name": "spender",
							"type": "address"
						},
						{
							"indexed": false,
							"internalType": "uint256",
							"name": "value",
							"type": "uint256"
						}
					],
					"name": "Approval",
					"type": "event"
				},
				{
					"anonymous": false,
					"inputs": [
						{
							"indexed": true,
							"internalType": "address",
							"name": "user",
							"type": "address"
						},
						{
							"indexed": false,
							"internalType": "uint256",
							"name": "amount",
							"type": "uint256"
						}
					],
					"name": "LotteryEntered",
					"type": "event"
				},
				{
					"anonymous": false,
					"inputs": [
						{
							"indexed": true,
							"internalType": "address",
							"name": "winner",
							"type": "address"
						},
						{
							"indexed": false,
							"internalType": "uint256",
							"name": "prize",
							"type": "uint256"
						}
					],
					"name": "LotteryWinner",
					"type": "event"
				},
				{
					"anonymous": false,
					"inputs": [
						{
							"indexed": true,
							"internalType": "address",
							"name": "previousOwner",
							"type": "address"
						},
						{
							"indexed": true,
							"internalType": "address",
							"name": "newOwner",
							"type": "address"
						}
					],
					"name": "OwnershipTransferred",
					"type": "event"
				},
				{
					"anonymous": false,
					"inputs": [
						{
							"indexed": true,
							"internalType": "uint256",
							"name": "proposalId",
							"type": "uint256"
						},
						{
							"indexed": false,
							"internalType": "string",
							"name": "description",
							"type": "string"
						}
					],
					"name": "ProposalCreated",
					"type": "event"
				},
				{
					"anonymous": false,
					"inputs": [
						{
							"indexed": true,
							"internalType": "address",
							"name": "user",
							"type": "address"
						},
						{
							"indexed": false,
							"internalType": "uint256",
							"name": "amount",
							"type": "uint256"
						},
						{
							"indexed": true,
							"internalType": "address",
							"name": "referrer",
							"type": "address"
						}
					],
					"name": "Staked",
					"type": "event"
				},
				{
					"anonymous": false,
					"inputs": [
						{
							"indexed": true,
							"internalType": "address",
							"name": "from",
							"type": "address"
						},
						{
							"indexed": true,
							"internalType": "address",
							"name": "to",
							"type": "address"
						},
						{
							"indexed": false,
							"internalType": "uint256",
							"name": "value",
							"type": "uint256"
						}
					],
					"name": "Transfer",
					"type": "event"
				},
				{
					"anonymous": false,
					"inputs": [
						{
							"indexed": true,
							"internalType": "uint256",
							"name": "proposalId",
							"type": "uint256"
						},
						{
							"indexed": true,
							"internalType": "address",
							"name": "voter",
							"type": "address"
						},
						{
							"indexed": false,
							"internalType": "bool",
							"name": "voteFor",
							"type": "bool"
						}
					],
					"name": "Voted",
					"type": "event"
				},
				{
					"anonymous": false,
					"inputs": [
						{
							"indexed": true,
							"internalType": "address",
							"name": "user",
							"type": "address"
						},
						{
							"indexed": false,
							"internalType": "uint256",
							"name": "amount",
							"type": "uint256"
						},
						{
							"indexed": false,
							"internalType": "uint256",
							"name": "penalty",
							"type": "uint256"
						}
					],
					"name": "Withdrawn",
					"type": "event"
				},
				{
					"inputs": [],
					"name": "REFERRAL_BONUS",
					"outputs": [
						{
							"internalType": "uint256",
							"name": "",
							"type": "uint256"
						}
					],
					"stateMutability": "view",
					"type": "function"
				},
				{
					"inputs": [
						{
							"internalType": "address",
							"name": "owner",
							"type": "address"
						},
						{
							"internalType": "address",
							"name": "spender",
							"type": "address"
						}
					],
					"name": "allowance",
					"outputs": [
						{
							"internalType": "uint256",
							"name": "",
							"type": "uint256"
						}
					],
					"stateMutability": "view",
					"type": "function"
				},
				{
					"inputs": [
						{
							"internalType": "address",
							"name": "spender",
							"type": "address"
						},
						{
							"internalType": "uint256",
							"name": "value",
							"type": "uint256"
						}
					],
					"name": "approve",
					"outputs": [
						{
							"internalType": "bool",
							"name": "",
							"type": "bool"
						}
					],
					"stateMutability": "nonpayable",
					"type": "function"
				},
				{
					"inputs": [
						{
							"internalType": "address",
							"name": "account",
							"type": "address"
						}
					],
					"name": "balanceOf",
					"outputs": [
						{
							"internalType": "uint256",
							"name": "",
							"type": "uint256"
						}
					],
					"stateMutability": "view",
					"type": "function"
				},
				{
					"inputs": [
						{
							"internalType": "uint256",
							"name": "amount",
							"type": "uint256"
						},
						{
							"internalType": "uint256",
							"name": "duration",
							"type": "uint256"
						}
					],
					"name": "calculateReward",
					"outputs": [
						{
							"internalType": "uint256",
							"name": "reward",
							"type": "uint256"
						}
					],
					"stateMutability": "view",
					"type": "function"
				},
				{
					"inputs": [
						{
							"internalType": "string",
							"name": "description",
							"type": "string"
						}
					],
					"name": "createProposal",
					"outputs": [],
					"stateMutability": "nonpayable",
					"type": "function"
				},
				{
					"inputs": [],
					"name": "decimals",
					"outputs": [
						{
							"internalType": "uint8",
							"name": "",
							"type": "uint8"
						}
					],
					"stateMutability": "view",
					"type": "function"
				},
				{
					"inputs": [],
					"name": "drawLotteryWinner",
					"outputs": [],
					"stateMutability": "nonpayable",
					"type": "function"
				},
				{
					"inputs": [
						{
							"internalType": "uint256",
							"name": "amount",
							"type": "uint256"
						}
					],
					"name": "enterLottery",
					"outputs": [],
					"stateMutability": "nonpayable",
					"type": "function"
				},
				{
					"inputs": [],
					"name": "getLotteryEntries",
					"outputs": [
						{
							"internalType": "address[]",
							"name": "",
							"type": "address[]"
						}
					],
					"stateMutability": "view",
					"type": "function"
				},
				{
					"inputs": [],
					"name": "getLotteryPrizePool",
					"outputs": [
						{
							"internalType": "uint256",
							"name": "",
							"type": "uint256"
						}
					],
					"stateMutability": "view",
					"type": "function"
				},
				{
					"inputs": [],
					"name": "lottery",
					"outputs": [
						{
							"internalType": "uint256",
							"name": "prizePool",
							"type": "uint256"
						}
					],
					"stateMutability": "view",
					"type": "function"
				},
				{
					"inputs": [],
					"name": "minStakeDuration",
					"outputs": [
						{
							"internalType": "uint256",
							"name": "",
							"type": "uint256"
						}
					],
					"stateMutability": "view",
					"type": "function"
				},
				{
					"inputs": [],
					"name": "name",
					"outputs": [
						{
							"internalType": "string",
							"name": "",
							"type": "string"
						}
					],
					"stateMutability": "view",
					"type": "function"
				},
				{
					"inputs": [],
					"name": "owner",
					"outputs": [
						{
							"internalType": "address",
							"name": "",
							"type": "address"
						}
					],
					"stateMutability": "view",
					"type": "function"
				},
				{
					"inputs": [],
					"name": "proposalCounter",
					"outputs": [
						{
							"internalType": "uint256",
							"name": "",
							"type": "uint256"
						}
					],
					"stateMutability": "view",
					"type": "function"
				},
				{
					"inputs": [
						{
							"internalType": "uint256",
							"name": "",
							"type": "uint256"
						}
					],
					"name": "proposals",
					"outputs": [
						{
							"internalType": "string",
							"name": "description",
							"type": "string"
						},
						{
							"internalType": "uint256",
							"name": "votesFor",
							"type": "uint256"
						},
						{
							"internalType": "uint256",
							"name": "votesAgainst",
							"type": "uint256"
						},
						{
							"internalType": "bool",
							"name": "isApproved",
							"type": "bool"
						}
					],
					"stateMutability": "view",
					"type": "function"
				},
				{
					"inputs": [],
					"name": "renounceOwnership",
					"outputs": [],
					"stateMutability": "nonpayable",
					"type": "function"
				},
				{
					"inputs": [
						{
							"internalType": "uint256",
							"name": "amount",
							"type": "uint256"
						},
						{
							"internalType": "address",
							"name": "referrer",
							"type": "address"
						}
					],
					"name": "stake",
					"outputs": [],
					"stateMutability": "nonpayable",
					"type": "function"
				},
				{
					"inputs": [
						{
							"internalType": "address",
							"name": "",
							"type": "address"
						}
					],
					"name": "stakes",
					"outputs": [
						{
							"internalType": "uint256",
							"name": "amount",
							"type": "uint256"
						},
						{
							"internalType": "uint256",
							"name": "rewardAccumulated",
							"type": "uint256"
						},
						{
							"internalType": "uint256",
							"name": "lastStakedTimestamp",
							"type": "uint256"
						},
						{
							"internalType": "address",
							"name": "referrer",
							"type": "address"
						}
					],
					"stateMutability": "view",
					"type": "function"
				},
				{
					"inputs": [],
					"name": "stakingPool",
					"outputs": [
						{
							"internalType": "uint256",
							"name": "rewardRate",
							"type": "uint256"
						},
						{
							"internalType": "uint256",
							"name": "lockDuration",
							"type": "uint256"
						},
						{
							"internalType": "uint256",
							"name": "totalStaked",
							"type": "uint256"
						}
					],
					"stateMutability": "view",
					"type": "function"
				},
				{
					"inputs": [],
					"name": "symbol",
					"outputs": [
						{
							"internalType": "string",
							"name": "",
							"type": "string"
						}
					],
					"stateMutability": "view",
					"type": "function"
				},
				{
					"inputs": [],
					"name": "totalSupply",
					"outputs": [
						{
							"internalType": "uint256",
							"name": "",
							"type": "uint256"
						}
					],
					"stateMutability": "view",
					"type": "function"
				},
				{
					"inputs": [
						{
							"internalType": "address",
							"name": "to",
							"type": "address"
						},
						{
							"internalType": "uint256",
							"name": "value",
							"type": "uint256"
						}
					],
					"name": "transfer",
					"outputs": [
						{
							"internalType": "bool",
							"name": "",
							"type": "bool"
						}
					],
					"stateMutability": "nonpayable",
					"type": "function"
				},
				{
					"inputs": [
						{
							"internalType": "address",
							"name": "from",
							"type": "address"
						},
						{
							"internalType": "address",
							"name": "to",
							"type": "address"
						},
						{
							"internalType": "uint256",
							"name": "value",
							"type": "uint256"
						}
					],
					"name": "transferFrom",
					"outputs": [
						{
							"internalType": "bool",
							"name": "",
							"type": "bool"
						}
					],
					"stateMutability": "nonpayable",
					"type": "function"
				},
				{
					"inputs": [
						{
							"internalType": "address",
							"name": "newOwner",
							"type": "address"
						}
					],
					"name": "transferOwnership",
					"outputs": [],
					"stateMutability": "nonpayable",
					"type": "function"
				},
				{
					"inputs": [
						{
							"internalType": "uint256",
							"name": "proposalId",
							"type": "uint256"
						},
						{
							"internalType": "bool",
							"name": "voteFor",
							"type": "bool"
						}
					],
					"name": "vote",
					"outputs": [],
					"stateMutability": "nonpayable",
					"type": "function"
				},
				{
					"inputs": [
						{
							"internalType": "uint256",
							"name": "amount",
							"type": "uint256"
						}
					],
					"name": "withdraw",
					"outputs": [],
					"stateMutability": "nonpayable",
					"type": "function"
				}
			],
			"devdoc": {
				"errors": {
					"ERC20InsufficientAllowance(address,uint256,uint256)": [
						{
							"details": "Indicates a failure with the `spender`’s `allowance`. Used in transfers.",
							"params": {
								"allowance": "Amount of tokens a `spender` is allowed to operate with.",
								"needed": "Minimum amount required to perform a transfer.",
								"spender": "Address that may be allowed to operate on tokens without being their owner."
							}
						}
					],
					"ERC20InsufficientBalance(address,uint256,uint256)": [
						{
							"details": "Indicates an error related to the current `balance` of a `sender`. Used in transfers.",
							"params": {
								"balance": "Current balance for the interacting account.",
								"needed": "Minimum amount required to perform a transfer.",
								"sender": "Address whose tokens are being transferred."
							}
						}
					],
					"ERC20InvalidApprover(address)": [
						{
							"details": "Indicates a failure with the `approver` of a token to be approved. Used in approvals.",
							"params": {
								"approver": "Address initiating an approval operation."
							}
						}
					],
					"ERC20InvalidReceiver(address)": [
						{
							"details": "Indicates a failure with the token `receiver`. Used in transfers.",
							"params": {
								"receiver": "Address to which tokens are being transferred."
							}
						}
					],
					"ERC20InvalidSender(address)": [
						{
							"details": "Indicates a failure with the token `sender`. Used in transfers.",
							"params": {
								"sender": "Address whose tokens are being transferred."
							}
						}
					],
					"ERC20InvalidSpender(address)": [
						{
							"details": "Indicates a failure with the `spender` to be approved. Used in approvals.",
							"params": {
								"spender": "Address that may be allowed to operate on tokens without being their owner."
							}
						}
					],
					"OwnableInvalidOwner(address)": [
						{
							"details": "The owner is not a valid owner account. (eg. `address(0)`)"
						}
					],
					"OwnableUnauthorizedAccount(address)": [
						{
							"details": "The caller account is not authorized to perform an operation."
						}
					]
				},
				"events": {
					"Approval(address,address,uint256)": {
						"details": "Emitted when the allowance of a `spender` for an `owner` is set by a call to {approve}. `value` is the new allowance."
					},
					"Transfer(address,address,uint256)": {
						"details": "Emitted when `value` tokens are moved from one account (`from`) to another (`to`). Note that `value` may be zero."
					}
				},
				"kind": "dev",
				"methods": {
					"allowance(address,address)": {
						"details": "See {IERC20-allowance}."
					},
					"approve(address,uint256)": {
						"details": "See {IERC20-approve}. NOTE: If `value` is the maximum `uint256`, the allowance is not updated on `transferFrom`. This is semantically equivalent to an infinite approval. Requirements: - `spender` cannot be the zero address."
					},
					"balanceOf(address)": {
						"details": "See {IERC20-balanceOf}."
					},
					"calculateReward(uint256,uint256)": {
						"params": {
							"amount": "Amount staked",
							"duration": "Duration of the stake"
						},
						"returns": {
							"reward": "Calculated reward"
						}
					},
					"constructor": {
						"params": {
							"_initialSupply": "Initial token supply",
							"_lockDuration": "Lock duration for staking",
							"_rewardRate": "Reward rate for staking"
						}
					},
					"createProposal(string)": {
						"params": {
							"description": "Description of the proposal"
						}
					},
					"decimals()": {
						"details": "Returns the number of decimals used to get its user representation. For example, if `decimals` equals `2`, a balance of `505` tokens should be displayed to a user as `5.05` (`505 / 10 ** 2`). Tokens usually opt for a value of 18, imitating the relationship between Ether and Wei. This is the default value returned by this function, unless it's overridden. NOTE: This information is only used for _display_ purposes: it in no way affects any of the arithmetic of the contract, including {IERC20-balanceOf} and {IERC20-transfer}."
					},
					"enterLottery(uint256)": {
						"params": {
							"amount": "Amount of tokens to stake for the lottery"
						}
					},
					"getLotteryEntries()": {
						"returns": {
							"_0": "List of participants"
						}
					},
					"getLotteryPrizePool()": {
						"returns": {
							"_0": "Prize pool amount"
						}
					},
					"name()": {
						"details": "Returns the name of the token."
					},
					"owner()": {
						"details": "Returns the address of the current owner."
					},
					"renounceOwnership()": {
						"details": "Leaves the contract without owner. It will not be possible to call `onlyOwner` functions. Can only be called by the current owner. NOTE: Renouncing ownership will leave the contract without an owner, thereby disabling any functionality that is only available to the owner."
					},
					"stake(uint256,address)": {
						"params": {
							"amount": "Amount of tokens to stake",
							"referrer": "Optional referrer address"
						}
					},
					"symbol()": {
						"details": "Returns the symbol of the token, usually a shorter version of the name."
					},
					"totalSupply()": {
						"details": "See {IERC20-totalSupply}."
					},
					"transfer(address,uint256)": {
						"details": "See {IERC20-transfer}. Requirements: - `to` cannot be the zero address. - the caller must have a balance of at least `value`."
					},
					"transferFrom(address,address,uint256)": {
						"details": "See {IERC20-transferFrom}. Skips emitting an {Approval} event indicating an allowance update. This is not required by the ERC. See {xref-ERC20-_approve-address-address-uint256-bool-}[_approve]. NOTE: Does not update the allowance if the current allowance is the maximum `uint256`. Requirements: - `from` and `to` cannot be the zero address. - `from` must have a balance of at least `value`. - the caller must have allowance for ``from``'s tokens of at least `value`."
					},
					"transferOwnership(address)": {
						"details": "Transfers ownership of the contract to a new account (`newOwner`). Can only be called by the current owner."
					},
					"vote(uint256,bool)": {
						"params": {
							"proposalId": "ID of the proposal",
							"voteFor": "True to vote for, false to vote against"
						}
					},
					"withdraw(uint256)": {
						"params": {
							"amount": "Amount to withdraw"
						}
					}
				},
				"title": "FresaCoin - Ethereum version ",
				"version": 1
			},
			"evm": {
				"assembly": "    /* \"contracts/FresaCoin.sol\":209:7687  contract FresaCoin is ERC20, Ownable {... */\n  mstore(0x40, 0x80)\n    /* \"contracts/FresaCoin.sol\":1460:1466  7 days */\n  0x093a80\n    /* \"contracts/FresaCoin.sol\":1426:1466  uint256 public minStakeDuration = 7 days */\n  0x0e\n  sstore\n    /* \"contracts/FresaCoin.sol\":2228:2555  constructor(... */\n  callvalue\n  dup1\n  iszero\n  tag_1\n  jumpi\n  revert(0x00, 0x00)\ntag_1:\n  pop\n  mload(0x40)\n  sub(codesize, bytecodeSize)\n  dup1\n  bytecodeSize\n  dup4\n  codecopy\n  dup2\n  dup2\n  add\n  0x40\n  mstore\n  dup2\n  add\n  swap1\n  tag_2\n  swap2\n  swap1\n  tag_3\n  jump\t// in\ntag_2:\n    /* \"contracts/FresaCoin.sol\":2374:2384  msg.sender */\n  caller\n    /* \"@openzeppelin/contracts/token/ERC20/ERC20.sol\":1601:1714  constructor(string memory name_, string memory symbol_) {... */\n  mload(0x40)\n  dup1\n  0x40\n  add\n  0x40\n  mstore\n  dup1\n  0x09\n  dup2\n  mstore\n  0x20\n  add\n  0x4672657361436f696e0000000000000000000000000000000000000000000000\n  dup2\n  mstore\n  pop\n  mload(0x40)\n  dup1\n  0x40\n  add\n  0x40\n  mstore\n  dup1\n  0x05\n  dup2\n  mstore\n  0x20\n  add\n  0x4652455341000000000000000000000000000000000000000000000000000000\n  dup2\n  mstore\n  pop\n    /* \"@openzeppelin/contracts/token/ERC20/ERC20.sol\":1675:1680  name_ */\n  dup2\n    /* \"@openzeppelin/contracts/token/ERC20/ERC20.sol\":1667:1672  _name */\n  0x03\n    /* \"@openzeppelin/contracts/token/ERC20/ERC20.sol\":1667:1680  _name = name_ */\n  swap1\n  dup2\n  tag_8\n  swap2\n  swap1\n  tag_9\n  jump\t// in\ntag_8:\n  pop\n    /* \"@openzeppelin/contracts/token/ERC20/ERC20.sol\":1700:1707  symbol_ */\n  dup1\n    /* \"@openzeppelin/contracts/token/ERC20/ERC20.sol\":1690:1697  _symbol */\n  0x04\n    /* \"@openzeppelin/contracts/token/ERC20/ERC20.sol\":1690:1707  _symbol = symbol_ */\n  swap1\n  dup2\n  tag_10\n  swap2\n  swap1\n  tag_9\n  jump\t// in\ntag_10:\n  pop\n    /* \"@openzeppelin/contracts/token/ERC20/ERC20.sol\":1601:1714  constructor(string memory name_, string memory symbol_) {... */\n  pop\n  pop\n    /* \"@openzeppelin/contracts/access/Ownable.sol\":1297:1298  0 */\n  0x00\n    /* \"@openzeppelin/contracts/access/Ownable.sol\":1273:1299  initialOwner == address(0) */\n  0xffffffffffffffffffffffffffffffffffffffff\n  and\n    /* \"@openzeppelin/contracts/access/Ownable.sol\":1273:1285  initialOwner */\n  dup2\n    /* \"@openzeppelin/contracts/access/Ownable.sol\":1273:1299  initialOwner == address(0) */\n  0xffffffffffffffffffffffffffffffffffffffff\n  and\n  sub\n    /* \"@openzeppelin/contracts/access/Ownable.sol\":1269:1364  if (initialOwner == address(0)) {... */\n  tag_12\n  jumpi\n    /* \"@openzeppelin/contracts/access/Ownable.sol\":1350:1351  0 */\n  0x00\n    /* \"@openzeppelin/contracts/access/Ownable.sol\":1322:1353  OwnableInvalidOwner(address(0)) */\n  mload(0x40)\n  0x1e4fbdf700000000000000000000000000000000000000000000000000000000\n  dup2\n  mstore\n  0x04\n  add\n  tag_13\n  swap2\n  swap1\n  tag_14\n  jump\t// in\ntag_13:\n  mload(0x40)\n  dup1\n  swap2\n  sub\n  swap1\n  revert\n    /* \"@openzeppelin/contracts/access/Ownable.sol\":1269:1364  if (initialOwner == address(0)) {... */\ntag_12:\n    /* \"@openzeppelin/contracts/access/Ownable.sol\":1373:1405  _transferOwnership(initialOwner) */\n  tag_15\n    /* \"@openzeppelin/contracts/access/Ownable.sol\":1392:1404  initialOwner */\n  dup2\n    /* \"@openzeppelin/contracts/access/Ownable.sol\":1373:1391  _transferOwnership */\n  shl(0x20, tag_16)\n    /* \"@openzeppelin/contracts/access/Ownable.sol\":1373:1405  _transferOwnership(initialOwner) */\n  0x20\n  shr\n  jump\t// in\ntag_15:\n    /* \"@openzeppelin/contracts/access/Ownable.sol\":1225:1412  constructor(address initialOwner) {... */\n  pop\n    /* \"contracts/FresaCoin.sol\":2396:2429  _mint(msg.sender, _initialSupply) */\n  tag_18\n    /* \"contracts/FresaCoin.sol\":2402:2412  msg.sender */\n  caller\n    /* \"contracts/FresaCoin.sol\":2414:2428  _initialSupply */\n  dup5\n    /* \"contracts/FresaCoin.sol\":2396:2401  _mint */\n  shl(0x20, tag_19)\n    /* \"contracts/FresaCoin.sol\":2396:2429  _mint(msg.sender, _initialSupply) */\n  0x20\n  shr\n  jump\t// in\ntag_18:\n    /* \"contracts/FresaCoin.sol\":2487:2498  _rewardRate */\n  dup2\n    /* \"contracts/FresaCoin.sol\":2462:2473  stakingPool */\n  0x0a\n    /* \"contracts/FresaCoin.sol\":2462:2484  stakingPool.rewardRate */\n  0x00\n  add\n    /* \"contracts/FresaCoin.sol\":2462:2498  stakingPool.rewardRate = _rewardRate */\n  dup2\n  swap1\n  sstore\n  pop\n    /* \"contracts/FresaCoin.sol\":2535:2548  _lockDuration */\n  dup1\n    /* \"contracts/FresaCoin.sol\":2508:2519  stakingPool */\n  0x0a\n    /* \"contracts/FresaCoin.sol\":2508:2532  stakingPool.lockDuration */\n  0x01\n  add\n    /* \"contracts/FresaCoin.sol\":2508:2548  stakingPool.lockDuration = _lockDuration */\n  dup2\n  swap1\n  sstore\n  pop\n    /* \"contracts/FresaCoin.sol\":2228:2555  constructor(... */\n  pop\n  pop\n  pop\n    /* \"contracts/FresaCoin.sol\":209:7687  contract FresaCoin is ERC20, Ownable {... */\n  jump(tag_20)\n    /* \"@openzeppelin/contracts/access/Ownable.sol\":2912:3099  function _transferOwnership(address newOwner) internal virtual {... */\ntag_16:\n    /* \"@openzeppelin/contracts/access/Ownable.sol\":2985:3001  address oldOwner */\n  0x00\n    /* \"@openzeppelin/contracts/access/Ownable.sol\":3004:3010  _owner */\n  0x05\n  0x00\n  swap1\n  sload\n  swap1\n  0x0100\n  exp\n  swap1\n  div\n  0xffffffffffffffffffffffffffffffffffffffff\n  and\n    /* \"@openzeppelin/contracts/access/Ownable.sol\":2985:3010  address oldOwner = _owner */\n  swap1\n  pop\n    /* \"@openzeppelin/contracts/access/Ownable.sol\":3029:3037  newOwner */\n  dup2\n    /* \"@openzeppelin/contracts/access/Ownable.sol\":3020:3026  _owner */\n  0x05\n  0x00\n    /* \"@openzeppelin/contracts/access/Ownable.sol\":3020:3037  _owner = newOwner */\n  0x0100\n  exp\n  dup2\n  sload\n  dup2\n  0xffffffffffffffffffffffffffffffffffffffff\n  mul\n  not\n  and\n  swap1\n  dup4\n  0xffffffffffffffffffffffffffffffffffffffff\n  and\n  mul\n  or\n  swap1\n  sstore\n  pop\n    /* \"@openzeppelin/contracts/access/Ownable.sol\":3083:3091  newOwner */\n  dup2\n    /* \"@openzeppelin/contracts/access/Ownable.sol\":3052:3092  OwnershipTransferred(oldOwner, newOwner) */\n  0xffffffffffffffffffffffffffffffffffffffff\n  and\n    /* \"@openzeppelin/contracts/access/Ownable.sol\":3073:3081  oldOwner */\n  dup2\n    /* \"@openzeppelin/contracts/access/Ownable.sol\":3052:3092  OwnershipTransferred(oldOwner, newOwner) */\n  0xffffffffffffffffffffffffffffffffffffffff\n  and\n  0x8be0079c531659141344cd1fd0a4f28419497f9722a3daafe3b4186f6b6457e0\n  mload(0x40)\n  mload(0x40)\n  dup1\n  swap2\n  sub\n  swap1\n  log3\n    /* \"@openzeppelin/contracts/access/Ownable.sol\":2975:3099  {... */\n  pop\n    /* \"@openzeppelin/contracts/access/Ownable.sol\":2912:3099  function _transferOwnership(address newOwner) internal virtual {... */\n  pop\n  jump\t// out\n    /* \"@openzeppelin/contracts/token/ERC20/ERC20.sol\":7458:7666  function _mint(address account, uint256 value) internal {... */\ntag_19:\n    /* \"@openzeppelin/contracts/token/ERC20/ERC20.sol\":7547:7548  0 */\n  0x00\n    /* \"@openzeppelin/contracts/token/ERC20/ERC20.sol\":7528:7549  account == address(0) */\n  0xffffffffffffffffffffffffffffffffffffffff\n  and\n    /* \"@openzeppelin/contracts/token/ERC20/ERC20.sol\":7528:7535  account */\n  dup3\n    /* \"@openzeppelin/contracts/token/ERC20/ERC20.sol\":7528:7549  account == address(0) */\n  0xffffffffffffffffffffffffffffffffffffffff\n  and\n  sub\n    /* \"@openzeppelin/contracts/token/ERC20/ERC20.sol\":7524:7615  if (account == address(0)) {... */\n  tag_23\n  jumpi\n    /* \"@openzeppelin/contracts/token/ERC20/ERC20.sol\":7601:7602  0 */\n  0x00\n    /* \"@openzeppelin/contracts/token/ERC20/ERC20.sol\":7572:7604  ERC20InvalidReceiver(address(0)) */\n  mload(0x40)\n  0xec442f0500000000000000000000000000000000000000000000000000000000\n  dup2\n  mstore\n  0x04\n  add\n  tag_24\n  swap2\n  swap1\n  tag_14\n  jump\t// in\ntag_24:\n  mload(0x40)\n  dup1\n  swap2\n  sub\n  swap1\n  revert\n    /* \"@openzeppelin/contracts/token/ERC20/ERC20.sol\":7524:7615  if (account == address(0)) {... */\ntag_23:\n    /* \"@openzeppelin/contracts/token/ERC20/ERC20.sol\":7624:7659  _update(address(0), account, value) */\n  tag_25\n    /* \"@openzeppelin/contracts/token/ERC20/ERC20.sol\":7640:7641  0 */\n  0x00\n    /* \"@openzeppelin/contracts/token/ERC20/ERC20.sol\":7644:7651  account */\n  dup4\n    /* \"@openzeppelin/contracts/token/ERC20/ERC20.sol\":7653:7658  value */\n  dup4\n    /* \"@openzeppelin/contracts/token/ERC20/ERC20.sol\":7624:7631  _update */\n  shl(0x20, tag_26)\n    /* \"@openzeppelin/contracts/token/ERC20/ERC20.sol\":7624:7659  _update(address(0), account, value) */\n  0x20\n  shr\n  jump\t// in\ntag_25:\n    /* \"@openzeppelin/contracts/token/ERC20/ERC20.sol\":7458:7666  function _mint(address account, uint256 value) internal {... */\n  pop\n  pop\n  jump\t// out\n    /* \"@openzeppelin/contracts/token/ERC20/ERC20.sol\":6008:7115  function _update(address from, address to, uint256 value) internal virtual {... */\ntag_26:\n    /* \"@openzeppelin/contracts/token/ERC20/ERC20.sol\":6113:6114  0 */\n  0x00\n    /* \"@openzeppelin/contracts/token/ERC20/ERC20.sol\":6097:6115  from == address(0) */\n  0xffffffffffffffffffffffffffffffffffffffff\n  and\n    /* \"@openzeppelin/contracts/token/ERC20/ERC20.sol\":6097:6101  from */\n  dup4\n    /* \"@openzeppelin/contracts/token/ERC20/ERC20.sol\":6097:6115  from == address(0) */\n  0xffffffffffffffffffffffffffffffffffffffff\n  and\n  sub\n    /* \"@openzeppelin/contracts/token/ERC20/ERC20.sol\":6093:6633  if (from == address(0)) {... */\n  tag_28\n  jumpi\n    /* \"@openzeppelin/contracts/token/ERC20/ERC20.sol\":6249:6254  value */\n  dup1\n    /* \"@openzeppelin/contracts/token/ERC20/ERC20.sol\":6233:6245  _totalSupply */\n  0x02\n  0x00\n    /* \"@openzeppelin/contracts/token/ERC20/ERC20.sol\":6233:6254  _totalSupply += value */\n  dup3\n  dup3\n  sload\n  tag_29\n  swap2\n  swap1\n  tag_30\n  jump\t// in\ntag_29:\n  swap3\n  pop\n  pop\n  dup2\n  swap1\n  sstore\n  pop\n    /* \"@openzeppelin/contracts/token/ERC20/ERC20.sol\":6093:6633  if (from == address(0)) {... */\n  jump(tag_31)\ntag_28:\n    /* \"@openzeppelin/contracts/token/ERC20/ERC20.sol\":6285:6304  uint256 fromBalance */\n  0x00\n    /* \"@openzeppelin/contracts/token/ERC20/ERC20.sol\":6307:6316  _balances */\n  0x00\n    /* \"@openzeppelin/contracts/token/ERC20/ERC20.sol\":6307:6322  _balances[from] */\n  0x00\n    /* \"@openzeppelin/contracts/token/ERC20/ERC20.sol\":6317:6321  from */\n  dup6\n    /* \"@openzeppelin/contracts/token/ERC20/ERC20.sol\":6307:6322  _balances[from] */\n  0xffffffffffffffffffffffffffffffffffffffff\n  and\n  0xffffffffffffffffffffffffffffffffffffffff\n  and\n  dup2\n  mstore\n  0x20\n  add\n  swap1\n  dup2\n  mstore\n  0x20\n  add\n  0x00\n  keccak256\n  sload\n    /* \"@openzeppelin/contracts/token/ERC20/ERC20.sol\":6285:6322  uint256 fromBalance = _balances[from] */\n  swap1\n  pop\n    /* \"@openzeppelin/contracts/token/ERC20/ERC20.sol\":6354:6359  value */\n  dup2\n    /* \"@openzeppelin/contracts/token/ERC20/ERC20.sol\":6340:6351  fromBalance */\n  dup2\n    /* \"@openzeppelin/contracts/token/ERC20/ERC20.sol\":6340:6359  fromBalance < value */\n  lt\n    /* \"@openzeppelin/contracts/token/ERC20/ERC20.sol\":6336:6451  if (fromBalance < value) {... */\n  iszero\n  tag_32\n  jumpi\n    /* \"@openzeppelin/contracts/token/ERC20/ERC20.sol\":6411:6415  from */\n  dup4\n    /* \"@openzeppelin/contracts/token/ERC20/ERC20.sol\":6417:6428  fromBalance */\n  dup2\n    /* \"@openzeppelin/contracts/token/ERC20/ERC20.sol\":6430:6435  value */\n  dup4\n    /* \"@openzeppelin/contracts/token/ERC20/ERC20.sol\":6386:6436  ERC20InsufficientBalance(from, fromBalance, value) */\n  mload(0x40)\n  0xe450d38c00000000000000000000000000000000000000000000000000000000\n  dup2\n  mstore\n  0x04\n  add\n  tag_33\n  swap4\n  swap3\n  swap2\n  swap1\n  tag_34\n  jump\t// in\ntag_33:\n  mload(0x40)\n  dup1\n  swap2\n  sub\n  swap1\n  revert\n    /* \"@openzeppelin/contracts/token/ERC20/ERC20.sol\":6336:6451  if (fromBalance < value) {... */\ntag_32:\n    /* \"@openzeppelin/contracts/token/ERC20/ERC20.sol\":6603:6608  value */\n  dup2\n    /* \"@openzeppelin/contracts/token/ERC20/ERC20.sol\":6589:6600  fromBalance */\n  dup2\n    /* \"@openzeppelin/contracts/token/ERC20/ERC20.sol\":6589:6608  fromBalance - value */\n  sub\n    /* \"@openzeppelin/contracts/token/ERC20/ERC20.sol\":6571:6580  _balances */\n  0x00\n    /* \"@openzeppelin/contracts/token/ERC20/ERC20.sol\":6571:6586  _balances[from] */\n  0x00\n    /* \"@openzeppelin/contracts/token/ERC20/ERC20.sol\":6581:6585  from */\n  dup7\n    /* \"@openzeppelin/contracts/token/ERC20/ERC20.sol\":6571:6586  _balances[from] */\n  0xffffffffffffffffffffffffffffffffffffffff\n  and\n  0xffffffffffffffffffffffffffffffffffffffff\n  and\n  dup2\n  mstore\n  0x20\n  add\n  swap1\n  dup2\n  mstore\n  0x20\n  add\n  0x00\n  keccak256\n    /* \"@openzeppelin/contracts/token/ERC20/ERC20.sol\":6571:6608  _balances[from] = fromBalance - value */\n  dup2\n  swap1\n  sstore\n  pop\n    /* \"@openzeppelin/contracts/token/ERC20/ERC20.sol\":6271:6633  {... */\n  pop\n    /* \"@openzeppelin/contracts/token/ERC20/ERC20.sol\":6093:6633  if (from == address(0)) {... */\ntag_31:\n    /* \"@openzeppelin/contracts/token/ERC20/ERC20.sol\":6661:6662  0 */\n  0x00\n    /* \"@openzeppelin/contracts/token/ERC20/ERC20.sol\":6647:6663  to == address(0) */\n  0xffffffffffffffffffffffffffffffffffffffff\n  and\n    /* \"@openzeppelin/contracts/token/ERC20/ERC20.sol\":6647:6649  to */\n  dup3\n    /* \"@openzeppelin/contracts/token/ERC20/ERC20.sol\":6647:6663  to == address(0) */\n  0xffffffffffffffffffffffffffffffffffffffff\n  and\n  sub\n    /* \"@openzeppelin/contracts/token/ERC20/ERC20.sol\":6643:7068  if (to == address(0)) {... */\n  tag_35\n  jumpi\n    /* \"@openzeppelin/contracts/token/ERC20/ERC20.sol\":6826:6831  value */\n  dup1\n    /* \"@openzeppelin/contracts/token/ERC20/ERC20.sol\":6810:6822  _totalSupply */\n  0x02\n  0x00\n    /* \"@openzeppelin/contracts/token/ERC20/ERC20.sol\":6810:6831  _totalSupply -= value */\n  dup3\n  dup3\n  sload\n  sub\n  swap3\n  pop\n  pop\n  dup2\n  swap1\n  sstore\n  pop\n    /* \"@openzeppelin/contracts/token/ERC20/ERC20.sol\":6643:7068  if (to == address(0)) {... */\n  jump(tag_36)\ntag_35:\n    /* \"@openzeppelin/contracts/token/ERC20/ERC20.sol\":7038:7043  value */\n  dup1\n    /* \"@openzeppelin/contracts/token/ERC20/ERC20.sol\":7021:7030  _balances */\n  0x00\n    /* \"@openzeppelin/contracts/token/ERC20/ERC20.sol\":7021:7034  _balances[to] */\n  0x00\n    /* \"@openzeppelin/contracts/token/ERC20/ERC20.sol\":7031:7033  to */\n  dup5\n    /* \"@openzeppelin/contracts/token/ERC20/ERC20.sol\":7021:7034  _balances[to] */\n  0xffffffffffffffffffffffffffffffffffffffff\n  and\n  0xffffffffffffffffffffffffffffffffffffffff\n  and\n  dup2\n  mstore\n  0x20\n  add\n  swap1\n  dup2\n  mstore\n  0x20\n  add\n  0x00\n  keccak256\n  0x00\n    /* \"@openzeppelin/contracts/token/ERC20/ERC20.sol\":7021:7043  _balances[to] += value */\n  dup3\n  dup3\n  sload\n  add\n  swap3\n  pop\n  pop\n  dup2\n  swap1\n  sstore\n  pop\n    /* \"@openzeppelin/contracts/token/ERC20/ERC20.sol\":6643:7068  if (to == address(0)) {... */\ntag_36:\n    /* \"@openzeppelin/contracts/token/ERC20/ERC20.sol\":7098:7100  to */\n  dup2\n    /* \"@openzeppelin/contracts/token/ERC20/ERC20.sol\":7083:7108  Transfer(from, to, value) */\n  0xffffffffffffffffffffffffffffffffffffffff\n  and\n    /* \"@openzeppelin/contracts/token/ERC20/ERC20.sol\":7092:7096  from */\n  dup4\n    /* \"@openzeppelin/contracts/token/ERC20/ERC20.sol\":7083:7108  Transfer(from, to, value) */\n  0xffffffffffffffffffffffffffffffffffffffff\n  and\n  0xddf252ad1be2c89b69c2b068fc378daa952ba7f163c4a11628f55a4df523b3ef\n    /* \"@openzeppelin/contracts/token/ERC20/ERC20.sol\":7102:7107  value */\n  dup4\n    /* \"@openzeppelin/contracts/token/ERC20/ERC20.sol\":7083:7108  Transfer(from, to, value) */\n  mload(0x40)\n  tag_37\n  swap2\n  swap1\n  tag_38\n  jump\t// in\ntag_37:\n  mload(0x40)\n  dup1\n  swap2\n  sub\n  swap1\n  log3\n    /* \"@openzeppelin/contracts/token/ERC20/ERC20.sol\":6008:7115  function _update(address from, address to, uint256 value) internal virtual {... */\n  pop\n  pop\n  pop\n  jump\t// out\n    /* \"#utility.yul\":88:205   */\ntag_40:\n    /* \"#utility.yul\":197:198   */\n  0x00\n    /* \"#utility.yul\":194:195   */\n  0x00\n    /* \"#utility.yul\":187:199   */\n  revert\n    /* \"#utility.yul\":334:411   */\ntag_42:\n    /* \"#utility.yul\":371:378   */\n  0x00\n    /* \"#utility.yul\":400:405   */\n  dup2\n    /* \"#utility.yul\":389:405   */\n  swap1\n  pop\n    /* \"#utility.yul\":334:411   */\n  swap2\n  swap1\n  pop\n  jump\t// out\n    /* \"#utility.yul\":417:539   */\ntag_43:\n    /* \"#utility.yul\":490:514   */\n  tag_75\n    /* \"#utility.yul\":508:513   */\n  dup2\n    /* \"#utility.yul\":490:514   */\n  tag_42\n  jump\t// in\ntag_75:\n    /* \"#utility.yul\":483:488   */\n  dup2\n    /* \"#utility.yul\":480:515   */\n  eq\n    /* \"#utility.yul\":470:533   */\n  tag_76\n  jumpi\n    /* \"#utility.yul\":529:530   */\n  0x00\n    /* \"#utility.yul\":526:527   */\n  0x00\n    /* \"#utility.yul\":519:531   */\n  revert\n    /* \"#utility.yul\":470:533   */\ntag_76:\n    /* \"#utility.yul\":417:539   */\n  pop\n  jump\t// out\n    /* \"#utility.yul\":545:688   */\ntag_44:\n    /* \"#utility.yul\":602:607   */\n  0x00\n    /* \"#utility.yul\":633:639   */\n  dup2\n    /* \"#utility.yul\":627:640   */\n  mload\n    /* \"#utility.yul\":618:640   */\n  swap1\n  pop\n    /* \"#utility.yul\":649:682   */\n  tag_78\n    /* \"#utility.yul\":676:681   */\n  dup2\n    /* \"#utility.yul\":649:682   */\n  tag_43\n  jump\t// in\ntag_78:\n    /* \"#utility.yul\":545:688   */\n  swap3\n  swap2\n  pop\n  pop\n  jump\t// out\n    /* \"#utility.yul\":694:1357   */\ntag_3:\n    /* \"#utility.yul\":782:788   */\n  0x00\n    /* \"#utility.yul\":790:796   */\n  0x00\n    /* \"#utility.yul\":798:804   */\n  0x00\n    /* \"#utility.yul\":847:849   */\n  0x60\n    /* \"#utility.yul\":835:844   */\n  dup5\n    /* \"#utility.yul\":826:833   */\n  dup7\n    /* \"#utility.yul\":822:845   */\n  sub\n    /* \"#utility.yul\":818:850   */\n  slt\n    /* \"#utility.yul\":815:934   */\n  iszero\n  tag_80\n  jumpi\n    /* \"#utility.yul\":853:932   */\n  tag_81\n  tag_40\n  jump\t// in\ntag_81:\n    /* \"#utility.yul\":815:934   */\ntag_80:\n    /* \"#utility.yul\":973:974   */\n  0x00\n    /* \"#utility.yul\":998:1062   */\n  tag_82\n    /* \"#utility.yul\":1054:1061   */\n  dup7\n    /* \"#utility.yul\":1045:1051   */\n  dup3\n    /* \"#utility.yul\":1034:1043   */\n  dup8\n    /* \"#utility.yul\":1030:1052   */\n  add\n    /* \"#utility.yul\":998:1062   */\n  tag_44\n  jump\t// in\ntag_82:\n    /* \"#utility.yul\":988:1062   */\n  swap4\n  pop\n    /* \"#utility.yul\":944:1072   */\n  pop\n    /* \"#utility.yul\":1111:1113   */\n  0x20\n    /* \"#utility.yul\":1137:1201   */\n  tag_83\n    /* \"#utility.yul\":1193:1200   */\n  dup7\n    /* \"#utility.yul\":1184:1190   */\n  dup3\n    /* \"#utility.yul\":1173:1182   */\n  dup8\n    /* \"#utility.yul\":1169:1191   */\n  add\n    /* \"#utility.yul\":1137:1201   */\n  tag_44\n  jump\t// in\ntag_83:\n    /* \"#utility.yul\":1127:1201   */\n  swap3\n  pop\n    /* \"#utility.yul\":1082:1211   */\n  pop\n    /* \"#utility.yul\":1250:1252   */\n  0x40\n    /* \"#utility.yul\":1276:1340   */\n  tag_84\n    /* \"#utility.yul\":1332:1339   */\n  dup7\n    /* \"#utility.yul\":1323:1329   */\n  dup3\n    /* \"#utility.yul\":1312:1321   */\n  dup8\n    /* \"#utility.yul\":1308:1330   */\n  add\n    /* \"#utility.yul\":1276:1340   */\n  tag_44\n  jump\t// in\ntag_84:\n    /* \"#utility.yul\":1266:1340   */\n  swap2\n  pop\n    /* \"#utility.yul\":1221:1350   */\n  pop\n    /* \"#utility.yul\":694:1357   */\n  swap3\n  pop\n  swap3\n  pop\n  swap3\n  jump\t// out\n    /* \"#utility.yul\":1363:1462   */\ntag_45:\n    /* \"#utility.yul\":1415:1421   */\n  0x00\n    /* \"#utility.yul\":1449:1454   */\n  dup2\n    /* \"#utility.yul\":1443:1455   */\n  mload\n    /* \"#utility.yul\":1433:1455   */\n  swap1\n  pop\n    /* \"#utility.yul\":1363:1462   */\n  swap2\n  swap1\n  pop\n  jump\t// out\n    /* \"#utility.yul\":1468:1648   */\ntag_46:\n    /* \"#utility.yul\":1516:1593   */\n  0x4e487b7100000000000000000000000000000000000000000000000000000000\n    /* \"#utility.yul\":1513:1514   */\n  0x00\n    /* \"#utility.yul\":1506:1594   */\n  mstore\n    /* \"#utility.yul\":1613:1617   */\n  0x41\n    /* \"#utility.yul\":1610:1611   */\n  0x04\n    /* \"#utility.yul\":1603:1618   */\n  mstore\n    /* \"#utility.yul\":1637:1641   */\n  0x24\n    /* \"#utility.yul\":1634:1635   */\n  0x00\n    /* \"#utility.yul\":1627:1642   */\n  revert\n    /* \"#utility.yul\":1654:1834   */\ntag_47:\n    /* \"#utility.yul\":1702:1779   */\n  0x4e487b7100000000000000000000000000000000000000000000000000000000\n    /* \"#utility.yul\":1699:1700   */\n  0x00\n    /* \"#utility.yul\":1692:1780   */\n  mstore\n    /* \"#utility.yul\":1799:1803   */\n  0x22\n    /* \"#utility.yul\":1796:1797   */\n  0x04\n    /* \"#utility.yul\":1789:1804   */\n  mstore\n    /* \"#utility.yul\":1823:1827   */\n  0x24\n    /* \"#utility.yul\":1820:1821   */\n  0x00\n    /* \"#utility.yul\":1813:1828   */\n  revert\n    /* \"#utility.yul\":1840:2160   */\ntag_48:\n    /* \"#utility.yul\":1884:1890   */\n  0x00\n    /* \"#utility.yul\":1921:1922   */\n  0x02\n    /* \"#utility.yul\":1915:1919   */\n  dup3\n    /* \"#utility.yul\":1911:1923   */\n  div\n    /* \"#utility.yul\":1901:1923   */\n  swap1\n  pop\n    /* \"#utility.yul\":1968:1969   */\n  0x01\n    /* \"#utility.yul\":1962:1966   */\n  dup3\n    /* \"#utility.yul\":1958:1970   */\n  and\n    /* \"#utility.yul\":1989:2007   */\n  dup1\n    /* \"#utility.yul\":1979:2060   */\n  tag_89\n  jumpi\n    /* \"#utility.yul\":2045:2049   */\n  0x7f\n    /* \"#utility.yul\":2037:2043   */\n  dup3\n    /* \"#utility.yul\":2033:2050   */\n  and\n    /* \"#utility.yul\":2023:2050   */\n  swap2\n  pop\n    /* \"#utility.yul\":1979:2060   */\ntag_89:\n    /* \"#utility.yul\":2107:2109   */\n  0x20\n    /* \"#utility.yul\":2099:2105   */\n  dup3\n    /* \"#utility.yul\":2096:2110   */\n  lt\n    /* \"#utility.yul\":2076:2094   */\n  dup2\n    /* \"#utility.yul\":2073:2111   */\n  sub\n    /* \"#utility.yul\":2070:2154   */\n  tag_90\n  jumpi\n    /* \"#utility.yul\":2126:2144   */\n  tag_91\n  tag_47\n  jump\t// in\ntag_91:\n    /* \"#utility.yul\":2070:2154   */\ntag_90:\n    /* \"#utility.yul\":1891:2160   */\n  pop\n    /* \"#utility.yul\":1840:2160   */\n  swap2\n  swap1\n  pop\n  jump\t// out\n    /* \"#utility.yul\":2166:2307   */\ntag_49:\n    /* \"#utility.yul\":2215:2219   */\n  0x00\n    /* \"#utility.yul\":2238:2241   */\n  dup2\n    /* \"#utility.yul\":2230:2241   */\n  swap1\n  pop\n    /* \"#utility.yul\":2261:2264   */\n  dup2\n    /* \"#utility.yul\":2258:2259   */\n  0x00\n    /* \"#utility.yul\":2251:2265   */\n  mstore\n    /* \"#utility.yul\":2295:2299   */\n  0x20\n    /* \"#utility.yul\":2292:2293   */\n  0x00\n    /* \"#utility.yul\":2282:2300   */\n  keccak256\n    /* \"#utility.yul\":2274:2300   */\n  swap1\n  pop\n    /* \"#utility.yul\":2166:2307   */\n  swap2\n  swap1\n  pop\n  jump\t// out\n    /* \"#utility.yul\":2313:2406   */\ntag_50:\n    /* \"#utility.yul\":2350:2356   */\n  0x00\n    /* \"#utility.yul\":2397:2399   */\n  0x20\n    /* \"#utility.yul\":2392:2394   */\n  0x1f\n    /* \"#utility.yul\":2385:2390   */\n  dup4\n    /* \"#utility.yul\":2381:2395   */\n  add\n    /* \"#utility.yul\":2377:2400   */\n  div\n    /* \"#utility.yul\":2367:2400   */\n  swap1\n  pop\n    /* \"#utility.yul\":2313:2406   */\n  swap2\n  swap1\n  pop\n  jump\t// out\n    /* \"#utility.yul\":2412:2519   */\ntag_51:\n    /* \"#utility.yul\":2456:2464   */\n  0x00\n    /* \"#utility.yul\":2506:2511   */\n  dup3\n    /* \"#utility.yul\":2500:2504   */\n  dup3\n    /* \"#utility.yul\":2496:2512   */\n  shl\n    /* \"#utility.yul\":2475:2512   */\n  swap1\n  pop\n    /* \"#utility.yul\":2412:2519   */\n  swap3\n  swap2\n  pop\n  pop\n  jump\t// out\n    /* \"#utility.yul\":2525:2918   */\ntag_52:\n    /* \"#utility.yul\":2594:2600   */\n  0x00\n    /* \"#utility.yul\":2644:2645   */\n  0x08\n    /* \"#utility.yul\":2632:2642   */\n  dup4\n    /* \"#utility.yul\":2628:2646   */\n  mul\n    /* \"#utility.yul\":2667:2764   */\n  tag_96\n    /* \"#utility.yul\":2697:2763   */\n  0xffffffffffffffffffffffffffffffffffffffffffffffffffffffffffffffff\n    /* \"#utility.yul\":2686:2695   */\n  dup3\n    /* \"#utility.yul\":2667:2764   */\n  tag_51\n  jump\t// in\ntag_96:\n    /* \"#utility.yul\":2785:2824   */\n  tag_97\n    /* \"#utility.yul\":2815:2823   */\n  dup7\n    /* \"#utility.yul\":2804:2813   */\n  dup4\n    /* \"#utility.yul\":2785:2824   */\n  tag_51\n  jump\t// in\ntag_97:\n    /* \"#utility.yul\":2773:2824   */\n  swap6\n  pop\n    /* \"#utility.yul\":2857:2861   */\n  dup1\n    /* \"#utility.yul\":2853:2862   */\n  not\n    /* \"#utility.yul\":2846:2851   */\n  dup5\n    /* \"#utility.yul\":2842:2863   */\n  and\n    /* \"#utility.yul\":2833:2863   */\n  swap4\n  pop\n    /* \"#utility.yul\":2906:2910   */\n  dup1\n    /* \"#utility.yul\":2896:2904   */\n  dup7\n    /* \"#utility.yul\":2892:2911   */\n  and\n    /* \"#utility.yul\":2885:2890   */\n  dup5\n    /* \"#utility.yul\":2882:2912   */\n  or\n    /* \"#utility.yul\":2872:2912   */\n  swap3\n  pop\n    /* \"#utility.yul\":2601:2918   */\n  pop\n  pop\n    /* \"#utility.yul\":2525:2918   */\n  swap4\n  swap3\n  pop\n  pop\n  pop\n  jump\t// out\n    /* \"#utility.yul\":2924:2984   */\ntag_53:\n    /* \"#utility.yul\":2952:2955   */\n  0x00\n    /* \"#utility.yul\":2973:2978   */\n  dup2\n    /* \"#utility.yul\":2966:2978   */\n  swap1\n  pop\n    /* \"#utility.yul\":2924:2984   */\n  swap2\n  swap1\n  pop\n  jump\t// out\n    /* \"#utility.yul\":2990:3132   */\ntag_54:\n    /* \"#utility.yul\":3040:3049   */\n  0x00\n    /* \"#utility.yul\":3073:3126   */\n  tag_100\n    /* \"#utility.yul\":3091:3125   */\n  tag_101\n    /* \"#utility.yul\":3100:3124   */\n  tag_102\n    /* \"#utility.yul\":3118:3123   */\n  dup5\n    /* \"#utility.yul\":3100:3124   */\n  tag_42\n  jump\t// in\ntag_102:\n    /* \"#utility.yul\":3091:3125   */\n  tag_53\n  jump\t// in\ntag_101:\n    /* \"#utility.yul\":3073:3126   */\n  tag_42\n  jump\t// in\ntag_100:\n    /* \"#utility.yul\":3060:3126   */\n  swap1\n  pop\n    /* \"#utility.yul\":2990:3132   */\n  swap2\n  swap1\n  pop\n  jump\t// out\n    /* \"#utility.yul\":3138:3213   */\ntag_55:\n    /* \"#utility.yul\":3181:3184   */\n  0x00\n    /* \"#utility.yul\":3202:3207   */\n  dup2\n    /* \"#utility.yul\":3195:3207   */\n  swap1\n  pop\n    /* \"#utility.yul\":3138:3213   */\n  swap2\n  swap1\n  pop\n  jump\t// out\n    /* \"#utility.yul\":3219:3488   */\ntag_56:\n    /* \"#utility.yul\":3329:3368   */\n  tag_105\n    /* \"#utility.yul\":3360:3367   */\n  dup4\n    /* \"#utility.yul\":3329:3368   */\n  tag_54\n  jump\t// in\ntag_105:\n    /* \"#utility.yul\":3390:3481   */\n  tag_106\n    /* \"#utility.yul\":3439:3480   */\n  tag_107\n    /* \"#utility.yul\":3463:3479   */\n  dup3\n    /* \"#utility.yul\":3439:3480   */\n  tag_55\n  jump\t// in\ntag_107:\n    /* \"#utility.yul\":3431:3437   */\n  dup5\n    /* \"#utility.yul\":3424:3428   */\n  dup5\n    /* \"#utility.yul\":3418:3429   */\n  sload\n    /* \"#utility.yul\":3390:3481   */\n  tag_52\n  jump\t// in\ntag_106:\n    /* \"#utility.yul\":3384:3388   */\n  dup3\n    /* \"#utility.yul\":3377:3482   */\n  sstore\n    /* \"#utility.yul\":3295:3488   */\n  pop\n    /* \"#utility.yul\":3219:3488   */\n  pop\n  pop\n  pop\n  jump\t// out\n    /* \"#utility.yul\":3494:3567   */\ntag_57:\n    /* \"#utility.yul\":3539:3542   */\n  0x00\n    /* \"#utility.yul\":3560:3561   */\n  0x00\n    /* \"#utility.yul\":3553:3561   */\n  swap1\n  pop\n    /* \"#utility.yul\":3494:3567   */\n  swap1\n  jump\t// out\n    /* \"#utility.yul\":3573:3762   */\ntag_58:\n    /* \"#utility.yul\":3650:3682   */\n  tag_110\n  tag_57\n  jump\t// in\ntag_110:\n    /* \"#utility.yul\":3691:3756   */\n  tag_111\n    /* \"#utility.yul\":3749:3755   */\n  dup2\n    /* \"#utility.yul\":3741:3747   */\n  dup5\n    /* \"#utility.yul\":3735:3739   */\n  dup5\n    /* \"#utility.yul\":3691:3756   */\n  tag_56\n  jump\t// in\ntag_111:\n    /* \"#utility.yul\":3626:3762   */\n  pop\n    /* \"#utility.yul\":3573:3762   */\n  pop\n  pop\n  jump\t// out\n    /* \"#utility.yul\":3768:3954   */\ntag_59:\n    /* \"#utility.yul\":3828:3948   */\ntag_113:\n    /* \"#utility.yul\":3845:3848   */\n  dup2\n    /* \"#utility.yul\":3838:3843   */\n  dup2\n    /* \"#utility.yul\":3835:3849   */\n  lt\n    /* \"#utility.yul\":3828:3948   */\n  iszero\n  tag_115\n  jumpi\n    /* \"#utility.yul\":3899:3938   */\n  tag_116\n    /* \"#utility.yul\":3936:3937   */\n  0x00\n    /* \"#utility.yul\":3929:3934   */\n  dup3\n    /* \"#utility.yul\":3899:3938   */\n  tag_58\n  jump\t// in\ntag_116:\n    /* \"#utility.yul\":3872:3873   */\n  0x01\n    /* \"#utility.yul\":3865:3870   */\n  dup2\n    /* \"#utility.yul\":3861:3874   */\n  add\n    /* \"#utility.yul\":3852:3874   */\n  swap1\n  pop\n    /* \"#utility.yul\":3828:3948   */\n  jump(tag_113)\ntag_115:\n    /* \"#utility.yul\":3768:3954   */\n  pop\n  pop\n  jump\t// out\n    /* \"#utility.yul\":3960:4503   */\ntag_60:\n    /* \"#utility.yul\":4061:4063   */\n  0x1f\n    /* \"#utility.yul\":4056:4059   */\n  dup3\n    /* \"#utility.yul\":4053:4064   */\n  gt\n    /* \"#utility.yul\":4050:4496   */\n  iszero\n  tag_118\n  jumpi\n    /* \"#utility.yul\":4095:4133   */\n  tag_119\n    /* \"#utility.yul\":4127:4132   */\n  dup2\n    /* \"#utility.yul\":4095:4133   */\n  tag_49\n  jump\t// in\ntag_119:\n    /* \"#utility.yul\":4179:4208   */\n  tag_120\n    /* \"#utility.yul\":4197:4207   */\n  dup5\n    /* \"#utility.yul\":4179:4208   */\n  tag_50\n  jump\t// in\ntag_120:\n    /* \"#utility.yul\":4169:4177   */\n  dup2\n    /* \"#utility.yul\":4165:4209   */\n  add\n    /* \"#utility.yul\":4362:4364   */\n  0x20\n    /* \"#utility.yul\":4350:4360   */\n  dup6\n    /* \"#utility.yul\":4347:4365   */\n  lt\n    /* \"#utility.yul\":4344:4393   */\n  iszero\n  tag_121\n  jumpi\n    /* \"#utility.yul\":4383:4391   */\n  dup2\n    /* \"#utility.yul\":4368:4391   */\n  swap1\n  pop\n    /* \"#utility.yul\":4344:4393   */\ntag_121:\n    /* \"#utility.yul\":4406:4486   */\n  tag_122\n    /* \"#utility.yul\":4462:4484   */\n  tag_123\n    /* \"#utility.yul\":4480:4483   */\n  dup6\n    /* \"#utility.yul\":4462:4484   */\n  tag_50\n  jump\t// in\ntag_123:\n    /* \"#utility.yul\":4452:4460   */\n  dup4\n    /* \"#utility.yul\":4448:4485   */\n  add\n    /* \"#utility.yul\":4435:4446   */\n  dup3\n    /* \"#utility.yul\":4406:4486   */\n  tag_59\n  jump\t// in\ntag_122:\n    /* \"#utility.yul\":4065:4496   */\n  pop\n  pop\n    /* \"#utility.yul\":4050:4496   */\ntag_118:\n    /* \"#utility.yul\":3960:4503   */\n  pop\n  pop\n  pop\n  jump\t// out\n    /* \"#utility.yul\":4509:4626   */\ntag_61:\n    /* \"#utility.yul\":4563:4571   */\n  0x00\n    /* \"#utility.yul\":4613:4618   */\n  dup3\n    /* \"#utility.yul\":4607:4611   */\n  dup3\n    /* \"#utility.yul\":4603:4619   */\n  shr\n    /* \"#utility.yul\":4582:4619   */\n  swap1\n  pop\n    /* \"#utility.yul\":4509:4626   */\n  swap3\n  swap2\n  pop\n  pop\n  jump\t// out\n    /* \"#utility.yul\":4632:4801   */\ntag_62:\n    /* \"#utility.yul\":4676:4682   */\n  0x00\n    /* \"#utility.yul\":4709:4760   */\n  tag_126\n    /* \"#utility.yul\":4757:4758   */\n  0x00\n    /* \"#utility.yul\":4753:4759   */\n  not\n    /* \"#utility.yul\":4745:4750   */\n  dup5\n    /* \"#utility.yul\":4742:4743   */\n  0x08\n    /* \"#utility.yul\":4738:4751   */\n  mul\n    /* \"#utility.yul\":4709:4760   */\n  tag_61\n  jump\t// in\ntag_126:\n    /* \"#utility.yul\":4705:4761   */\n  not\n    /* \"#utility.yul\":4790:4794   */\n  dup1\n    /* \"#utility.yul\":4784:4788   */\n  dup4\n    /* \"#utility.yul\":4780:4795   */\n  and\n    /* \"#utility.yul\":4770:4795   */\n  swap2\n  pop\n    /* \"#utility.yul\":4683:4801   */\n  pop\n    /* \"#utility.yul\":4632:4801   */\n  swap3\n  swap2\n  pop\n  pop\n  jump\t// out\n    /* \"#utility.yul\":4806:5101   */\ntag_63:\n    /* \"#utility.yul\":4882:4886   */\n  0x00\n    /* \"#utility.yul\":5028:5057   */\n  tag_128\n    /* \"#utility.yul\":5053:5056   */\n  dup4\n    /* \"#utility.yul\":5047:5051   */\n  dup4\n    /* \"#utility.yul\":5028:5057   */\n  tag_62\n  jump\t// in\ntag_128:\n    /* \"#utility.yul\":5020:5057   */\n  swap2\n  pop\n    /* \"#utility.yul\":5090:5093   */\n  dup3\n    /* \"#utility.yul\":5087:5088   */\n  0x02\n    /* \"#utility.yul\":5083:5094   */\n  mul\n    /* \"#utility.yul\":5077:5081   */\n  dup3\n    /* \"#utility.yul\":5074:5095   */\n  or\n    /* \"#utility.yul\":5066:5095   */\n  swap1\n  pop\n    /* \"#utility.yul\":4806:5101   */\n  swap3\n  swap2\n  pop\n  pop\n  jump\t// out\n    /* \"#utility.yul\":5106:6501   */\ntag_9:\n    /* \"#utility.yul\":5223:5260   */\n  tag_130\n    /* \"#utility.yul\":5256:5259   */\n  dup3\n    /* \"#utility.yul\":5223:5260   */\n  tag_45\n  jump\t// in\ntag_130:\n    /* \"#utility.yul\":5325:5343   */\n  0xffffffffffffffff\n    /* \"#utility.yul\":5317:5323   */\n  dup2\n    /* \"#utility.yul\":5314:5344   */\n  gt\n    /* \"#utility.yul\":5311:5367   */\n  iszero\n  tag_131\n  jumpi\n    /* \"#utility.yul\":5347:5365   */\n  tag_132\n  tag_46\n  jump\t// in\ntag_132:\n    /* \"#utility.yul\":5311:5367   */\ntag_131:\n    /* \"#utility.yul\":5391:5429   */\n  tag_133\n    /* \"#utility.yul\":5423:5427   */\n  dup3\n    /* \"#utility.yul\":5417:5428   */\n  sload\n    /* \"#utility.yul\":5391:5429   */\n  tag_48\n  jump\t// in\ntag_133:\n    /* \"#utility.yul\":5476:5543   */\n  tag_134\n    /* \"#utility.yul\":5536:5542   */\n  dup3\n    /* \"#utility.yul\":5528:5534   */\n  dup3\n    /* \"#utility.yul\":5522:5526   */\n  dup6\n    /* \"#utility.yul\":5476:5543   */\n  tag_60\n  jump\t// in\ntag_134:\n    /* \"#utility.yul\":5570:5571   */\n  0x00\n    /* \"#utility.yul\":5594:5598   */\n  0x20\n    /* \"#utility.yul\":5581:5598   */\n  swap1\n  pop\n    /* \"#utility.yul\":5626:5628   */\n  0x1f\n    /* \"#utility.yul\":5618:5624   */\n  dup4\n    /* \"#utility.yul\":5615:5629   */\n  gt\n    /* \"#utility.yul\":5643:5644   */\n  0x01\n    /* \"#utility.yul\":5638:6256   */\n  dup2\n  eq\n  tag_136\n  jumpi\n    /* \"#utility.yul\":6300:6301   */\n  0x00\n    /* \"#utility.yul\":6317:6323   */\n  dup5\n    /* \"#utility.yul\":6314:6391   */\n  iszero\n  tag_137\n  jumpi\n    /* \"#utility.yul\":6366:6375   */\n  dup3\n    /* \"#utility.yul\":6361:6364   */\n  dup8\n    /* \"#utility.yul\":6357:6376   */\n  add\n    /* \"#utility.yul\":6351:6377   */\n  mload\n    /* \"#utility.yul\":6342:6377   */\n  swap1\n  pop\n    /* \"#utility.yul\":6314:6391   */\ntag_137:\n    /* \"#utility.yul\":6417:6484   */\n  tag_138\n    /* \"#utility.yul\":6477:6483   */\n  dup6\n    /* \"#utility.yul\":6470:6475   */\n  dup3\n    /* \"#utility.yul\":6417:6484   */\n  tag_63\n  jump\t// in\ntag_138:\n    /* \"#utility.yul\":6411:6415   */\n  dup7\n    /* \"#utility.yul\":6404:6485   */\n  sstore\n    /* \"#utility.yul\":6273:6495   */\n  pop\n    /* \"#utility.yul\":5608:6495   */\n  jump(tag_135)\n    /* \"#utility.yul\":5638:6256   */\ntag_136:\n    /* \"#utility.yul\":5690:5694   */\n  0x1f\n    /* \"#utility.yul\":5686:5695   */\n  not\n    /* \"#utility.yul\":5678:5684   */\n  dup5\n    /* \"#utility.yul\":5674:5696   */\n  and\n    /* \"#utility.yul\":5724:5761   */\n  tag_139\n    /* \"#utility.yul\":5756:5760   */\n  dup7\n    /* \"#utility.yul\":5724:5761   */\n  tag_49\n  jump\t// in\ntag_139:\n    /* \"#utility.yul\":5783:5784   */\n  0x00\n    /* \"#utility.yul\":5797:6005   */\ntag_140:\n    /* \"#utility.yul\":5811:5818   */\n  dup3\n    /* \"#utility.yul\":5808:5809   */\n  dup2\n    /* \"#utility.yul\":5805:5819   */\n  lt\n    /* \"#utility.yul\":5797:6005   */\n  iszero\n  tag_142\n  jumpi\n    /* \"#utility.yul\":5890:5899   */\n  dup5\n    /* \"#utility.yul\":5885:5888   */\n  dup10\n    /* \"#utility.yul\":5881:5900   */\n  add\n    /* \"#utility.yul\":5875:5901   */\n  mload\n    /* \"#utility.yul\":5867:5873   */\n  dup3\n    /* \"#utility.yul\":5860:5902   */\n  sstore\n    /* \"#utility.yul\":5941:5942   */\n  0x01\n    /* \"#utility.yul\":5933:5939   */\n  dup3\n    /* \"#utility.yul\":5929:5943   */\n  add\n    /* \"#utility.yul\":5919:5943   */\n  swap2\n  pop\n    /* \"#utility.yul\":5988:5990   */\n  0x20\n    /* \"#utility.yul\":5977:5986   */\n  dup6\n    /* \"#utility.yul\":5973:5991   */\n  add\n    /* \"#utility.yul\":5960:5991   */\n  swap5\n  pop\n    /* \"#utility.yul\":5834:5838   */\n  0x20\n    /* \"#utility.yul\":5831:5832   */\n  dup2\n    /* \"#utility.yul\":5827:5839   */\n  add\n    /* \"#utility.yul\":5822:5839   */\n  swap1\n  pop\n    /* \"#utility.yul\":5797:6005   */\n  jump(tag_140)\ntag_142:\n    /* \"#utility.yul\":6033:6039   */\n  dup7\n    /* \"#utility.yul\":6024:6031   */\n  dup4\n    /* \"#utility.yul\":6021:6040   */\n  lt\n    /* \"#utility.yul\":6018:6197   */\n  iszero\n  tag_143\n  jumpi\n    /* \"#utility.yul\":6091:6100   */\n  dup5\n    /* \"#utility.yul\":6086:6089   */\n  dup10\n    /* \"#utility.yul\":6082:6101   */\n  add\n    /* \"#utility.yul\":6076:6102   */\n  mload\n    /* \"#utility.yul\":6134:6182   */\n  tag_144\n    /* \"#utility.yul\":6176:6180   */\n  0x1f\n    /* \"#utility.yul\":6168:6174   */\n  dup10\n    /* \"#utility.yul\":6164:6181   */\n  and\n    /* \"#utility.yul\":6153:6162   */\n  dup3\n    /* \"#utility.yul\":6134:6182   */\n  tag_62\n  jump\t// in\ntag_144:\n    /* \"#utility.yul\":6126:6132   */\n  dup4\n    /* \"#utility.yul\":6119:6183   */\n  sstore\n    /* \"#utility.yul\":6041:6197   */\n  pop\n    /* \"#utility.yul\":6018:6197   */\ntag_143:\n    /* \"#utility.yul\":6243:6244   */\n  0x01\n    /* \"#utility.yul\":6239:6240   */\n  0x02\n    /* \"#utility.yul\":6231:6237   */\n  dup9\n    /* \"#utility.yul\":6227:6241   */\n  mul\n    /* \"#utility.yul\":6223:6245   */\n  add\n    /* \"#utility.yul\":6217:6221   */\n  dup9\n    /* \"#utility.yul\":6210:6246   */\n  sstore\n    /* \"#utility.yul\":5645:6256   */\n  pop\n  pop\n  pop\n    /* \"#utility.yul\":5608:6495   */\ntag_135:\n  pop\n    /* \"#utility.yul\":5198:6501   */\n  pop\n  pop\n  pop\n    /* \"#utility.yul\":5106:6501   */\n  pop\n  pop\n  jump\t// out\n    /* \"#utility.yul\":6507:6633   */\ntag_64:\n    /* \"#utility.yul\":6544:6551   */\n  0x00\n    /* \"#utility.yul\":6584:6626   */\n  0xffffffffffffffffffffffffffffffffffffffff\n    /* \"#utility.yul\":6577:6582   */\n  dup3\n    /* \"#utility.yul\":6573:6627   */\n  and\n    /* \"#utility.yul\":6562:6627   */\n  swap1\n  pop\n    /* \"#utility.yul\":6507:6633   */\n  swap2\n  swap1\n  pop\n  jump\t// out\n    /* \"#utility.yul\":6639:6735   */\ntag_65:\n    /* \"#utility.yul\":6676:6683   */\n  0x00\n    /* \"#utility.yul\":6705:6729   */\n  tag_147\n    /* \"#utility.yul\":6723:6728   */\n  dup3\n    /* \"#utility.yul\":6705:6729   */\n  tag_64\n  jump\t// in\ntag_147:\n    /* \"#utility.yul\":6694:6729   */\n  swap1\n  pop\n    /* \"#utility.yul\":6639:6735   */\n  swap2\n  swap1\n  pop\n  jump\t// out\n    /* \"#utility.yul\":6741:6859   */\ntag_66:\n    /* \"#utility.yul\":6828:6852   */\n  tag_149\n    /* \"#utility.yul\":6846:6851   */\n  dup2\n    /* \"#utility.yul\":6828:6852   */\n  tag_65\n  jump\t// in\ntag_149:\n    /* \"#utility.yul\":6823:6826   */\n  dup3\n    /* \"#utility.yul\":6816:6853   */\n  mstore\n    /* \"#utility.yul\":6741:6859   */\n  pop\n  pop\n  jump\t// out\n    /* \"#utility.yul\":6865:7087   */\ntag_14:\n    /* \"#utility.yul\":6958:6962   */\n  0x00\n    /* \"#utility.yul\":6996:6998   */\n  0x20\n    /* \"#utility.yul\":6985:6994   */\n  dup3\n    /* \"#utility.yul\":6981:6999   */\n  add\n    /* \"#utility.yul\":6973:6999   */\n  swap1\n  pop\n    /* \"#utility.yul\":7009:7080   */\n  tag_151\n    /* \"#utility.yul\":7077:7078   */\n  0x00\n    /* \"#utility.yul\":7066:7075   */\n  dup4\n    /* \"#utility.yul\":7062:7079   */\n  add\n    /* \"#utility.yul\":7053:7059   */\n  dup5\n    /* \"#utility.yul\":7009:7080   */\n  tag_66\n  jump\t// in\ntag_151:\n    /* \"#utility.yul\":6865:7087   */\n  swap3\n  swap2\n  pop\n  pop\n  jump\t// out\n    /* \"#utility.yul\":7093:7273   */\ntag_67:\n    /* \"#utility.yul\":7141:7218   */\n  0x4e487b7100000000000000000000000000000000000000000000000000000000\n    /* \"#utility.yul\":7138:7139   */\n  0x00\n    /* \"#utility.yul\":7131:7219   */\n  mstore\n    /* \"#utility.yul\":7238:7242   */\n  0x11\n    /* \"#utility.yul\":7235:7236   */\n  0x04\n    /* \"#utility.yul\":7228:7243   */\n  mstore\n    /* \"#utility.yul\":7262:7266   */\n  0x24\n    /* \"#utility.yul\":7259:7260   */\n  0x00\n    /* \"#utility.yul\":7252:7267   */\n  revert\n    /* \"#utility.yul\":7279:7470   */\ntag_30:\n    /* \"#utility.yul\":7319:7322   */\n  0x00\n    /* \"#utility.yul\":7338:7358   */\n  tag_154\n    /* \"#utility.yul\":7356:7357   */\n  dup3\n    /* \"#utility.yul\":7338:7358   */\n  tag_42\n  jump\t// in\ntag_154:\n    /* \"#utility.yul\":7333:7358   */\n  swap2\n  pop\n    /* \"#utility.yul\":7372:7392   */\n  tag_155\n    /* \"#utility.yul\":7390:7391   */\n  dup4\n    /* \"#utility.yul\":7372:7392   */\n  tag_42\n  jump\t// in\ntag_155:\n    /* \"#utility.yul\":7367:7392   */\n  swap3\n  pop\n    /* \"#utility.yul\":7415:7416   */\n  dup3\n    /* \"#utility.yul\":7412:7413   */\n  dup3\n    /* \"#utility.yul\":7408:7417   */\n  add\n    /* \"#utility.yul\":7401:7417   */\n  swap1\n  pop\n    /* \"#utility.yul\":7436:7439   */\n  dup1\n    /* \"#utility.yul\":7433:7434   */\n  dup3\n    /* \"#utility.yul\":7430:7440   */\n  gt\n    /* \"#utility.yul\":7427:7463   */\n  iszero\n  tag_156\n  jumpi\n    /* \"#utility.yul\":7443:7461   */\n  tag_157\n  tag_67\n  jump\t// in\ntag_157:\n    /* \"#utility.yul\":7427:7463   */\ntag_156:\n    /* \"#utility.yul\":7279:7470   */\n  swap3\n  swap2\n  pop\n  pop\n  jump\t// out\n    /* \"#utility.yul\":7476:7594   */\ntag_68:\n    /* \"#utility.yul\":7563:7587   */\n  tag_159\n    /* \"#utility.yul\":7581:7586   */\n  dup2\n    /* \"#utility.yul\":7563:7587   */\n  tag_42\n  jump\t// in\ntag_159:\n    /* \"#utility.yul\":7558:7561   */\n  dup3\n    /* \"#utility.yul\":7551:7588   */\n  mstore\n    /* \"#utility.yul\":7476:7594   */\n  pop\n  pop\n  jump\t// out\n    /* \"#utility.yul\":7600:8042   */\ntag_34:\n    /* \"#utility.yul\":7749:7753   */\n  0x00\n    /* \"#utility.yul\":7787:7789   */\n  0x60\n    /* \"#utility.yul\":7776:7785   */\n  dup3\n    /* \"#utility.yul\":7772:7790   */\n  add\n    /* \"#utility.yul\":7764:7790   */\n  swap1\n  pop\n    /* \"#utility.yul\":7800:7871   */\n  tag_161\n    /* \"#utility.yul\":7868:7869   */\n  0x00\n    /* \"#utility.yul\":7857:7866   */\n  dup4\n    /* \"#utility.yul\":7853:7870   */\n  add\n    /* \"#utility.yul\":7844:7850   */\n  dup7\n    /* \"#utility.yul\":7800:7871   */\n  tag_66\n  jump\t// in\ntag_161:\n    /* \"#utility.yul\":7881:7953   */\n  tag_162\n    /* \"#utility.yul\":7949:7951   */\n  0x20\n    /* \"#utility.yul\":7938:7947   */\n  dup4\n    /* \"#utility.yul\":7934:7952   */\n  add\n    /* \"#utility.yul\":7925:7931   */\n  dup6\n    /* \"#utility.yul\":7881:7953   */\n  tag_68\n  jump\t// in\ntag_162:\n    /* \"#utility.yul\":7963:8035   */\n  tag_163\n    /* \"#utility.yul\":8031:8033   */\n  0x40\n    /* \"#utility.yul\":8020:8029   */\n  dup4\n    /* \"#utility.yul\":8016:8034   */\n  add\n    /* \"#utility.yul\":8007:8013   */\n  dup5\n    /* \"#utility.yul\":7963:8035   */\n  tag_68\n  jump\t// in\ntag_163:\n    /* \"#utility.yul\":7600:8042   */\n  swap5\n  swap4\n  pop\n  pop\n  pop\n  pop\n  jump\t// out\n    /* \"#utility.yul\":8048:8270   */\ntag_38:\n    /* \"#utility.yul\":8141:8145   */\n  0x00\n    /* \"#utility.yul\":8179:8181   */\n  0x20\n    /* \"#utility.yul\":8168:8177   */\n  dup3\n    /* \"#utility.yul\":8164:8182   */\n  add\n    /* \"#utility.yul\":8156:8182   */\n  swap1\n  pop\n    /* \"#utility.yul\":8192:8263   */\n  tag_165\n    /* \"#utility.yul\":8260:8261   */\n  0x00\n    /* \"#utility.yul\":8249:8258   */\n  dup4\n    /* \"#utility.yul\":8245:8262   */\n  add\n    /* \"#utility.yul\":8236:8242   */\n  dup5\n    /* \"#utility.yul\":8192:8263   */\n  tag_68\n  jump\t// in\ntag_165:\n    /* \"#utility.yul\":8048:8270   */\n  swap3\n  swap2\n  pop\n  pop\n  jump\t// out\n    /* \"contracts/FresaCoin.sol\":209:7687  contract FresaCoin is ERC20, Ownable {... */\ntag_20:\n  dataSize(sub_0)\n  dup1\n  dataOffset(sub_0)\n  0x00\n  codecopy\n  0x00\n  return\nstop\n\nsub_0: assembly {\n        /* \"contracts/FresaCoin.sol\":209:7687  contract FresaCoin is ERC20, Ownable {... */\n      mstore(0x40, 0x80)\n      callvalue\n      dup1\n      iszero\n      tag_1\n      jumpi\n      revert(0x00, 0x00)\n    tag_1:\n      pop\n      jumpi(tag_2, lt(calldatasize, 0x04))\n      shr(0xe0, calldataload(0x00))\n      dup1\n      0x5fec5c64\n      gt\n      tag_31\n      jumpi\n      dup1\n      0xb3a55a66\n      gt\n      tag_32\n      jumpi\n      dup1\n      0xcdb12c83\n      gt\n      tag_33\n      jumpi\n      dup1\n      0xcdb12c83\n      eq\n      tag_27\n      jumpi\n      dup1\n      0xdd62ed3e\n      eq\n      tag_28\n      jumpi\n      dup1\n      0xe1913c81\n      eq\n      tag_29\n      jumpi\n      dup1\n      0xf2fde38b\n      eq\n      tag_30\n      jumpi\n      jump(tag_2)\n    tag_33:\n      dup1\n      0xb3a55a66\n      eq\n      tag_24\n      jumpi\n      dup1\n      0xba13a572\n      eq\n      tag_25\n      jumpi\n      dup1\n      0xc9d27afe\n      eq\n      tag_26\n      jumpi\n      jump(tag_2)\n    tag_32:\n      dup1\n      0x7acb7757\n      gt\n      tag_34\n      jumpi\n      dup1\n      0x7acb7757\n      eq\n      tag_20\n      jumpi\n      dup1\n      0x8da5cb5b\n      eq\n      tag_21\n      jumpi\n      dup1\n      0x95d89b41\n      eq\n      tag_22\n      jumpi\n      dup1\n      0xa9059cbb\n      eq\n      tag_23\n      jumpi\n      jump(tag_2)\n    tag_34:\n      dup1\n      0x5fec5c64\n      eq\n      tag_17\n      jumpi\n      dup1\n      0x70a08231\n      eq\n      tag_18\n      jumpi\n      dup1\n      0x715018a6\n      eq\n      tag_19\n      jumpi\n      jump(tag_2)\n    tag_31:\n      dup1\n      0x18160ddd\n      gt\n      tag_35\n      jumpi\n      dup1\n      0x313ce567\n      gt\n      tag_36\n      jumpi\n      dup1\n      0x313ce567\n      eq\n      tag_13\n      jumpi\n      dup1\n      0x3fd43098\n      eq\n      tag_14\n      jumpi\n      dup1\n      0x49c2a1a6\n      eq\n      tag_15\n      jumpi\n      dup1\n      0x576b5002\n      eq\n      tag_16\n      jumpi\n      jump(tag_2)\n    tag_36:\n      dup1\n      0x18160ddd\n      eq\n      tag_10\n      jumpi\n      dup1\n      0x23b872dd\n      eq\n      tag_11\n      jumpi\n      dup1\n      0x2e1a7d4d\n      eq\n      tag_12\n      jumpi\n      jump(tag_2)\n    tag_35:\n      dup1\n      0x0c0512e9\n      gt\n      tag_37\n      jumpi\n      dup1\n      0x0c0512e9\n      eq\n      tag_6\n      jumpi\n      dup1\n      0x0c56ae3b\n      eq\n      tag_7\n      jumpi\n      dup1\n      0x13ed0846\n      eq\n      tag_8\n      jumpi\n      dup1\n      0x16934fc4\n      eq\n      tag_9\n      jumpi\n      jump(tag_2)\n    tag_37:\n      dup1\n      0x013cf08b\n      eq\n      tag_3\n      jumpi\n      dup1\n      0x06fdde03\n      eq\n      tag_4\n      jumpi\n      dup1\n      0x095ea7b3\n      eq\n      tag_5\n      jumpi\n    tag_2:\n      revert(0x00, 0x00)\n        /* \"contracts/FresaCoin.sol\":1184:1229  mapping(uint256 => Proposal) public proposals */\n    tag_3:\n      tag_38\n      0x04\n      dup1\n      calldatasize\n      sub\n      dup2\n      add\n      swap1\n      tag_39\n      swap2\n      swap1\n      tag_40\n      jump\t// in\n    tag_39:\n      tag_41\n      jump\t// in\n    tag_38:\n      mload(0x40)\n      tag_42\n      swap5\n      swap4\n      swap3\n      swap2\n      swap1\n      tag_43\n      jump\t// in\n    tag_42:\n      mload(0x40)\n      dup1\n      swap2\n      sub\n      swap1\n      return\n        /* \"@openzeppelin/contracts/token/ERC20/ERC20.sol\":1779:1868  function name() public view virtual returns (string memory) {... */\n    tag_4:\n      tag_44\n      tag_45\n      jump\t// in\n    tag_44:\n      mload(0x40)\n      tag_46\n      swap2\n      swap1\n      tag_47\n      jump\t// in\n    tag_46:\n      mload(0x40)\n      dup1\n      swap2\n      sub\n      swap1\n      return\n        /* \"@openzeppelin/contracts/token/ERC20/ERC20.sol\":3998:4184  function approve(address spender, uint256 value) public virtual returns (bool) {... */\n    tag_5:\n      tag_48\n      0x04\n      dup1\n      calldatasize\n      sub\n      dup2\n      add\n      swap1\n      tag_49\n      swap2\n      swap1\n      tag_50\n      jump\t// in\n    tag_49:\n      tag_51\n      jump\t// in\n    tag_48:\n      mload(0x40)\n      tag_52\n      swap2\n      swap1\n      tag_53\n      jump\t// in\n    tag_52:\n      mload(0x40)\n      dup1\n      swap2\n      sub\n      swap1\n      return\n        /* \"contracts/FresaCoin.sol\":1364:1394  uint256 public proposalCounter */\n    tag_6:\n      tag_54\n      tag_55\n      jump\t// in\n    tag_54:\n      mload(0x40)\n      tag_56\n      swap2\n      swap1\n      tag_57\n      jump\t// in\n    tag_56:\n      mload(0x40)\n      dup1\n      swap2\n      sub\n      swap1\n      return\n        /* \"contracts/FresaCoin.sol\":1306:1336  StakingPool public stakingPool */\n    tag_7:\n      tag_58\n      tag_59\n      jump\t// in\n    tag_58:\n      mload(0x40)\n      tag_60\n      swap4\n      swap3\n      swap2\n      swap1\n      tag_61\n      jump\t// in\n    tag_60:\n      mload(0x40)\n      dup1\n      swap2\n      sub\n      swap1\n      return\n        /* \"contracts/FresaCoin.sol\":7345:7685  function calculateReward(uint256 amount, uint256 duration)... */\n    tag_8:\n      tag_62\n      0x04\n      dup1\n      calldatasize\n      sub\n      dup2\n      add\n      swap1\n      tag_63\n      swap2\n      swap1\n      tag_64\n      jump\t// in\n    tag_63:\n      tag_65\n      jump\t// in\n    tag_62:\n      mload(0x40)\n      tag_66\n      swap2\n      swap1\n      tag_57\n      jump\t// in\n    tag_66:\n      mload(0x40)\n      dup1\n      swap2\n      sub\n      swap1\n      return\n        /* \"contracts/FresaCoin.sol\":1113:1152  mapping(address => Stake) public stakes */\n    tag_9:\n      tag_67\n      0x04\n      dup1\n      calldatasize\n      sub\n      dup2\n      add\n      swap1\n      tag_68\n      swap2\n      swap1\n      tag_69\n      jump\t// in\n    tag_68:\n      tag_70\n      jump\t// in\n    tag_67:\n      mload(0x40)\n      tag_71\n      swap5\n      swap4\n      swap3\n      swap2\n      swap1\n      tag_72\n      jump\t// in\n    tag_71:\n      mload(0x40)\n      dup1\n      swap2\n      sub\n      swap1\n      return\n        /* \"@openzeppelin/contracts/token/ERC20/ERC20.sol\":2849:2946  function totalSupply() public view virtual returns (uint256) {... */\n    tag_10:\n      tag_73\n      tag_74\n      jump\t// in\n    tag_73:\n      mload(0x40)\n      tag_75\n      swap2\n      swap1\n      tag_57\n      jump\t// in\n    tag_75:\n      mload(0x40)\n      dup1\n      swap2\n      sub\n      swap1\n      return\n        /* \"@openzeppelin/contracts/token/ERC20/ERC20.sol\":4776:5020  function transferFrom(address from, address to, uint256 value) public virtual returns (bool) {... */\n    tag_11:\n      tag_76\n      0x04\n      dup1\n      calldatasize\n      sub\n      dup2\n      add\n      swap1\n      tag_77\n      swap2\n      swap1\n      tag_78\n      jump\t// in\n    tag_77:\n      tag_79\n      jump\t// in\n    tag_76:\n      mload(0x40)\n      tag_80\n      swap2\n      swap1\n      tag_53\n      jump\t// in\n    tag_80:\n      mload(0x40)\n      dup1\n      swap2\n      sub\n      swap1\n      return\n        /* \"contracts/FresaCoin.sol\":3781:4537  function withdraw(uint256 amount) external {... */\n    tag_12:\n      tag_81\n      0x04\n      dup1\n      calldatasize\n      sub\n      dup2\n      add\n      swap1\n      tag_82\n      swap2\n      swap1\n      tag_40\n      jump\t// in\n    tag_82:\n      tag_83\n      jump\t// in\n    tag_81:\n      stop\n        /* \"@openzeppelin/contracts/token/ERC20/ERC20.sol\":2707:2789  function decimals() public view virtual returns (uint8) {... */\n    tag_13:\n      tag_84\n      tag_85\n      jump\t// in\n    tag_84:\n      mload(0x40)\n      tag_86\n      swap2\n      swap1\n      tag_87\n      jump\t// in\n    tag_86:\n      mload(0x40)\n      dup1\n      swap2\n      sub\n      swap1\n      return\n        /* \"contracts/FresaCoin.sol\":5874:6174  function enterLottery(uint256 amount) external {... */\n    tag_14:\n      tag_88\n      0x04\n      dup1\n      calldatasize\n      sub\n      dup2\n      add\n      swap1\n      tag_89\n      swap2\n      swap1\n      tag_40\n      jump\t// in\n    tag_89:\n      tag_90\n      jump\t// in\n    tag_88:\n      stop\n        /* \"contracts/FresaCoin.sol\":4643:4990  function createProposal(string memory description) external onlyOwner {... */\n    tag_15:\n      tag_91\n      0x04\n      dup1\n      calldatasize\n      sub\n      dup2\n      add\n      swap1\n      tag_92\n      swap2\n      swap1\n      tag_93\n      jump\t// in\n    tag_92:\n      tag_94\n      jump\t// in\n    tag_91:\n      stop\n        /* \"contracts/FresaCoin.sol\":6226:6767  function drawLotteryWinner() external onlyOwner {... */\n    tag_16:\n      tag_95\n      tag_96\n      jump\t// in\n    tag_95:\n      stop\n        /* \"contracts/FresaCoin.sol\":1426:1466  uint256 public minStakeDuration = 7 days */\n    tag_17:\n      tag_97\n      tag_98\n      jump\t// in\n    tag_97:\n      mload(0x40)\n      tag_99\n      swap2\n      swap1\n      tag_57\n      jump\t// in\n    tag_99:\n      mload(0x40)\n      dup1\n      swap2\n      sub\n      swap1\n      return\n        /* \"@openzeppelin/contracts/token/ERC20/ERC20.sol\":3004:3120  function balanceOf(address account) public view virtual returns (uint256) {... */\n    tag_18:\n      tag_100\n      0x04\n      dup1\n      calldatasize\n      sub\n      dup2\n      add\n      swap1\n      tag_101\n      swap2\n      swap1\n      tag_69\n      jump\t// in\n    tag_101:\n      tag_102\n      jump\t// in\n    tag_100:\n      mload(0x40)\n      tag_103\n      swap2\n      swap1\n      tag_57\n      jump\t// in\n    tag_103:\n      mload(0x40)\n      dup1\n      swap2\n      sub\n      swap1\n      return\n        /* \"@openzeppelin/contracts/access/Ownable.sol\":2293:2394  function renounceOwnership() public virtual onlyOwner {... */\n    tag_19:\n      tag_104\n      tag_105\n      jump\t// in\n    tag_104:\n      stop\n        /* \"contracts/FresaCoin.sol\":2704:3668  function stake(uint256 amount, address referrer) external {... */\n    tag_20:\n      tag_106\n      0x04\n      dup1\n      calldatasize\n      sub\n      dup2\n      add\n      swap1\n      tag_107\n      swap2\n      swap1\n      tag_108\n      jump\t// in\n    tag_107:\n      tag_109\n      jump\t// in\n    tag_106:\n      stop\n        /* \"@openzeppelin/contracts/access/Ownable.sol\":1638:1723  function owner() public view virtual returns (address) {... */\n    tag_21:\n      tag_110\n      tag_111\n      jump\t// in\n    tag_110:\n      mload(0x40)\n      tag_112\n      swap2\n      swap1\n      tag_113\n      jump\t// in\n    tag_112:\n      mload(0x40)\n      dup1\n      swap2\n      sub\n      swap1\n      return\n        /* \"@openzeppelin/contracts/token/ERC20/ERC20.sol\":1981:2074  function symbol() public view virtual returns (string memory) {... */\n    tag_22:\n      tag_114\n      tag_115\n      jump\t// in\n    tag_114:\n      mload(0x40)\n      tag_116\n      swap2\n      swap1\n      tag_47\n      jump\t// in\n    tag_116:\n      mload(0x40)\n      dup1\n      swap2\n      sub\n      swap1\n      return\n        /* \"@openzeppelin/contracts/token/ERC20/ERC20.sol\":3315:3493  function transfer(address to, uint256 value) public virtual returns (bool) {... */\n    tag_23:\n      tag_117\n      0x04\n      dup1\n      calldatasize\n      sub\n      dup2\n      add\n      swap1\n      tag_118\n      swap2\n      swap1\n      tag_50\n      jump\t// in\n    tag_118:\n      tag_119\n      jump\t// in\n    tag_117:\n      mload(0x40)\n      tag_120\n      swap2\n      swap1\n      tag_53\n      jump\t// in\n    tag_120:\n      mload(0x40)\n      dup1\n      swap2\n      sub\n      swap1\n      return\n        /* \"contracts/FresaCoin.sol\":6851:6960  function getLotteryEntries() external view returns (address[] memory) {... */\n    tag_24:\n      tag_121\n      tag_122\n      jump\t// in\n    tag_121:\n      mload(0x40)\n      tag_123\n      swap2\n      swap1\n      tag_124\n      jump\t// in\n    tag_123:\n      mload(0x40)\n      dup1\n      swap2\n      sub\n      swap1\n      return\n        /* \"contracts/FresaCoin.sol\":1259:1281  Lottery public lottery */\n    tag_25:\n      tag_125\n      tag_126\n      jump\t// in\n    tag_125:\n      mload(0x40)\n      tag_127\n      swap2\n      swap1\n      tag_57\n      jump\t// in\n    tag_127:\n      mload(0x40)\n      dup1\n      swap2\n      sub\n      swap1\n      return\n        /* \"contracts/FresaCoin.sol\":5150:5752  function vote(uint256 proposalId, bool voteFor) external {... */\n    tag_26:\n      tag_128\n      0x04\n      dup1\n      calldatasize\n      sub\n      dup2\n      add\n      swap1\n      tag_129\n      swap2\n      swap1\n      tag_130\n      jump\t// in\n    tag_129:\n      tag_131\n      jump\t// in\n    tag_128:\n      stop\n        /* \"contracts/FresaCoin.sol\":7051:7155  function getLotteryPrizePool() external view returns (uint256) {... */\n    tag_27:\n      tag_132\n      tag_133\n      jump\t// in\n    tag_132:\n      mload(0x40)\n      tag_134\n      swap2\n      swap1\n      tag_57\n      jump\t// in\n    tag_134:\n      mload(0x40)\n      dup1\n      swap2\n      sub\n      swap1\n      return\n        /* \"@openzeppelin/contracts/token/ERC20/ERC20.sol\":3551:3691  function allowance(address owner, address spender) public view virtual returns (uint256) {... */\n    tag_28:\n      tag_135\n      0x04\n      dup1\n      calldatasize\n      sub\n      dup2\n      add\n      swap1\n      tag_136\n      swap2\n      swap1\n      tag_137\n      jump\t// in\n    tag_136:\n      tag_138\n      jump\t// in\n    tag_135:\n      mload(0x40)\n      tag_139\n      swap2\n      swap1\n      tag_57\n      jump\t// in\n    tag_139:\n      mload(0x40)\n      dup1\n      swap2\n      sub\n      swap1\n      return\n        /* \"contracts/FresaCoin.sol\":1500:1542  uint256 public constant REFERRAL_BONUS = 5 */\n    tag_29:\n      tag_140\n      tag_141\n      jump\t// in\n    tag_140:\n      mload(0x40)\n      tag_142\n      swap2\n      swap1\n      tag_57\n      jump\t// in\n    tag_142:\n      mload(0x40)\n      dup1\n      swap2\n      sub\n      swap1\n      return\n        /* \"@openzeppelin/contracts/access/Ownable.sol\":2543:2758  function transferOwnership(address newOwner) public virtual onlyOwner {... */\n    tag_30:\n      tag_143\n      0x04\n      dup1\n      calldatasize\n      sub\n      dup2\n      add\n      swap1\n      tag_144\n      swap2\n      swap1\n      tag_69\n      jump\t// in\n    tag_144:\n      tag_145\n      jump\t// in\n    tag_143:\n      stop\n        /* \"contracts/FresaCoin.sol\":1184:1229  mapping(uint256 => Proposal) public proposals */\n    tag_41:\n      mstore(0x20, 0x07)\n      dup1\n      0x00\n      mstore\n      keccak256(0x00, 0x40)\n      0x00\n      swap2\n      pop\n      swap1\n      pop\n      dup1\n      0x00\n      add\n      dup1\n      sload\n      tag_146\n      swap1\n      tag_147\n      jump\t// in\n    tag_146:\n      dup1\n      0x1f\n      add\n      0x20\n      dup1\n      swap2\n      div\n      mul\n      0x20\n      add\n      mload(0x40)\n      swap1\n      dup2\n      add\n      0x40\n      mstore\n      dup1\n      swap3\n      swap2\n      swap1\n      dup2\n      dup2\n      mstore\n      0x20\n      add\n      dup3\n      dup1\n      sload\n      tag_148\n      swap1\n      tag_147\n      jump\t// in\n    tag_148:\n      dup1\n      iszero\n      tag_149\n      jumpi\n      dup1\n      0x1f\n      lt\n      tag_150\n      jumpi\n      0x0100\n      dup1\n      dup4\n      sload\n      div\n      mul\n      dup4\n      mstore\n      swap2\n      0x20\n      add\n      swap2\n      jump(tag_149)\n    tag_150:\n      dup3\n      add\n      swap2\n      swap1\n      0x00\n      mstore\n      keccak256(0x00, 0x20)\n      swap1\n    tag_151:\n      dup2\n      sload\n      dup2\n      mstore\n      swap1\n      0x01\n      add\n      swap1\n      0x20\n      add\n      dup1\n      dup4\n      gt\n      tag_151\n      jumpi\n      dup3\n      swap1\n      sub\n      0x1f\n      and\n      dup3\n      add\n      swap2\n    tag_149:\n      pop\n      pop\n      pop\n      pop\n      pop\n      swap1\n      dup1\n      0x01\n      add\n      sload\n      swap1\n      dup1\n      0x02\n      add\n      sload\n      swap1\n      dup1\n      0x03\n      add\n      0x00\n      swap1\n      sload\n      swap1\n      0x0100\n      exp\n      swap1\n      div\n      0xff\n      and\n      swap1\n      pop\n      dup5\n      jump\t// out\n        /* \"@openzeppelin/contracts/token/ERC20/ERC20.sol\":1779:1868  function name() public view virtual returns (string memory) {... */\n    tag_45:\n        /* \"@openzeppelin/contracts/token/ERC20/ERC20.sol\":1824:1837  string memory */\n      0x60\n        /* \"@openzeppelin/contracts/token/ERC20/ERC20.sol\":1856:1861  _name */\n      0x03\n        /* \"@openzeppelin/contracts/token/ERC20/ERC20.sol\":1849:1861  return _name */\n      dup1\n      sload\n      tag_153\n      swap1\n      tag_147\n      jump\t// in\n    tag_153:\n      dup1\n      0x1f\n      add\n      0x20\n      dup1\n      swap2\n      div\n      mul\n      0x20\n      add\n      mload(0x40)\n      swap1\n      dup2\n      add\n      0x40\n      mstore\n      dup1\n      swap3\n      swap2\n      swap1\n      dup2\n      dup2\n      mstore\n      0x20\n      add\n      dup3\n      dup1\n      sload\n      tag_154\n      swap1\n      tag_147\n      jump\t// in\n    tag_154:\n      dup1\n      iszero\n      tag_155\n      jumpi\n      dup1\n      0x1f\n      lt\n      tag_156\n      jumpi\n      0x0100\n      dup1\n      dup4\n      sload\n      div\n      mul\n      dup4\n      mstore\n      swap2\n      0x20\n      add\n      swap2\n      jump(tag_155)\n    tag_156:\n      dup3\n      add\n      swap2\n      swap1\n      0x00\n      mstore\n      keccak256(0x00, 0x20)\n      swap1\n    tag_157:\n      dup2\n      sload\n      dup2\n      mstore\n      swap1\n      0x01\n      add\n      swap1\n      0x20\n      add\n      dup1\n      dup4\n      gt\n      tag_157\n      jumpi\n      dup3\n      swap1\n      sub\n      0x1f\n      and\n      dup3\n      add\n      swap2\n    tag_155:\n      pop\n      pop\n      pop\n      pop\n      pop\n      swap1\n      pop\n        /* \"@openzeppelin/contracts/token/ERC20/ERC20.sol\":1779:1868  function name() public view virtual returns (string memory) {... */\n      swap1\n      jump\t// out\n        /* \"@openzeppelin/contracts/token/ERC20/ERC20.sol\":3998:4184  function approve(address spender, uint256 value) public virtual returns (bool) {... */\n    tag_51:\n        /* \"@openzeppelin/contracts/token/ERC20/ERC20.sol\":4071:4075  bool */\n      0x00\n        /* \"@openzeppelin/contracts/token/ERC20/ERC20.sol\":4087:4100  address owner */\n      0x00\n        /* \"@openzeppelin/contracts/token/ERC20/ERC20.sol\":4103:4115  _msgSender() */\n      tag_159\n        /* \"@openzeppelin/contracts/token/ERC20/ERC20.sol\":4103:4113  _msgSender */\n      tag_160\n        /* \"@openzeppelin/contracts/token/ERC20/ERC20.sol\":4103:4115  _msgSender() */\n      jump\t// in\n    tag_159:\n        /* \"@openzeppelin/contracts/token/ERC20/ERC20.sol\":4087:4115  address owner = _msgSender() */\n      swap1\n      pop\n        /* \"@openzeppelin/contracts/token/ERC20/ERC20.sol\":4125:4156  _approve(owner, spender, value) */\n      tag_161\n        /* \"@openzeppelin/contracts/token/ERC20/ERC20.sol\":4134:4139  owner */\n      dup2\n        /* \"@openzeppelin/contracts/token/ERC20/ERC20.sol\":4141:4148  spender */\n      dup6\n        /* \"@openzeppelin/contracts/token/ERC20/ERC20.sol\":4150:4155  value */\n      dup6\n        /* \"@openzeppelin/contracts/token/ERC20/ERC20.sol\":4125:4133  _approve */\n      tag_162\n        /* \"@openzeppelin/contracts/token/ERC20/ERC20.sol\":4125:4156  _approve(owner, spender, value) */\n      jump\t// in\n    tag_161:\n        /* \"@openzeppelin/contracts/token/ERC20/ERC20.sol\":4173:4177  true */\n      0x01\n        /* \"@openzeppelin/contracts/token/ERC20/ERC20.sol\":4166:4177  return true */\n      swap2\n      pop\n      pop\n        /* \"@openzeppelin/contracts/token/ERC20/ERC20.sol\":3998:4184  function approve(address spender, uint256 value) public virtual returns (bool) {... */\n      swap3\n      swap2\n      pop\n      pop\n      jump\t// out\n        /* \"contracts/FresaCoin.sol\":1364:1394  uint256 public proposalCounter */\n    tag_55:\n      sload(0x0d)\n      dup2\n      jump\t// out\n        /* \"contracts/FresaCoin.sol\":1306:1336  StakingPool public stakingPool */\n    tag_59:\n      0x0a\n      dup1\n      0x00\n      add\n      sload\n      swap1\n      dup1\n      0x01\n      add\n      sload\n      swap1\n      dup1\n      0x02\n      add\n      sload\n      swap1\n      pop\n      dup4\n      jump\t// out\n        /* \"contracts/FresaCoin.sol\":7345:7685  function calculateReward(uint256 amount, uint256 duration)... */\n    tag_65:\n        /* \"contracts/FresaCoin.sol\":7449:7463  uint256 reward */\n      0x00\n        /* \"contracts/FresaCoin.sol\":7479:7495  uint256 baseRate */\n      0x00\n        /* \"contracts/FresaCoin.sol\":7508:7520  10_000 ether */\n      0x021e19e0c9bab2400000\n        /* \"contracts/FresaCoin.sol\":7499:7505  amount */\n      dup5\n        /* \"contracts/FresaCoin.sol\":7499:7520  amount > 10_000 ether */\n      gt\n        /* \"contracts/FresaCoin.sol\":7498:7561  (amount > 10_000 ether) ? 15 : (amount > 1_000 ether) ? 12 : 10 */\n      tag_164\n      jumpi\n        /* \"contracts/FresaCoin.sol\":7539:7550  1_000 ether */\n      0x3635c9adc5dea00000\n        /* \"contracts/FresaCoin.sol\":7530:7536  amount */\n      dup5\n        /* \"contracts/FresaCoin.sol\":7530:7550  amount > 1_000 ether */\n      gt\n        /* \"contracts/FresaCoin.sol\":7529:7561  (amount > 1_000 ether) ? 12 : 10 */\n      tag_165\n      jumpi\n        /* \"contracts/FresaCoin.sol\":7559:7561  10 */\n      0x0a\n        /* \"contracts/FresaCoin.sol\":7529:7561  (amount > 1_000 ether) ? 12 : 10 */\n      jump(tag_166)\n    tag_165:\n        /* \"contracts/FresaCoin.sol\":7554:7556  12 */\n      0x0c\n        /* \"contracts/FresaCoin.sol\":7529:7561  (amount > 1_000 ether) ? 12 : 10 */\n    tag_166:\n        /* \"contracts/FresaCoin.sol\":7498:7561  (amount > 10_000 ether) ? 15 : (amount > 1_000 ether) ? 12 : 10 */\n      jump(tag_167)\n    tag_164:\n        /* \"contracts/FresaCoin.sol\":7524:7526  15 */\n      0x0f\n        /* \"contracts/FresaCoin.sol\":7498:7561  (amount > 10_000 ether) ? 15 : (amount > 1_000 ether) ? 12 : 10 */\n    tag_167:\n        /* \"contracts/FresaCoin.sol\":7479:7561  uint256 baseRate = (amount > 10_000 ether) ? 15 : (amount > 1_000 ether) ? 12 : 10 */\n      0xff\n      and\n      swap1\n      pop\n        /* \"contracts/FresaCoin.sol\":7571:7589  uint256 multiplier */\n      0x00\n        /* \"contracts/FresaCoin.sol\":7604:7611  30 days */\n      0x278d00\n        /* \"contracts/FresaCoin.sol\":7593:7601  duration */\n      dup5\n        /* \"contracts/FresaCoin.sol\":7593:7611  duration > 30 days */\n      gt\n        /* \"contracts/FresaCoin.sol\":7592:7620  (duration > 30 days) ? 2 : 1 */\n      tag_168\n      jumpi\n        /* \"contracts/FresaCoin.sol\":7619:7620  1 */\n      0x01\n        /* \"contracts/FresaCoin.sol\":7592:7620  (duration > 30 days) ? 2 : 1 */\n      jump(tag_169)\n    tag_168:\n        /* \"contracts/FresaCoin.sol\":7615:7616  2 */\n      0x02\n        /* \"contracts/FresaCoin.sol\":7592:7620  (duration > 30 days) ? 2 : 1 */\n    tag_169:\n        /* \"contracts/FresaCoin.sol\":7571:7620  uint256 multiplier = (duration > 30 days) ? 2 : 1 */\n      0xff\n      and\n      swap1\n      pop\n        /* \"contracts/FresaCoin.sol\":7668:7678  multiplier */\n      dup1\n        /* \"contracts/FresaCoin.sol\":7661:7664  100 */\n      0x64\n        /* \"contracts/FresaCoin.sol\":7650:7658  baseRate */\n      dup4\n        /* \"contracts/FresaCoin.sol\":7641:7647  amount */\n      dup8\n        /* \"contracts/FresaCoin.sol\":7641:7658  amount * baseRate */\n      tag_170\n      swap2\n      swap1\n      tag_171\n      jump\t// in\n    tag_170:\n        /* \"contracts/FresaCoin.sol\":7641:7664  amount * baseRate / 100 */\n      tag_172\n      swap2\n      swap1\n      tag_173\n      jump\t// in\n    tag_172:\n        /* \"contracts/FresaCoin.sol\":7640:7678  (amount * baseRate / 100) * multiplier */\n      tag_174\n      swap2\n      swap1\n      tag_171\n      jump\t// in\n    tag_174:\n        /* \"contracts/FresaCoin.sol\":7631:7678  reward = (amount * baseRate / 100) * multiplier */\n      swap3\n      pop\n        /* \"contracts/FresaCoin.sol\":7469:7685  {... */\n      pop\n      pop\n        /* \"contracts/FresaCoin.sol\":7345:7685  function calculateReward(uint256 amount, uint256 duration)... */\n      swap3\n      swap2\n      pop\n      pop\n      jump\t// out\n        /* \"contracts/FresaCoin.sol\":1113:1152  mapping(address => Stake) public stakes */\n    tag_70:\n      mstore(0x20, 0x06)\n      dup1\n      0x00\n      mstore\n      keccak256(0x00, 0x40)\n      0x00\n      swap2\n      pop\n      swap1\n      pop\n      dup1\n      0x00\n      add\n      sload\n      swap1\n      dup1\n      0x01\n      add\n      sload\n      swap1\n      dup1\n      0x02\n      add\n      sload\n      swap1\n      dup1\n      0x03\n      add\n      0x00\n      swap1\n      sload\n      swap1\n      0x0100\n      exp\n      swap1\n      div\n      0xffffffffffffffffffffffffffffffffffffffff\n      and\n      swap1\n      pop\n      dup5\n      jump\t// out\n        /* \"@openzeppelin/contracts/token/ERC20/ERC20.sol\":2849:2946  function totalSupply() public view virtual returns (uint256) {... */\n    tag_74:\n        /* \"@openzeppelin/contracts/token/ERC20/ERC20.sol\":2901:2908  uint256 */\n      0x00\n        /* \"@openzeppelin/contracts/token/ERC20/ERC20.sol\":2927:2939  _totalSupply */\n      sload(0x02)\n        /* \"@openzeppelin/contracts/token/ERC20/ERC20.sol\":2920:2939  return _totalSupply */\n      swap1\n      pop\n        /* \"@openzeppelin/contracts/token/ERC20/ERC20.sol\":2849:2946  function totalSupply() public view virtual returns (uint256) {... */\n      swap1\n      jump\t// out\n        /* \"@openzeppelin/contracts/token/ERC20/ERC20.sol\":4776:5020  function transferFrom(address from, address to, uint256 value) public virtual returns (bool) {... */\n    tag_79:\n        /* \"@openzeppelin/contracts/token/ERC20/ERC20.sol\":4863:4867  bool */\n      0x00\n        /* \"@openzeppelin/contracts/token/ERC20/ERC20.sol\":4879:4894  address spender */\n      0x00\n        /* \"@openzeppelin/contracts/token/ERC20/ERC20.sol\":4897:4909  _msgSender() */\n      tag_177\n        /* \"@openzeppelin/contracts/token/ERC20/ERC20.sol\":4897:4907  _msgSender */\n      tag_160\n        /* \"@openzeppelin/contracts/token/ERC20/ERC20.sol\":4897:4909  _msgSender() */\n      jump\t// in\n    tag_177:\n        /* \"@openzeppelin/contracts/token/ERC20/ERC20.sol\":4879:4909  address spender = _msgSender() */\n      swap1\n      pop\n        /* \"@openzeppelin/contracts/token/ERC20/ERC20.sol\":4919:4956  _spendAllowance(from, spender, value) */\n      tag_178\n        /* \"@openzeppelin/contracts/token/ERC20/ERC20.sol\":4935:4939  from */\n      dup6\n        /* \"@openzeppelin/contracts/token/ERC20/ERC20.sol\":4941:4948  spender */\n      dup3\n        /* \"@openzeppelin/contracts/token/ERC20/ERC20.sol\":4950:4955  value */\n      dup6\n        /* \"@openzeppelin/contracts/token/ERC20/ERC20.sol\":4919:4934  _spendAllowance */\n      tag_179\n        /* \"@openzeppelin/contracts/token/ERC20/ERC20.sol\":4919:4956  _spendAllowance(from, spender, value) */\n      jump\t// in\n    tag_178:\n        /* \"@openzeppelin/contracts/token/ERC20/ERC20.sol\":4966:4992  _transfer(from, to, value) */\n      tag_180\n        /* \"@openzeppelin/contracts/token/ERC20/ERC20.sol\":4976:4980  from */\n      dup6\n        /* \"@openzeppelin/contracts/token/ERC20/ERC20.sol\":4982:4984  to */\n      dup6\n        /* \"@openzeppelin/contracts/token/ERC20/ERC20.sol\":4986:4991  value */\n      dup6\n        /* \"@openzeppelin/contracts/token/ERC20/ERC20.sol\":4966:4975  _transfer */\n      tag_181\n        /* \"@openzeppelin/contracts/token/ERC20/ERC20.sol\":4966:4992  _transfer(from, to, value) */\n      jump\t// in\n    tag_180:\n        /* \"@openzeppelin/contracts/token/ERC20/ERC20.sol\":5009:5013  true */\n      0x01\n        /* \"@openzeppelin/contracts/token/ERC20/ERC20.sol\":5002:5013  return true */\n      swap2\n      pop\n      pop\n        /* \"@openzeppelin/contracts/token/ERC20/ERC20.sol\":4776:5020  function transferFrom(address from, address to, uint256 value) public virtual returns (bool) {... */\n      swap4\n      swap3\n      pop\n      pop\n      pop\n      jump\t// out\n        /* \"contracts/FresaCoin.sol\":3781:4537  function withdraw(uint256 amount) external {... */\n    tag_83:\n        /* \"contracts/FresaCoin.sol\":3834:3857  Stake storage userStake */\n      0x00\n        /* \"contracts/FresaCoin.sol\":3860:3866  stakes */\n      0x06\n        /* \"contracts/FresaCoin.sol\":3860:3878  stakes[msg.sender] */\n      0x00\n        /* \"contracts/FresaCoin.sol\":3867:3877  msg.sender */\n      caller\n        /* \"contracts/FresaCoin.sol\":3860:3878  stakes[msg.sender] */\n      0xffffffffffffffffffffffffffffffffffffffff\n      and\n      0xffffffffffffffffffffffffffffffffffffffff\n      and\n      dup2\n      mstore\n      0x20\n      add\n      swap1\n      dup2\n      mstore\n      0x20\n      add\n      0x00\n      keccak256\n        /* \"contracts/FresaCoin.sol\":3834:3878  Stake storage userStake = stakes[msg.sender] */\n      swap1\n      pop\n        /* \"contracts/FresaCoin.sol\":3916:3922  amount */\n      dup2\n        /* \"contracts/FresaCoin.sol\":3896:3905  userStake */\n      dup2\n        /* \"contracts/FresaCoin.sol\":3896:3912  userStake.amount */\n      0x00\n      add\n      sload\n        /* \"contracts/FresaCoin.sol\":3896:3922  userStake.amount >= amount */\n      lt\n      iszero\n        /* \"contracts/FresaCoin.sol\":3888:3954  require(userStake.amount >= amount, \"Insufficient staked balance\") */\n      tag_183\n      jumpi\n      mload(0x40)\n      0x08c379a000000000000000000000000000000000000000000000000000000000\n      dup2\n      mstore\n      0x04\n      add\n      tag_184\n      swap1\n      tag_185\n      jump\t// in\n    tag_184:\n      mload(0x40)\n      dup1\n      swap2\n      sub\n      swap1\n      revert\n    tag_183:\n        /* \"contracts/FresaCoin.sol\":3965:3984  uint256 currentTime */\n      0x00\n        /* \"contracts/FresaCoin.sol\":3987:4002  block.timestamp */\n      timestamp\n        /* \"contracts/FresaCoin.sol\":3965:4002  uint256 currentTime = block.timestamp */\n      swap1\n      pop\n        /* \"contracts/FresaCoin.sol\":4012:4028  uint256 duration */\n      0x00\n        /* \"contracts/FresaCoin.sol\":4045:4054  userStake */\n      dup3\n        /* \"contracts/FresaCoin.sol\":4045:4074  userStake.lastStakedTimestamp */\n      0x02\n      add\n      sload\n        /* \"contracts/FresaCoin.sol\":4031:4042  currentTime */\n      dup3\n        /* \"contracts/FresaCoin.sol\":4031:4074  currentTime - userStake.lastStakedTimestamp */\n      tag_186\n      swap2\n      swap1\n      tag_187\n      jump\t// in\n    tag_186:\n        /* \"contracts/FresaCoin.sol\":4012:4074  uint256 duration = currentTime - userStake.lastStakedTimestamp */\n      swap1\n      pop\n        /* \"contracts/FresaCoin.sol\":4085:4100  uint256 penalty */\n      0x00\n        /* \"contracts/FresaCoin.sol\":4103:4104  0 */\n      0x00\n        /* \"contracts/FresaCoin.sol\":4085:4104  uint256 penalty = 0 */\n      swap1\n      pop\n        /* \"contracts/FresaCoin.sol\":4129:4145  minStakeDuration */\n      sload(0x0e)\n        /* \"contracts/FresaCoin.sol\":4118:4126  duration */\n      dup3\n        /* \"contracts/FresaCoin.sol\":4118:4145  duration < minStakeDuration */\n      lt\n        /* \"contracts/FresaCoin.sol\":4114:4290  if (duration < minStakeDuration) {... */\n      iszero\n      tag_188\n      jumpi\n        /* \"contracts/FresaCoin.sol\":4187:4190  100 */\n      0x64\n        /* \"contracts/FresaCoin.sol\":4181:4183  20 */\n      0x14\n        /* \"contracts/FresaCoin.sol\":4172:4178  amount */\n      dup7\n        /* \"contracts/FresaCoin.sol\":4172:4183  amount * 20 */\n      tag_189\n      swap2\n      swap1\n      tag_171\n      jump\t// in\n    tag_189:\n        /* \"contracts/FresaCoin.sol\":4171:4190  (amount * 20) / 100 */\n      tag_190\n      swap2\n      swap1\n      tag_173\n      jump\t// in\n    tag_190:\n        /* \"contracts/FresaCoin.sol\":4161:4190  penalty = (amount * 20) / 100 */\n      swap1\n      pop\n        /* \"contracts/FresaCoin.sol\":4219:4252  _burn(address(this), penalty / 2) */\n      tag_191\n        /* \"contracts/FresaCoin.sol\":4233:4237  this */\n      address\n        /* \"contracts/FresaCoin.sol\":4250:4251  2 */\n      0x02\n        /* \"contracts/FresaCoin.sol\":4240:4247  penalty */\n      dup4\n        /* \"contracts/FresaCoin.sol\":4240:4251  penalty / 2 */\n      tag_192\n      swap2\n      swap1\n      tag_173\n      jump\t// in\n    tag_192:\n        /* \"contracts/FresaCoin.sol\":4219:4224  _burn */\n      tag_193\n        /* \"contracts/FresaCoin.sol\":4219:4252  _burn(address(this), penalty / 2) */\n      jump\t// in\n    tag_191:\n        /* \"contracts/FresaCoin.sol\":4114:4290  if (duration < minStakeDuration) {... */\n    tag_188:\n        /* \"contracts/FresaCoin.sol\":4300:4317  uint256 netAmount */\n      0x00\n        /* \"contracts/FresaCoin.sol\":4329:4336  penalty */\n      dup2\n        /* \"contracts/FresaCoin.sol\":4320:4326  amount */\n      dup7\n        /* \"contracts/FresaCoin.sol\":4320:4336  amount - penalty */\n      tag_194\n      swap2\n      swap1\n      tag_187\n      jump\t// in\n    tag_194:\n        /* \"contracts/FresaCoin.sol\":4300:4336  uint256 netAmount = amount - penalty */\n      swap1\n      pop\n        /* \"contracts/FresaCoin.sol\":4366:4372  amount */\n      dup6\n        /* \"contracts/FresaCoin.sol\":4346:4355  userStake */\n      dup6\n        /* \"contracts/FresaCoin.sol\":4346:4362  userStake.amount */\n      0x00\n      add\n      0x00\n        /* \"contracts/FresaCoin.sol\":4346:4372  userStake.amount -= amount */\n      dup3\n      dup3\n      sload\n      tag_195\n      swap2\n      swap1\n      tag_187\n      jump\t// in\n    tag_195:\n      swap3\n      pop\n      pop\n      dup2\n      swap1\n      sstore\n      pop\n        /* \"contracts/FresaCoin.sol\":4409:4415  amount */\n      dup6\n        /* \"contracts/FresaCoin.sol\":4382:4393  stakingPool */\n      0x0a\n        /* \"contracts/FresaCoin.sol\":4382:4405  stakingPool.totalStaked */\n      0x02\n      add\n      0x00\n        /* \"contracts/FresaCoin.sol\":4382:4415  stakingPool.totalStaked -= amount */\n      dup3\n      dup3\n      sload\n      tag_196\n      swap2\n      swap1\n      tag_187\n      jump\t// in\n    tag_196:\n      swap3\n      pop\n      pop\n      dup2\n      swap1\n      sstore\n      pop\n        /* \"contracts/FresaCoin.sol\":4426:4473  _transfer(address(this), msg.sender, netAmount) */\n      tag_197\n        /* \"contracts/FresaCoin.sol\":4444:4448  this */\n      address\n        /* \"contracts/FresaCoin.sol\":4451:4461  msg.sender */\n      caller\n        /* \"contracts/FresaCoin.sol\":4463:4472  netAmount */\n      dup4\n        /* \"contracts/FresaCoin.sol\":4426:4435  _transfer */\n      tag_181\n        /* \"contracts/FresaCoin.sol\":4426:4473  _transfer(address(this), msg.sender, netAmount) */\n      jump\t// in\n    tag_197:\n        /* \"contracts/FresaCoin.sol\":4499:4509  msg.sender */\n      caller\n        /* \"contracts/FresaCoin.sol\":4489:4530  Withdrawn(msg.sender, netAmount, penalty) */\n      0xffffffffffffffffffffffffffffffffffffffff\n      and\n      0x92ccf450a286a957af52509bc1c9939d1a6a481783e142e41e2499f0bb66ebc6\n        /* \"contracts/FresaCoin.sol\":4511:4520  netAmount */\n      dup3\n        /* \"contracts/FresaCoin.sol\":4522:4529  penalty */\n      dup5\n        /* \"contracts/FresaCoin.sol\":4489:4530  Withdrawn(msg.sender, netAmount, penalty) */\n      mload(0x40)\n      tag_198\n      swap3\n      swap2\n      swap1\n      tag_199\n      jump\t// in\n    tag_198:\n      mload(0x40)\n      dup1\n      swap2\n      sub\n      swap1\n      log2\n        /* \"contracts/FresaCoin.sol\":3824:4537  {... */\n      pop\n      pop\n      pop\n      pop\n      pop\n        /* \"contracts/FresaCoin.sol\":3781:4537  function withdraw(uint256 amount) external {... */\n      pop\n      jump\t// out\n        /* \"@openzeppelin/contracts/token/ERC20/ERC20.sol\":2707:2789  function decimals() public view virtual returns (uint8) {... */\n    tag_85:\n        /* \"@openzeppelin/contracts/token/ERC20/ERC20.sol\":2756:2761  uint8 */\n      0x00\n        /* \"@openzeppelin/contracts/token/ERC20/ERC20.sol\":2780:2782  18 */\n      0x12\n        /* \"@openzeppelin/contracts/token/ERC20/ERC20.sol\":2773:2782  return 18 */\n      swap1\n      pop\n        /* \"@openzeppelin/contracts/token/ERC20/ERC20.sol\":2707:2789  function decimals() public view virtual returns (uint8) {... */\n      swap1\n      jump\t// out\n        /* \"contracts/FresaCoin.sol\":5874:6174  function enterLottery(uint256 amount) external {... */\n    tag_90:\n        /* \"contracts/FresaCoin.sol\":5948:5949  0 */\n      0x00\n        /* \"contracts/FresaCoin.sol\":5939:5945  amount */\n      dup2\n        /* \"contracts/FresaCoin.sol\":5939:5949  amount > 0 */\n      gt\n        /* \"contracts/FresaCoin.sol\":5931:5983  require(amount > 0, \"Cannot enter with zero tokens\") */\n      tag_202\n      jumpi\n      mload(0x40)\n      0x08c379a000000000000000000000000000000000000000000000000000000000\n      dup2\n      mstore\n      0x04\n      add\n      tag_203\n      swap1\n      tag_204\n      jump\t// in\n    tag_203:\n      mload(0x40)\n      dup1\n      swap2\n      sub\n      swap1\n      revert\n    tag_202:\n        /* \"contracts/FresaCoin.sol\":5994:6038  _transfer(msg.sender, address(this), amount) */\n      tag_205\n        /* \"contracts/FresaCoin.sol\":6004:6014  msg.sender */\n      caller\n        /* \"contracts/FresaCoin.sol\":6024:6028  this */\n      address\n        /* \"contracts/FresaCoin.sol\":6031:6037  amount */\n      dup4\n        /* \"contracts/FresaCoin.sol\":5994:6003  _transfer */\n      tag_181\n        /* \"contracts/FresaCoin.sol\":5994:6038  _transfer(msg.sender, address(this), amount) */\n      jump\t// in\n    tag_205:\n        /* \"contracts/FresaCoin.sol\":6048:6055  lottery */\n      0x08\n        /* \"contracts/FresaCoin.sol\":6048:6063  lottery.entries */\n      0x00\n      add\n        /* \"contracts/FresaCoin.sol\":6069:6079  msg.sender */\n      caller\n        /* \"contracts/FresaCoin.sol\":6048:6080  lottery.entries.push(msg.sender) */\n      swap1\n      dup1\n      0x01\n      dup2\n      sload\n      add\n      dup1\n      dup3\n      sstore\n      dup1\n      swap2\n      pop\n      pop\n      0x01\n      swap1\n      sub\n      swap1\n      0x00\n      mstore\n      keccak256(0x00, 0x20)\n      add\n      0x00\n      swap1\n      swap2\n      swap1\n      swap2\n      swap1\n      swap2\n      0x0100\n      exp\n      dup2\n      sload\n      dup2\n      0xffffffffffffffffffffffffffffffffffffffff\n      mul\n      not\n      and\n      swap1\n      dup4\n      0xffffffffffffffffffffffffffffffffffffffff\n      and\n      mul\n      or\n      swap1\n      sstore\n      pop\n        /* \"contracts/FresaCoin.sol\":6111:6117  amount */\n      dup1\n        /* \"contracts/FresaCoin.sol\":6090:6097  lottery */\n      0x08\n        /* \"contracts/FresaCoin.sol\":6090:6107  lottery.prizePool */\n      0x01\n      add\n      0x00\n        /* \"contracts/FresaCoin.sol\":6090:6117  lottery.prizePool += amount */\n      dup3\n      dup3\n      sload\n      tag_207\n      swap2\n      swap1\n      tag_208\n      jump\t// in\n    tag_207:\n      swap3\n      pop\n      pop\n      dup2\n      swap1\n      sstore\n      pop\n        /* \"contracts/FresaCoin.sol\":6148:6158  msg.sender */\n      caller\n        /* \"contracts/FresaCoin.sol\":6133:6167  LotteryEntered(msg.sender, amount) */\n      0xffffffffffffffffffffffffffffffffffffffff\n      and\n      0xc28711c8dcc0cb3d25732e13809d1d8c2640669a0a3fb4f7729810a9caaffdff\n        /* \"contracts/FresaCoin.sol\":6160:6166  amount */\n      dup3\n        /* \"contracts/FresaCoin.sol\":6133:6167  LotteryEntered(msg.sender, amount) */\n      mload(0x40)\n      tag_209\n      swap2\n      swap1\n      tag_57\n      jump\t// in\n    tag_209:\n      mload(0x40)\n      dup1\n      swap2\n      sub\n      swap1\n      log2\n        /* \"contracts/FresaCoin.sol\":5874:6174  function enterLottery(uint256 amount) external {... */\n      pop\n      jump\t// out\n        /* \"contracts/FresaCoin.sol\":4643:4990  function createProposal(string memory description) external onlyOwner {... */\n    tag_94:\n        /* \"@openzeppelin/contracts/access/Ownable.sol\":1531:1544  _checkOwner() */\n      tag_211\n        /* \"@openzeppelin/contracts/access/Ownable.sol\":1531:1542  _checkOwner */\n      tag_212\n        /* \"@openzeppelin/contracts/access/Ownable.sol\":1531:1544  _checkOwner() */\n      jump\t// in\n    tag_211:\n        /* \"contracts/FresaCoin.sol\":4723:4738  proposalCounter */\n      0x0d\n      0x00\n        /* \"contracts/FresaCoin.sol\":4723:4740  proposalCounter++ */\n      dup2\n      sload\n      dup1\n      swap3\n      swap2\n      swap1\n      tag_214\n      swap1\n      tag_215\n      jump\t// in\n    tag_214:\n      swap2\n      swap1\n      pop\n      sstore\n      pop\n        /* \"contracts/FresaCoin.sol\":4779:4922  Proposal({... */\n      mload(0x40)\n      dup1\n      0x80\n      add\n      0x40\n      mstore\n      dup1\n        /* \"contracts/FresaCoin.sol\":4815:4826  description */\n      dup3\n        /* \"contracts/FresaCoin.sol\":4779:4922  Proposal({... */\n      dup2\n      mstore\n      0x20\n      add\n        /* \"contracts/FresaCoin.sol\":4850:4851  0 */\n      0x00\n        /* \"contracts/FresaCoin.sol\":4779:4922  Proposal({... */\n      dup2\n      mstore\n      0x20\n      add\n        /* \"contracts/FresaCoin.sol\":4879:4880  0 */\n      0x00\n        /* \"contracts/FresaCoin.sol\":4779:4922  Proposal({... */\n      dup2\n      mstore\n      0x20\n      add\n        /* \"contracts/FresaCoin.sol\":4906:4911  false */\n      0x00\n        /* \"contracts/FresaCoin.sol\":4779:4922  Proposal({... */\n      iszero\n      iszero\n      dup2\n      mstore\n      pop\n        /* \"contracts/FresaCoin.sol\":4750:4759  proposals */\n      0x07\n        /* \"contracts/FresaCoin.sol\":4750:4776  proposals[proposalCounter] */\n      0x00\n        /* \"contracts/FresaCoin.sol\":4760:4775  proposalCounter */\n      sload(0x0d)\n        /* \"contracts/FresaCoin.sol\":4750:4776  proposals[proposalCounter] */\n      dup2\n      mstore\n      0x20\n      add\n      swap1\n      dup2\n      mstore\n      0x20\n      add\n      0x00\n      keccak256\n        /* \"contracts/FresaCoin.sol\":4750:4922  proposals[proposalCounter] = Proposal({... */\n      0x00\n      dup3\n      add\n      mload\n      dup2\n      0x00\n      add\n      swap1\n      dup2\n      tag_216\n      swap2\n      swap1\n      tag_217\n      jump\t// in\n    tag_216:\n      pop\n      0x20\n      dup3\n      add\n      mload\n      dup2\n      0x01\n      add\n      sstore\n      0x40\n      dup3\n      add\n      mload\n      dup2\n      0x02\n      add\n      sstore\n      0x60\n      dup3\n      add\n      mload\n      dup2\n      0x03\n      add\n      exp(0x0100, 0x00)\n      dup2\n      sload\n      dup2\n      0xff\n      mul\n      not\n      and\n      swap1\n      dup4\n      iszero\n      iszero\n      mul\n      or\n      swap1\n      sstore\n      pop\n      swap1\n      pop\n      pop\n        /* \"contracts/FresaCoin.sol\":4954:4969  proposalCounter */\n      sload(0x0d)\n        /* \"contracts/FresaCoin.sol\":4938:4983  ProposalCreated(proposalCounter, description) */\n      0x9c770c289ab5bf7e57cb1d23c8ceae993aea46eb64847072fd3d78ca60d3e432\n        /* \"contracts/FresaCoin.sol\":4971:4982  description */\n      dup3\n        /* \"contracts/FresaCoin.sol\":4938:4983  ProposalCreated(proposalCounter, description) */\n      mload(0x40)\n      tag_218\n      swap2\n      swap1\n      tag_47\n      jump\t// in\n    tag_218:\n      mload(0x40)\n      dup1\n      swap2\n      sub\n      swap1\n      log2\n        /* \"contracts/FresaCoin.sol\":4643:4990  function createProposal(string memory description) external onlyOwner {... */\n      pop\n      jump\t// out\n        /* \"contracts/FresaCoin.sol\":6226:6767  function drawLotteryWinner() external onlyOwner {... */\n    tag_96:\n        /* \"@openzeppelin/contracts/access/Ownable.sol\":1531:1544  _checkOwner() */\n      tag_220\n        /* \"@openzeppelin/contracts/access/Ownable.sol\":1531:1542  _checkOwner */\n      tag_212\n        /* \"@openzeppelin/contracts/access/Ownable.sol\":1531:1544  _checkOwner() */\n      jump\t// in\n    tag_220:\n        /* \"contracts/FresaCoin.sol\":6317:6318  0 */\n      0x00\n        /* \"contracts/FresaCoin.sol\":6292:6299  lottery */\n      0x08\n        /* \"contracts/FresaCoin.sol\":6292:6307  lottery.entries */\n      0x00\n      add\n        /* \"contracts/FresaCoin.sol\":6292:6314  lottery.entries.length */\n      dup1\n      sload\n      swap1\n      pop\n        /* \"contracts/FresaCoin.sol\":6292:6318  lottery.entries.length > 0 */\n      gt\n        /* \"contracts/FresaCoin.sol\":6284:6353  require(lottery.entries.length > 0, \"No participants in the lottery\") */\n      tag_222\n      jumpi\n      mload(0x40)\n      0x08c379a000000000000000000000000000000000000000000000000000000000\n      dup2\n      mstore\n      0x04\n      add\n      tag_223\n      swap1\n      tag_224\n      jump\t// in\n    tag_223:\n      mload(0x40)\n      dup1\n      swap2\n      sub\n      swap1\n      revert\n    tag_222:\n        /* \"contracts/FresaCoin.sol\":6364:6383  uint256 randomIndex */\n      0x00\n        /* \"contracts/FresaCoin.sol\":6482:6489  lottery */\n      0x08\n        /* \"contracts/FresaCoin.sol\":6482:6497  lottery.entries */\n      0x00\n      add\n        /* \"contracts/FresaCoin.sol\":6482:6504  lottery.entries.length */\n      dup1\n      sload\n      swap1\n      pop\n        /* \"contracts/FresaCoin.sol\":6434:6449  block.timestamp */\n      timestamp\n        /* \"contracts/FresaCoin.sol\":6451:6467  block.difficulty */\n      prevrandao\n        /* \"contracts/FresaCoin.sol\":6417:6468  abi.encodePacked(block.timestamp, block.difficulty) */\n      add(0x20, mload(0x40))\n      tag_225\n      swap3\n      swap2\n      swap1\n      tag_226\n      jump\t// in\n    tag_225:\n      mload(0x40)\n      0x20\n      dup2\n      dup4\n      sub\n      sub\n      dup2\n      mstore\n      swap1\n      0x40\n      mstore\n        /* \"contracts/FresaCoin.sol\":6407:6469  keccak256(abi.encodePacked(block.timestamp, block.difficulty)) */\n      dup1\n      mload\n      swap1\n      0x20\n      add\n      keccak256\n        /* \"contracts/FresaCoin.sol\":6386:6479  uint256(... */\n      0x00\n      shr\n        /* \"contracts/FresaCoin.sol\":6386:6504  uint256(... */\n      tag_227\n      swap2\n      swap1\n      tag_228\n      jump\t// in\n    tag_227:\n        /* \"contracts/FresaCoin.sol\":6364:6504  uint256 randomIndex = uint256(... */\n      swap1\n      pop\n        /* \"contracts/FresaCoin.sol\":6514:6528  address winner */\n      0x00\n        /* \"contracts/FresaCoin.sol\":6531:6538  lottery */\n      0x08\n        /* \"contracts/FresaCoin.sol\":6531:6546  lottery.entries */\n      0x00\n      add\n        /* \"contracts/FresaCoin.sol\":6547:6558  randomIndex */\n      dup3\n        /* \"contracts/FresaCoin.sol\":6531:6559  lottery.entries[randomIndex] */\n      dup2\n      sload\n      dup2\n      lt\n      tag_229\n      jumpi\n      tag_230\n      tag_231\n      jump\t// in\n    tag_230:\n    tag_229:\n      swap1\n      0x00\n      mstore\n      keccak256(0x00, 0x20)\n      add\n      0x00\n      swap1\n      sload\n      swap1\n      0x0100\n      exp\n      swap1\n      div\n      0xffffffffffffffffffffffffffffffffffffffff\n      and\n        /* \"contracts/FresaCoin.sol\":6514:6559  address winner = lottery.entries[randomIndex] */\n      swap1\n      pop\n        /* \"contracts/FresaCoin.sol\":6570:6583  uint256 prize */\n      0x00\n        /* \"contracts/FresaCoin.sol\":6586:6593  lottery */\n      0x08\n        /* \"contracts/FresaCoin.sol\":6586:6603  lottery.prizePool */\n      0x01\n      add\n      sload\n        /* \"contracts/FresaCoin.sol\":6570:6603  uint256 prize = lottery.prizePool */\n      swap1\n      pop\n        /* \"contracts/FresaCoin.sol\":6633:6634  0 */\n      0x00\n        /* \"contracts/FresaCoin.sol\":6613:6620  lottery */\n      0x08\n        /* \"contracts/FresaCoin.sol\":6613:6630  lottery.prizePool */\n      0x01\n      add\n        /* \"contracts/FresaCoin.sol\":6613:6634  lottery.prizePool = 0 */\n      dup2\n      swap1\n      sstore\n      pop\n        /* \"contracts/FresaCoin.sol\":6651:6658  lottery */\n      0x08\n        /* \"contracts/FresaCoin.sol\":6651:6666  lottery.entries */\n      0x00\n      add\n      0x00\n        /* \"contracts/FresaCoin.sol\":6644:6666  delete lottery.entries */\n      tag_233\n      swap2\n      swap1\n      tag_234\n      jump\t// in\n    tag_233:\n        /* \"contracts/FresaCoin.sol\":6677:6716  _transfer(address(this), winner, prize) */\n      tag_235\n        /* \"contracts/FresaCoin.sol\":6695:6699  this */\n      address\n        /* \"contracts/FresaCoin.sol\":6702:6708  winner */\n      dup4\n        /* \"contracts/FresaCoin.sol\":6710:6715  prize */\n      dup4\n        /* \"contracts/FresaCoin.sol\":6677:6686  _transfer */\n      tag_181\n        /* \"contracts/FresaCoin.sol\":6677:6716  _transfer(address(this), winner, prize) */\n      jump\t// in\n    tag_235:\n        /* \"contracts/FresaCoin.sol\":6746:6752  winner */\n      dup2\n        /* \"contracts/FresaCoin.sol\":6732:6760  LotteryWinner(winner, prize) */\n      0xffffffffffffffffffffffffffffffffffffffff\n      and\n      0x275eaacf9e506f9c68b251c2f97cf723c4fb9a3b94e42a1dfb581543c135f0c0\n        /* \"contracts/FresaCoin.sol\":6754:6759  prize */\n      dup3\n        /* \"contracts/FresaCoin.sol\":6732:6760  LotteryWinner(winner, prize) */\n      mload(0x40)\n      tag_236\n      swap2\n      swap1\n      tag_57\n      jump\t// in\n    tag_236:\n      mload(0x40)\n      dup1\n      swap2\n      sub\n      swap1\n      log2\n        /* \"contracts/FresaCoin.sol\":6274:6767  {... */\n      pop\n      pop\n      pop\n        /* \"contracts/FresaCoin.sol\":6226:6767  function drawLotteryWinner() external onlyOwner {... */\n      jump\t// out\n        /* \"contracts/FresaCoin.sol\":1426:1466  uint256 public minStakeDuration = 7 days */\n    tag_98:\n      sload(0x0e)\n      dup2\n      jump\t// out\n        /* \"@openzeppelin/contracts/token/ERC20/ERC20.sol\":3004:3120  function balanceOf(address account) public view virtual returns (uint256) {... */\n    tag_102:\n        /* \"@openzeppelin/contracts/token/ERC20/ERC20.sol\":3069:3076  uint256 */\n      0x00\n        /* \"@openzeppelin/contracts/token/ERC20/ERC20.sol\":3095:3104  _balances */\n      0x00\n        /* \"@openzeppelin/contracts/token/ERC20/ERC20.sol\":3095:3113  _balances[account] */\n      0x00\n        /* \"@openzeppelin/contracts/token/ERC20/ERC20.sol\":3105:3112  account */\n      dup4\n        /* \"@openzeppelin/contracts/token/ERC20/ERC20.sol\":3095:3113  _balances[account] */\n      0xffffffffffffffffffffffffffffffffffffffff\n      and\n      0xffffffffffffffffffffffffffffffffffffffff\n      and\n      dup2\n      mstore\n      0x20\n      add\n      swap1\n      dup2\n      mstore\n      0x20\n      add\n      0x00\n      keccak256\n      sload\n        /* \"@openzeppelin/contracts/token/ERC20/ERC20.sol\":3088:3113  return _balances[account] */\n      swap1\n      pop\n        /* \"@openzeppelin/contracts/token/ERC20/ERC20.sol\":3004:3120  function balanceOf(address account) public view virtual returns (uint256) {... */\n      swap2\n      swap1\n      pop\n      jump\t// out\n        /* \"@openzeppelin/contracts/access/Ownable.sol\":2293:2394  function renounceOwnership() public virtual onlyOwner {... */\n    tag_105:\n        /* \"@openzeppelin/contracts/access/Ownable.sol\":1531:1544  _checkOwner() */\n      tag_239\n        /* \"@openzeppelin/contracts/access/Ownable.sol\":1531:1542  _checkOwner */\n      tag_212\n        /* \"@openzeppelin/contracts/access/Ownable.sol\":1531:1544  _checkOwner() */\n      jump\t// in\n    tag_239:\n        /* \"@openzeppelin/contracts/access/Ownable.sol\":2357:2387  _transferOwnership(address(0)) */\n      tag_241\n        /* \"@openzeppelin/contracts/access/Ownable.sol\":2384:2385  0 */\n      0x00\n        /* \"@openzeppelin/contracts/access/Ownable.sol\":2357:2375  _transferOwnership */\n      tag_242\n        /* \"@openzeppelin/contracts/access/Ownable.sol\":2357:2387  _transferOwnership(address(0)) */\n      jump\t// in\n    tag_241:\n        /* \"@openzeppelin/contracts/access/Ownable.sol\":2293:2394  function renounceOwnership() public virtual onlyOwner {... */\n      jump\t// out\n        /* \"contracts/FresaCoin.sol\":2704:3668  function stake(uint256 amount, address referrer) external {... */\n    tag_109:\n        /* \"contracts/FresaCoin.sol\":2789:2790  0 */\n      0x00\n        /* \"contracts/FresaCoin.sol\":2780:2786  amount */\n      dup3\n        /* \"contracts/FresaCoin.sol\":2780:2790  amount > 0 */\n      gt\n        /* \"contracts/FresaCoin.sol\":2772:2819  require(amount > 0, \"Cannot stake zero tokens\") */\n      tag_244\n      jumpi\n      mload(0x40)\n      0x08c379a000000000000000000000000000000000000000000000000000000000\n      dup2\n      mstore\n      0x04\n      add\n      tag_245\n      swap1\n      tag_246\n      jump\t// in\n    tag_245:\n      mload(0x40)\n      dup1\n      swap2\n      sub\n      swap1\n      revert\n    tag_244:\n        /* \"contracts/FresaCoin.sol\":2829:2873  _transfer(msg.sender, address(this), amount) */\n      tag_247\n        /* \"contracts/FresaCoin.sol\":2839:2849  msg.sender */\n      caller\n        /* \"contracts/FresaCoin.sol\":2859:2863  this */\n      address\n        /* \"contracts/FresaCoin.sol\":2866:2872  amount */\n      dup5\n        /* \"contracts/FresaCoin.sol\":2829:2838  _transfer */\n      tag_181\n        /* \"contracts/FresaCoin.sol\":2829:2873  _transfer(msg.sender, address(this), amount) */\n      jump\t// in\n    tag_247:\n        /* \"contracts/FresaCoin.sol\":2884:2907  Stake storage userStake */\n      0x00\n        /* \"contracts/FresaCoin.sol\":2910:2916  stakes */\n      0x06\n        /* \"contracts/FresaCoin.sol\":2910:2928  stakes[msg.sender] */\n      0x00\n        /* \"contracts/FresaCoin.sol\":2917:2927  msg.sender */\n      caller\n        /* \"contracts/FresaCoin.sol\":2910:2928  stakes[msg.sender] */\n      0xffffffffffffffffffffffffffffffffffffffff\n      and\n      0xffffffffffffffffffffffffffffffffffffffff\n      and\n      dup2\n      mstore\n      0x20\n      add\n      swap1\n      dup2\n      mstore\n      0x20\n      add\n      0x00\n      keccak256\n        /* \"contracts/FresaCoin.sol\":2884:2928  Stake storage userStake = stakes[msg.sender] */\n      swap1\n      pop\n        /* \"contracts/FresaCoin.sol\":2938:2957  uint256 currentTime */\n      0x00\n        /* \"contracts/FresaCoin.sol\":2960:2975  block.timestamp */\n      timestamp\n        /* \"contracts/FresaCoin.sol\":2938:2975  uint256 currentTime = block.timestamp */\n      swap1\n      pop\n        /* \"contracts/FresaCoin.sol\":3057:3058  0 */\n      0x00\n        /* \"contracts/FresaCoin.sol\":3038:3047  userStake */\n      dup3\n        /* \"contracts/FresaCoin.sol\":3038:3054  userStake.amount */\n      0x00\n      add\n      sload\n        /* \"contracts/FresaCoin.sol\":3038:3058  userStake.amount > 0 */\n      gt\n        /* \"contracts/FresaCoin.sol\":3034:3235  if (userStake.amount > 0) {... */\n      iszero\n      tag_248\n      jumpi\n        /* \"contracts/FresaCoin.sol\":3074:3090  uint256 duration */\n      0x00\n        /* \"contracts/FresaCoin.sol\":3107:3116  userStake */\n      dup3\n        /* \"contracts/FresaCoin.sol\":3107:3136  userStake.lastStakedTimestamp */\n      0x02\n      add\n      sload\n        /* \"contracts/FresaCoin.sol\":3093:3104  currentTime */\n      dup3\n        /* \"contracts/FresaCoin.sol\":3093:3136  currentTime - userStake.lastStakedTimestamp */\n      tag_249\n      swap2\n      swap1\n      tag_187\n      jump\t// in\n    tag_249:\n        /* \"contracts/FresaCoin.sol\":3074:3136  uint256 duration = currentTime - userStake.lastStakedTimestamp */\n      swap1\n      pop\n        /* \"contracts/FresaCoin.sol\":3181:3224  calculateReward(userStake.amount, duration) */\n      tag_250\n        /* \"contracts/FresaCoin.sol\":3197:3206  userStake */\n      dup4\n        /* \"contracts/FresaCoin.sol\":3197:3213  userStake.amount */\n      0x00\n      add\n      sload\n        /* \"contracts/FresaCoin.sol\":3215:3223  duration */\n      dup3\n        /* \"contracts/FresaCoin.sol\":3181:3196  calculateReward */\n      tag_65\n        /* \"contracts/FresaCoin.sol\":3181:3224  calculateReward(userStake.amount, duration) */\n      jump\t// in\n    tag_250:\n        /* \"contracts/FresaCoin.sol\":3150:3159  userStake */\n      dup4\n        /* \"contracts/FresaCoin.sol\":3150:3177  userStake.rewardAccumulated */\n      0x01\n      add\n      0x00\n        /* \"contracts/FresaCoin.sol\":3150:3224  userStake.rewardAccumulated += calculateReward(userStake.amount, duration) */\n      dup3\n      dup3\n      sload\n      tag_251\n      swap2\n      swap1\n      tag_208\n      jump\t// in\n    tag_251:\n      swap3\n      pop\n      pop\n      dup2\n      swap1\n      sstore\n      pop\n        /* \"contracts/FresaCoin.sol\":3060:3235  {... */\n      pop\n        /* \"contracts/FresaCoin.sol\":3034:3235  if (userStake.amount > 0) {... */\n    tag_248:\n        /* \"contracts/FresaCoin.sol\":3265:3271  amount */\n      dup4\n        /* \"contracts/FresaCoin.sol\":3245:3254  userStake */\n      dup3\n        /* \"contracts/FresaCoin.sol\":3245:3261  userStake.amount */\n      0x00\n      add\n      0x00\n        /* \"contracts/FresaCoin.sol\":3245:3271  userStake.amount += amount */\n      dup3\n      dup3\n      sload\n      tag_252\n      swap2\n      swap1\n      tag_208\n      jump\t// in\n    tag_252:\n      swap3\n      pop\n      pop\n      dup2\n      swap1\n      sstore\n      pop\n        /* \"contracts/FresaCoin.sol\":3313:3324  currentTime */\n      dup1\n        /* \"contracts/FresaCoin.sol\":3281:3290  userStake */\n      dup3\n        /* \"contracts/FresaCoin.sol\":3281:3310  userStake.lastStakedTimestamp */\n      0x02\n      add\n        /* \"contracts/FresaCoin.sol\":3281:3324  userStake.lastStakedTimestamp = currentTime */\n      dup2\n      swap1\n      sstore\n      pop\n        /* \"contracts/FresaCoin.sol\":3385:3386  0 */\n      0x00\n        /* \"contracts/FresaCoin.sol\":3365:3387  referrer != address(0) */\n      0xffffffffffffffffffffffffffffffffffffffff\n      and\n        /* \"contracts/FresaCoin.sol\":3365:3373  referrer */\n      dup4\n        /* \"contracts/FresaCoin.sol\":3365:3387  referrer != address(0) */\n      0xffffffffffffffffffffffffffffffffffffffff\n      and\n      eq\n      iszero\n        /* \"contracts/FresaCoin.sol\":3365:3413  referrer != address(0) && referrer != msg.sender */\n      dup1\n      iszero\n      tag_253\n      jumpi\n      pop\n        /* \"contracts/FresaCoin.sol\":3403:3413  msg.sender */\n      caller\n        /* \"contracts/FresaCoin.sol\":3391:3413  referrer != msg.sender */\n      0xffffffffffffffffffffffffffffffffffffffff\n      and\n        /* \"contracts/FresaCoin.sol\":3391:3399  referrer */\n      dup4\n        /* \"contracts/FresaCoin.sol\":3391:3413  referrer != msg.sender */\n      0xffffffffffffffffffffffffffffffffffffffff\n      and\n      eq\n      iszero\n        /* \"contracts/FresaCoin.sol\":3365:3413  referrer != address(0) && referrer != msg.sender */\n    tag_253:\n        /* \"contracts/FresaCoin.sol\":3361:3566  if (referrer != address(0) && referrer != msg.sender) {... */\n      iszero\n      tag_254\n      jumpi\n        /* \"contracts/FresaCoin.sol\":3429:3442  uint256 bonus */\n      0x00\n        /* \"contracts/FresaCoin.sol\":3473:3476  100 */\n      0x64\n        /* \"contracts/FresaCoin.sol\":1541:1542  5 */\n      0x05\n        /* \"contracts/FresaCoin.sol\":3446:3452  amount */\n      dup7\n        /* \"contracts/FresaCoin.sol\":3446:3469  amount * REFERRAL_BONUS */\n      tag_255\n      swap2\n      swap1\n      tag_171\n      jump\t// in\n    tag_255:\n        /* \"contracts/FresaCoin.sol\":3445:3476  (amount * REFERRAL_BONUS) / 100 */\n      tag_256\n      swap2\n      swap1\n      tag_173\n      jump\t// in\n    tag_256:\n        /* \"contracts/FresaCoin.sol\":3429:3476  uint256 bonus = (amount * REFERRAL_BONUS) / 100 */\n      swap1\n      pop\n        /* \"contracts/FresaCoin.sol\":3490:3512  _mint(referrer, bonus) */\n      tag_257\n        /* \"contracts/FresaCoin.sol\":3496:3504  referrer */\n      dup5\n        /* \"contracts/FresaCoin.sol\":3506:3511  bonus */\n      dup3\n        /* \"contracts/FresaCoin.sol\":3490:3495  _mint */\n      tag_258\n        /* \"contracts/FresaCoin.sol\":3490:3512  _mint(referrer, bonus) */\n      jump\t// in\n    tag_257:\n        /* \"contracts/FresaCoin.sol\":3547:3555  referrer */\n      dup4\n        /* \"contracts/FresaCoin.sol\":3526:3535  userStake */\n      dup4\n        /* \"contracts/FresaCoin.sol\":3526:3544  userStake.referrer */\n      0x03\n      add\n      0x00\n        /* \"contracts/FresaCoin.sol\":3526:3555  userStake.referrer = referrer */\n      0x0100\n      exp\n      dup2\n      sload\n      dup2\n      0xffffffffffffffffffffffffffffffffffffffff\n      mul\n      not\n      and\n      swap1\n      dup4\n      0xffffffffffffffffffffffffffffffffffffffff\n      and\n      mul\n      or\n      swap1\n      sstore\n      pop\n        /* \"contracts/FresaCoin.sol\":3415:3566  {... */\n      pop\n        /* \"contracts/FresaCoin.sol\":3361:3566  if (referrer != address(0) && referrer != msg.sender) {... */\n    tag_254:\n        /* \"contracts/FresaCoin.sol\":3603:3609  amount */\n      dup4\n        /* \"contracts/FresaCoin.sol\":3576:3587  stakingPool */\n      0x0a\n        /* \"contracts/FresaCoin.sol\":3576:3599  stakingPool.totalStaked */\n      0x02\n      add\n      0x00\n        /* \"contracts/FresaCoin.sol\":3576:3609  stakingPool.totalStaked += amount */\n      dup3\n      dup3\n      sload\n      tag_259\n      swap2\n      swap1\n      tag_208\n      jump\t// in\n    tag_259:\n      swap3\n      pop\n      pop\n      dup2\n      swap1\n      sstore\n      pop\n        /* \"contracts/FresaCoin.sol\":3652:3660  referrer */\n      dup3\n        /* \"contracts/FresaCoin.sol\":3625:3661  Staked(msg.sender, amount, referrer) */\n      0xffffffffffffffffffffffffffffffffffffffff\n      and\n        /* \"contracts/FresaCoin.sol\":3632:3642  msg.sender */\n      caller\n        /* \"contracts/FresaCoin.sol\":3625:3661  Staked(msg.sender, amount, referrer) */\n      0xffffffffffffffffffffffffffffffffffffffff\n      and\n      0x9f9e4044c5742cca66ca090b21552bac14645e68bad7a92364a9d9ff18111a1c\n        /* \"contracts/FresaCoin.sol\":3644:3650  amount */\n      dup7\n        /* \"contracts/FresaCoin.sol\":3625:3661  Staked(msg.sender, amount, referrer) */\n      mload(0x40)\n      tag_260\n      swap2\n      swap1\n      tag_57\n      jump\t// in\n    tag_260:\n      mload(0x40)\n      dup1\n      swap2\n      sub\n      swap1\n      log3\n        /* \"contracts/FresaCoin.sol\":2762:3668  {... */\n      pop\n      pop\n        /* \"contracts/FresaCoin.sol\":2704:3668  function stake(uint256 amount, address referrer) external {... */\n      pop\n      pop\n      jump\t// out\n        /* \"@openzeppelin/contracts/access/Ownable.sol\":1638:1723  function owner() public view virtual returns (address) {... */\n    tag_111:\n        /* \"@openzeppelin/contracts/access/Ownable.sol\":1684:1691  address */\n      0x00\n        /* \"@openzeppelin/contracts/access/Ownable.sol\":1710:1716  _owner */\n      0x05\n      0x00\n      swap1\n      sload\n      swap1\n      0x0100\n      exp\n      swap1\n      div\n      0xffffffffffffffffffffffffffffffffffffffff\n      and\n        /* \"@openzeppelin/contracts/access/Ownable.sol\":1703:1716  return _owner */\n      swap1\n      pop\n        /* \"@openzeppelin/contracts/access/Ownable.sol\":1638:1723  function owner() public view virtual returns (address) {... */\n      swap1\n      jump\t// out\n        /* \"@openzeppelin/contracts/token/ERC20/ERC20.sol\":1981:2074  function symbol() public view virtual returns (string memory) {... */\n    tag_115:\n        /* \"@openzeppelin/contracts/token/ERC20/ERC20.sol\":2028:2041  string memory */\n      0x60\n        /* \"@openzeppelin/contracts/token/ERC20/ERC20.sol\":2060:2067  _symbol */\n      0x04\n        /* \"@openzeppelin/contracts/token/ERC20/ERC20.sol\":2053:2067  return _symbol */\n      dup1\n      sload\n      tag_263\n      swap1\n      tag_147\n      jump\t// in\n    tag_263:\n      dup1\n      0x1f\n      add\n      0x20\n      dup1\n      swap2\n      div\n      mul\n      0x20\n      add\n      mload(0x40)\n      swap1\n      dup2\n      add\n      0x40\n      mstore\n      dup1\n      swap3\n      swap2\n      swap1\n      dup2\n      dup2\n      mstore\n      0x20\n      add\n      dup3\n      dup1\n      sload\n      tag_264\n      swap1\n      tag_147\n      jump\t// in\n    tag_264:\n      dup1\n      iszero\n      tag_265\n      jumpi\n      dup1\n      0x1f\n      lt\n      tag_266\n      jumpi\n      0x0100\n      dup1\n      dup4\n      sload\n      div\n      mul\n      dup4\n      mstore\n      swap2\n      0x20\n      add\n      swap2\n      jump(tag_265)\n    tag_266:\n      dup3\n      add\n      swap2\n      swap1\n      0x00\n      mstore\n      keccak256(0x00, 0x20)\n      swap1\n    tag_267:\n      dup2\n      sload\n      dup2\n      mstore\n      swap1\n      0x01\n      add\n      swap1\n      0x20\n      add\n      dup1\n      dup4\n      gt\n      tag_267\n      jumpi\n      dup3\n      swap1\n      sub\n      0x1f\n      and\n      dup3\n      add\n      swap2\n    tag_265:\n      pop\n      pop\n      pop\n      pop\n      pop\n      swap1\n      pop\n        /* \"@openzeppelin/contracts/token/ERC20/ERC20.sol\":1981:2074  function symbol() public view virtual returns (string memory) {... */\n      swap1\n      jump\t// out\n        /* \"@openzeppelin/contracts/token/ERC20/ERC20.sol\":3315:3493  function transfer(address to, uint256 value) public virtual returns (bool) {... */\n    tag_119:\n        /* \"@openzeppelin/contracts/token/ERC20/ERC20.sol\":3384:3388  bool */\n      0x00\n        /* \"@openzeppelin/contracts/token/ERC20/ERC20.sol\":3400:3413  address owner */\n      0x00\n        /* \"@openzeppelin/contracts/token/ERC20/ERC20.sol\":3416:3428  _msgSender() */\n      tag_269\n        /* \"@openzeppelin/contracts/token/ERC20/ERC20.sol\":3416:3426  _msgSender */\n      tag_160\n        /* \"@openzeppelin/contracts/token/ERC20/ERC20.sol\":3416:3428  _msgSender() */\n      jump\t// in\n    tag_269:\n        /* \"@openzeppelin/contracts/token/ERC20/ERC20.sol\":3400:3428  address owner = _msgSender() */\n      swap1\n      pop\n        /* \"@openzeppelin/contracts/token/ERC20/ERC20.sol\":3438:3465  _transfer(owner, to, value) */\n      tag_270\n        /* \"@openzeppelin/contracts/token/ERC20/ERC20.sol\":3448:3453  owner */\n      dup2\n        /* \"@openzeppelin/contracts/token/ERC20/ERC20.sol\":3455:3457  to */\n      dup6\n        /* \"@openzeppelin/contracts/token/ERC20/ERC20.sol\":3459:3464  value */\n      dup6\n        /* \"@openzeppelin/contracts/token/ERC20/ERC20.sol\":3438:3447  _transfer */\n      tag_181\n        /* \"@openzeppelin/contracts/token/ERC20/ERC20.sol\":3438:3465  _transfer(owner, to, value) */\n      jump\t// in\n    tag_270:\n        /* \"@openzeppelin/contracts/token/ERC20/ERC20.sol\":3482:3486  true */\n      0x01\n        /* \"@openzeppelin/contracts/token/ERC20/ERC20.sol\":3475:3486  return true */\n      swap2\n      pop\n      pop\n        /* \"@openzeppelin/contracts/token/ERC20/ERC20.sol\":3315:3493  function transfer(address to, uint256 value) public virtual returns (bool) {... */\n      swap3\n      swap2\n      pop\n      pop\n      jump\t// out\n        /* \"contracts/FresaCoin.sol\":6851:6960  function getLotteryEntries() external view returns (address[] memory) {... */\n    tag_122:\n        /* \"contracts/FresaCoin.sol\":6903:6919  address[] memory */\n      0x60\n        /* \"contracts/FresaCoin.sol\":6938:6945  lottery */\n      0x08\n        /* \"contracts/FresaCoin.sol\":6938:6953  lottery.entries */\n      0x00\n      add\n        /* \"contracts/FresaCoin.sol\":6931:6953  return lottery.entries */\n      dup1\n      sload\n      dup1\n      0x20\n      mul\n      0x20\n      add\n      mload(0x40)\n      swap1\n      dup2\n      add\n      0x40\n      mstore\n      dup1\n      swap3\n      swap2\n      swap1\n      dup2\n      dup2\n      mstore\n      0x20\n      add\n      dup3\n      dup1\n      sload\n      dup1\n      iszero\n      tag_272\n      jumpi\n      0x20\n      mul\n      dup3\n      add\n      swap2\n      swap1\n      0x00\n      mstore\n      keccak256(0x00, 0x20)\n      swap1\n    tag_273:\n      dup2\n      0x00\n      swap1\n      sload\n      swap1\n      0x0100\n      exp\n      swap1\n      div\n      0xffffffffffffffffffffffffffffffffffffffff\n      and\n      0xffffffffffffffffffffffffffffffffffffffff\n      and\n      dup2\n      mstore\n      0x20\n      add\n      swap1\n      0x01\n      add\n      swap1\n      dup1\n      dup4\n      gt\n      tag_273\n      jumpi\n    tag_272:\n      pop\n      pop\n      pop\n      pop\n      pop\n      swap1\n      pop\n        /* \"contracts/FresaCoin.sol\":6851:6960  function getLotteryEntries() external view returns (address[] memory) {... */\n      swap1\n      jump\t// out\n        /* \"contracts/FresaCoin.sol\":1259:1281  Lottery public lottery */\n    tag_126:\n      0x08\n      dup1\n      0x01\n      add\n      sload\n      swap1\n      pop\n      dup2\n      jump\t// out\n        /* \"contracts/FresaCoin.sol\":5150:5752  function vote(uint256 proposalId, bool voteFor) external {... */\n    tag_131:\n        /* \"contracts/FresaCoin.sol\":5217:5242  Proposal storage proposal */\n      0x00\n        /* \"contracts/FresaCoin.sol\":5245:5254  proposals */\n      0x07\n        /* \"contracts/FresaCoin.sol\":5245:5266  proposals[proposalId] */\n      0x00\n        /* \"contracts/FresaCoin.sol\":5255:5265  proposalId */\n      dup5\n        /* \"contracts/FresaCoin.sol\":5245:5266  proposals[proposalId] */\n      dup2\n      mstore\n      0x20\n      add\n      swap1\n      dup2\n      mstore\n      0x20\n      add\n      0x00\n      keccak256\n        /* \"contracts/FresaCoin.sol\":5217:5266  Proposal storage proposal = proposals[proposalId] */\n      swap1\n      pop\n        /* \"contracts/FresaCoin.sol\":5321:5322  0 */\n      0x00\n        /* \"contracts/FresaCoin.sol\":5290:5298  proposal */\n      dup2\n        /* \"contracts/FresaCoin.sol\":5290:5310  proposal.description */\n      0x00\n      add\n        /* \"contracts/FresaCoin.sol\":5284:5318  bytes(proposal.description).length */\n      dup1\n      sload\n      tag_275\n      swap1\n      tag_147\n      jump\t// in\n    tag_275:\n      swap1\n      pop\n        /* \"contracts/FresaCoin.sol\":5284:5322  bytes(proposal.description).length > 0 */\n      gt\n        /* \"contracts/FresaCoin.sol\":5276:5346  require(bytes(proposal.description).length > 0, \"Invalid proposal ID\") */\n      tag_276\n      jumpi\n      mload(0x40)\n      0x08c379a000000000000000000000000000000000000000000000000000000000\n      dup2\n      mstore\n      0x04\n      add\n      tag_277\n      swap1\n      tag_278\n      jump\t// in\n    tag_277:\n      mload(0x40)\n      dup1\n      swap2\n      sub\n      swap1\n      revert\n    tag_276:\n        /* \"contracts/FresaCoin.sol\":5357:5377  uint256 votingWeight */\n      0x00\n        /* \"contracts/FresaCoin.sol\":5380:5386  stakes */\n      0x06\n        /* \"contracts/FresaCoin.sol\":5380:5398  stakes[msg.sender] */\n      0x00\n        /* \"contracts/FresaCoin.sol\":5387:5397  msg.sender */\n      caller\n        /* \"contracts/FresaCoin.sol\":5380:5398  stakes[msg.sender] */\n      0xffffffffffffffffffffffffffffffffffffffff\n      and\n      0xffffffffffffffffffffffffffffffffffffffff\n      and\n      dup2\n      mstore\n      0x20\n      add\n      swap1\n      dup2\n      mstore\n      0x20\n      add\n      0x00\n      keccak256\n        /* \"contracts/FresaCoin.sol\":5380:5405  stakes[msg.sender].amount */\n      0x00\n      add\n      sload\n        /* \"contracts/FresaCoin.sol\":5357:5405  uint256 votingWeight = stakes[msg.sender].amount */\n      swap1\n      pop\n        /* \"contracts/FresaCoin.sol\":5438:5439  0 */\n      0x00\n        /* \"contracts/FresaCoin.sol\":5423:5435  votingWeight */\n      dup2\n        /* \"contracts/FresaCoin.sol\":5423:5439  votingWeight > 0 */\n      gt\n        /* \"contracts/FresaCoin.sol\":5415:5468  require(votingWeight > 0, \"No staked tokens to vote\") */\n      tag_279\n      jumpi\n      mload(0x40)\n      0x08c379a000000000000000000000000000000000000000000000000000000000\n      dup2\n      mstore\n      0x04\n      add\n      tag_280\n      swap1\n      tag_281\n      jump\t// in\n    tag_280:\n      mload(0x40)\n      dup1\n      swap2\n      sub\n      swap1\n      revert\n    tag_279:\n        /* \"contracts/FresaCoin.sol\":5483:5490  voteFor */\n      dup3\n        /* \"contracts/FresaCoin.sol\":5479:5618  if (voteFor) {... */\n      iszero\n      tag_282\n      jumpi\n        /* \"contracts/FresaCoin.sol\":5527:5539  votingWeight */\n      dup1\n        /* \"contracts/FresaCoin.sol\":5506:5514  proposal */\n      dup3\n        /* \"contracts/FresaCoin.sol\":5506:5523  proposal.votesFor */\n      0x01\n      add\n      0x00\n        /* \"contracts/FresaCoin.sol\":5506:5539  proposal.votesFor += votingWeight */\n      dup3\n      dup3\n      sload\n      tag_283\n      swap2\n      swap1\n      tag_208\n      jump\t// in\n    tag_283:\n      swap3\n      pop\n      pop\n      dup2\n      swap1\n      sstore\n      pop\n        /* \"contracts/FresaCoin.sol\":5479:5618  if (voteFor) {... */\n      jump(tag_284)\n    tag_282:\n        /* \"contracts/FresaCoin.sol\":5595:5607  votingWeight */\n      dup1\n        /* \"contracts/FresaCoin.sol\":5570:5578  proposal */\n      dup3\n        /* \"contracts/FresaCoin.sol\":5570:5591  proposal.votesAgainst */\n      0x02\n      add\n      0x00\n        /* \"contracts/FresaCoin.sol\":5570:5607  proposal.votesAgainst += votingWeight */\n      dup3\n      dup3\n      sload\n      tag_285\n      swap2\n      swap1\n      tag_208\n      jump\t// in\n    tag_285:\n      swap3\n      pop\n      pop\n      dup2\n      swap1\n      sstore\n      pop\n        /* \"contracts/FresaCoin.sol\":5479:5618  if (voteFor) {... */\n    tag_284:\n        /* \"contracts/FresaCoin.sol\":5670:5678  proposal */\n      dup2\n        /* \"contracts/FresaCoin.sol\":5670:5691  proposal.votesAgainst */\n      0x02\n      add\n      sload\n        /* \"contracts/FresaCoin.sol\":5650:5658  proposal */\n      dup3\n        /* \"contracts/FresaCoin.sol\":5650:5667  proposal.votesFor */\n      0x01\n      add\n      sload\n        /* \"contracts/FresaCoin.sol\":5650:5691  proposal.votesFor > proposal.votesAgainst */\n      gt\n        /* \"contracts/FresaCoin.sol\":5628:5636  proposal */\n      dup3\n        /* \"contracts/FresaCoin.sol\":5628:5647  proposal.isApproved */\n      0x03\n      add\n      0x00\n        /* \"contracts/FresaCoin.sol\":5628:5691  proposal.isApproved = proposal.votesFor > proposal.votesAgainst */\n      0x0100\n      exp\n      dup2\n      sload\n      dup2\n      0xff\n      mul\n      not\n      and\n      swap1\n      dup4\n      iszero\n      iszero\n      mul\n      or\n      swap1\n      sstore\n      pop\n        /* \"contracts/FresaCoin.sol\":5725:5735  msg.sender */\n      caller\n        /* \"contracts/FresaCoin.sol\":5707:5745  Voted(proposalId, msg.sender, voteFor) */\n      0xffffffffffffffffffffffffffffffffffffffff\n      and\n        /* \"contracts/FresaCoin.sol\":5713:5723  proposalId */\n      dup5\n        /* \"contracts/FresaCoin.sol\":5707:5745  Voted(proposalId, msg.sender, voteFor) */\n      0xf2913dbe661ee2acc4a046d8fbcdc792373bda34c41c6086484b5345e5785e5f\n        /* \"contracts/FresaCoin.sol\":5737:5744  voteFor */\n      dup6\n        /* \"contracts/FresaCoin.sol\":5707:5745  Voted(proposalId, msg.sender, voteFor) */\n      mload(0x40)\n      tag_286\n      swap2\n      swap1\n      tag_53\n      jump\t// in\n    tag_286:\n      mload(0x40)\n      dup1\n      swap2\n      sub\n      swap1\n      log3\n        /* \"contracts/FresaCoin.sol\":5207:5752  {... */\n      pop\n      pop\n        /* \"contracts/FresaCoin.sol\":5150:5752  function vote(uint256 proposalId, bool voteFor) external {... */\n      pop\n      pop\n      jump\t// out\n        /* \"contracts/FresaCoin.sol\":7051:7155  function getLotteryPrizePool() external view returns (uint256) {... */\n    tag_133:\n        /* \"contracts/FresaCoin.sol\":7105:7112  uint256 */\n      0x00\n        /* \"contracts/FresaCoin.sol\":7131:7138  lottery */\n      0x08\n        /* \"contracts/FresaCoin.sol\":7131:7148  lottery.prizePool */\n      0x01\n      add\n      sload\n        /* \"contracts/FresaCoin.sol\":7124:7148  return lottery.prizePool */\n      swap1\n      pop\n        /* \"contracts/FresaCoin.sol\":7051:7155  function getLotteryPrizePool() external view returns (uint256) {... */\n      swap1\n      jump\t// out\n        /* \"@openzeppelin/contracts/token/ERC20/ERC20.sol\":3551:3691  function allowance(address owner, address spender) public view virtual returns (uint256) {... */\n    tag_138:\n        /* \"@openzeppelin/contracts/token/ERC20/ERC20.sol\":3631:3638  uint256 */\n      0x00\n        /* \"@openzeppelin/contracts/token/ERC20/ERC20.sol\":3657:3668  _allowances */\n      0x01\n        /* \"@openzeppelin/contracts/token/ERC20/ERC20.sol\":3657:3675  _allowances[owner] */\n      0x00\n        /* \"@openzeppelin/contracts/token/ERC20/ERC20.sol\":3669:3674  owner */\n      dup5\n        /* \"@openzeppelin/contracts/token/ERC20/ERC20.sol\":3657:3675  _allowances[owner] */\n      0xffffffffffffffffffffffffffffffffffffffff\n      and\n      0xffffffffffffffffffffffffffffffffffffffff\n      and\n      dup2\n      mstore\n      0x20\n      add\n      swap1\n      dup2\n      mstore\n      0x20\n      add\n      0x00\n      keccak256\n        /* \"@openzeppelin/contracts/token/ERC20/ERC20.sol\":3657:3684  _allowances[owner][spender] */\n      0x00\n        /* \"@openzeppelin/contracts/token/ERC20/ERC20.sol\":3676:3683  spender */\n      dup4\n        /* \"@openzeppelin/contracts/token/ERC20/ERC20.sol\":3657:3684  _allowances[owner][spender] */\n      0xffffffffffffffffffffffffffffffffffffffff\n      and\n      0xffffffffffffffffffffffffffffffffffffffff\n      and\n      dup2\n      mstore\n      0x20\n      add\n      swap1\n      dup2\n      mstore\n      0x20\n      add\n      0x00\n      keccak256\n      sload\n        /* \"@openzeppelin/contracts/token/ERC20/ERC20.sol\":3650:3684  return _allowances[owner][spender] */\n      swap1\n      pop\n        /* \"@openzeppelin/contracts/token/ERC20/ERC20.sol\":3551:3691  function allowance(address owner, address spender) public view virtual returns (uint256) {... */\n      swap3\n      swap2\n      pop\n      pop\n      jump\t// out\n        /* \"contracts/FresaCoin.sol\":1500:1542  uint256 public constant REFERRAL_BONUS = 5 */\n    tag_141:\n        /* \"contracts/FresaCoin.sol\":1541:1542  5 */\n      0x05\n        /* \"contracts/FresaCoin.sol\":1500:1542  uint256 public constant REFERRAL_BONUS = 5 */\n      dup2\n      jump\t// out\n        /* \"@openzeppelin/contracts/access/Ownable.sol\":2543:2758  function transferOwnership(address newOwner) public virtual onlyOwner {... */\n    tag_145:\n        /* \"@openzeppelin/contracts/access/Ownable.sol\":1531:1544  _checkOwner() */\n      tag_290\n        /* \"@openzeppelin/contracts/access/Ownable.sol\":1531:1542  _checkOwner */\n      tag_212\n        /* \"@openzeppelin/contracts/access/Ownable.sol\":1531:1544  _checkOwner() */\n      jump\t// in\n    tag_290:\n        /* \"@openzeppelin/contracts/access/Ownable.sol\":2647:2648  0 */\n      0x00\n        /* \"@openzeppelin/contracts/access/Ownable.sol\":2627:2649  newOwner == address(0) */\n      0xffffffffffffffffffffffffffffffffffffffff\n      and\n        /* \"@openzeppelin/contracts/access/Ownable.sol\":2627:2635  newOwner */\n      dup2\n        /* \"@openzeppelin/contracts/access/Ownable.sol\":2627:2649  newOwner == address(0) */\n      0xffffffffffffffffffffffffffffffffffffffff\n      and\n      sub\n        /* \"@openzeppelin/contracts/access/Ownable.sol\":2623:2714  if (newOwner == address(0)) {... */\n      tag_292\n      jumpi\n        /* \"@openzeppelin/contracts/access/Ownable.sol\":2700:2701  0 */\n      0x00\n        /* \"@openzeppelin/contracts/access/Ownable.sol\":2672:2703  OwnableInvalidOwner(address(0)) */\n      mload(0x40)\n      0x1e4fbdf700000000000000000000000000000000000000000000000000000000\n      dup2\n      mstore\n      0x04\n      add\n      tag_293\n      swap2\n      swap1\n      tag_113\n      jump\t// in\n    tag_293:\n      mload(0x40)\n      dup1\n      swap2\n      sub\n      swap1\n      revert\n        /* \"@openzeppelin/contracts/access/Ownable.sol\":2623:2714  if (newOwner == address(0)) {... */\n    tag_292:\n        /* \"@openzeppelin/contracts/access/Ownable.sol\":2723:2751  _transferOwnership(newOwner) */\n      tag_294\n        /* \"@openzeppelin/contracts/access/Ownable.sol\":2742:2750  newOwner */\n      dup2\n        /* \"@openzeppelin/contracts/access/Ownable.sol\":2723:2741  _transferOwnership */\n      tag_242\n        /* \"@openzeppelin/contracts/access/Ownable.sol\":2723:2751  _transferOwnership(newOwner) */\n      jump\t// in\n    tag_294:\n        /* \"@openzeppelin/contracts/access/Ownable.sol\":2543:2758  function transferOwnership(address newOwner) public virtual onlyOwner {... */\n      pop\n      jump\t// out\n        /* \"@openzeppelin/contracts/utils/Context.sol\":656:752  function _msgSender() internal view virtual returns (address) {... */\n    tag_160:\n        /* \"@openzeppelin/contracts/utils/Context.sol\":709:716  address */\n      0x00\n        /* \"@openzeppelin/contracts/utils/Context.sol\":735:745  msg.sender */\n      caller\n        /* \"@openzeppelin/contracts/utils/Context.sol\":728:745  return msg.sender */\n      swap1\n      pop\n        /* \"@openzeppelin/contracts/utils/Context.sol\":656:752  function _msgSender() internal view virtual returns (address) {... */\n      swap1\n      jump\t// out\n        /* \"@openzeppelin/contracts/token/ERC20/ERC20.sol\":8726:8854  function _approve(address owner, address spender, uint256 value) internal {... */\n    tag_162:\n        /* \"@openzeppelin/contracts/token/ERC20/ERC20.sol\":8810:8847  _approve(owner, spender, value, true) */\n      tag_297\n        /* \"@openzeppelin/contracts/token/ERC20/ERC20.sol\":8819:8824  owner */\n      dup4\n        /* \"@openzeppelin/contracts/token/ERC20/ERC20.sol\":8826:8833  spender */\n      dup4\n        /* \"@openzeppelin/contracts/token/ERC20/ERC20.sol\":8835:8840  value */\n      dup4\n        /* \"@openzeppelin/contracts/token/ERC20/ERC20.sol\":8842:8846  true */\n      0x01\n        /* \"@openzeppelin/contracts/token/ERC20/ERC20.sol\":8810:8818  _approve */\n      tag_298\n        /* \"@openzeppelin/contracts/token/ERC20/ERC20.sol\":8810:8847  _approve(owner, spender, value, true) */\n      jump\t// in\n    tag_297:\n        /* \"@openzeppelin/contracts/token/ERC20/ERC20.sol\":8726:8854  function _approve(address owner, address spender, uint256 value) internal {... */\n      pop\n      pop\n      pop\n      jump\t// out\n        /* \"@openzeppelin/contracts/token/ERC20/ERC20.sol\":10415:10892  function _spendAllowance(address owner, address spender, uint256 value) internal virtual {... */\n    tag_179:\n        /* \"@openzeppelin/contracts/token/ERC20/ERC20.sol\":10514:10538  uint256 currentAllowance */\n      0x00\n        /* \"@openzeppelin/contracts/token/ERC20/ERC20.sol\":10541:10566  allowance(owner, spender) */\n      tag_300\n        /* \"@openzeppelin/contracts/token/ERC20/ERC20.sol\":10551:10556  owner */\n      dup5\n        /* \"@openzeppelin/contracts/token/ERC20/ERC20.sol\":10558:10565  spender */\n      dup5\n        /* \"@openzeppelin/contracts/token/ERC20/ERC20.sol\":10541:10550  allowance */\n      tag_138\n        /* \"@openzeppelin/contracts/token/ERC20/ERC20.sol\":10541:10566  allowance(owner, spender) */\n      jump\t// in\n    tag_300:\n        /* \"@openzeppelin/contracts/token/ERC20/ERC20.sol\":10514:10566  uint256 currentAllowance = allowance(owner, spender) */\n      swap1\n      pop\n        /* \"@openzeppelin/contracts/token/ERC20/ERC20.sol\":10600:10617  type(uint256).max */\n      0xffffffffffffffffffffffffffffffffffffffffffffffffffffffffffffffff\n        /* \"@openzeppelin/contracts/token/ERC20/ERC20.sol\":10580:10596  currentAllowance */\n      dup2\n        /* \"@openzeppelin/contracts/token/ERC20/ERC20.sol\":10580:10617  currentAllowance != type(uint256).max */\n      eq\n        /* \"@openzeppelin/contracts/token/ERC20/ERC20.sol\":10576:10886  if (currentAllowance != type(uint256).max) {... */\n      tag_301\n      jumpi\n        /* \"@openzeppelin/contracts/token/ERC20/ERC20.sol\":10656:10661  value */\n      dup2\n        /* \"@openzeppelin/contracts/token/ERC20/ERC20.sol\":10637:10653  currentAllowance */\n      dup2\n        /* \"@openzeppelin/contracts/token/ERC20/ERC20.sol\":10637:10661  currentAllowance < value */\n      lt\n        /* \"@openzeppelin/contracts/token/ERC20/ERC20.sol\":10633:10763  if (currentAllowance < value) {... */\n      iszero\n      tag_302\n      jumpi\n        /* \"@openzeppelin/contracts/token/ERC20/ERC20.sol\":10715:10722  spender */\n      dup3\n        /* \"@openzeppelin/contracts/token/ERC20/ERC20.sol\":10724:10740  currentAllowance */\n      dup2\n        /* \"@openzeppelin/contracts/token/ERC20/ERC20.sol\":10742:10747  value */\n      dup4\n        /* \"@openzeppelin/contracts/token/ERC20/ERC20.sol\":10688:10748  ERC20InsufficientAllowance(spender, currentAllowance, value) */\n      mload(0x40)\n      0xfb8f41b200000000000000000000000000000000000000000000000000000000\n      dup2\n      mstore\n      0x04\n      add\n      tag_303\n      swap4\n      swap3\n      swap2\n      swap1\n      tag_304\n      jump\t// in\n    tag_303:\n      mload(0x40)\n      dup1\n      swap2\n      sub\n      swap1\n      revert\n        /* \"@openzeppelin/contracts/token/ERC20/ERC20.sol\":10633:10763  if (currentAllowance < value) {... */\n    tag_302:\n        /* \"@openzeppelin/contracts/token/ERC20/ERC20.sol\":10804:10861  _approve(owner, spender, currentAllowance - value, false) */\n      tag_305\n        /* \"@openzeppelin/contracts/token/ERC20/ERC20.sol\":10813:10818  owner */\n      dup5\n        /* \"@openzeppelin/contracts/token/ERC20/ERC20.sol\":10820:10827  spender */\n      dup5\n        /* \"@openzeppelin/contracts/token/ERC20/ERC20.sol\":10848:10853  value */\n      dup5\n        /* \"@openzeppelin/contracts/token/ERC20/ERC20.sol\":10829:10845  currentAllowance */\n      dup5\n        /* \"@openzeppelin/contracts/token/ERC20/ERC20.sol\":10829:10853  currentAllowance - value */\n      sub\n        /* \"@openzeppelin/contracts/token/ERC20/ERC20.sol\":10855:10860  false */\n      0x00\n        /* \"@openzeppelin/contracts/token/ERC20/ERC20.sol\":10804:10812  _approve */\n      tag_298\n        /* \"@openzeppelin/contracts/token/ERC20/ERC20.sol\":10804:10861  _approve(owner, spender, currentAllowance - value, false) */\n      jump\t// in\n    tag_305:\n        /* \"@openzeppelin/contracts/token/ERC20/ERC20.sol\":10576:10886  if (currentAllowance != type(uint256).max) {... */\n    tag_301:\n        /* \"@openzeppelin/contracts/token/ERC20/ERC20.sol\":10504:10892  {... */\n      pop\n        /* \"@openzeppelin/contracts/token/ERC20/ERC20.sol\":10415:10892  function _spendAllowance(address owner, address spender, uint256 value) internal virtual {... */\n      pop\n      pop\n      pop\n      jump\t// out\n        /* \"@openzeppelin/contracts/token/ERC20/ERC20.sol\":5393:5693  function _transfer(address from, address to, uint256 value) internal {... */\n    tag_181:\n        /* \"@openzeppelin/contracts/token/ERC20/ERC20.sol\":5492:5493  0 */\n      0x00\n        /* \"@openzeppelin/contracts/token/ERC20/ERC20.sol\":5476:5494  from == address(0) */\n      0xffffffffffffffffffffffffffffffffffffffff\n      and\n        /* \"@openzeppelin/contracts/token/ERC20/ERC20.sol\":5476:5480  from */\n      dup4\n        /* \"@openzeppelin/contracts/token/ERC20/ERC20.sol\":5476:5494  from == address(0) */\n      0xffffffffffffffffffffffffffffffffffffffff\n      and\n      sub\n        /* \"@openzeppelin/contracts/token/ERC20/ERC20.sol\":5472:5558  if (from == address(0)) {... */\n      tag_307\n      jumpi\n        /* \"@openzeppelin/contracts/token/ERC20/ERC20.sol\":5544:5545  0 */\n      0x00\n        /* \"@openzeppelin/contracts/token/ERC20/ERC20.sol\":5517:5547  ERC20InvalidSender(address(0)) */\n      mload(0x40)\n      0x96c6fd1e00000000000000000000000000000000000000000000000000000000\n      dup2\n      mstore\n      0x04\n      add\n      tag_308\n      swap2\n      swap1\n      tag_113\n      jump\t// in\n    tag_308:\n      mload(0x40)\n      dup1\n      swap2\n      sub\n      swap1\n      revert\n        /* \"@openzeppelin/contracts/token/ERC20/ERC20.sol\":5472:5558  if (from == address(0)) {... */\n    tag_307:\n        /* \"@openzeppelin/contracts/token/ERC20/ERC20.sol\":5585:5586  0 */\n      0x00\n        /* \"@openzeppelin/contracts/token/ERC20/ERC20.sol\":5571:5587  to == address(0) */\n      0xffffffffffffffffffffffffffffffffffffffff\n      and\n        /* \"@openzeppelin/contracts/token/ERC20/ERC20.sol\":5571:5573  to */\n      dup3\n        /* \"@openzeppelin/contracts/token/ERC20/ERC20.sol\":5571:5587  to == address(0) */\n      0xffffffffffffffffffffffffffffffffffffffff\n      and\n      sub\n        /* \"@openzeppelin/contracts/token/ERC20/ERC20.sol\":5567:5653  if (to == address(0)) {... */\n      tag_309\n      jumpi\n        /* \"@openzeppelin/contracts/token/ERC20/ERC20.sol\":5639:5640  0 */\n      0x00\n        /* \"@openzeppelin/contracts/token/ERC20/ERC20.sol\":5610:5642  ERC20InvalidReceiver(address(0)) */\n      mload(0x40)\n      0xec442f0500000000000000000000000000000000000000000000000000000000\n      dup2\n      mstore\n      0x04\n      add\n      tag_310\n      swap2\n      swap1\n      tag_113\n      jump\t// in\n    tag_310:\n      mload(0x40)\n      dup1\n      swap2\n      sub\n      swap1\n      revert\n        /* \"@openzeppelin/contracts/token/ERC20/ERC20.sol\":5567:5653  if (to == address(0)) {... */\n    tag_309:\n        /* \"@openzeppelin/contracts/token/ERC20/ERC20.sol\":5662:5686  _update(from, to, value) */\n      tag_311\n        /* \"@openzeppelin/contracts/token/ERC20/ERC20.sol\":5670:5674  from */\n      dup4\n        /* \"@openzeppelin/contracts/token/ERC20/ERC20.sol\":5676:5678  to */\n      dup4\n        /* \"@openzeppelin/contracts/token/ERC20/ERC20.sol\":5680:5685  value */\n      dup4\n        /* \"@openzeppelin/contracts/token/ERC20/ERC20.sol\":5662:5669  _update */\n      tag_312\n        /* \"@openzeppelin/contracts/token/ERC20/ERC20.sol\":5662:5686  _update(from, to, value) */\n      jump\t// in\n    tag_311:\n        /* \"@openzeppelin/contracts/token/ERC20/ERC20.sol\":5393:5693  function _transfer(address from, address to, uint256 value) internal {... */\n      pop\n      pop\n      pop\n      jump\t// out\n        /* \"@openzeppelin/contracts/token/ERC20/ERC20.sol\":7984:8190  function _burn(address account, uint256 value) internal {... */\n    tag_193:\n        /* \"@openzeppelin/contracts/token/ERC20/ERC20.sol\":8073:8074  0 */\n      0x00\n        /* \"@openzeppelin/contracts/token/ERC20/ERC20.sol\":8054:8075  account == address(0) */\n      0xffffffffffffffffffffffffffffffffffffffff\n      and\n        /* \"@openzeppelin/contracts/token/ERC20/ERC20.sol\":8054:8061  account */\n      dup3\n        /* \"@openzeppelin/contracts/token/ERC20/ERC20.sol\":8054:8075  account == address(0) */\n      0xffffffffffffffffffffffffffffffffffffffff\n      and\n      sub\n        /* \"@openzeppelin/contracts/token/ERC20/ERC20.sol\":8050:8139  if (account == address(0)) {... */\n      tag_314\n      jumpi\n        /* \"@openzeppelin/contracts/token/ERC20/ERC20.sol\":8125:8126  0 */\n      0x00\n        /* \"@openzeppelin/contracts/token/ERC20/ERC20.sol\":8098:8128  ERC20InvalidSender(address(0)) */\n      mload(0x40)\n      0x96c6fd1e00000000000000000000000000000000000000000000000000000000\n      dup2\n      mstore\n      0x04\n      add\n      tag_315\n      swap2\n      swap1\n      tag_113\n      jump\t// in\n    tag_315:\n      mload(0x40)\n      dup1\n      swap2\n      sub\n      swap1\n      revert\n        /* \"@openzeppelin/contracts/token/ERC20/ERC20.sol\":8050:8139  if (account == address(0)) {... */\n    tag_314:\n        /* \"@openzeppelin/contracts/token/ERC20/ERC20.sol\":8148:8183  _update(account, address(0), value) */\n      tag_316\n        /* \"@openzeppelin/contracts/token/ERC20/ERC20.sol\":8156:8163  account */\n      dup3\n        /* \"@openzeppelin/contracts/token/ERC20/ERC20.sol\":8173:8174  0 */\n      0x00\n        /* \"@openzeppelin/contracts/token/ERC20/ERC20.sol\":8177:8182  value */\n      dup4\n        /* \"@openzeppelin/contracts/token/ERC20/ERC20.sol\":8148:8155  _update */\n      tag_312\n        /* \"@openzeppelin/contracts/token/ERC20/ERC20.sol\":8148:8183  _update(account, address(0), value) */\n      jump\t// in\n    tag_316:\n        /* \"@openzeppelin/contracts/token/ERC20/ERC20.sol\":7984:8190  function _burn(address account, uint256 value) internal {... */\n      pop\n      pop\n      jump\t// out\n        /* \"@openzeppelin/contracts/access/Ownable.sol\":1796:1958  function _checkOwner() internal view virtual {... */\n    tag_212:\n        /* \"@openzeppelin/contracts/access/Ownable.sol\":1866:1878  _msgSender() */\n      tag_318\n        /* \"@openzeppelin/contracts/access/Ownable.sol\":1866:1876  _msgSender */\n      tag_160\n        /* \"@openzeppelin/contracts/access/Ownable.sol\":1866:1878  _msgSender() */\n      jump\t// in\n    tag_318:\n        /* \"@openzeppelin/contracts/access/Ownable.sol\":1855:1878  owner() != _msgSender() */\n      0xffffffffffffffffffffffffffffffffffffffff\n      and\n        /* \"@openzeppelin/contracts/access/Ownable.sol\":1855:1862  owner() */\n      tag_319\n        /* \"@openzeppelin/contracts/access/Ownable.sol\":1855:1860  owner */\n      tag_111\n        /* \"@openzeppelin/contracts/access/Ownable.sol\":1855:1862  owner() */\n      jump\t// in\n    tag_319:\n        /* \"@openzeppelin/contracts/access/Ownable.sol\":1855:1878  owner() != _msgSender() */\n      0xffffffffffffffffffffffffffffffffffffffff\n      and\n      eq\n        /* \"@openzeppelin/contracts/access/Ownable.sol\":1851:1952  if (owner() != _msgSender()) {... */\n      tag_320\n      jumpi\n        /* \"@openzeppelin/contracts/access/Ownable.sol\":1928:1940  _msgSender() */\n      tag_321\n        /* \"@openzeppelin/contracts/access/Ownable.sol\":1928:1938  _msgSender */\n      tag_160\n        /* \"@openzeppelin/contracts/access/Ownable.sol\":1928:1940  _msgSender() */\n      jump\t// in\n    tag_321:\n        /* \"@openzeppelin/contracts/access/Ownable.sol\":1901:1941  OwnableUnauthorizedAccount(_msgSender()) */\n      mload(0x40)\n      0x118cdaa700000000000000000000000000000000000000000000000000000000\n      dup2\n      mstore\n      0x04\n      add\n      tag_322\n      swap2\n      swap1\n      tag_113\n      jump\t// in\n    tag_322:\n      mload(0x40)\n      dup1\n      swap2\n      sub\n      swap1\n      revert\n        /* \"@openzeppelin/contracts/access/Ownable.sol\":1851:1952  if (owner() != _msgSender()) {... */\n    tag_320:\n        /* \"@openzeppelin/contracts/access/Ownable.sol\":1796:1958  function _checkOwner() internal view virtual {... */\n      jump\t// out\n        /* \"@openzeppelin/contracts/access/Ownable.sol\":2912:3099  function _transferOwnership(address newOwner) internal virtual {... */\n    tag_242:\n        /* \"@openzeppelin/contracts/access/Ownable.sol\":2985:3001  address oldOwner */\n      0x00\n        /* \"@openzeppelin/contracts/access/Ownable.sol\":3004:3010  _owner */\n      0x05\n      0x00\n      swap1\n      sload\n      swap1\n      0x0100\n      exp\n      swap1\n      div\n      0xffffffffffffffffffffffffffffffffffffffff\n      and\n        /* \"@openzeppelin/contracts/access/Ownable.sol\":2985:3010  address oldOwner = _owner */\n      swap1\n      pop\n        /* \"@openzeppelin/contracts/access/Ownable.sol\":3029:3037  newOwner */\n      dup2\n        /* \"@openzeppelin/contracts/access/Ownable.sol\":3020:3026  _owner */\n      0x05\n      0x00\n        /* \"@openzeppelin/contracts/access/Ownable.sol\":3020:3037  _owner = newOwner */\n      0x0100\n      exp\n      dup2\n      sload\n      dup2\n      0xffffffffffffffffffffffffffffffffffffffff\n      mul\n      not\n      and\n      swap1\n      dup4\n      0xffffffffffffffffffffffffffffffffffffffff\n      and\n      mul\n      or\n      swap1\n      sstore\n      pop\n        /* \"@openzeppelin/contracts/access/Ownable.sol\":3083:3091  newOwner */\n      dup2\n        /* \"@openzeppelin/contracts/access/Ownable.sol\":3052:3092  OwnershipTransferred(oldOwner, newOwner) */\n      0xffffffffffffffffffffffffffffffffffffffff\n      and\n        /* \"@openzeppelin/contracts/access/Ownable.sol\":3073:3081  oldOwner */\n      dup2\n        /* \"@openzeppelin/contracts/access/Ownable.sol\":3052:3092  OwnershipTransferred(oldOwner, newOwner) */\n      0xffffffffffffffffffffffffffffffffffffffff\n      and\n      0x8be0079c531659141344cd1fd0a4f28419497f9722a3daafe3b4186f6b6457e0\n      mload(0x40)\n      mload(0x40)\n      dup1\n      swap2\n      sub\n      swap1\n      log3\n        /* \"@openzeppelin/contracts/access/Ownable.sol\":2975:3099  {... */\n      pop\n        /* \"@openzeppelin/contracts/access/Ownable.sol\":2912:3099  function _transferOwnership(address newOwner) internal virtual {... */\n      pop\n      jump\t// out\n        /* \"@openzeppelin/contracts/token/ERC20/ERC20.sol\":7458:7666  function _mint(address account, uint256 value) internal {... */\n    tag_258:\n        /* \"@openzeppelin/contracts/token/ERC20/ERC20.sol\":7547:7548  0 */\n      0x00\n        /* \"@openzeppelin/contracts/token/ERC20/ERC20.sol\":7528:7549  account == address(0) */\n      0xffffffffffffffffffffffffffffffffffffffff\n      and\n        /* \"@openzeppelin/contracts/token/ERC20/ERC20.sol\":7528:7535  account */\n      dup3\n        /* \"@openzeppelin/contracts/token/ERC20/ERC20.sol\":7528:7549  account == address(0) */\n      0xffffffffffffffffffffffffffffffffffffffff\n      and\n      sub\n        /* \"@openzeppelin/contracts/token/ERC20/ERC20.sol\":7524:7615  if (account == address(0)) {... */\n      tag_325\n      jumpi\n        /* \"@openzeppelin/contracts/token/ERC20/ERC20.sol\":7601:7602  0 */\n      0x00\n        /* \"@openzeppelin/contracts/token/ERC20/ERC20.sol\":7572:7604  ERC20InvalidReceiver(address(0)) */\n      mload(0x40)\n      0xec442f0500000000000000000000000000000000000000000000000000000000\n      dup2\n      mstore\n      0x04\n      add\n      tag_326\n      swap2\n      swap1\n      tag_113\n      jump\t// in\n    tag_326:\n      mload(0x40)\n      dup1\n      swap2\n      sub\n      swap1\n      revert\n        /* \"@openzeppelin/contracts/token/ERC20/ERC20.sol\":7524:7615  if (account == address(0)) {... */\n    tag_325:\n        /* \"@openzeppelin/contracts/token/ERC20/ERC20.sol\":7624:7659  _update(address(0), account, value) */\n      tag_327\n        /* \"@openzeppelin/contracts/token/ERC20/ERC20.sol\":7640:7641  0 */\n      0x00\n        /* \"@openzeppelin/contracts/token/ERC20/ERC20.sol\":7644:7651  account */\n      dup4\n        /* \"@openzeppelin/contracts/token/ERC20/ERC20.sol\":7653:7658  value */\n      dup4\n        /* \"@openzeppelin/contracts/token/ERC20/ERC20.sol\":7624:7631  _update */\n      tag_312\n        /* \"@openzeppelin/contracts/token/ERC20/ERC20.sol\":7624:7659  _update(address(0), account, value) */\n      jump\t// in\n    tag_327:\n        /* \"@openzeppelin/contracts/token/ERC20/ERC20.sol\":7458:7666  function _mint(address account, uint256 value) internal {... */\n      pop\n      pop\n      jump\t// out\n        /* \"@openzeppelin/contracts/token/ERC20/ERC20.sol\":9701:10133  function _approve(address owner, address spender, uint256 value, bool emitEvent) internal virtual {... */\n    tag_298:\n        /* \"@openzeppelin/contracts/token/ERC20/ERC20.sol\":9830:9831  0 */\n      0x00\n        /* \"@openzeppelin/contracts/token/ERC20/ERC20.sol\":9813:9832  owner == address(0) */\n      0xffffffffffffffffffffffffffffffffffffffff\n      and\n        /* \"@openzeppelin/contracts/token/ERC20/ERC20.sol\":9813:9818  owner */\n      dup5\n        /* \"@openzeppelin/contracts/token/ERC20/ERC20.sol\":9813:9832  owner == address(0) */\n      0xffffffffffffffffffffffffffffffffffffffff\n      and\n      sub\n        /* \"@openzeppelin/contracts/token/ERC20/ERC20.sol\":9809:9898  if (owner == address(0)) {... */\n      tag_329\n      jumpi\n        /* \"@openzeppelin/contracts/token/ERC20/ERC20.sol\":9884:9885  0 */\n      0x00\n        /* \"@openzeppelin/contracts/token/ERC20/ERC20.sol\":9855:9887  ERC20InvalidApprover(address(0)) */\n      mload(0x40)\n      0xe602df0500000000000000000000000000000000000000000000000000000000\n      dup2\n      mstore\n      0x04\n      add\n      tag_330\n      swap2\n      swap1\n      tag_113\n      jump\t// in\n    tag_330:\n      mload(0x40)\n      dup1\n      swap2\n      sub\n      swap1\n      revert\n        /* \"@openzeppelin/contracts/token/ERC20/ERC20.sol\":9809:9898  if (owner == address(0)) {... */\n    tag_329:\n        /* \"@openzeppelin/contracts/token/ERC20/ERC20.sol\":9930:9931  0 */\n      0x00\n        /* \"@openzeppelin/contracts/token/ERC20/ERC20.sol\":9911:9932  spender == address(0) */\n      0xffffffffffffffffffffffffffffffffffffffff\n      and\n        /* \"@openzeppelin/contracts/token/ERC20/ERC20.sol\":9911:9918  spender */\n      dup4\n        /* \"@openzeppelin/contracts/token/ERC20/ERC20.sol\":9911:9932  spender == address(0) */\n      0xffffffffffffffffffffffffffffffffffffffff\n      and\n      sub\n        /* \"@openzeppelin/contracts/token/ERC20/ERC20.sol\":9907:9997  if (spender == address(0)) {... */\n      tag_331\n      jumpi\n        /* \"@openzeppelin/contracts/token/ERC20/ERC20.sol\":9983:9984  0 */\n      0x00\n        /* \"@openzeppelin/contracts/token/ERC20/ERC20.sol\":9955:9986  ERC20InvalidSpender(address(0)) */\n      mload(0x40)\n      0x94280d6200000000000000000000000000000000000000000000000000000000\n      dup2\n      mstore\n      0x04\n      add\n      tag_332\n      swap2\n      swap1\n      tag_113\n      jump\t// in\n    tag_332:\n      mload(0x40)\n      dup1\n      swap2\n      sub\n      swap1\n      revert\n        /* \"@openzeppelin/contracts/token/ERC20/ERC20.sol\":9907:9997  if (spender == address(0)) {... */\n    tag_331:\n        /* \"@openzeppelin/contracts/token/ERC20/ERC20.sol\":10036:10041  value */\n      dup2\n        /* \"@openzeppelin/contracts/token/ERC20/ERC20.sol\":10006:10017  _allowances */\n      0x01\n        /* \"@openzeppelin/contracts/token/ERC20/ERC20.sol\":10006:10024  _allowances[owner] */\n      0x00\n        /* \"@openzeppelin/contracts/token/ERC20/ERC20.sol\":10018:10023  owner */\n      dup7\n        /* \"@openzeppelin/contracts/token/ERC20/ERC20.sol\":10006:10024  _allowances[owner] */\n      0xffffffffffffffffffffffffffffffffffffffff\n      and\n      0xffffffffffffffffffffffffffffffffffffffff\n      and\n      dup2\n      mstore\n      0x20\n      add\n      swap1\n      dup2\n      mstore\n      0x20\n      add\n      0x00\n      keccak256\n        /* \"@openzeppelin/contracts/token/ERC20/ERC20.sol\":10006:10033  _allowances[owner][spender] */\n      0x00\n        /* \"@openzeppelin/contracts/token/ERC20/ERC20.sol\":10025:10032  spender */\n      dup6\n        /* \"@openzeppelin/contracts/token/ERC20/ERC20.sol\":10006:10033  _allowances[owner][spender] */\n      0xffffffffffffffffffffffffffffffffffffffff\n      and\n      0xffffffffffffffffffffffffffffffffffffffff\n      and\n      dup2\n      mstore\n      0x20\n      add\n      swap1\n      dup2\n      mstore\n      0x20\n      add\n      0x00\n      keccak256\n        /* \"@openzeppelin/contracts/token/ERC20/ERC20.sol\":10006:10041  _allowances[owner][spender] = value */\n      dup2\n      swap1\n      sstore\n      pop\n        /* \"@openzeppelin/contracts/token/ERC20/ERC20.sol\":10055:10064  emitEvent */\n      dup1\n        /* \"@openzeppelin/contracts/token/ERC20/ERC20.sol\":10051:10127  if (emitEvent) {... */\n      iszero\n      tag_333\n      jumpi\n        /* \"@openzeppelin/contracts/token/ERC20/ERC20.sol\":10101:10108  spender */\n      dup3\n        /* \"@openzeppelin/contracts/token/ERC20/ERC20.sol\":10085:10116  Approval(owner, spender, value) */\n      0xffffffffffffffffffffffffffffffffffffffff\n      and\n        /* \"@openzeppelin/contracts/token/ERC20/ERC20.sol\":10094:10099  owner */\n      dup5\n        /* \"@openzeppelin/contracts/token/ERC20/ERC20.sol\":10085:10116  Approval(owner, spender, value) */\n      0xffffffffffffffffffffffffffffffffffffffff\n      and\n      0x8c5be1e5ebec7d5bd14f71427d1e84f3dd0314c0f7b2291e5b200ac8c7c3b925\n        /* \"@openzeppelin/contracts/token/ERC20/ERC20.sol\":10110:10115  value */\n      dup5\n        /* \"@openzeppelin/contracts/token/ERC20/ERC20.sol\":10085:10116  Approval(owner, spender, value) */\n      mload(0x40)\n      tag_334\n      swap2\n      swap1\n      tag_57\n      jump\t// in\n    tag_334:\n      mload(0x40)\n      dup1\n      swap2\n      sub\n      swap1\n      log3\n        /* \"@openzeppelin/contracts/token/ERC20/ERC20.sol\":10051:10127  if (emitEvent) {... */\n    tag_333:\n        /* \"@openzeppelin/contracts/token/ERC20/ERC20.sol\":9701:10133  function _approve(address owner, address spender, uint256 value, bool emitEvent) internal virtual {... */\n      pop\n      pop\n      pop\n      pop\n      jump\t// out\n        /* \"@openzeppelin/contracts/token/ERC20/ERC20.sol\":6008:7115  function _update(address from, address to, uint256 value) internal virtual {... */\n    tag_312:\n        /* \"@openzeppelin/contracts/token/ERC20/ERC20.sol\":6113:6114  0 */\n      0x00\n        /* \"@openzeppelin/contracts/token/ERC20/ERC20.sol\":6097:6115  from == address(0) */\n      0xffffffffffffffffffffffffffffffffffffffff\n      and\n        /* \"@openzeppelin/contracts/token/ERC20/ERC20.sol\":6097:6101  from */\n      dup4\n        /* \"@openzeppelin/contracts/token/ERC20/ERC20.sol\":6097:6115  from == address(0) */\n      0xffffffffffffffffffffffffffffffffffffffff\n      and\n      sub\n        /* \"@openzeppelin/contracts/token/ERC20/ERC20.sol\":6093:6633  if (from == address(0)) {... */\n      tag_336\n      jumpi\n        /* \"@openzeppelin/contracts/token/ERC20/ERC20.sol\":6249:6254  value */\n      dup1\n        /* \"@openzeppelin/contracts/token/ERC20/ERC20.sol\":6233:6245  _totalSupply */\n      0x02\n      0x00\n        /* \"@openzeppelin/contracts/token/ERC20/ERC20.sol\":6233:6254  _totalSupply += value */\n      dup3\n      dup3\n      sload\n      tag_337\n      swap2\n      swap1\n      tag_208\n      jump\t// in\n    tag_337:\n      swap3\n      pop\n      pop\n      dup2\n      swap1\n      sstore\n      pop\n        /* \"@openzeppelin/contracts/token/ERC20/ERC20.sol\":6093:6633  if (from == address(0)) {... */\n      jump(tag_338)\n    tag_336:\n        /* \"@openzeppelin/contracts/token/ERC20/ERC20.sol\":6285:6304  uint256 fromBalance */\n      0x00\n        /* \"@openzeppelin/contracts/token/ERC20/ERC20.sol\":6307:6316  _balances */\n      0x00\n        /* \"@openzeppelin/contracts/token/ERC20/ERC20.sol\":6307:6322  _balances[from] */\n      0x00\n        /* \"@openzeppelin/contracts/token/ERC20/ERC20.sol\":6317:6321  from */\n      dup6\n        /* \"@openzeppelin/contracts/token/ERC20/ERC20.sol\":6307:6322  _balances[from] */\n      0xffffffffffffffffffffffffffffffffffffffff\n      and\n      0xffffffffffffffffffffffffffffffffffffffff\n      and\n      dup2\n      mstore\n      0x20\n      add\n      swap1\n      dup2\n      mstore\n      0x20\n      add\n      0x00\n      keccak256\n      sload\n        /* \"@openzeppelin/contracts/token/ERC20/ERC20.sol\":6285:6322  uint256 fromBalance = _balances[from] */\n      swap1\n      pop\n        /* \"@openzeppelin/contracts/token/ERC20/ERC20.sol\":6354:6359  value */\n      dup2\n        /* \"@openzeppelin/contracts/token/ERC20/ERC20.sol\":6340:6351  fromBalance */\n      dup2\n        /* \"@openzeppelin/contracts/token/ERC20/ERC20.sol\":6340:6359  fromBalance < value */\n      lt\n        /* \"@openzeppelin/contracts/token/ERC20/ERC20.sol\":6336:6451  if (fromBalance < value) {... */\n      iszero\n      tag_339\n      jumpi\n        /* \"@openzeppelin/contracts/token/ERC20/ERC20.sol\":6411:6415  from */\n      dup4\n        /* \"@openzeppelin/contracts/token/ERC20/ERC20.sol\":6417:6428  fromBalance */\n      dup2\n        /* \"@openzeppelin/contracts/token/ERC20/ERC20.sol\":6430:6435  value */\n      dup4\n        /* \"@openzeppelin/contracts/token/ERC20/ERC20.sol\":6386:6436  ERC20InsufficientBalance(from, fromBalance, value) */\n      mload(0x40)\n      0xe450d38c00000000000000000000000000000000000000000000000000000000\n      dup2\n      mstore\n      0x04\n      add\n      tag_340\n      swap4\n      swap3\n      swap2\n      swap1\n      tag_304\n      jump\t// in\n    tag_340:\n      mload(0x40)\n      dup1\n      swap2\n      sub\n      swap1\n      revert\n        /* \"@openzeppelin/contracts/token/ERC20/ERC20.sol\":6336:6451  if (fromBalance < value) {... */\n    tag_339:\n        /* \"@openzeppelin/contracts/token/ERC20/ERC20.sol\":6603:6608  value */\n      dup2\n        /* \"@openzeppelin/contracts/token/ERC20/ERC20.sol\":6589:6600  fromBalance */\n      dup2\n        /* \"@openzeppelin/contracts/token/ERC20/ERC20.sol\":6589:6608  fromBalance - value */\n      sub\n        /* \"@openzeppelin/contracts/token/ERC20/ERC20.sol\":6571:6580  _balances */\n      0x00\n        /* \"@openzeppelin/contracts/token/ERC20/ERC20.sol\":6571:6586  _balances[from] */\n      0x00\n        /* \"@openzeppelin/contracts/token/ERC20/ERC20.sol\":6581:6585  from */\n      dup7\n        /* \"@openzeppelin/contracts/token/ERC20/ERC20.sol\":6571:6586  _balances[from] */\n      0xffffffffffffffffffffffffffffffffffffffff\n      and\n      0xffffffffffffffffffffffffffffffffffffffff\n      and\n      dup2\n      mstore\n      0x20\n      add\n      swap1\n      dup2\n      mstore\n      0x20\n      add\n      0x00\n      keccak256\n        /* \"@openzeppelin/contracts/token/ERC20/ERC20.sol\":6571:6608  _balances[from] = fromBalance - value */\n      dup2\n      swap1\n      sstore\n      pop\n        /* \"@openzeppelin/contracts/token/ERC20/ERC20.sol\":6271:6633  {... */\n      pop\n        /* \"@openzeppelin/contracts/token/ERC20/ERC20.sol\":6093:6633  if (from == address(0)) {... */\n    tag_338:\n        /* \"@openzeppelin/contracts/token/ERC20/ERC20.sol\":6661:6662  0 */\n      0x00\n        /* \"@openzeppelin/contracts/token/ERC20/ERC20.sol\":6647:6663  to == address(0) */\n      0xffffffffffffffffffffffffffffffffffffffff\n      and\n        /* \"@openzeppelin/contracts/token/ERC20/ERC20.sol\":6647:6649  to */\n      dup3\n        /* \"@openzeppelin/contracts/token/ERC20/ERC20.sol\":6647:6663  to == address(0) */\n      0xffffffffffffffffffffffffffffffffffffffff\n      and\n      sub\n        /* \"@openzeppelin/contracts/token/ERC20/ERC20.sol\":6643:7068  if (to == address(0)) {... */\n      tag_341\n      jumpi\n        /* \"@openzeppelin/contracts/token/ERC20/ERC20.sol\":6826:6831  value */\n      dup1\n        /* \"@openzeppelin/contracts/token/ERC20/ERC20.sol\":6810:6822  _totalSupply */\n      0x02\n      0x00\n        /* \"@openzeppelin/contracts/token/ERC20/ERC20.sol\":6810:6831  _totalSupply -= value */\n      dup3\n      dup3\n      sload\n      sub\n      swap3\n      pop\n      pop\n      dup2\n      swap1\n      sstore\n      pop\n        /* \"@openzeppelin/contracts/token/ERC20/ERC20.sol\":6643:7068  if (to == address(0)) {... */\n      jump(tag_342)\n    tag_341:\n        /* \"@openzeppelin/contracts/token/ERC20/ERC20.sol\":7038:7043  value */\n      dup1\n        /* \"@openzeppelin/contracts/token/ERC20/ERC20.sol\":7021:7030  _balances */\n      0x00\n        /* \"@openzeppelin/contracts/token/ERC20/ERC20.sol\":7021:7034  _balances[to] */\n      0x00\n        /* \"@openzeppelin/contracts/token/ERC20/ERC20.sol\":7031:7033  to */\n      dup5\n        /* \"@openzeppelin/contracts/token/ERC20/ERC20.sol\":7021:7034  _balances[to] */\n      0xffffffffffffffffffffffffffffffffffffffff\n      and\n      0xffffffffffffffffffffffffffffffffffffffff\n      and\n      dup2\n      mstore\n      0x20\n      add\n      swap1\n      dup2\n      mstore\n      0x20\n      add\n      0x00\n      keccak256\n      0x00\n        /* \"@openzeppelin/contracts/token/ERC20/ERC20.sol\":7021:7043  _balances[to] += value */\n      dup3\n      dup3\n      sload\n      add\n      swap3\n      pop\n      pop\n      dup2\n      swap1\n      sstore\n      pop\n        /* \"@openzeppelin/contracts/token/ERC20/ERC20.sol\":6643:7068  if (to == address(0)) {... */\n    tag_342:\n        /* \"@openzeppelin/contracts/token/ERC20/ERC20.sol\":7098:7100  to */\n      dup2\n        /* \"@openzeppelin/contracts/token/ERC20/ERC20.sol\":7083:7108  Transfer(from, to, value) */\n      0xffffffffffffffffffffffffffffffffffffffff\n      and\n        /* \"@openzeppelin/contracts/token/ERC20/ERC20.sol\":7092:7096  from */\n      dup4\n        /* \"@openzeppelin/contracts/token/ERC20/ERC20.sol\":7083:7108  Transfer(from, to, value) */\n      0xffffffffffffffffffffffffffffffffffffffff\n      and\n      0xddf252ad1be2c89b69c2b068fc378daa952ba7f163c4a11628f55a4df523b3ef\n        /* \"@openzeppelin/contracts/token/ERC20/ERC20.sol\":7102:7107  value */\n      dup4\n        /* \"@openzeppelin/contracts/token/ERC20/ERC20.sol\":7083:7108  Transfer(from, to, value) */\n      mload(0x40)\n      tag_343\n      swap2\n      swap1\n      tag_57\n      jump\t// in\n    tag_343:\n      mload(0x40)\n      dup1\n      swap2\n      sub\n      swap1\n      log3\n        /* \"@openzeppelin/contracts/token/ERC20/ERC20.sol\":6008:7115  function _update(address from, address to, uint256 value) internal virtual {... */\n      pop\n      pop\n      pop\n      jump\t// out\n    tag_234:\n      pop\n      dup1\n      sload\n      0x00\n      dup3\n      sstore\n      swap1\n      0x00\n      mstore\n      keccak256(0x00, 0x20)\n      swap1\n      dup2\n      add\n      swap1\n      tag_345\n      swap2\n      swap1\n      tag_346\n      jump\t// in\n    tag_345:\n      pop\n      jump\t// out\n    tag_346:\n    tag_347:\n      dup1\n      dup3\n      gt\n      iszero\n      tag_348\n      jumpi\n      0x00\n      dup2\n      0x00\n      swap1\n      sstore\n      pop\n      0x01\n      add\n      jump(tag_347)\n    tag_348:\n      pop\n      swap1\n      jump\t// out\n        /* \"#utility.yul\":7:82   */\n    tag_349:\n        /* \"#utility.yul\":40:46   */\n      0x00\n        /* \"#utility.yul\":73:75   */\n      0x40\n        /* \"#utility.yul\":67:76   */\n      mload\n        /* \"#utility.yul\":57:76   */\n      swap1\n      pop\n        /* \"#utility.yul\":7:82   */\n      swap1\n      jump\t// out\n        /* \"#utility.yul\":88:205   */\n    tag_350:\n        /* \"#utility.yul\":197:198   */\n      0x00\n        /* \"#utility.yul\":194:195   */\n      0x00\n        /* \"#utility.yul\":187:199   */\n      revert\n        /* \"#utility.yul\":211:328   */\n    tag_351:\n        /* \"#utility.yul\":320:321   */\n      0x00\n        /* \"#utility.yul\":317:318   */\n      0x00\n        /* \"#utility.yul\":310:322   */\n      revert\n        /* \"#utility.yul\":334:411   */\n    tag_352:\n        /* \"#utility.yul\":371:378   */\n      0x00\n        /* \"#utility.yul\":400:405   */\n      dup2\n        /* \"#utility.yul\":389:405   */\n      swap1\n      pop\n        /* \"#utility.yul\":334:411   */\n      swap2\n      swap1\n      pop\n      jump\t// out\n        /* \"#utility.yul\":417:539   */\n    tag_353:\n        /* \"#utility.yul\":490:514   */\n      tag_426\n        /* \"#utility.yul\":508:513   */\n      dup2\n        /* \"#utility.yul\":490:514   */\n      tag_352\n      jump\t// in\n    tag_426:\n        /* \"#utility.yul\":483:488   */\n      dup2\n        /* \"#utility.yul\":480:515   */\n      eq\n        /* \"#utility.yul\":470:533   */\n      tag_427\n      jumpi\n        /* \"#utility.yul\":529:530   */\n      0x00\n        /* \"#utility.yul\":526:527   */\n      0x00\n        /* \"#utility.yul\":519:531   */\n      revert\n        /* \"#utility.yul\":470:533   */\n    tag_427:\n        /* \"#utility.yul\":417:539   */\n      pop\n      jump\t// out\n        /* \"#utility.yul\":545:684   */\n    tag_354:\n        /* \"#utility.yul\":591:596   */\n      0x00\n        /* \"#utility.yul\":629:635   */\n      dup2\n        /* \"#utility.yul\":616:636   */\n      calldataload\n        /* \"#utility.yul\":607:636   */\n      swap1\n      pop\n        /* \"#utility.yul\":645:678   */\n      tag_429\n        /* \"#utility.yul\":672:677   */\n      dup2\n        /* \"#utility.yul\":645:678   */\n      tag_353\n      jump\t// in\n    tag_429:\n        /* \"#utility.yul\":545:684   */\n      swap3\n      swap2\n      pop\n      pop\n      jump\t// out\n        /* \"#utility.yul\":690:1019   */\n    tag_40:\n        /* \"#utility.yul\":749:755   */\n      0x00\n        /* \"#utility.yul\":798:800   */\n      0x20\n        /* \"#utility.yul\":786:795   */\n      dup3\n        /* \"#utility.yul\":777:784   */\n      dup5\n        /* \"#utility.yul\":773:796   */\n      sub\n        /* \"#utility.yul\":769:801   */\n      slt\n        /* \"#utility.yul\":766:885   */\n      iszero\n      tag_431\n      jumpi\n        /* \"#utility.yul\":804:883   */\n      tag_432\n      tag_350\n      jump\t// in\n    tag_432:\n        /* \"#utility.yul\":766:885   */\n    tag_431:\n        /* \"#utility.yul\":924:925   */\n      0x00\n        /* \"#utility.yul\":949:1002   */\n      tag_433\n        /* \"#utility.yul\":994:1001   */\n      dup5\n        /* \"#utility.yul\":985:991   */\n      dup3\n        /* \"#utility.yul\":974:983   */\n      dup6\n        /* \"#utility.yul\":970:992   */\n      add\n        /* \"#utility.yul\":949:1002   */\n      tag_354\n      jump\t// in\n    tag_433:\n        /* \"#utility.yul\":939:1002   */\n      swap2\n      pop\n        /* \"#utility.yul\":895:1012   */\n      pop\n        /* \"#utility.yul\":690:1019   */\n      swap3\n      swap2\n      pop\n      pop\n      jump\t// out\n        /* \"#utility.yul\":1025:1124   */\n    tag_355:\n        /* \"#utility.yul\":1077:1083   */\n      0x00\n        /* \"#utility.yul\":1111:1116   */\n      dup2\n        /* \"#utility.yul\":1105:1117   */\n      mload\n        /* \"#utility.yul\":1095:1117   */\n      swap1\n      pop\n        /* \"#utility.yul\":1025:1124   */\n      swap2\n      swap1\n      pop\n      jump\t// out\n        /* \"#utility.yul\":1130:1299   */\n    tag_356:\n        /* \"#utility.yul\":1214:1225   */\n      0x00\n        /* \"#utility.yul\":1248:1254   */\n      dup3\n        /* \"#utility.yul\":1243:1246   */\n      dup3\n        /* \"#utility.yul\":1236:1255   */\n      mstore\n        /* \"#utility.yul\":1288:1292   */\n      0x20\n        /* \"#utility.yul\":1283:1286   */\n      dup3\n        /* \"#utility.yul\":1279:1293   */\n      add\n        /* \"#utility.yul\":1264:1293   */\n      swap1\n      pop\n        /* \"#utility.yul\":1130:1299   */\n      swap3\n      swap2\n      pop\n      pop\n      jump\t// out\n        /* \"#utility.yul\":1305:1444   */\n    tag_357:\n        /* \"#utility.yul\":1394:1400   */\n      dup3\n        /* \"#utility.yul\":1389:1392   */\n      dup2\n        /* \"#utility.yul\":1384:1387   */\n      dup4\n        /* \"#utility.yul\":1378:1401   */\n      mcopy\n        /* \"#utility.yul\":1435:1436   */\n      0x00\n        /* \"#utility.yul\":1426:1432   */\n      dup4\n        /* \"#utility.yul\":1421:1424   */\n      dup4\n        /* \"#utility.yul\":1417:1433   */\n      add\n        /* \"#utility.yul\":1410:1437   */\n      mstore\n        /* \"#utility.yul\":1305:1444   */\n      pop\n      pop\n      pop\n      jump\t// out\n        /* \"#utility.yul\":1450:1552   */\n    tag_358:\n        /* \"#utility.yul\":1491:1497   */\n      0x00\n        /* \"#utility.yul\":1542:1544   */\n      0x1f\n        /* \"#utility.yul\":1538:1545   */\n      not\n        /* \"#utility.yul\":1533:1535   */\n      0x1f\n        /* \"#utility.yul\":1526:1531   */\n      dup4\n        /* \"#utility.yul\":1522:1536   */\n      add\n        /* \"#utility.yul\":1518:1546   */\n      and\n        /* \"#utility.yul\":1508:1546   */\n      swap1\n      pop\n        /* \"#utility.yul\":1450:1552   */\n      swap2\n      swap1\n      pop\n      jump\t// out\n        /* \"#utility.yul\":1558:1935   */\n    tag_359:\n        /* \"#utility.yul\":1646:1649   */\n      0x00\n        /* \"#utility.yul\":1674:1713   */\n      tag_439\n        /* \"#utility.yul\":1707:1712   */\n      dup3\n        /* \"#utility.yul\":1674:1713   */\n      tag_355\n      jump\t// in\n    tag_439:\n        /* \"#utility.yul\":1729:1800   */\n      tag_440\n        /* \"#utility.yul\":1793:1799   */\n      dup2\n        /* \"#utility.yul\":1788:1791   */\n      dup6\n        /* \"#utility.yul\":1729:1800   */\n      tag_356\n      jump\t// in\n    tag_440:\n        /* \"#utility.yul\":1722:1800   */\n      swap4\n      pop\n        /* \"#utility.yul\":1809:1874   */\n      tag_441\n        /* \"#utility.yul\":1867:1873   */\n      dup2\n        /* \"#utility.yul\":1862:1865   */\n      dup6\n        /* \"#utility.yul\":1855:1859   */\n      0x20\n        /* \"#utility.yul\":1848:1853   */\n      dup7\n        /* \"#utility.yul\":1844:1860   */\n      add\n        /* \"#utility.yul\":1809:1874   */\n      tag_357\n      jump\t// in\n    tag_441:\n        /* \"#utility.yul\":1899:1928   */\n      tag_442\n        /* \"#utility.yul\":1921:1927   */\n      dup2\n        /* \"#utility.yul\":1899:1928   */\n      tag_358\n      jump\t// in\n    tag_442:\n        /* \"#utility.yul\":1894:1897   */\n      dup5\n        /* \"#utility.yul\":1890:1929   */\n      add\n        /* \"#utility.yul\":1883:1929   */\n      swap2\n      pop\n        /* \"#utility.yul\":1650:1935   */\n      pop\n        /* \"#utility.yul\":1558:1935   */\n      swap3\n      swap2\n      pop\n      pop\n      jump\t// out\n        /* \"#utility.yul\":1941:2059   */\n    tag_360:\n        /* \"#utility.yul\":2028:2052   */\n      tag_444\n        /* \"#utility.yul\":2046:2051   */\n      dup2\n        /* \"#utility.yul\":2028:2052   */\n      tag_352\n      jump\t// in\n    tag_444:\n        /* \"#utility.yul\":2023:2026   */\n      dup3\n        /* \"#utility.yul\":2016:2053   */\n      mstore\n        /* \"#utility.yul\":1941:2059   */\n      pop\n      pop\n      jump\t// out\n        /* \"#utility.yul\":2065:2155   */\n    tag_361:\n        /* \"#utility.yul\":2099:2106   */\n      0x00\n        /* \"#utility.yul\":2142:2147   */\n      dup2\n        /* \"#utility.yul\":2135:2148   */\n      iszero\n        /* \"#utility.yul\":2128:2149   */\n      iszero\n        /* \"#utility.yul\":2117:2149   */\n      swap1\n      pop\n        /* \"#utility.yul\":2065:2155   */\n      swap2\n      swap1\n      pop\n      jump\t// out\n        /* \"#utility.yul\":2161:2270   */\n    tag_362:\n        /* \"#utility.yul\":2242:2263   */\n      tag_447\n        /* \"#utility.yul\":2257:2262   */\n      dup2\n        /* \"#utility.yul\":2242:2263   */\n      tag_361\n      jump\t// in\n    tag_447:\n        /* \"#utility.yul\":2237:2240   */\n      dup3\n        /* \"#utility.yul\":2230:2264   */\n      mstore\n        /* \"#utility.yul\":2161:2270   */\n      pop\n      pop\n      jump\t// out\n        /* \"#utility.yul\":2276:2908   */\n    tag_43:\n        /* \"#utility.yul\":2467:2471   */\n      0x00\n        /* \"#utility.yul\":2505:2508   */\n      0x80\n        /* \"#utility.yul\":2494:2503   */\n      dup3\n        /* \"#utility.yul\":2490:2509   */\n      add\n        /* \"#utility.yul\":2482:2509   */\n      swap1\n      pop\n        /* \"#utility.yul\":2555:2564   */\n      dup2\n        /* \"#utility.yul\":2549:2553   */\n      dup2\n        /* \"#utility.yul\":2545:2565   */\n      sub\n        /* \"#utility.yul\":2541:2542   */\n      0x00\n        /* \"#utility.yul\":2530:2539   */\n      dup4\n        /* \"#utility.yul\":2526:2543   */\n      add\n        /* \"#utility.yul\":2519:2566   */\n      mstore\n        /* \"#utility.yul\":2583:2661   */\n      tag_449\n        /* \"#utility.yul\":2656:2660   */\n      dup2\n        /* \"#utility.yul\":2647:2653   */\n      dup8\n        /* \"#utility.yul\":2583:2661   */\n      tag_359\n      jump\t// in\n    tag_449:\n        /* \"#utility.yul\":2575:2661   */\n      swap1\n      pop\n        /* \"#utility.yul\":2671:2743   */\n      tag_450\n        /* \"#utility.yul\":2739:2741   */\n      0x20\n        /* \"#utility.yul\":2728:2737   */\n      dup4\n        /* \"#utility.yul\":2724:2742   */\n      add\n        /* \"#utility.yul\":2715:2721   */\n      dup7\n        /* \"#utility.yul\":2671:2743   */\n      tag_360\n      jump\t// in\n    tag_450:\n        /* \"#utility.yul\":2753:2825   */\n      tag_451\n        /* \"#utility.yul\":2821:2823   */\n      0x40\n        /* \"#utility.yul\":2810:2819   */\n      dup4\n        /* \"#utility.yul\":2806:2824   */\n      add\n        /* \"#utility.yul\":2797:2803   */\n      dup6\n        /* \"#utility.yul\":2753:2825   */\n      tag_360\n      jump\t// in\n    tag_451:\n        /* \"#utility.yul\":2835:2901   */\n      tag_452\n        /* \"#utility.yul\":2897:2899   */\n      0x60\n        /* \"#utility.yul\":2886:2895   */\n      dup4\n        /* \"#utility.yul\":2882:2900   */\n      add\n        /* \"#utility.yul\":2873:2879   */\n      dup5\n        /* \"#utility.yul\":2835:2901   */\n      tag_362\n      jump\t// in\n    tag_452:\n        /* \"#utility.yul\":2276:2908   */\n      swap6\n      swap5\n      pop\n      pop\n      pop\n      pop\n      pop\n      jump\t// out\n        /* \"#utility.yul\":2914:3227   */\n    tag_47:\n        /* \"#utility.yul\":3027:3031   */\n      0x00\n        /* \"#utility.yul\":3065:3067   */\n      0x20\n        /* \"#utility.yul\":3054:3063   */\n      dup3\n        /* \"#utility.yul\":3050:3068   */\n      add\n        /* \"#utility.yul\":3042:3068   */\n      swap1\n      pop\n        /* \"#utility.yul\":3114:3123   */\n      dup2\n        /* \"#utility.yul\":3108:3112   */\n      dup2\n        /* \"#utility.yul\":3104:3124   */\n      sub\n        /* \"#utility.yul\":3100:3101   */\n      0x00\n        /* \"#utility.yul\":3089:3098   */\n      dup4\n        /* \"#utility.yul\":3085:3102   */\n      add\n        /* \"#utility.yul\":3078:3125   */\n      mstore\n        /* \"#utility.yul\":3142:3220   */\n      tag_454\n        /* \"#utility.yul\":3215:3219   */\n      dup2\n        /* \"#utility.yul\":3206:3212   */\n      dup5\n        /* \"#utility.yul\":3142:3220   */\n      tag_359\n      jump\t// in\n    tag_454:\n        /* \"#utility.yul\":3134:3220   */\n      swap1\n      pop\n        /* \"#utility.yul\":2914:3227   */\n      swap3\n      swap2\n      pop\n      pop\n      jump\t// out\n        /* \"#utility.yul\":3233:3359   */\n    tag_363:\n        /* \"#utility.yul\":3270:3277   */\n      0x00\n        /* \"#utility.yul\":3310:3352   */\n      0xffffffffffffffffffffffffffffffffffffffff\n        /* \"#utility.yul\":3303:3308   */\n      dup3\n        /* \"#utility.yul\":3299:3353   */\n      and\n        /* \"#utility.yul\":3288:3353   */\n      swap1\n      pop\n        /* \"#utility.yul\":3233:3359   */\n      swap2\n      swap1\n      pop\n      jump\t// out\n        /* \"#utility.yul\":3365:3461   */\n    tag_364:\n        /* \"#utility.yul\":3402:3409   */\n      0x00\n        /* \"#utility.yul\":3431:3455   */\n      tag_457\n        /* \"#utility.yul\":3449:3454   */\n      dup3\n        /* \"#utility.yul\":3431:3455   */\n      tag_363\n      jump\t// in\n    tag_457:\n        /* \"#utility.yul\":3420:3455   */\n      swap1\n      pop\n        /* \"#utility.yul\":3365:3461   */\n      swap2\n      swap1\n      pop\n      jump\t// out\n        /* \"#utility.yul\":3467:3589   */\n    tag_365:\n        /* \"#utility.yul\":3540:3564   */\n      tag_459\n        /* \"#utility.yul\":3558:3563   */\n      dup2\n        /* \"#utility.yul\":3540:3564   */\n      tag_364\n      jump\t// in\n    tag_459:\n        /* \"#utility.yul\":3533:3538   */\n      dup2\n        /* \"#utility.yul\":3530:3565   */\n      eq\n        /* \"#utility.yul\":3520:3583   */\n      tag_460\n      jumpi\n        /* \"#utility.yul\":3579:3580   */\n      0x00\n        /* \"#utility.yul\":3576:3577   */\n      0x00\n        /* \"#utility.yul\":3569:3581   */\n      revert\n        /* \"#utility.yul\":3520:3583   */\n    tag_460:\n        /* \"#utility.yul\":3467:3589   */\n      pop\n      jump\t// out\n        /* \"#utility.yul\":3595:3734   */\n    tag_366:\n        /* \"#utility.yul\":3641:3646   */\n      0x00\n        /* \"#utility.yul\":3679:3685   */\n      dup2\n        /* \"#utility.yul\":3666:3686   */\n      calldataload\n        /* \"#utility.yul\":3657:3686   */\n      swap1\n      pop\n        /* \"#utility.yul\":3695:3728   */\n      tag_462\n        /* \"#utility.yul\":3722:3727   */\n      dup2\n        /* \"#utility.yul\":3695:3728   */\n      tag_365\n      jump\t// in\n    tag_462:\n        /* \"#utility.yul\":3595:3734   */\n      swap3\n      swap2\n      pop\n      pop\n      jump\t// out\n        /* \"#utility.yul\":3740:4214   */\n    tag_50:\n        /* \"#utility.yul\":3808:3814   */\n      0x00\n        /* \"#utility.yul\":3816:3822   */\n      0x00\n        /* \"#utility.yul\":3865:3867   */\n      0x40\n        /* \"#utility.yul\":3853:3862   */\n      dup4\n        /* \"#utility.yul\":3844:3851   */\n      dup6\n        /* \"#utility.yul\":3840:3863   */\n      sub\n        /* \"#utility.yul\":3836:3868   */\n      slt\n        /* \"#utility.yul\":3833:3952   */\n      iszero\n      tag_464\n      jumpi\n        /* \"#utility.yul\":3871:3950   */\n      tag_465\n      tag_350\n      jump\t// in\n    tag_465:\n        /* \"#utility.yul\":3833:3952   */\n    tag_464:\n        /* \"#utility.yul\":3991:3992   */\n      0x00\n        /* \"#utility.yul\":4016:4069   */\n      tag_466\n        /* \"#utility.yul\":4061:4068   */\n      dup6\n        /* \"#utility.yul\":4052:4058   */\n      dup3\n        /* \"#utility.yul\":4041:4050   */\n      dup7\n        /* \"#utility.yul\":4037:4059   */\n      add\n        /* \"#utility.yul\":4016:4069   */\n      tag_366\n      jump\t// in\n    tag_466:\n        /* \"#utility.yul\":4006:4069   */\n      swap3\n      pop\n        /* \"#utility.yul\":3962:4079   */\n      pop\n        /* \"#utility.yul\":4118:4120   */\n      0x20\n        /* \"#utility.yul\":4144:4197   */\n      tag_467\n        /* \"#utility.yul\":4189:4196   */\n      dup6\n        /* \"#utility.yul\":4180:4186   */\n      dup3\n        /* \"#utility.yul\":4169:4178   */\n      dup7\n        /* \"#utility.yul\":4165:4187   */\n      add\n        /* \"#utility.yul\":4144:4197   */\n      tag_354\n      jump\t// in\n    tag_467:\n        /* \"#utility.yul\":4134:4197   */\n      swap2\n      pop\n        /* \"#utility.yul\":4089:4207   */\n      pop\n        /* \"#utility.yul\":3740:4214   */\n      swap3\n      pop\n      swap3\n      swap1\n      pop\n      jump\t// out\n        /* \"#utility.yul\":4220:4430   */\n    tag_53:\n        /* \"#utility.yul\":4307:4311   */\n      0x00\n        /* \"#utility.yul\":4345:4347   */\n      0x20\n        /* \"#utility.yul\":4334:4343   */\n      dup3\n        /* \"#utility.yul\":4330:4348   */\n      add\n        /* \"#utility.yul\":4322:4348   */\n      swap1\n      pop\n        /* \"#utility.yul\":4358:4423   */\n      tag_469\n        /* \"#utility.yul\":4420:4421   */\n      0x00\n        /* \"#utility.yul\":4409:4418   */\n      dup4\n        /* \"#utility.yul\":4405:4422   */\n      add\n        /* \"#utility.yul\":4396:4402   */\n      dup5\n        /* \"#utility.yul\":4358:4423   */\n      tag_362\n      jump\t// in\n    tag_469:\n        /* \"#utility.yul\":4220:4430   */\n      swap3\n      swap2\n      pop\n      pop\n      jump\t// out\n        /* \"#utility.yul\":4436:4658   */\n    tag_57:\n        /* \"#utility.yul\":4529:4533   */\n      0x00\n        /* \"#utility.yul\":4567:4569   */\n      0x20\n        /* \"#utility.yul\":4556:4565   */\n      dup3\n        /* \"#utility.yul\":4552:4570   */\n      add\n        /* \"#utility.yul\":4544:4570   */\n      swap1\n      pop\n        /* \"#utility.yul\":4580:4651   */\n      tag_471\n        /* \"#utility.yul\":4648:4649   */\n      0x00\n        /* \"#utility.yul\":4637:4646   */\n      dup4\n        /* \"#utility.yul\":4633:4650   */\n      add\n        /* \"#utility.yul\":4624:4630   */\n      dup5\n        /* \"#utility.yul\":4580:4651   */\n      tag_360\n      jump\t// in\n    tag_471:\n        /* \"#utility.yul\":4436:4658   */\n      swap3\n      swap2\n      pop\n      pop\n      jump\t// out\n        /* \"#utility.yul\":4664:5106   */\n    tag_61:\n        /* \"#utility.yul\":4813:4817   */\n      0x00\n        /* \"#utility.yul\":4851:4853   */\n      0x60\n        /* \"#utility.yul\":4840:4849   */\n      dup3\n        /* \"#utility.yul\":4836:4854   */\n      add\n        /* \"#utility.yul\":4828:4854   */\n      swap1\n      pop\n        /* \"#utility.yul\":4864:4935   */\n      tag_473\n        /* \"#utility.yul\":4932:4933   */\n      0x00\n        /* \"#utility.yul\":4921:4930   */\n      dup4\n        /* \"#utility.yul\":4917:4934   */\n      add\n        /* \"#utility.yul\":4908:4914   */\n      dup7\n        /* \"#utility.yul\":4864:4935   */\n      tag_360\n      jump\t// in\n    tag_473:\n        /* \"#utility.yul\":4945:5017   */\n      tag_474\n        /* \"#utility.yul\":5013:5015   */\n      0x20\n        /* \"#utility.yul\":5002:5011   */\n      dup4\n        /* \"#utility.yul\":4998:5016   */\n      add\n        /* \"#utility.yul\":4989:4995   */\n      dup6\n        /* \"#utility.yul\":4945:5017   */\n      tag_360\n      jump\t// in\n    tag_474:\n        /* \"#utility.yul\":5027:5099   */\n      tag_475\n        /* \"#utility.yul\":5095:5097   */\n      0x40\n        /* \"#utility.yul\":5084:5093   */\n      dup4\n        /* \"#utility.yul\":5080:5098   */\n      add\n        /* \"#utility.yul\":5071:5077   */\n      dup5\n        /* \"#utility.yul\":5027:5099   */\n      tag_360\n      jump\t// in\n    tag_475:\n        /* \"#utility.yul\":4664:5106   */\n      swap5\n      swap4\n      pop\n      pop\n      pop\n      pop\n      jump\t// out\n        /* \"#utility.yul\":5112:5586   */\n    tag_64:\n        /* \"#utility.yul\":5180:5186   */\n      0x00\n        /* \"#utility.yul\":5188:5194   */\n      0x00\n        /* \"#utility.yul\":5237:5239   */\n      0x40\n        /* \"#utility.yul\":5225:5234   */\n      dup4\n        /* \"#utility.yul\":5216:5223   */\n      dup6\n        /* \"#utility.yul\":5212:5235   */\n      sub\n        /* \"#utility.yul\":5208:5240   */\n      slt\n        /* \"#utility.yul\":5205:5324   */\n      iszero\n      tag_477\n      jumpi\n        /* \"#utility.yul\":5243:5322   */\n      tag_478\n      tag_350\n      jump\t// in\n    tag_478:\n        /* \"#utility.yul\":5205:5324   */\n    tag_477:\n        /* \"#utility.yul\":5363:5364   */\n      0x00\n        /* \"#utility.yul\":5388:5441   */\n      tag_479\n        /* \"#utility.yul\":5433:5440   */\n      dup6\n        /* \"#utility.yul\":5424:5430   */\n      dup3\n        /* \"#utility.yul\":5413:5422   */\n      dup7\n        /* \"#utility.yul\":5409:5431   */\n      add\n        /* \"#utility.yul\":5388:5441   */\n      tag_354\n      jump\t// in\n    tag_479:\n        /* \"#utility.yul\":5378:5441   */\n      swap3\n      pop\n        /* \"#utility.yul\":5334:5451   */\n      pop\n        /* \"#utility.yul\":5490:5492   */\n      0x20\n        /* \"#utility.yul\":5516:5569   */\n      tag_480\n        /* \"#utility.yul\":5561:5568   */\n      dup6\n        /* \"#utility.yul\":5552:5558   */\n      dup3\n        /* \"#utility.yul\":5541:5550   */\n      dup7\n        /* \"#utility.yul\":5537:5559   */\n      add\n        /* \"#utility.yul\":5516:5569   */\n      tag_354\n      jump\t// in\n    tag_480:\n        /* \"#utility.yul\":5506:5569   */\n      swap2\n      pop\n        /* \"#utility.yul\":5461:5579   */\n      pop\n        /* \"#utility.yul\":5112:5586   */\n      swap3\n      pop\n      swap3\n      swap1\n      pop\n      jump\t// out\n        /* \"#utility.yul\":5592:5921   */\n    tag_69:\n        /* \"#utility.yul\":5651:5657   */\n      0x00\n        /* \"#utility.yul\":5700:5702   */\n      0x20\n        /* \"#utility.yul\":5688:5697   */\n      dup3\n        /* \"#utility.yul\":5679:5686   */\n      dup5\n        /* \"#utility.yul\":5675:5698   */\n      sub\n        /* \"#utility.yul\":5671:5703   */\n      slt\n        /* \"#utility.yul\":5668:5787   */\n      iszero\n      tag_482\n      jumpi\n        /* \"#utility.yul\":5706:5785   */\n      tag_483\n      tag_350\n      jump\t// in\n    tag_483:\n        /* \"#utility.yul\":5668:5787   */\n    tag_482:\n        /* \"#utility.yul\":5826:5827   */\n      0x00\n        /* \"#utility.yul\":5851:5904   */\n      tag_484\n        /* \"#utility.yul\":5896:5903   */\n      dup5\n        /* \"#utility.yul\":5887:5893   */\n      dup3\n        /* \"#utility.yul\":5876:5885   */\n      dup6\n        /* \"#utility.yul\":5872:5894   */\n      add\n        /* \"#utility.yul\":5851:5904   */\n      tag_366\n      jump\t// in\n    tag_484:\n        /* \"#utility.yul\":5841:5904   */\n      swap2\n      pop\n        /* \"#utility.yul\":5797:5914   */\n      pop\n        /* \"#utility.yul\":5592:5921   */\n      swap3\n      swap2\n      pop\n      pop\n      jump\t// out\n        /* \"#utility.yul\":5927:6045   */\n    tag_367:\n        /* \"#utility.yul\":6014:6038   */\n      tag_486\n        /* \"#utility.yul\":6032:6037   */\n      dup2\n        /* \"#utility.yul\":6014:6038   */\n      tag_364\n      jump\t// in\n    tag_486:\n        /* \"#utility.yul\":6009:6012   */\n      dup3\n        /* \"#utility.yul\":6002:6039   */\n      mstore\n        /* \"#utility.yul\":5927:6045   */\n      pop\n      pop\n      jump\t// out\n        /* \"#utility.yul\":6051:6604   */\n    tag_72:\n        /* \"#utility.yul\":6228:6232   */\n      0x00\n        /* \"#utility.yul\":6266:6269   */\n      0x80\n        /* \"#utility.yul\":6255:6264   */\n      dup3\n        /* \"#utility.yul\":6251:6270   */\n      add\n        /* \"#utility.yul\":6243:6270   */\n      swap1\n      pop\n        /* \"#utility.yul\":6280:6351   */\n      tag_488\n        /* \"#utility.yul\":6348:6349   */\n      0x00\n        /* \"#utility.yul\":6337:6346   */\n      dup4\n        /* \"#utility.yul\":6333:6350   */\n      add\n        /* \"#utility.yul\":6324:6330   */\n      dup8\n        /* \"#utility.yul\":6280:6351   */\n      tag_360\n      jump\t// in\n    tag_488:\n        /* \"#utility.yul\":6361:6433   */\n      tag_489\n        /* \"#utility.yul\":6429:6431   */\n      0x20\n        /* \"#utility.yul\":6418:6427   */\n      dup4\n        /* \"#utility.yul\":6414:6432   */\n      add\n        /* \"#utility.yul\":6405:6411   */\n      dup7\n        /* \"#utility.yul\":6361:6433   */\n      tag_360\n      jump\t// in\n    tag_489:\n        /* \"#utility.yul\":6443:6515   */\n      tag_490\n        /* \"#utility.yul\":6511:6513   */\n      0x40\n        /* \"#utility.yul\":6500:6509   */\n      dup4\n        /* \"#utility.yul\":6496:6514   */\n      add\n        /* \"#utility.yul\":6487:6493   */\n      dup6\n        /* \"#utility.yul\":6443:6515   */\n      tag_360\n      jump\t// in\n    tag_490:\n        /* \"#utility.yul\":6525:6597   */\n      tag_491\n        /* \"#utility.yul\":6593:6595   */\n      0x60\n        /* \"#utility.yul\":6582:6591   */\n      dup4\n        /* \"#utility.yul\":6578:6596   */\n      add\n        /* \"#utility.yul\":6569:6575   */\n      dup5\n        /* \"#utility.yul\":6525:6597   */\n      tag_367\n      jump\t// in\n    tag_491:\n        /* \"#utility.yul\":6051:6604   */\n      swap6\n      swap5\n      pop\n      pop\n      pop\n      pop\n      pop\n      jump\t// out\n        /* \"#utility.yul\":6610:7229   */\n    tag_78:\n        /* \"#utility.yul\":6687:6693   */\n      0x00\n        /* \"#utility.yul\":6695:6701   */\n      0x00\n        /* \"#utility.yul\":6703:6709   */\n      0x00\n        /* \"#utility.yul\":6752:6754   */\n      0x60\n        /* \"#utility.yul\":6740:6749   */\n      dup5\n        /* \"#utility.yul\":6731:6738   */\n      dup7\n        /* \"#utility.yul\":6727:6750   */\n      sub\n        /* \"#utility.yul\":6723:6755   */\n      slt\n        /* \"#utility.yul\":6720:6839   */\n      iszero\n      tag_493\n      jumpi\n        /* \"#utility.yul\":6758:6837   */\n      tag_494\n      tag_350\n      jump\t// in\n    tag_494:\n        /* \"#utility.yul\":6720:6839   */\n    tag_493:\n        /* \"#utility.yul\":6878:6879   */\n      0x00\n        /* \"#utility.yul\":6903:6956   */\n      tag_495\n        /* \"#utility.yul\":6948:6955   */\n      dup7\n        /* \"#utility.yul\":6939:6945   */\n      dup3\n        /* \"#utility.yul\":6928:6937   */\n      dup8\n        /* \"#utility.yul\":6924:6946   */\n      add\n        /* \"#utility.yul\":6903:6956   */\n      tag_366\n      jump\t// in\n    tag_495:\n        /* \"#utility.yul\":6893:6956   */\n      swap4\n      pop\n        /* \"#utility.yul\":6849:6966   */\n      pop\n        /* \"#utility.yul\":7005:7007   */\n      0x20\n        /* \"#utility.yul\":7031:7084   */\n      tag_496\n        /* \"#utility.yul\":7076:7083   */\n      dup7\n        /* \"#utility.yul\":7067:7073   */\n      dup3\n        /* \"#utility.yul\":7056:7065   */\n      dup8\n        /* \"#utility.yul\":7052:7074   */\n      add\n        /* \"#utility.yul\":7031:7084   */\n      tag_366\n      jump\t// in\n    tag_496:\n        /* \"#utility.yul\":7021:7084   */\n      swap3\n      pop\n        /* \"#utility.yul\":6976:7094   */\n      pop\n        /* \"#utility.yul\":7133:7135   */\n      0x40\n        /* \"#utility.yul\":7159:7212   */\n      tag_497\n        /* \"#utility.yul\":7204:7211   */\n      dup7\n        /* \"#utility.yul\":7195:7201   */\n      dup3\n        /* \"#utility.yul\":7184:7193   */\n      dup8\n        /* \"#utility.yul\":7180:7202   */\n      add\n        /* \"#utility.yul\":7159:7212   */\n      tag_354\n      jump\t// in\n    tag_497:\n        /* \"#utility.yul\":7149:7212   */\n      swap2\n      pop\n        /* \"#utility.yul\":7104:7222   */\n      pop\n        /* \"#utility.yul\":6610:7229   */\n      swap3\n      pop\n      swap3\n      pop\n      swap3\n      jump\t// out\n        /* \"#utility.yul\":7235:7321   */\n    tag_368:\n        /* \"#utility.yul\":7270:7277   */\n      0x00\n        /* \"#utility.yul\":7310:7314   */\n      0xff\n        /* \"#utility.yul\":7303:7308   */\n      dup3\n        /* \"#utility.yul\":7299:7315   */\n      and\n        /* \"#utility.yul\":7288:7315   */\n      swap1\n      pop\n        /* \"#utility.yul\":7235:7321   */\n      swap2\n      swap1\n      pop\n      jump\t// out\n        /* \"#utility.yul\":7327:7439   */\n    tag_369:\n        /* \"#utility.yul\":7410:7432   */\n      tag_500\n        /* \"#utility.yul\":7426:7431   */\n      dup2\n        /* \"#utility.yul\":7410:7432   */\n      tag_368\n      jump\t// in\n    tag_500:\n        /* \"#utility.yul\":7405:7408   */\n      dup3\n        /* \"#utility.yul\":7398:7433   */\n      mstore\n        /* \"#utility.yul\":7327:7439   */\n      pop\n      pop\n      jump\t// out\n        /* \"#utility.yul\":7445:7659   */\n    tag_87:\n        /* \"#utility.yul\":7534:7538   */\n      0x00\n        /* \"#utility.yul\":7572:7574   */\n      0x20\n        /* \"#utility.yul\":7561:7570   */\n      dup3\n        /* \"#utility.yul\":7557:7575   */\n      add\n        /* \"#utility.yul\":7549:7575   */\n      swap1\n      pop\n        /* \"#utility.yul\":7585:7652   */\n      tag_502\n        /* \"#utility.yul\":7649:7650   */\n      0x00\n        /* \"#utility.yul\":7638:7647   */\n      dup4\n        /* \"#utility.yul\":7634:7651   */\n      add\n        /* \"#utility.yul\":7625:7631   */\n      dup5\n        /* \"#utility.yul\":7585:7652   */\n      tag_369\n      jump\t// in\n    tag_502:\n        /* \"#utility.yul\":7445:7659   */\n      swap3\n      swap2\n      pop\n      pop\n      jump\t// out\n        /* \"#utility.yul\":7665:7782   */\n    tag_370:\n        /* \"#utility.yul\":7774:7775   */\n      0x00\n        /* \"#utility.yul\":7771:7772   */\n      0x00\n        /* \"#utility.yul\":7764:7776   */\n      revert\n        /* \"#utility.yul\":7788:7905   */\n    tag_371:\n        /* \"#utility.yul\":7897:7898   */\n      0x00\n        /* \"#utility.yul\":7894:7895   */\n      0x00\n        /* \"#utility.yul\":7887:7899   */\n      revert\n        /* \"#utility.yul\":7911:8091   */\n    tag_372:\n        /* \"#utility.yul\":7959:8036   */\n      0x4e487b7100000000000000000000000000000000000000000000000000000000\n        /* \"#utility.yul\":7956:7957   */\n      0x00\n        /* \"#utility.yul\":7949:8037   */\n      mstore\n        /* \"#utility.yul\":8056:8060   */\n      0x41\n        /* \"#utility.yul\":8053:8054   */\n      0x04\n        /* \"#utility.yul\":8046:8061   */\n      mstore\n        /* \"#utility.yul\":8080:8084   */\n      0x24\n        /* \"#utility.yul\":8077:8078   */\n      0x00\n        /* \"#utility.yul\":8070:8085   */\n      revert\n        /* \"#utility.yul\":8097:8378   */\n    tag_373:\n        /* \"#utility.yul\":8180:8207   */\n      tag_507\n        /* \"#utility.yul\":8202:8206   */\n      dup3\n        /* \"#utility.yul\":8180:8207   */\n      tag_358\n      jump\t// in\n    tag_507:\n        /* \"#utility.yul\":8172:8178   */\n      dup2\n        /* \"#utility.yul\":8168:8208   */\n      add\n        /* \"#utility.yul\":8310:8316   */\n      dup2\n        /* \"#utility.yul\":8298:8308   */\n      dup2\n        /* \"#utility.yul\":8295:8317   */\n      lt\n        /* \"#utility.yul\":8274:8292   */\n      0xffffffffffffffff\n        /* \"#utility.yul\":8262:8272   */\n      dup3\n        /* \"#utility.yul\":8259:8293   */\n      gt\n        /* \"#utility.yul\":8256:8318   */\n      or\n        /* \"#utility.yul\":8253:8341   */\n      iszero\n      tag_508\n      jumpi\n        /* \"#utility.yul\":8321:8339   */\n      tag_509\n      tag_372\n      jump\t// in\n    tag_509:\n        /* \"#utility.yul\":8253:8341   */\n    tag_508:\n        /* \"#utility.yul\":8361:8371   */\n      dup1\n        /* \"#utility.yul\":8357:8359   */\n      0x40\n        /* \"#utility.yul\":8350:8372   */\n      mstore\n        /* \"#utility.yul\":8140:8378   */\n      pop\n        /* \"#utility.yul\":8097:8378   */\n      pop\n      pop\n      jump\t// out\n        /* \"#utility.yul\":8384:8513   */\n    tag_374:\n        /* \"#utility.yul\":8418:8424   */\n      0x00\n        /* \"#utility.yul\":8445:8465   */\n      tag_511\n      tag_349\n      jump\t// in\n    tag_511:\n        /* \"#utility.yul\":8435:8465   */\n      swap1\n      pop\n        /* \"#utility.yul\":8474:8507   */\n      tag_512\n        /* \"#utility.yul\":8502:8506   */\n      dup3\n        /* \"#utility.yul\":8494:8500   */\n      dup3\n        /* \"#utility.yul\":8474:8507   */\n      tag_373\n      jump\t// in\n    tag_512:\n        /* \"#utility.yul\":8384:8513   */\n      swap2\n      swap1\n      pop\n      jump\t// out\n        /* \"#utility.yul\":8519:8827   */\n    tag_375:\n        /* \"#utility.yul\":8581:8585   */\n      0x00\n        /* \"#utility.yul\":8671:8689   */\n      0xffffffffffffffff\n        /* \"#utility.yul\":8663:8669   */\n      dup3\n        /* \"#utility.yul\":8660:8690   */\n      gt\n        /* \"#utility.yul\":8657:8713   */\n      iszero\n      tag_514\n      jumpi\n        /* \"#utility.yul\":8693:8711   */\n      tag_515\n      tag_372\n      jump\t// in\n    tag_515:\n        /* \"#utility.yul\":8657:8713   */\n    tag_514:\n        /* \"#utility.yul\":8731:8760   */\n      tag_516\n        /* \"#utility.yul\":8753:8759   */\n      dup3\n        /* \"#utility.yul\":8731:8760   */\n      tag_358\n      jump\t// in\n    tag_516:\n        /* \"#utility.yul\":8723:8760   */\n      swap1\n      pop\n        /* \"#utility.yul\":8815:8819   */\n      0x20\n        /* \"#utility.yul\":8809:8813   */\n      dup2\n        /* \"#utility.yul\":8805:8820   */\n      add\n        /* \"#utility.yul\":8797:8820   */\n      swap1\n      pop\n        /* \"#utility.yul\":8519:8827   */\n      swap2\n      swap1\n      pop\n      jump\t// out\n        /* \"#utility.yul\":8833:8981   */\n    tag_376:\n        /* \"#utility.yul\":8931:8937   */\n      dup3\n        /* \"#utility.yul\":8926:8929   */\n      dup2\n        /* \"#utility.yul\":8921:8924   */\n      dup4\n        /* \"#utility.yul\":8908:8938   */\n      calldatacopy\n        /* \"#utility.yul\":8972:8973   */\n      0x00\n        /* \"#utility.yul\":8963:8969   */\n      dup4\n        /* \"#utility.yul\":8958:8961   */\n      dup4\n        /* \"#utility.yul\":8954:8970   */\n      add\n        /* \"#utility.yul\":8947:8974   */\n      mstore\n        /* \"#utility.yul\":8833:8981   */\n      pop\n      pop\n      pop\n      jump\t// out\n        /* \"#utility.yul\":8987:9412   */\n    tag_377:\n        /* \"#utility.yul\":9065:9070   */\n      0x00\n        /* \"#utility.yul\":9090:9156   */\n      tag_519\n        /* \"#utility.yul\":9106:9155   */\n      tag_520\n        /* \"#utility.yul\":9148:9154   */\n      dup5\n        /* \"#utility.yul\":9106:9155   */\n      tag_375\n      jump\t// in\n    tag_520:\n        /* \"#utility.yul\":9090:9156   */\n      tag_374\n      jump\t// in\n    tag_519:\n        /* \"#utility.yul\":9081:9156   */\n      swap1\n      pop\n        /* \"#utility.yul\":9179:9185   */\n      dup3\n        /* \"#utility.yul\":9172:9177   */\n      dup2\n        /* \"#utility.yul\":9165:9186   */\n      mstore\n        /* \"#utility.yul\":9217:9221   */\n      0x20\n        /* \"#utility.yul\":9210:9215   */\n      dup2\n        /* \"#utility.yul\":9206:9222   */\n      add\n        /* \"#utility.yul\":9255:9258   */\n      dup5\n        /* \"#utility.yul\":9246:9252   */\n      dup5\n        /* \"#utility.yul\":9241:9244   */\n      dup5\n        /* \"#utility.yul\":9237:9253   */\n      add\n        /* \"#utility.yul\":9234:9259   */\n      gt\n        /* \"#utility.yul\":9231:9343   */\n      iszero\n      tag_521\n      jumpi\n        /* \"#utility.yul\":9262:9341   */\n      tag_522\n      tag_371\n      jump\t// in\n    tag_522:\n        /* \"#utility.yul\":9231:9343   */\n    tag_521:\n        /* \"#utility.yul\":9352:9406   */\n      tag_523\n        /* \"#utility.yul\":9399:9405   */\n      dup5\n        /* \"#utility.yul\":9394:9397   */\n      dup3\n        /* \"#utility.yul\":9389:9392   */\n      dup6\n        /* \"#utility.yul\":9352:9406   */\n      tag_376\n      jump\t// in\n    tag_523:\n        /* \"#utility.yul\":9071:9412   */\n      pop\n        /* \"#utility.yul\":8987:9412   */\n      swap4\n      swap3\n      pop\n      pop\n      pop\n      jump\t// out\n        /* \"#utility.yul\":9432:9772   */\n    tag_378:\n        /* \"#utility.yul\":9488:9493   */\n      0x00\n        /* \"#utility.yul\":9537:9540   */\n      dup3\n        /* \"#utility.yul\":9530:9534   */\n      0x1f\n        /* \"#utility.yul\":9522:9528   */\n      dup4\n        /* \"#utility.yul\":9518:9535   */\n      add\n        /* \"#utility.yul\":9514:9541   */\n      slt\n        /* \"#utility.yul\":9504:9626   */\n      tag_525\n      jumpi\n        /* \"#utility.yul\":9545:9624   */\n      tag_526\n      tag_370\n      jump\t// in\n    tag_526:\n        /* \"#utility.yul\":9504:9626   */\n    tag_525:\n        /* \"#utility.yul\":9662:9668   */\n      dup2\n        /* \"#utility.yul\":9649:9669   */\n      calldataload\n        /* \"#utility.yul\":9687:9766   */\n      tag_527\n        /* \"#utility.yul\":9762:9765   */\n      dup5\n        /* \"#utility.yul\":9754:9760   */\n      dup3\n        /* \"#utility.yul\":9747:9751   */\n      0x20\n        /* \"#utility.yul\":9739:9745   */\n      dup7\n        /* \"#utility.yul\":9735:9752   */\n      add\n        /* \"#utility.yul\":9687:9766   */\n      tag_377\n      jump\t// in\n    tag_527:\n        /* \"#utility.yul\":9678:9766   */\n      swap2\n      pop\n        /* \"#utility.yul\":9494:9772   */\n      pop\n        /* \"#utility.yul\":9432:9772   */\n      swap3\n      swap2\n      pop\n      pop\n      jump\t// out\n        /* \"#utility.yul\":9778:10287   */\n    tag_93:\n        /* \"#utility.yul\":9847:9853   */\n      0x00\n        /* \"#utility.yul\":9896:9898   */\n      0x20\n        /* \"#utility.yul\":9884:9893   */\n      dup3\n        /* \"#utility.yul\":9875:9882   */\n      dup5\n        /* \"#utility.yul\":9871:9894   */\n      sub\n        /* \"#utility.yul\":9867:9899   */\n      slt\n        /* \"#utility.yul\":9864:9983   */\n      iszero\n      tag_529\n      jumpi\n        /* \"#utility.yul\":9902:9981   */\n      tag_530\n      tag_350\n      jump\t// in\n    tag_530:\n        /* \"#utility.yul\":9864:9983   */\n    tag_529:\n        /* \"#utility.yul\":10050:10051   */\n      0x00\n        /* \"#utility.yul\":10039:10048   */\n      dup3\n        /* \"#utility.yul\":10035:10052   */\n      add\n        /* \"#utility.yul\":10022:10053   */\n      calldataload\n        /* \"#utility.yul\":10080:10098   */\n      0xffffffffffffffff\n        /* \"#utility.yul\":10072:10078   */\n      dup2\n        /* \"#utility.yul\":10069:10099   */\n      gt\n        /* \"#utility.yul\":10066:10183   */\n      iszero\n      tag_531\n      jumpi\n        /* \"#utility.yul\":10102:10181   */\n      tag_532\n      tag_351\n      jump\t// in\n    tag_532:\n        /* \"#utility.yul\":10066:10183   */\n    tag_531:\n        /* \"#utility.yul\":10207:10270   */\n      tag_533\n        /* \"#utility.yul\":10262:10269   */\n      dup5\n        /* \"#utility.yul\":10253:10259   */\n      dup3\n        /* \"#utility.yul\":10242:10251   */\n      dup6\n        /* \"#utility.yul\":10238:10260   */\n      add\n        /* \"#utility.yul\":10207:10270   */\n      tag_378\n      jump\t// in\n    tag_533:\n        /* \"#utility.yul\":10197:10270   */\n      swap2\n      pop\n        /* \"#utility.yul\":9993:10280   */\n      pop\n        /* \"#utility.yul\":9778:10287   */\n      swap3\n      swap2\n      pop\n      pop\n      jump\t// out\n        /* \"#utility.yul\":10293:10767   */\n    tag_108:\n        /* \"#utility.yul\":10361:10367   */\n      0x00\n        /* \"#utility.yul\":10369:10375   */\n      0x00\n        /* \"#utility.yul\":10418:10420   */\n      0x40\n        /* \"#utility.yul\":10406:10415   */\n      dup4\n        /* \"#utility.yul\":10397:10404   */\n      dup6\n        /* \"#utility.yul\":10393:10416   */\n      sub\n        /* \"#utility.yul\":10389:10421   */\n      slt\n        /* \"#utility.yul\":10386:10505   */\n      iszero\n      tag_535\n      jumpi\n        /* \"#utility.yul\":10424:10503   */\n      tag_536\n      tag_350\n      jump\t// in\n    tag_536:\n        /* \"#utility.yul\":10386:10505   */\n    tag_535:\n        /* \"#utility.yul\":10544:10545   */\n      0x00\n        /* \"#utility.yul\":10569:10622   */\n      tag_537\n        /* \"#utility.yul\":10614:10621   */\n      dup6\n        /* \"#utility.yul\":10605:10611   */\n      dup3\n        /* \"#utility.yul\":10594:10603   */\n      dup7\n        /* \"#utility.yul\":10590:10612   */\n      add\n        /* \"#utility.yul\":10569:10622   */\n      tag_354\n      jump\t// in\n    tag_537:\n        /* \"#utility.yul\":10559:10622   */\n      swap3\n      pop\n        /* \"#utility.yul\":10515:10632   */\n      pop\n        /* \"#utility.yul\":10671:10673   */\n      0x20\n        /* \"#utility.yul\":10697:10750   */\n      tag_538\n        /* \"#utility.yul\":10742:10749   */\n      dup6\n        /* \"#utility.yul\":10733:10739   */\n      dup3\n        /* \"#utility.yul\":10722:10731   */\n      dup7\n        /* \"#utility.yul\":10718:10740   */\n      add\n        /* \"#utility.yul\":10697:10750   */\n      tag_366\n      jump\t// in\n    tag_538:\n        /* \"#utility.yul\":10687:10750   */\n      swap2\n      pop\n        /* \"#utility.yul\":10642:10760   */\n      pop\n        /* \"#utility.yul\":10293:10767   */\n      swap3\n      pop\n      swap3\n      swap1\n      pop\n      jump\t// out\n        /* \"#utility.yul\":10773:10995   */\n    tag_113:\n        /* \"#utility.yul\":10866:10870   */\n      0x00\n        /* \"#utility.yul\":10904:10906   */\n      0x20\n        /* \"#utility.yul\":10893:10902   */\n      dup3\n        /* \"#utility.yul\":10889:10907   */\n      add\n        /* \"#utility.yul\":10881:10907   */\n      swap1\n      pop\n        /* \"#utility.yul\":10917:10988   */\n      tag_540\n        /* \"#utility.yul\":10985:10986   */\n      0x00\n        /* \"#utility.yul\":10974:10983   */\n      dup4\n        /* \"#utility.yul\":10970:10987   */\n      add\n        /* \"#utility.yul\":10961:10967   */\n      dup5\n        /* \"#utility.yul\":10917:10988   */\n      tag_367\n      jump\t// in\n    tag_540:\n        /* \"#utility.yul\":10773:10995   */\n      swap3\n      swap2\n      pop\n      pop\n      jump\t// out\n        /* \"#utility.yul\":11001:11115   */\n    tag_379:\n        /* \"#utility.yul\":11068:11074   */\n      0x00\n        /* \"#utility.yul\":11102:11107   */\n      dup2\n        /* \"#utility.yul\":11096:11108   */\n      mload\n        /* \"#utility.yul\":11086:11108   */\n      swap1\n      pop\n        /* \"#utility.yul\":11001:11115   */\n      swap2\n      swap1\n      pop\n      jump\t// out\n        /* \"#utility.yul\":11121:11305   */\n    tag_380:\n        /* \"#utility.yul\":11220:11231   */\n      0x00\n        /* \"#utility.yul\":11254:11260   */\n      dup3\n        /* \"#utility.yul\":11249:11252   */\n      dup3\n        /* \"#utility.yul\":11242:11261   */\n      mstore\n        /* \"#utility.yul\":11294:11298   */\n      0x20\n        /* \"#utility.yul\":11289:11292   */\n      dup3\n        /* \"#utility.yul\":11285:11299   */\n      add\n        /* \"#utility.yul\":11270:11299   */\n      swap1\n      pop\n        /* \"#utility.yul\":11121:11305   */\n      swap3\n      swap2\n      pop\n      pop\n      jump\t// out\n        /* \"#utility.yul\":11311:11443   */\n    tag_381:\n        /* \"#utility.yul\":11378:11382   */\n      0x00\n        /* \"#utility.yul\":11401:11404   */\n      dup2\n        /* \"#utility.yul\":11393:11404   */\n      swap1\n      pop\n        /* \"#utility.yul\":11431:11435   */\n      0x20\n        /* \"#utility.yul\":11426:11429   */\n      dup3\n        /* \"#utility.yul\":11422:11436   */\n      add\n        /* \"#utility.yul\":11414:11436   */\n      swap1\n      pop\n        /* \"#utility.yul\":11311:11443   */\n      swap2\n      swap1\n      pop\n      jump\t// out\n        /* \"#utility.yul\":11449:11557   */\n    tag_382:\n        /* \"#utility.yul\":11526:11550   */\n      tag_545\n        /* \"#utility.yul\":11544:11549   */\n      dup2\n        /* \"#utility.yul\":11526:11550   */\n      tag_364\n      jump\t// in\n    tag_545:\n        /* \"#utility.yul\":11521:11524   */\n      dup3\n        /* \"#utility.yul\":11514:11551   */\n      mstore\n        /* \"#utility.yul\":11449:11557   */\n      pop\n      pop\n      jump\t// out\n        /* \"#utility.yul\":11563:11742   */\n    tag_383:\n        /* \"#utility.yul\":11632:11642   */\n      0x00\n        /* \"#utility.yul\":11653:11699   */\n      tag_547\n        /* \"#utility.yul\":11695:11698   */\n      dup4\n        /* \"#utility.yul\":11687:11693   */\n      dup4\n        /* \"#utility.yul\":11653:11699   */\n      tag_382\n      jump\t// in\n    tag_547:\n        /* \"#utility.yul\":11731:11735   */\n      0x20\n        /* \"#utility.yul\":11726:11729   */\n      dup4\n        /* \"#utility.yul\":11722:11736   */\n      add\n        /* \"#utility.yul\":11708:11736   */\n      swap1\n      pop\n        /* \"#utility.yul\":11563:11742   */\n      swap3\n      swap2\n      pop\n      pop\n      jump\t// out\n        /* \"#utility.yul\":11748:11861   */\n    tag_384:\n        /* \"#utility.yul\":11818:11822   */\n      0x00\n        /* \"#utility.yul\":11850:11854   */\n      0x20\n        /* \"#utility.yul\":11845:11848   */\n      dup3\n        /* \"#utility.yul\":11841:11855   */\n      add\n        /* \"#utility.yul\":11833:11855   */\n      swap1\n      pop\n        /* \"#utility.yul\":11748:11861   */\n      swap2\n      swap1\n      pop\n      jump\t// out\n        /* \"#utility.yul\":11897:12629   */\n    tag_385:\n        /* \"#utility.yul\":12016:12019   */\n      0x00\n        /* \"#utility.yul\":12045:12099   */\n      tag_550\n        /* \"#utility.yul\":12093:12098   */\n      dup3\n        /* \"#utility.yul\":12045:12099   */\n      tag_379\n      jump\t// in\n    tag_550:\n        /* \"#utility.yul\":12115:12201   */\n      tag_551\n        /* \"#utility.yul\":12194:12200   */\n      dup2\n        /* \"#utility.yul\":12189:12192   */\n      dup6\n        /* \"#utility.yul\":12115:12201   */\n      tag_380\n      jump\t// in\n    tag_551:\n        /* \"#utility.yul\":12108:12201   */\n      swap4\n      pop\n        /* \"#utility.yul\":12225:12281   */\n      tag_552\n        /* \"#utility.yul\":12275:12280   */\n      dup4\n        /* \"#utility.yul\":12225:12281   */\n      tag_381\n      jump\t// in\n    tag_552:\n        /* \"#utility.yul\":12304:12311   */\n      dup1\n        /* \"#utility.yul\":12335:12336   */\n      0x00\n        /* \"#utility.yul\":12320:12604   */\n    tag_553:\n        /* \"#utility.yul\":12345:12351   */\n      dup4\n        /* \"#utility.yul\":12342:12343   */\n      dup2\n        /* \"#utility.yul\":12339:12352   */\n      lt\n        /* \"#utility.yul\":12320:12604   */\n      iszero\n      tag_555\n      jumpi\n        /* \"#utility.yul\":12421:12427   */\n      dup2\n        /* \"#utility.yul\":12415:12428   */\n      mload\n        /* \"#utility.yul\":12448:12511   */\n      tag_556\n        /* \"#utility.yul\":12507:12510   */\n      dup9\n        /* \"#utility.yul\":12492:12505   */\n      dup3\n        /* \"#utility.yul\":12448:12511   */\n      tag_383\n      jump\t// in\n    tag_556:\n        /* \"#utility.yul\":12441:12511   */\n      swap8\n      pop\n        /* \"#utility.yul\":12534:12594   */\n      tag_557\n        /* \"#utility.yul\":12587:12593   */\n      dup4\n        /* \"#utility.yul\":12534:12594   */\n      tag_384\n      jump\t// in\n    tag_557:\n        /* \"#utility.yul\":12524:12594   */\n      swap3\n      pop\n        /* \"#utility.yul\":12380:12604   */\n      pop\n        /* \"#utility.yul\":12367:12368   */\n      0x01\n        /* \"#utility.yul\":12364:12365   */\n      dup2\n        /* \"#utility.yul\":12360:12369   */\n      add\n        /* \"#utility.yul\":12355:12369   */\n      swap1\n      pop\n        /* \"#utility.yul\":12320:12604   */\n      jump(tag_553)\n    tag_555:\n        /* \"#utility.yul\":12324:12338   */\n      pop\n        /* \"#utility.yul\":12620:12623   */\n      dup6\n        /* \"#utility.yul\":12613:12623   */\n      swap4\n      pop\n        /* \"#utility.yul\":12021:12629   */\n      pop\n      pop\n      pop\n        /* \"#utility.yul\":11897:12629   */\n      swap3\n      swap2\n      pop\n      pop\n      jump\t// out\n        /* \"#utility.yul\":12635:13008   */\n    tag_124:\n        /* \"#utility.yul\":12778:12782   */\n      0x00\n        /* \"#utility.yul\":12816:12818   */\n      0x20\n        /* \"#utility.yul\":12805:12814   */\n      dup3\n        /* \"#utility.yul\":12801:12819   */\n      add\n        /* \"#utility.yul\":12793:12819   */\n      swap1\n      pop\n        /* \"#utility.yul\":12865:12874   */\n      dup2\n        /* \"#utility.yul\":12859:12863   */\n      dup2\n        /* \"#utility.yul\":12855:12875   */\n      sub\n        /* \"#utility.yul\":12851:12852   */\n      0x00\n        /* \"#utility.yul\":12840:12849   */\n      dup4\n        /* \"#utility.yul\":12836:12853   */\n      add\n        /* \"#utility.yul\":12829:12876   */\n      mstore\n        /* \"#utility.yul\":12893:13001   */\n      tag_559\n        /* \"#utility.yul\":12996:13000   */\n      dup2\n        /* \"#utility.yul\":12987:12993   */\n      dup5\n        /* \"#utility.yul\":12893:13001   */\n      tag_385\n      jump\t// in\n    tag_559:\n        /* \"#utility.yul\":12885:13001   */\n      swap1\n      pop\n        /* \"#utility.yul\":12635:13008   */\n      swap3\n      swap2\n      pop\n      pop\n      jump\t// out\n        /* \"#utility.yul\":13014:13130   */\n    tag_386:\n        /* \"#utility.yul\":13084:13105   */\n      tag_561\n        /* \"#utility.yul\":13099:13104   */\n      dup2\n        /* \"#utility.yul\":13084:13105   */\n      tag_361\n      jump\t// in\n    tag_561:\n        /* \"#utility.yul\":13077:13082   */\n      dup2\n        /* \"#utility.yul\":13074:13106   */\n      eq\n        /* \"#utility.yul\":13064:13124   */\n      tag_562\n      jumpi\n        /* \"#utility.yul\":13120:13121   */\n      0x00\n        /* \"#utility.yul\":13117:13118   */\n      0x00\n        /* \"#utility.yul\":13110:13122   */\n      revert\n        /* \"#utility.yul\":13064:13124   */\n    tag_562:\n        /* \"#utility.yul\":13014:13130   */\n      pop\n      jump\t// out\n        /* \"#utility.yul\":13136:13269   */\n    tag_387:\n        /* \"#utility.yul\":13179:13184   */\n      0x00\n        /* \"#utility.yul\":13217:13223   */\n      dup2\n        /* \"#utility.yul\":13204:13224   */\n      calldataload\n        /* \"#utility.yul\":13195:13224   */\n      swap1\n      pop\n        /* \"#utility.yul\":13233:13263   */\n      tag_564\n        /* \"#utility.yul\":13257:13262   */\n      dup2\n        /* \"#utility.yul\":13233:13263   */\n      tag_386\n      jump\t// in\n    tag_564:\n        /* \"#utility.yul\":13136:13269   */\n      swap3\n      swap2\n      pop\n      pop\n      jump\t// out\n        /* \"#utility.yul\":13275:13743   */\n    tag_130:\n        /* \"#utility.yul\":13340:13346   */\n      0x00\n        /* \"#utility.yul\":13348:13354   */\n      0x00\n        /* \"#utility.yul\":13397:13399   */\n      0x40\n        /* \"#utility.yul\":13385:13394   */\n      dup4\n        /* \"#utility.yul\":13376:13383   */\n      dup6\n        /* \"#utility.yul\":13372:13395   */\n      sub\n        /* \"#utility.yul\":13368:13400   */\n      slt\n        /* \"#utility.yul\":13365:13484   */\n      iszero\n      tag_566\n      jumpi\n        /* \"#utility.yul\":13403:13482   */\n      tag_567\n      tag_350\n      jump\t// in\n    tag_567:\n        /* \"#utility.yul\":13365:13484   */\n    tag_566:\n        /* \"#utility.yul\":13523:13524   */\n      0x00\n        /* \"#utility.yul\":13548:13601   */\n      tag_568\n        /* \"#utility.yul\":13593:13600   */\n      dup6\n        /* \"#utility.yul\":13584:13590   */\n      dup3\n        /* \"#utility.yul\":13573:13582   */\n      dup7\n        /* \"#utility.yul\":13569:13591   */\n      add\n        /* \"#utility.yul\":13548:13601   */\n      tag_354\n      jump\t// in\n    tag_568:\n        /* \"#utility.yul\":13538:13601   */\n      swap3\n      pop\n        /* \"#utility.yul\":13494:13611   */\n      pop\n        /* \"#utility.yul\":13650:13652   */\n      0x20\n        /* \"#utility.yul\":13676:13726   */\n      tag_569\n        /* \"#utility.yul\":13718:13725   */\n      dup6\n        /* \"#utility.yul\":13709:13715   */\n      dup3\n        /* \"#utility.yul\":13698:13707   */\n      dup7\n        /* \"#utility.yul\":13694:13716   */\n      add\n        /* \"#utility.yul\":13676:13726   */\n      tag_387\n      jump\t// in\n    tag_569:\n        /* \"#utility.yul\":13666:13726   */\n      swap2\n      pop\n        /* \"#utility.yul\":13621:13736   */\n      pop\n        /* \"#utility.yul\":13275:13743   */\n      swap3\n      pop\n      swap3\n      swap1\n      pop\n      jump\t// out\n        /* \"#utility.yul\":13749:14223   */\n    tag_137:\n        /* \"#utility.yul\":13817:13823   */\n      0x00\n        /* \"#utility.yul\":13825:13831   */\n      0x00\n        /* \"#utility.yul\":13874:13876   */\n      0x40\n        /* \"#utility.yul\":13862:13871   */\n      dup4\n        /* \"#utility.yul\":13853:13860   */\n      dup6\n        /* \"#utility.yul\":13849:13872   */\n      sub\n        /* \"#utility.yul\":13845:13877   */\n      slt\n        /* \"#utility.yul\":13842:13961   */\n      iszero\n      tag_571\n      jumpi\n        /* \"#utility.yul\":13880:13959   */\n      tag_572\n      tag_350\n      jump\t// in\n    tag_572:\n        /* \"#utility.yul\":13842:13961   */\n    tag_571:\n        /* \"#utility.yul\":14000:14001   */\n      0x00\n        /* \"#utility.yul\":14025:14078   */\n      tag_573\n        /* \"#utility.yul\":14070:14077   */\n      dup6\n        /* \"#utility.yul\":14061:14067   */\n      dup3\n        /* \"#utility.yul\":14050:14059   */\n      dup7\n        /* \"#utility.yul\":14046:14068   */\n      add\n        /* \"#utility.yul\":14025:14078   */\n      tag_366\n      jump\t// in\n    tag_573:\n        /* \"#utility.yul\":14015:14078   */\n      swap3\n      pop\n        /* \"#utility.yul\":13971:14088   */\n      pop\n        /* \"#utility.yul\":14127:14129   */\n      0x20\n        /* \"#utility.yul\":14153:14206   */\n      tag_574\n        /* \"#utility.yul\":14198:14205   */\n      dup6\n        /* \"#utility.yul\":14189:14195   */\n      dup3\n        /* \"#utility.yul\":14178:14187   */\n      dup7\n        /* \"#utility.yul\":14174:14196   */\n      add\n        /* \"#utility.yul\":14153:14206   */\n      tag_366\n      jump\t// in\n    tag_574:\n        /* \"#utility.yul\":14143:14206   */\n      swap2\n      pop\n        /* \"#utility.yul\":14098:14216   */\n      pop\n        /* \"#utility.yul\":13749:14223   */\n      swap3\n      pop\n      swap3\n      swap1\n      pop\n      jump\t// out\n        /* \"#utility.yul\":14229:14409   */\n    tag_388:\n        /* \"#utility.yul\":14277:14354   */\n      0x4e487b7100000000000000000000000000000000000000000000000000000000\n        /* \"#utility.yul\":14274:14275   */\n      0x00\n        /* \"#utility.yul\":14267:14355   */\n      mstore\n        /* \"#utility.yul\":14374:14378   */\n      0x22\n        /* \"#utility.yul\":14371:14372   */\n      0x04\n        /* \"#utility.yul\":14364:14379   */\n      mstore\n        /* \"#utility.yul\":14398:14402   */\n      0x24\n        /* \"#utility.yul\":14395:14396   */\n      0x00\n        /* \"#utility.yul\":14388:14403   */\n      revert\n        /* \"#utility.yul\":14415:14735   */\n    tag_147:\n        /* \"#utility.yul\":14459:14465   */\n      0x00\n        /* \"#utility.yul\":14496:14497   */\n      0x02\n        /* \"#utility.yul\":14490:14494   */\n      dup3\n        /* \"#utility.yul\":14486:14498   */\n      div\n        /* \"#utility.yul\":14476:14498   */\n      swap1\n      pop\n        /* \"#utility.yul\":14543:14544   */\n      0x01\n        /* \"#utility.yul\":14537:14541   */\n      dup3\n        /* \"#utility.yul\":14533:14545   */\n      and\n        /* \"#utility.yul\":14564:14582   */\n      dup1\n        /* \"#utility.yul\":14554:14635   */\n      tag_577\n      jumpi\n        /* \"#utility.yul\":14620:14624   */\n      0x7f\n        /* \"#utility.yul\":14612:14618   */\n      dup3\n        /* \"#utility.yul\":14608:14625   */\n      and\n        /* \"#utility.yul\":14598:14625   */\n      swap2\n      pop\n        /* \"#utility.yul\":14554:14635   */\n    tag_577:\n        /* \"#utility.yul\":14682:14684   */\n      0x20\n        /* \"#utility.yul\":14674:14680   */\n      dup3\n        /* \"#utility.yul\":14671:14685   */\n      lt\n        /* \"#utility.yul\":14651:14669   */\n      dup2\n        /* \"#utility.yul\":14648:14686   */\n      sub\n        /* \"#utility.yul\":14645:14729   */\n      tag_578\n      jumpi\n        /* \"#utility.yul\":14701:14719   */\n      tag_579\n      tag_388\n      jump\t// in\n    tag_579:\n        /* \"#utility.yul\":14645:14729   */\n    tag_578:\n        /* \"#utility.yul\":14466:14735   */\n      pop\n        /* \"#utility.yul\":14415:14735   */\n      swap2\n      swap1\n      pop\n      jump\t// out\n        /* \"#utility.yul\":14741:14921   */\n    tag_389:\n        /* \"#utility.yul\":14789:14866   */\n      0x4e487b7100000000000000000000000000000000000000000000000000000000\n        /* \"#utility.yul\":14786:14787   */\n      0x00\n        /* \"#utility.yul\":14779:14867   */\n      mstore\n        /* \"#utility.yul\":14886:14890   */\n      0x11\n        /* \"#utility.yul\":14883:14884   */\n      0x04\n        /* \"#utility.yul\":14876:14891   */\n      mstore\n        /* \"#utility.yul\":14910:14914   */\n      0x24\n        /* \"#utility.yul\":14907:14908   */\n      0x00\n        /* \"#utility.yul\":14900:14915   */\n      revert\n        /* \"#utility.yul\":14927:15337   */\n    tag_171:\n        /* \"#utility.yul\":14967:14974   */\n      0x00\n        /* \"#utility.yul\":14990:15010   */\n      tag_582\n        /* \"#utility.yul\":15008:15009   */\n      dup3\n        /* \"#utility.yul\":14990:15010   */\n      tag_352\n      jump\t// in\n    tag_582:\n        /* \"#utility.yul\":14985:15010   */\n      swap2\n      pop\n        /* \"#utility.yul\":15024:15044   */\n      tag_583\n        /* \"#utility.yul\":15042:15043   */\n      dup4\n        /* \"#utility.yul\":15024:15044   */\n      tag_352\n      jump\t// in\n    tag_583:\n        /* \"#utility.yul\":15019:15044   */\n      swap3\n      pop\n        /* \"#utility.yul\":15079:15080   */\n      dup3\n        /* \"#utility.yul\":15076:15077   */\n      dup3\n        /* \"#utility.yul\":15072:15081   */\n      mul\n        /* \"#utility.yul\":15101:15131   */\n      tag_584\n        /* \"#utility.yul\":15119:15130   */\n      dup2\n        /* \"#utility.yul\":15101:15131   */\n      tag_352\n      jump\t// in\n    tag_584:\n        /* \"#utility.yul\":15090:15131   */\n      swap2\n      pop\n        /* \"#utility.yul\":15280:15281   */\n      dup3\n        /* \"#utility.yul\":15271:15278   */\n      dup3\n        /* \"#utility.yul\":15267:15282   */\n      div\n        /* \"#utility.yul\":15264:15265   */\n      dup5\n        /* \"#utility.yul\":15261:15283   */\n      eq\n        /* \"#utility.yul\":15241:15242   */\n      dup4\n        /* \"#utility.yul\":15234:15243   */\n      iszero\n        /* \"#utility.yul\":15214:15297   */\n      or\n        /* \"#utility.yul\":15191:15330   */\n      tag_585\n      jumpi\n        /* \"#utility.yul\":15310:15328   */\n      tag_586\n      tag_389\n      jump\t// in\n    tag_586:\n        /* \"#utility.yul\":15191:15330   */\n    tag_585:\n        /* \"#utility.yul\":14975:15337   */\n      pop\n        /* \"#utility.yul\":14927:15337   */\n      swap3\n      swap2\n      pop\n      pop\n      jump\t// out\n        /* \"#utility.yul\":15343:15523   */\n    tag_390:\n        /* \"#utility.yul\":15391:15468   */\n      0x4e487b7100000000000000000000000000000000000000000000000000000000\n        /* \"#utility.yul\":15388:15389   */\n      0x00\n        /* \"#utility.yul\":15381:15469   */\n      mstore\n        /* \"#utility.yul\":15488:15492   */\n      0x12\n        /* \"#utility.yul\":15485:15486   */\n      0x04\n        /* \"#utility.yul\":15478:15493   */\n      mstore\n        /* \"#utility.yul\":15512:15516   */\n      0x24\n        /* \"#utility.yul\":15509:15510   */\n      0x00\n        /* \"#utility.yul\":15502:15517   */\n      revert\n        /* \"#utility.yul\":15529:15714   */\n    tag_173:\n        /* \"#utility.yul\":15569:15570   */\n      0x00\n        /* \"#utility.yul\":15586:15606   */\n      tag_589\n        /* \"#utility.yul\":15604:15605   */\n      dup3\n        /* \"#utility.yul\":15586:15606   */\n      tag_352\n      jump\t// in\n    tag_589:\n        /* \"#utility.yul\":15581:15606   */\n      swap2\n      pop\n        /* \"#utility.yul\":15620:15640   */\n      tag_590\n        /* \"#utility.yul\":15638:15639   */\n      dup4\n        /* \"#utility.yul\":15620:15640   */\n      tag_352\n      jump\t// in\n    tag_590:\n        /* \"#utility.yul\":15615:15640   */\n      swap3\n      pop\n        /* \"#utility.yul\":15659:15660   */\n      dup3\n        /* \"#utility.yul\":15649:15684   */\n      tag_591\n      jumpi\n        /* \"#utility.yul\":15664:15682   */\n      tag_592\n      tag_390\n      jump\t// in\n    tag_592:\n        /* \"#utility.yul\":15649:15684   */\n    tag_591:\n        /* \"#utility.yul\":15706:15707   */\n      dup3\n        /* \"#utility.yul\":15703:15704   */\n      dup3\n        /* \"#utility.yul\":15699:15708   */\n      div\n        /* \"#utility.yul\":15694:15708   */\n      swap1\n      pop\n        /* \"#utility.yul\":15529:15714   */\n      swap3\n      swap2\n      pop\n      pop\n      jump\t// out\n        /* \"#utility.yul\":15720:15897   */\n    tag_391:\n        /* \"#utility.yul\":15860:15889   */\n      0x496e73756666696369656e74207374616b65642062616c616e63650000000000\n        /* \"#utility.yul\":15856:15857   */\n      0x00\n        /* \"#utility.yul\":15848:15854   */\n      dup3\n        /* \"#utility.yul\":15844:15858   */\n      add\n        /* \"#utility.yul\":15837:15890   */\n      mstore\n        /* \"#utility.yul\":15720:15897   */\n      pop\n      jump\t// out\n        /* \"#utility.yul\":15903:16269   */\n    tag_392:\n        /* \"#utility.yul\":16045:16048   */\n      0x00\n        /* \"#utility.yul\":16066:16133   */\n      tag_595\n        /* \"#utility.yul\":16130:16132   */\n      0x1b\n        /* \"#utility.yul\":16125:16128   */\n      dup4\n        /* \"#utility.yul\":16066:16133   */\n      tag_356\n      jump\t// in\n    tag_595:\n        /* \"#utility.yul\":16059:16133   */\n      swap2\n      pop\n        /* \"#utility.yul\":16142:16235   */\n      tag_596\n        /* \"#utility.yul\":16231:16234   */\n      dup3\n        /* \"#utility.yul\":16142:16235   */\n      tag_391\n      jump\t// in\n    tag_596:\n        /* \"#utility.yul\":16260:16262   */\n      0x20\n        /* \"#utility.yul\":16255:16258   */\n      dup3\n        /* \"#utility.yul\":16251:16263   */\n      add\n        /* \"#utility.yul\":16244:16263   */\n      swap1\n      pop\n        /* \"#utility.yul\":15903:16269   */\n      swap2\n      swap1\n      pop\n      jump\t// out\n        /* \"#utility.yul\":16275:16694   */\n    tag_185:\n        /* \"#utility.yul\":16441:16445   */\n      0x00\n        /* \"#utility.yul\":16479:16481   */\n      0x20\n        /* \"#utility.yul\":16468:16477   */\n      dup3\n        /* \"#utility.yul\":16464:16482   */\n      add\n        /* \"#utility.yul\":16456:16482   */\n      swap1\n      pop\n        /* \"#utility.yul\":16528:16537   */\n      dup2\n        /* \"#utility.yul\":16522:16526   */\n      dup2\n        /* \"#utility.yul\":16518:16538   */\n      sub\n        /* \"#utility.yul\":16514:16515   */\n      0x00\n        /* \"#utility.yul\":16503:16512   */\n      dup4\n        /* \"#utility.yul\":16499:16516   */\n      add\n        /* \"#utility.yul\":16492:16539   */\n      mstore\n        /* \"#utility.yul\":16556:16687   */\n      tag_598\n        /* \"#utility.yul\":16682:16686   */\n      dup2\n        /* \"#utility.yul\":16556:16687   */\n      tag_392\n      jump\t// in\n    tag_598:\n        /* \"#utility.yul\":16548:16687   */\n      swap1\n      pop\n        /* \"#utility.yul\":16275:16694   */\n      swap2\n      swap1\n      pop\n      jump\t// out\n        /* \"#utility.yul\":16700:16894   */\n    tag_187:\n        /* \"#utility.yul\":16740:16744   */\n      0x00\n        /* \"#utility.yul\":16760:16780   */\n      tag_600\n        /* \"#utility.yul\":16778:16779   */\n      dup3\n        /* \"#utility.yul\":16760:16780   */\n      tag_352\n      jump\t// in\n    tag_600:\n        /* \"#utility.yul\":16755:16780   */\n      swap2\n      pop\n        /* \"#utility.yul\":16794:16814   */\n      tag_601\n        /* \"#utility.yul\":16812:16813   */\n      dup4\n        /* \"#utility.yul\":16794:16814   */\n      tag_352\n      jump\t// in\n    tag_601:\n        /* \"#utility.yul\":16789:16814   */\n      swap3\n      pop\n        /* \"#utility.yul\":16838:16839   */\n      dup3\n        /* \"#utility.yul\":16835:16836   */\n      dup3\n        /* \"#utility.yul\":16831:16840   */\n      sub\n        /* \"#utility.yul\":16823:16840   */\n      swap1\n      pop\n        /* \"#utility.yul\":16862:16863   */\n      dup2\n        /* \"#utility.yul\":16856:16860   */\n      dup2\n        /* \"#utility.yul\":16853:16864   */\n      gt\n        /* \"#utility.yul\":16850:16887   */\n      iszero\n      tag_602\n      jumpi\n        /* \"#utility.yul\":16867:16885   */\n      tag_603\n      tag_389\n      jump\t// in\n    tag_603:\n        /* \"#utility.yul\":16850:16887   */\n    tag_602:\n        /* \"#utility.yul\":16700:16894   */\n      swap3\n      swap2\n      pop\n      pop\n      jump\t// out\n        /* \"#utility.yul\":16900:17232   */\n    tag_199:\n        /* \"#utility.yul\":17021:17025   */\n      0x00\n        /* \"#utility.yul\":17059:17061   */\n      0x40\n        /* \"#utility.yul\":17048:17057   */\n      dup3\n        /* \"#utility.yul\":17044:17062   */\n      add\n        /* \"#utility.yul\":17036:17062   */\n      swap1\n      pop\n        /* \"#utility.yul\":17072:17143   */\n      tag_605\n        /* \"#utility.yul\":17140:17141   */\n      0x00\n        /* \"#utility.yul\":17129:17138   */\n      dup4\n        /* \"#utility.yul\":17125:17142   */\n      add\n        /* \"#utility.yul\":17116:17122   */\n      dup6\n        /* \"#utility.yul\":17072:17143   */\n      tag_360\n      jump\t// in\n    tag_605:\n        /* \"#utility.yul\":17153:17225   */\n      tag_606\n        /* \"#utility.yul\":17221:17223   */\n      0x20\n        /* \"#utility.yul\":17210:17219   */\n      dup4\n        /* \"#utility.yul\":17206:17224   */\n      add\n        /* \"#utility.yul\":17197:17203   */\n      dup5\n        /* \"#utility.yul\":17153:17225   */\n      tag_360\n      jump\t// in\n    tag_606:\n        /* \"#utility.yul\":16900:17232   */\n      swap4\n      swap3\n      pop\n      pop\n      pop\n      jump\t// out\n        /* \"#utility.yul\":17238:17417   */\n    tag_393:\n        /* \"#utility.yul\":17378:17409   */\n      0x43616e6e6f7420656e7465722077697468207a65726f20746f6b656e73000000\n        /* \"#utility.yul\":17374:17375   */\n      0x00\n        /* \"#utility.yul\":17366:17372   */\n      dup3\n        /* \"#utility.yul\":17362:17376   */\n      add\n        /* \"#utility.yul\":17355:17410   */\n      mstore\n        /* \"#utility.yul\":17238:17417   */\n      pop\n      jump\t// out\n        /* \"#utility.yul\":17423:17789   */\n    tag_394:\n        /* \"#utility.yul\":17565:17568   */\n      0x00\n        /* \"#utility.yul\":17586:17653   */\n      tag_609\n        /* \"#utility.yul\":17650:17652   */\n      0x1d\n        /* \"#utility.yul\":17645:17648   */\n      dup4\n        /* \"#utility.yul\":17586:17653   */\n      tag_356\n      jump\t// in\n    tag_609:\n        /* \"#utility.yul\":17579:17653   */\n      swap2\n      pop\n        /* \"#utility.yul\":17662:17755   */\n      tag_610\n        /* \"#utility.yul\":17751:17754   */\n      dup3\n        /* \"#utility.yul\":17662:17755   */\n      tag_393\n      jump\t// in\n    tag_610:\n        /* \"#utility.yul\":17780:17782   */\n      0x20\n        /* \"#utility.yul\":17775:17778   */\n      dup3\n        /* \"#utility.yul\":17771:17783   */\n      add\n        /* \"#utility.yul\":17764:17783   */\n      swap1\n      pop\n        /* \"#utility.yul\":17423:17789   */\n      swap2\n      swap1\n      pop\n      jump\t// out\n        /* \"#utility.yul\":17795:18214   */\n    tag_204:\n        /* \"#utility.yul\":17961:17965   */\n      0x00\n        /* \"#utility.yul\":17999:18001   */\n      0x20\n        /* \"#utility.yul\":17988:17997   */\n      dup3\n        /* \"#utility.yul\":17984:18002   */\n      add\n        /* \"#utility.yul\":17976:18002   */\n      swap1\n      pop\n        /* \"#utility.yul\":18048:18057   */\n      dup2\n        /* \"#utility.yul\":18042:18046   */\n      dup2\n        /* \"#utility.yul\":18038:18058   */\n      sub\n        /* \"#utility.yul\":18034:18035   */\n      0x00\n        /* \"#utility.yul\":18023:18032   */\n      dup4\n        /* \"#utility.yul\":18019:18036   */\n      add\n        /* \"#utility.yul\":18012:18059   */\n      mstore\n        /* \"#utility.yul\":18076:18207   */\n      tag_612\n        /* \"#utility.yul\":18202:18206   */\n      dup2\n        /* \"#utility.yul\":18076:18207   */\n      tag_394\n      jump\t// in\n    tag_612:\n        /* \"#utility.yul\":18068:18207   */\n      swap1\n      pop\n        /* \"#utility.yul\":17795:18214   */\n      swap2\n      swap1\n      pop\n      jump\t// out\n        /* \"#utility.yul\":18220:18411   */\n    tag_208:\n        /* \"#utility.yul\":18260:18263   */\n      0x00\n        /* \"#utility.yul\":18279:18299   */\n      tag_614\n        /* \"#utility.yul\":18297:18298   */\n      dup3\n        /* \"#utility.yul\":18279:18299   */\n      tag_352\n      jump\t// in\n    tag_614:\n        /* \"#utility.yul\":18274:18299   */\n      swap2\n      pop\n        /* \"#utility.yul\":18313:18333   */\n      tag_615\n        /* \"#utility.yul\":18331:18332   */\n      dup4\n        /* \"#utility.yul\":18313:18333   */\n      tag_352\n      jump\t// in\n    tag_615:\n        /* \"#utility.yul\":18308:18333   */\n      swap3\n      pop\n        /* \"#utility.yul\":18356:18357   */\n      dup3\n        /* \"#utility.yul\":18353:18354   */\n      dup3\n        /* \"#utility.yul\":18349:18358   */\n      add\n        /* \"#utility.yul\":18342:18358   */\n      swap1\n      pop\n        /* \"#utility.yul\":18377:18380   */\n      dup1\n        /* \"#utility.yul\":18374:18375   */\n      dup3\n        /* \"#utility.yul\":18371:18381   */\n      gt\n        /* \"#utility.yul\":18368:18404   */\n      iszero\n      tag_616\n      jumpi\n        /* \"#utility.yul\":18384:18402   */\n      tag_617\n      tag_389\n      jump\t// in\n    tag_617:\n        /* \"#utility.yul\":18368:18404   */\n    tag_616:\n        /* \"#utility.yul\":18220:18411   */\n      swap3\n      swap2\n      pop\n      pop\n      jump\t// out\n        /* \"#utility.yul\":18417:18650   */\n    tag_215:\n        /* \"#utility.yul\":18456:18459   */\n      0x00\n        /* \"#utility.yul\":18479:18503   */\n      tag_619\n        /* \"#utility.yul\":18497:18502   */\n      dup3\n        /* \"#utility.yul\":18479:18503   */\n      tag_352\n      jump\t// in\n    tag_619:\n        /* \"#utility.yul\":18470:18503   */\n      swap2\n      pop\n        /* \"#utility.yul\":18525:18591   */\n      0xffffffffffffffffffffffffffffffffffffffffffffffffffffffffffffffff\n        /* \"#utility.yul\":18518:18523   */\n      dup3\n        /* \"#utility.yul\":18515:18592   */\n      sub\n        /* \"#utility.yul\":18512:18615   */\n      tag_620\n      jumpi\n        /* \"#utility.yul\":18595:18613   */\n      tag_621\n      tag_389\n      jump\t// in\n    tag_621:\n        /* \"#utility.yul\":18512:18615   */\n    tag_620:\n        /* \"#utility.yul\":18642:18643   */\n      0x01\n        /* \"#utility.yul\":18635:18640   */\n      dup3\n        /* \"#utility.yul\":18631:18644   */\n      add\n        /* \"#utility.yul\":18624:18644   */\n      swap1\n      pop\n        /* \"#utility.yul\":18417:18650   */\n      swap2\n      swap1\n      pop\n      jump\t// out\n        /* \"#utility.yul\":18656:18797   */\n    tag_395:\n        /* \"#utility.yul\":18705:18709   */\n      0x00\n        /* \"#utility.yul\":18728:18731   */\n      dup2\n        /* \"#utility.yul\":18720:18731   */\n      swap1\n      pop\n        /* \"#utility.yul\":18751:18754   */\n      dup2\n        /* \"#utility.yul\":18748:18749   */\n      0x00\n        /* \"#utility.yul\":18741:18755   */\n      mstore\n        /* \"#utility.yul\":18785:18789   */\n      0x20\n        /* \"#utility.yul\":18782:18783   */\n      0x00\n        /* \"#utility.yul\":18772:18790   */\n      keccak256\n        /* \"#utility.yul\":18764:18790   */\n      swap1\n      pop\n        /* \"#utility.yul\":18656:18797   */\n      swap2\n      swap1\n      pop\n      jump\t// out\n        /* \"#utility.yul\":18803:18896   */\n    tag_396:\n        /* \"#utility.yul\":18840:18846   */\n      0x00\n        /* \"#utility.yul\":18887:18889   */\n      0x20\n        /* \"#utility.yul\":18882:18884   */\n      0x1f\n        /* \"#utility.yul\":18875:18880   */\n      dup4\n        /* \"#utility.yul\":18871:18885   */\n      add\n        /* \"#utility.yul\":18867:18890   */\n      div\n        /* \"#utility.yul\":18857:18890   */\n      swap1\n      pop\n        /* \"#utility.yul\":18803:18896   */\n      swap2\n      swap1\n      pop\n      jump\t// out\n        /* \"#utility.yul\":18902:19009   */\n    tag_397:\n        /* \"#utility.yul\":18946:18954   */\n      0x00\n        /* \"#utility.yul\":18996:19001   */\n      dup3\n        /* \"#utility.yul\":18990:18994   */\n      dup3\n        /* \"#utility.yul\":18986:19002   */\n      shl\n        /* \"#utility.yul\":18965:19002   */\n      swap1\n      pop\n        /* \"#utility.yul\":18902:19009   */\n      swap3\n      swap2\n      pop\n      pop\n      jump\t// out\n        /* \"#utility.yul\":19015:19408   */\n    tag_398:\n        /* \"#utility.yul\":19084:19090   */\n      0x00\n        /* \"#utility.yul\":19134:19135   */\n      0x08\n        /* \"#utility.yul\":19122:19132   */\n      dup4\n        /* \"#utility.yul\":19118:19136   */\n      mul\n        /* \"#utility.yul\":19157:19254   */\n      tag_626\n        /* \"#utility.yul\":19187:19253   */\n      0xffffffffffffffffffffffffffffffffffffffffffffffffffffffffffffffff\n        /* \"#utility.yul\":19176:19185   */\n      dup3\n        /* \"#utility.yul\":19157:19254   */\n      tag_397\n      jump\t// in\n    tag_626:\n        /* \"#utility.yul\":19275:19314   */\n      tag_627\n        /* \"#utility.yul\":19305:19313   */\n      dup7\n        /* \"#utility.yul\":19294:19303   */\n      dup4\n        /* \"#utility.yul\":19275:19314   */\n      tag_397\n      jump\t// in\n    tag_627:\n        /* \"#utility.yul\":19263:19314   */\n      swap6\n      pop\n        /* \"#utility.yul\":19347:19351   */\n      dup1\n        /* \"#utility.yul\":19343:19352   */\n      not\n        /* \"#utility.yul\":19336:19341   */\n      dup5\n        /* \"#utility.yul\":19332:19353   */\n      and\n        /* \"#utility.yul\":19323:19353   */\n      swap4\n      pop\n        /* \"#utility.yul\":19396:19400   */\n      dup1\n        /* \"#utility.yul\":19386:19394   */\n      dup7\n        /* \"#utility.yul\":19382:19401   */\n      and\n        /* \"#utility.yul\":19375:19380   */\n      dup5\n        /* \"#utility.yul\":19372:19402   */\n      or\n        /* \"#utility.yul\":19362:19402   */\n      swap3\n      pop\n        /* \"#utility.yul\":19091:19408   */\n      pop\n      pop\n        /* \"#utility.yul\":19015:19408   */\n      swap4\n      swap3\n      pop\n      pop\n      pop\n      jump\t// out\n        /* \"#utility.yul\":19414:19474   */\n    tag_399:\n        /* \"#utility.yul\":19442:19445   */\n      0x00\n        /* \"#utility.yul\":19463:19468   */\n      dup2\n        /* \"#utility.yul\":19456:19468   */\n      swap1\n      pop\n        /* \"#utility.yul\":19414:19474   */\n      swap2\n      swap1\n      pop\n      jump\t// out\n        /* \"#utility.yul\":19480:19622   */\n    tag_400:\n        /* \"#utility.yul\":19530:19539   */\n      0x00\n        /* \"#utility.yul\":19563:19616   */\n      tag_630\n        /* \"#utility.yul\":19581:19615   */\n      tag_631\n        /* \"#utility.yul\":19590:19614   */\n      tag_632\n        /* \"#utility.yul\":19608:19613   */\n      dup5\n        /* \"#utility.yul\":19590:19614   */\n      tag_352\n      jump\t// in\n    tag_632:\n        /* \"#utility.yul\":19581:19615   */\n      tag_399\n      jump\t// in\n    tag_631:\n        /* \"#utility.yul\":19563:19616   */\n      tag_352\n      jump\t// in\n    tag_630:\n        /* \"#utility.yul\":19550:19616   */\n      swap1\n      pop\n        /* \"#utility.yul\":19480:19622   */\n      swap2\n      swap1\n      pop\n      jump\t// out\n        /* \"#utility.yul\":19628:19703   */\n    tag_401:\n        /* \"#utility.yul\":19671:19674   */\n      0x00\n        /* \"#utility.yul\":19692:19697   */\n      dup2\n        /* \"#utility.yul\":19685:19697   */\n      swap1\n      pop\n        /* \"#utility.yul\":19628:19703   */\n      swap2\n      swap1\n      pop\n      jump\t// out\n        /* \"#utility.yul\":19709:19978   */\n    tag_402:\n        /* \"#utility.yul\":19819:19858   */\n      tag_635\n        /* \"#utility.yul\":19850:19857   */\n      dup4\n        /* \"#utility.yul\":19819:19858   */\n      tag_400\n      jump\t// in\n    tag_635:\n        /* \"#utility.yul\":19880:19971   */\n      tag_636\n        /* \"#utility.yul\":19929:19970   */\n      tag_637\n        /* \"#utility.yul\":19953:19969   */\n      dup3\n        /* \"#utility.yul\":19929:19970   */\n      tag_401\n      jump\t// in\n    tag_637:\n        /* \"#utility.yul\":19921:19927   */\n      dup5\n        /* \"#utility.yul\":19914:19918   */\n      dup5\n        /* \"#utility.yul\":19908:19919   */\n      sload\n        /* \"#utility.yul\":19880:19971   */\n      tag_398\n      jump\t// in\n    tag_636:\n        /* \"#utility.yul\":19874:19878   */\n      dup3\n        /* \"#utility.yul\":19867:19972   */\n      sstore\n        /* \"#utility.yul\":19785:19978   */\n      pop\n        /* \"#utility.yul\":19709:19978   */\n      pop\n      pop\n      pop\n      jump\t// out\n        /* \"#utility.yul\":19984:20057   */\n    tag_403:\n        /* \"#utility.yul\":20029:20032   */\n      0x00\n        /* \"#utility.yul\":20050:20051   */\n      0x00\n        /* \"#utility.yul\":20043:20051   */\n      swap1\n      pop\n        /* \"#utility.yul\":19984:20057   */\n      swap1\n      jump\t// out\n        /* \"#utility.yul\":20063:20252   */\n    tag_404:\n        /* \"#utility.yul\":20140:20172   */\n      tag_640\n      tag_403\n      jump\t// in\n    tag_640:\n        /* \"#utility.yul\":20181:20246   */\n      tag_641\n        /* \"#utility.yul\":20239:20245   */\n      dup2\n        /* \"#utility.yul\":20231:20237   */\n      dup5\n        /* \"#utility.yul\":20225:20229   */\n      dup5\n        /* \"#utility.yul\":20181:20246   */\n      tag_402\n      jump\t// in\n    tag_641:\n        /* \"#utility.yul\":20116:20252   */\n      pop\n        /* \"#utility.yul\":20063:20252   */\n      pop\n      pop\n      jump\t// out\n        /* \"#utility.yul\":20258:20444   */\n    tag_405:\n        /* \"#utility.yul\":20318:20438   */\n    tag_643:\n        /* \"#utility.yul\":20335:20338   */\n      dup2\n        /* \"#utility.yul\":20328:20333   */\n      dup2\n        /* \"#utility.yul\":20325:20339   */\n      lt\n        /* \"#utility.yul\":20318:20438   */\n      iszero\n      tag_645\n      jumpi\n        /* \"#utility.yul\":20389:20428   */\n      tag_646\n        /* \"#utility.yul\":20426:20427   */\n      0x00\n        /* \"#utility.yul\":20419:20424   */\n      dup3\n        /* \"#utility.yul\":20389:20428   */\n      tag_404\n      jump\t// in\n    tag_646:\n        /* \"#utility.yul\":20362:20363   */\n      0x01\n        /* \"#utility.yul\":20355:20360   */\n      dup2\n        /* \"#utility.yul\":20351:20364   */\n      add\n        /* \"#utility.yul\":20342:20364   */\n      swap1\n      pop\n        /* \"#utility.yul\":20318:20438   */\n      jump(tag_643)\n    tag_645:\n        /* \"#utility.yul\":20258:20444   */\n      pop\n      pop\n      jump\t// out\n        /* \"#utility.yul\":20450:20993   */\n    tag_406:\n        /* \"#utility.yul\":20551:20553   */\n      0x1f\n        /* \"#utility.yul\":20546:20549   */\n      dup3\n        /* \"#utility.yul\":20543:20554   */\n      gt\n        /* \"#utility.yul\":20540:20986   */\n      iszero\n      tag_648\n      jumpi\n        /* \"#utility.yul\":20585:20623   */\n      tag_649\n        /* \"#utility.yul\":20617:20622   */\n      dup2\n        /* \"#utility.yul\":20585:20623   */\n      tag_395\n      jump\t// in\n    tag_649:\n        /* \"#utility.yul\":20669:20698   */\n      tag_650\n        /* \"#utility.yul\":20687:20697   */\n      dup5\n        /* \"#utility.yul\":20669:20698   */\n      tag_396\n      jump\t// in\n    tag_650:\n        /* \"#utility.yul\":20659:20667   */\n      dup2\n        /* \"#utility.yul\":20655:20699   */\n      add\n        /* \"#utility.yul\":20852:20854   */\n      0x20\n        /* \"#utility.yul\":20840:20850   */\n      dup6\n        /* \"#utility.yul\":20837:20855   */\n      lt\n        /* \"#utility.yul\":20834:20883   */\n      iszero\n      tag_651\n      jumpi\n        /* \"#utility.yul\":20873:20881   */\n      dup2\n        /* \"#utility.yul\":20858:20881   */\n      swap1\n      pop\n        /* \"#utility.yul\":20834:20883   */\n    tag_651:\n        /* \"#utility.yul\":20896:20976   */\n      tag_652\n        /* \"#utility.yul\":20952:20974   */\n      tag_653\n        /* \"#utility.yul\":20970:20973   */\n      dup6\n        /* \"#utility.yul\":20952:20974   */\n      tag_396\n      jump\t// in\n    tag_653:\n        /* \"#utility.yul\":20942:20950   */\n      dup4\n        /* \"#utility.yul\":20938:20975   */\n      add\n        /* \"#utility.yul\":20925:20936   */\n      dup3\n        /* \"#utility.yul\":20896:20976   */\n      tag_405\n      jump\t// in\n    tag_652:\n        /* \"#utility.yul\":20555:20986   */\n      pop\n      pop\n        /* \"#utility.yul\":20540:20986   */\n    tag_648:\n        /* \"#utility.yul\":20450:20993   */\n      pop\n      pop\n      pop\n      jump\t// out\n        /* \"#utility.yul\":20999:21116   */\n    tag_407:\n        /* \"#utility.yul\":21053:21061   */\n      0x00\n        /* \"#utility.yul\":21103:21108   */\n      dup3\n        /* \"#utility.yul\":21097:21101   */\n      dup3\n        /* \"#utility.yul\":21093:21109   */\n      shr\n        /* \"#utility.yul\":21072:21109   */\n      swap1\n      pop\n        /* \"#utility.yul\":20999:21116   */\n      swap3\n      swap2\n      pop\n      pop\n      jump\t// out\n        /* \"#utility.yul\":21122:21291   */\n    tag_408:\n        /* \"#utility.yul\":21166:21172   */\n      0x00\n        /* \"#utility.yul\":21199:21250   */\n      tag_656\n        /* \"#utility.yul\":21247:21248   */\n      0x00\n        /* \"#utility.yul\":21243:21249   */\n      not\n        /* \"#utility.yul\":21235:21240   */\n      dup5\n        /* \"#utility.yul\":21232:21233   */\n      0x08\n        /* \"#utility.yul\":21228:21241   */\n      mul\n        /* \"#utility.yul\":21199:21250   */\n      tag_407\n      jump\t// in\n    tag_656:\n        /* \"#utility.yul\":21195:21251   */\n      not\n        /* \"#utility.yul\":21280:21284   */\n      dup1\n        /* \"#utility.yul\":21274:21278   */\n      dup4\n        /* \"#utility.yul\":21270:21285   */\n      and\n        /* \"#utility.yul\":21260:21285   */\n      swap2\n      pop\n        /* \"#utility.yul\":21173:21291   */\n      pop\n        /* \"#utility.yul\":21122:21291   */\n      swap3\n      swap2\n      pop\n      pop\n      jump\t// out\n        /* \"#utility.yul\":21296:21591   */\n    tag_409:\n        /* \"#utility.yul\":21372:21376   */\n      0x00\n        /* \"#utility.yul\":21518:21547   */\n      tag_658\n        /* \"#utility.yul\":21543:21546   */\n      dup4\n        /* \"#utility.yul\":21537:21541   */\n      dup4\n        /* \"#utility.yul\":21518:21547   */\n      tag_408\n      jump\t// in\n    tag_658:\n        /* \"#utility.yul\":21510:21547   */\n      swap2\n      pop\n        /* \"#utility.yul\":21580:21583   */\n      dup3\n        /* \"#utility.yul\":21577:21578   */\n      0x02\n        /* \"#utility.yul\":21573:21584   */\n      mul\n        /* \"#utility.yul\":21567:21571   */\n      dup3\n        /* \"#utility.yul\":21564:21585   */\n      or\n        /* \"#utility.yul\":21556:21585   */\n      swap1\n      pop\n        /* \"#utility.yul\":21296:21591   */\n      swap3\n      swap2\n      pop\n      pop\n      jump\t// out\n        /* \"#utility.yul\":21596:22991   */\n    tag_217:\n        /* \"#utility.yul\":21713:21750   */\n      tag_660\n        /* \"#utility.yul\":21746:21749   */\n      dup3\n        /* \"#utility.yul\":21713:21750   */\n      tag_355\n      jump\t// in\n    tag_660:\n        /* \"#utility.yul\":21815:21833   */\n      0xffffffffffffffff\n        /* \"#utility.yul\":21807:21813   */\n      dup2\n        /* \"#utility.yul\":21804:21834   */\n      gt\n        /* \"#utility.yul\":21801:21857   */\n      iszero\n      tag_661\n      jumpi\n        /* \"#utility.yul\":21837:21855   */\n      tag_662\n      tag_372\n      jump\t// in\n    tag_662:\n        /* \"#utility.yul\":21801:21857   */\n    tag_661:\n        /* \"#utility.yul\":21881:21919   */\n      tag_663\n        /* \"#utility.yul\":21913:21917   */\n      dup3\n        /* \"#utility.yul\":21907:21918   */\n      sload\n        /* \"#utility.yul\":21881:21919   */\n      tag_147\n      jump\t// in\n    tag_663:\n        /* \"#utility.yul\":21966:22033   */\n      tag_664\n        /* \"#utility.yul\":22026:22032   */\n      dup3\n        /* \"#utility.yul\":22018:22024   */\n      dup3\n        /* \"#utility.yul\":22012:22016   */\n      dup6\n        /* \"#utility.yul\":21966:22033   */\n      tag_406\n      jump\t// in\n    tag_664:\n        /* \"#utility.yul\":22060:22061   */\n      0x00\n        /* \"#utility.yul\":22084:22088   */\n      0x20\n        /* \"#utility.yul\":22071:22088   */\n      swap1\n      pop\n        /* \"#utility.yul\":22116:22118   */\n      0x1f\n        /* \"#utility.yul\":22108:22114   */\n      dup4\n        /* \"#utility.yul\":22105:22119   */\n      gt\n        /* \"#utility.yul\":22133:22134   */\n      0x01\n        /* \"#utility.yul\":22128:22746   */\n      dup2\n      eq\n      tag_666\n      jumpi\n        /* \"#utility.yul\":22790:22791   */\n      0x00\n        /* \"#utility.yul\":22807:22813   */\n      dup5\n        /* \"#utility.yul\":22804:22881   */\n      iszero\n      tag_667\n      jumpi\n        /* \"#utility.yul\":22856:22865   */\n      dup3\n        /* \"#utility.yul\":22851:22854   */\n      dup8\n        /* \"#utility.yul\":22847:22866   */\n      add\n        /* \"#utility.yul\":22841:22867   */\n      mload\n        /* \"#utility.yul\":22832:22867   */\n      swap1\n      pop\n        /* \"#utility.yul\":22804:22881   */\n    tag_667:\n        /* \"#utility.yul\":22907:22974   */\n      tag_668\n        /* \"#utility.yul\":22967:22973   */\n      dup6\n        /* \"#utility.yul\":22960:22965   */\n      dup3\n        /* \"#utility.yul\":22907:22974   */\n      tag_409\n      jump\t// in\n    tag_668:\n        /* \"#utility.yul\":22901:22905   */\n      dup7\n        /* \"#utility.yul\":22894:22975   */\n      sstore\n        /* \"#utility.yul\":22763:22985   */\n      pop\n        /* \"#utility.yul\":22098:22985   */\n      jump(tag_665)\n        /* \"#utility.yul\":22128:22746   */\n    tag_666:\n        /* \"#utility.yul\":22180:22184   */\n      0x1f\n        /* \"#utility.yul\":22176:22185   */\n      not\n        /* \"#utility.yul\":22168:22174   */\n      dup5\n        /* \"#utility.yul\":22164:22186   */\n      and\n        /* \"#utility.yul\":22214:22251   */\n      tag_669\n        /* \"#utility.yul\":22246:22250   */\n      dup7\n        /* \"#utility.yul\":22214:22251   */\n      tag_395\n      jump\t// in\n    tag_669:\n        /* \"#utility.yul\":22273:22274   */\n      0x00\n        /* \"#utility.yul\":22287:22495   */\n    tag_670:\n        /* \"#utility.yul\":22301:22308   */\n      dup3\n        /* \"#utility.yul\":22298:22299   */\n      dup2\n        /* \"#utility.yul\":22295:22309   */\n      lt\n        /* \"#utility.yul\":22287:22495   */\n      iszero\n      tag_672\n      jumpi\n        /* \"#utility.yul\":22380:22389   */\n      dup5\n        /* \"#utility.yul\":22375:22378   */\n      dup10\n        /* \"#utility.yul\":22371:22390   */\n      add\n        /* \"#utility.yul\":22365:22391   */\n      mload\n        /* \"#utility.yul\":22357:22363   */\n      dup3\n        /* \"#utility.yul\":22350:22392   */\n      sstore\n        /* \"#utility.yul\":22431:22432   */\n      0x01\n        /* \"#utility.yul\":22423:22429   */\n      dup3\n        /* \"#utility.yul\":22419:22433   */\n      add\n        /* \"#utility.yul\":22409:22433   */\n      swap2\n      pop\n        /* \"#utility.yul\":22478:22480   */\n      0x20\n        /* \"#utility.yul\":22467:22476   */\n      dup6\n        /* \"#utility.yul\":22463:22481   */\n      add\n        /* \"#utility.yul\":22450:22481   */\n      swap5\n      pop\n        /* \"#utility.yul\":22324:22328   */\n      0x20\n        /* \"#utility.yul\":22321:22322   */\n      dup2\n        /* \"#utility.yul\":22317:22329   */\n      add\n        /* \"#utility.yul\":22312:22329   */\n      swap1\n      pop\n        /* \"#utility.yul\":22287:22495   */\n      jump(tag_670)\n    tag_672:\n        /* \"#utility.yul\":22523:22529   */\n      dup7\n        /* \"#utility.yul\":22514:22521   */\n      dup4\n        /* \"#utility.yul\":22511:22530   */\n      lt\n        /* \"#utility.yul\":22508:22687   */\n      iszero\n      tag_673\n      jumpi\n        /* \"#utility.yul\":22581:22590   */\n      dup5\n        /* \"#utility.yul\":22576:22579   */\n      dup10\n        /* \"#utility.yul\":22572:22591   */\n      add\n        /* \"#utility.yul\":22566:22592   */\n      mload\n        /* \"#utility.yul\":22624:22672   */\n      tag_674\n        /* \"#utility.yul\":22666:22670   */\n      0x1f\n        /* \"#utility.yul\":22658:22664   */\n      dup10\n        /* \"#utility.yul\":22654:22671   */\n      and\n        /* \"#utility.yul\":22643:22652   */\n      dup3\n        /* \"#utility.yul\":22624:22672   */\n      tag_408\n      jump\t// in\n    tag_674:\n        /* \"#utility.yul\":22616:22622   */\n      dup4\n        /* \"#utility.yul\":22609:22673   */\n      sstore\n        /* \"#utility.yul\":22531:22687   */\n      pop\n        /* \"#utility.yul\":22508:22687   */\n    tag_673:\n        /* \"#utility.yul\":22733:22734   */\n      0x01\n        /* \"#utility.yul\":22729:22730   */\n      0x02\n        /* \"#utility.yul\":22721:22727   */\n      dup9\n        /* \"#utility.yul\":22717:22731   */\n      mul\n        /* \"#utility.yul\":22713:22735   */\n      add\n        /* \"#utility.yul\":22707:22711   */\n      dup9\n        /* \"#utility.yul\":22700:22736   */\n      sstore\n        /* \"#utility.yul\":22135:22746   */\n      pop\n      pop\n      pop\n        /* \"#utility.yul\":22098:22985   */\n    tag_665:\n      pop\n        /* \"#utility.yul\":21688:22991   */\n      pop\n      pop\n      pop\n        /* \"#utility.yul\":21596:22991   */\n      pop\n      pop\n      jump\t// out\n        /* \"#utility.yul\":22997:23177   */\n    tag_410:\n        /* \"#utility.yul\":23137:23169   */\n      0x4e6f207061727469636970616e747320696e20746865206c6f74746572790000\n        /* \"#utility.yul\":23133:23134   */\n      0x00\n        /* \"#utility.yul\":23125:23131   */\n      dup3\n        /* \"#utility.yul\":23121:23135   */\n      add\n        /* \"#utility.yul\":23114:23170   */\n      mstore\n        /* \"#utility.yul\":22997:23177   */\n      pop\n      jump\t// out\n        /* \"#utility.yul\":23183:23549   */\n    tag_411:\n        /* \"#utility.yul\":23325:23328   */\n      0x00\n        /* \"#utility.yul\":23346:23413   */\n      tag_677\n        /* \"#utility.yul\":23410:23412   */\n      0x1e\n        /* \"#utility.yul\":23405:23408   */\n      dup4\n        /* \"#utility.yul\":23346:23413   */\n      tag_356\n      jump\t// in\n    tag_677:\n        /* \"#utility.yul\":23339:23413   */\n      swap2\n      pop\n        /* \"#utility.yul\":23422:23515   */\n      tag_678\n        /* \"#utility.yul\":23511:23514   */\n      dup3\n        /* \"#utility.yul\":23422:23515   */\n      tag_410\n      jump\t// in\n    tag_678:\n        /* \"#utility.yul\":23540:23542   */\n      0x20\n        /* \"#utility.yul\":23535:23538   */\n      dup3\n        /* \"#utility.yul\":23531:23543   */\n      add\n        /* \"#utility.yul\":23524:23543   */\n      swap1\n      pop\n        /* \"#utility.yul\":23183:23549   */\n      swap2\n      swap1\n      pop\n      jump\t// out\n        /* \"#utility.yul\":23555:23974   */\n    tag_224:\n        /* \"#utility.yul\":23721:23725   */\n      0x00\n        /* \"#utility.yul\":23759:23761   */\n      0x20\n        /* \"#utility.yul\":23748:23757   */\n      dup3\n        /* \"#utility.yul\":23744:23762   */\n      add\n        /* \"#utility.yul\":23736:23762   */\n      swap1\n      pop\n        /* \"#utility.yul\":23808:23817   */\n      dup2\n        /* \"#utility.yul\":23802:23806   */\n      dup2\n        /* \"#utility.yul\":23798:23818   */\n      sub\n        /* \"#utility.yul\":23794:23795   */\n      0x00\n        /* \"#utility.yul\":23783:23792   */\n      dup4\n        /* \"#utility.yul\":23779:23796   */\n      add\n        /* \"#utility.yul\":23772:23819   */\n      mstore\n        /* \"#utility.yul\":23836:23967   */\n      tag_680\n        /* \"#utility.yul\":23962:23966   */\n      dup2\n        /* \"#utility.yul\":23836:23967   */\n      tag_411\n      jump\t// in\n    tag_680:\n        /* \"#utility.yul\":23828:23967   */\n      swap1\n      pop\n        /* \"#utility.yul\":23555:23974   */\n      swap2\n      swap1\n      pop\n      jump\t// out\n        /* \"#utility.yul\":23980:24059   */\n    tag_412:\n        /* \"#utility.yul\":24019:24026   */\n      0x00\n        /* \"#utility.yul\":24048:24053   */\n      dup2\n        /* \"#utility.yul\":24037:24053   */\n      swap1\n      pop\n        /* \"#utility.yul\":23980:24059   */\n      swap2\n      swap1\n      pop\n      jump\t// out\n        /* \"#utility.yul\":24065:24222   */\n    tag_413:\n        /* \"#utility.yul\":24170:24215   */\n      tag_683\n        /* \"#utility.yul\":24190:24214   */\n      tag_684\n        /* \"#utility.yul\":24208:24213   */\n      dup3\n        /* \"#utility.yul\":24190:24214   */\n      tag_352\n      jump\t// in\n    tag_684:\n        /* \"#utility.yul\":24170:24215   */\n      tag_412\n      jump\t// in\n    tag_683:\n        /* \"#utility.yul\":24165:24168   */\n      dup3\n        /* \"#utility.yul\":24158:24216   */\n      mstore\n        /* \"#utility.yul\":24065:24222   */\n      pop\n      pop\n      jump\t// out\n        /* \"#utility.yul\":24228:24625   */\n    tag_226:\n        /* \"#utility.yul\":24368:24371   */\n      0x00\n        /* \"#utility.yul\":24383:24458   */\n      tag_686\n        /* \"#utility.yul\":24454:24457   */\n      dup3\n        /* \"#utility.yul\":24445:24451   */\n      dup6\n        /* \"#utility.yul\":24383:24458   */\n      tag_413\n      jump\t// in\n    tag_686:\n        /* \"#utility.yul\":24483:24485   */\n      0x20\n        /* \"#utility.yul\":24478:24481   */\n      dup3\n        /* \"#utility.yul\":24474:24486   */\n      add\n        /* \"#utility.yul\":24467:24486   */\n      swap2\n      pop\n        /* \"#utility.yul\":24496:24571   */\n      tag_687\n        /* \"#utility.yul\":24567:24570   */\n      dup3\n        /* \"#utility.yul\":24558:24564   */\n      dup5\n        /* \"#utility.yul\":24496:24571   */\n      tag_413\n      jump\t// in\n    tag_687:\n        /* \"#utility.yul\":24596:24598   */\n      0x20\n        /* \"#utility.yul\":24591:24594   */\n      dup3\n        /* \"#utility.yul\":24587:24599   */\n      add\n        /* \"#utility.yul\":24580:24599   */\n      swap2\n      pop\n        /* \"#utility.yul\":24616:24619   */\n      dup2\n        /* \"#utility.yul\":24609:24619   */\n      swap1\n      pop\n        /* \"#utility.yul\":24228:24625   */\n      swap4\n      swap3\n      pop\n      pop\n      pop\n      jump\t// out\n        /* \"#utility.yul\":24631:24807   */\n    tag_228:\n        /* \"#utility.yul\":24663:24664   */\n      0x00\n        /* \"#utility.yul\":24680:24700   */\n      tag_689\n        /* \"#utility.yul\":24698:24699   */\n      dup3\n        /* \"#utility.yul\":24680:24700   */\n      tag_352\n      jump\t// in\n    tag_689:\n        /* \"#utility.yul\":24675:24700   */\n      swap2\n      pop\n        /* \"#utility.yul\":24714:24734   */\n      tag_690\n        /* \"#utility.yul\":24732:24733   */\n      dup4\n        /* \"#utility.yul\":24714:24734   */\n      tag_352\n      jump\t// in\n    tag_690:\n        /* \"#utility.yul\":24709:24734   */\n      swap3\n      pop\n        /* \"#utility.yul\":24753:24754   */\n      dup3\n        /* \"#utility.yul\":24743:24778   */\n      tag_691\n      jumpi\n        /* \"#utility.yul\":24758:24776   */\n      tag_692\n      tag_390\n      jump\t// in\n    tag_692:\n        /* \"#utility.yul\":24743:24778   */\n    tag_691:\n        /* \"#utility.yul\":24799:24800   */\n      dup3\n        /* \"#utility.yul\":24796:24797   */\n      dup3\n        /* \"#utility.yul\":24792:24801   */\n      mod\n        /* \"#utility.yul\":24787:24801   */\n      swap1\n      pop\n        /* \"#utility.yul\":24631:24807   */\n      swap3\n      swap2\n      pop\n      pop\n      jump\t// out\n        /* \"#utility.yul\":24813:24993   */\n    tag_231:\n        /* \"#utility.yul\":24861:24938   */\n      0x4e487b7100000000000000000000000000000000000000000000000000000000\n        /* \"#utility.yul\":24858:24859   */\n      0x00\n        /* \"#utility.yul\":24851:24939   */\n      mstore\n        /* \"#utility.yul\":24958:24962   */\n      0x32\n        /* \"#utility.yul\":24955:24956   */\n      0x04\n        /* \"#utility.yul\":24948:24963   */\n      mstore\n        /* \"#utility.yul\":24982:24986   */\n      0x24\n        /* \"#utility.yul\":24979:24980   */\n      0x00\n        /* \"#utility.yul\":24972:24987   */\n      revert\n        /* \"#utility.yul\":24999:25173   */\n    tag_414:\n        /* \"#utility.yul\":25139:25165   */\n      0x43616e6e6f74207374616b65207a65726f20746f6b656e730000000000000000\n        /* \"#utility.yul\":25135:25136   */\n      0x00\n        /* \"#utility.yul\":25127:25133   */\n      dup3\n        /* \"#utility.yul\":25123:25137   */\n      add\n        /* \"#utility.yul\":25116:25166   */\n      mstore\n        /* \"#utility.yul\":24999:25173   */\n      pop\n      jump\t// out\n        /* \"#utility.yul\":25179:25545   */\n    tag_415:\n        /* \"#utility.yul\":25321:25324   */\n      0x00\n        /* \"#utility.yul\":25342:25409   */\n      tag_696\n        /* \"#utility.yul\":25406:25408   */\n      0x18\n        /* \"#utility.yul\":25401:25404   */\n      dup4\n        /* \"#utility.yul\":25342:25409   */\n      tag_356\n      jump\t// in\n    tag_696:\n        /* \"#utility.yul\":25335:25409   */\n      swap2\n      pop\n        /* \"#utility.yul\":25418:25511   */\n      tag_697\n        /* \"#utility.yul\":25507:25510   */\n      dup3\n        /* \"#utility.yul\":25418:25511   */\n      tag_414\n      jump\t// in\n    tag_697:\n        /* \"#utility.yul\":25536:25538   */\n      0x20\n        /* \"#utility.yul\":25531:25534   */\n      dup3\n        /* \"#utility.yul\":25527:25539   */\n      add\n        /* \"#utility.yul\":25520:25539   */\n      swap1\n      pop\n        /* \"#utility.yul\":25179:25545   */\n      swap2\n      swap1\n      pop\n      jump\t// out\n        /* \"#utility.yul\":25551:25970   */\n    tag_246:\n        /* \"#utility.yul\":25717:25721   */\n      0x00\n        /* \"#utility.yul\":25755:25757   */\n      0x20\n        /* \"#utility.yul\":25744:25753   */\n      dup3\n        /* \"#utility.yul\":25740:25758   */\n      add\n        /* \"#utility.yul\":25732:25758   */\n      swap1\n      pop\n        /* \"#utility.yul\":25804:25813   */\n      dup2\n        /* \"#utility.yul\":25798:25802   */\n      dup2\n        /* \"#utility.yul\":25794:25814   */\n      sub\n        /* \"#utility.yul\":25790:25791   */\n      0x00\n        /* \"#utility.yul\":25779:25788   */\n      dup4\n        /* \"#utility.yul\":25775:25792   */\n      add\n        /* \"#utility.yul\":25768:25815   */\n      mstore\n        /* \"#utility.yul\":25832:25963   */\n      tag_699\n        /* \"#utility.yul\":25958:25962   */\n      dup2\n        /* \"#utility.yul\":25832:25963   */\n      tag_415\n      jump\t// in\n    tag_699:\n        /* \"#utility.yul\":25824:25963   */\n      swap1\n      pop\n        /* \"#utility.yul\":25551:25970   */\n      swap2\n      swap1\n      pop\n      jump\t// out\n        /* \"#utility.yul\":25976:26145   */\n    tag_416:\n        /* \"#utility.yul\":26116:26137   */\n      0x496e76616c69642070726f706f73616c20494400000000000000000000000000\n        /* \"#utility.yul\":26112:26113   */\n      0x00\n        /* \"#utility.yul\":26104:26110   */\n      dup3\n        /* \"#utility.yul\":26100:26114   */\n      add\n        /* \"#utility.yul\":26093:26138   */\n      mstore\n        /* \"#utility.yul\":25976:26145   */\n      pop\n      jump\t// out\n        /* \"#utility.yul\":26151:26517   */\n    tag_417:\n        /* \"#utility.yul\":26293:26296   */\n      0x00\n        /* \"#utility.yul\":26314:26381   */\n      tag_702\n        /* \"#utility.yul\":26378:26380   */\n      0x13\n        /* \"#utility.yul\":26373:26376   */\n      dup4\n        /* \"#utility.yul\":26314:26381   */\n      tag_356\n      jump\t// in\n    tag_702:\n        /* \"#utility.yul\":26307:26381   */\n      swap2\n      pop\n        /* \"#utility.yul\":26390:26483   */\n      tag_703\n        /* \"#utility.yul\":26479:26482   */\n      dup3\n        /* \"#utility.yul\":26390:26483   */\n      tag_416\n      jump\t// in\n    tag_703:\n        /* \"#utility.yul\":26508:26510   */\n      0x20\n        /* \"#utility.yul\":26503:26506   */\n      dup3\n        /* \"#utility.yul\":26499:26511   */\n      add\n        /* \"#utility.yul\":26492:26511   */\n      swap1\n      pop\n        /* \"#utility.yul\":26151:26517   */\n      swap2\n      swap1\n      pop\n      jump\t// out\n        /* \"#utility.yul\":26523:26942   */\n    tag_278:\n        /* \"#utility.yul\":26689:26693   */\n      0x00\n        /* \"#utility.yul\":26727:26729   */\n      0x20\n        /* \"#utility.yul\":26716:26725   */\n      dup3\n        /* \"#utility.yul\":26712:26730   */\n      add\n        /* \"#utility.yul\":26704:26730   */\n      swap1\n      pop\n        /* \"#utility.yul\":26776:26785   */\n      dup2\n        /* \"#utility.yul\":26770:26774   */\n      dup2\n        /* \"#utility.yul\":26766:26786   */\n      sub\n        /* \"#utility.yul\":26762:26763   */\n      0x00\n        /* \"#utility.yul\":26751:26760   */\n      dup4\n        /* \"#utility.yul\":26747:26764   */\n      add\n        /* \"#utility.yul\":26740:26787   */\n      mstore\n        /* \"#utility.yul\":26804:26935   */\n      tag_705\n        /* \"#utility.yul\":26930:26934   */\n      dup2\n        /* \"#utility.yul\":26804:26935   */\n      tag_417\n      jump\t// in\n    tag_705:\n        /* \"#utility.yul\":26796:26935   */\n      swap1\n      pop\n        /* \"#utility.yul\":26523:26942   */\n      swap2\n      swap1\n      pop\n      jump\t// out\n        /* \"#utility.yul\":26948:27122   */\n    tag_418:\n        /* \"#utility.yul\":27088:27114   */\n      0x4e6f207374616b656420746f6b656e7320746f20766f74650000000000000000\n        /* \"#utility.yul\":27084:27085   */\n      0x00\n        /* \"#utility.yul\":27076:27082   */\n      dup3\n        /* \"#utility.yul\":27072:27086   */\n      add\n        /* \"#utility.yul\":27065:27115   */\n      mstore\n        /* \"#utility.yul\":26948:27122   */\n      pop\n      jump\t// out\n        /* \"#utility.yul\":27128:27494   */\n    tag_419:\n        /* \"#utility.yul\":27270:27273   */\n      0x00\n        /* \"#utility.yul\":27291:27358   */\n      tag_708\n        /* \"#utility.yul\":27355:27357   */\n      0x18\n        /* \"#utility.yul\":27350:27353   */\n      dup4\n        /* \"#utility.yul\":27291:27358   */\n      tag_356\n      jump\t// in\n    tag_708:\n        /* \"#utility.yul\":27284:27358   */\n      swap2\n      pop\n        /* \"#utility.yul\":27367:27460   */\n      tag_709\n        /* \"#utility.yul\":27456:27459   */\n      dup3\n        /* \"#utility.yul\":27367:27460   */\n      tag_418\n      jump\t// in\n    tag_709:\n        /* \"#utility.yul\":27485:27487   */\n      0x20\n        /* \"#utility.yul\":27480:27483   */\n      dup3\n        /* \"#utility.yul\":27476:27488   */\n      add\n        /* \"#utility.yul\":27469:27488   */\n      swap1\n      pop\n        /* \"#utility.yul\":27128:27494   */\n      swap2\n      swap1\n      pop\n      jump\t// out\n        /* \"#utility.yul\":27500:27919   */\n    tag_281:\n        /* \"#utility.yul\":27666:27670   */\n      0x00\n        /* \"#utility.yul\":27704:27706   */\n      0x20\n        /* \"#utility.yul\":27693:27702   */\n      dup3\n        /* \"#utility.yul\":27689:27707   */\n      add\n        /* \"#utility.yul\":27681:27707   */\n      swap1\n      pop\n        /* \"#utility.yul\":27753:27762   */\n      dup2\n        /* \"#utility.yul\":27747:27751   */\n      dup2\n        /* \"#utility.yul\":27743:27763   */\n      sub\n        /* \"#utility.yul\":27739:27740   */\n      0x00\n        /* \"#utility.yul\":27728:27737   */\n      dup4\n        /* \"#utility.yul\":27724:27741   */\n      add\n        /* \"#utility.yul\":27717:27764   */\n      mstore\n        /* \"#utility.yul\":27781:27912   */\n      tag_711\n        /* \"#utility.yul\":27907:27911   */\n      dup2\n        /* \"#utility.yul\":27781:27912   */\n      tag_419\n      jump\t// in\n    tag_711:\n        /* \"#utility.yul\":27773:27912   */\n      swap1\n      pop\n        /* \"#utility.yul\":27500:27919   */\n      swap2\n      swap1\n      pop\n      jump\t// out\n        /* \"#utility.yul\":27925:28367   */\n    tag_304:\n        /* \"#utility.yul\":28074:28078   */\n      0x00\n        /* \"#utility.yul\":28112:28114   */\n      0x60\n        /* \"#utility.yul\":28101:28110   */\n      dup3\n        /* \"#utility.yul\":28097:28115   */\n      add\n        /* \"#utility.yul\":28089:28115   */\n      swap1\n      pop\n        /* \"#utility.yul\":28125:28196   */\n      tag_713\n        /* \"#utility.yul\":28193:28194   */\n      0x00\n        /* \"#utility.yul\":28182:28191   */\n      dup4\n        /* \"#utility.yul\":28178:28195   */\n      add\n        /* \"#utility.yul\":28169:28175   */\n      dup7\n        /* \"#utility.yul\":28125:28196   */\n      tag_367\n      jump\t// in\n    tag_713:\n        /* \"#utility.yul\":28206:28278   */\n      tag_714\n        /* \"#utility.yul\":28274:28276   */\n      0x20\n        /* \"#utility.yul\":28263:28272   */\n      dup4\n        /* \"#utility.yul\":28259:28277   */\n      add\n        /* \"#utility.yul\":28250:28256   */\n      dup6\n        /* \"#utility.yul\":28206:28278   */\n      tag_360\n      jump\t// in\n    tag_714:\n        /* \"#utility.yul\":28288:28360   */\n      tag_715\n        /* \"#utility.yul\":28356:28358   */\n      0x40\n        /* \"#utility.yul\":28345:28354   */\n      dup4\n        /* \"#utility.yul\":28341:28359   */\n      add\n        /* \"#utility.yul\":28332:28338   */\n      dup5\n        /* \"#utility.yul\":28288:28360   */\n      tag_360\n      jump\t// in\n    tag_715:\n        /* \"#utility.yul\":27925:28367   */\n      swap5\n      swap4\n      pop\n      pop\n      pop\n      pop\n      jump\t// out\n\n    auxdata: 0xa264697066735822122039a9bc7d925fd2a79fbe5ca861c774e600bccd1ec7ea33dd3b1284506bac0a6364736f6c634300081c0033\n}\n",
				"bytecode": {
					"linkReferences": {},
					"object": "608060405262093a80600e55348015610016575f5ffd5b506040516134203803806134208339818101604052810190610038919061050a565b336040518060400160405280600981526020017f4672657361436f696e00000000000000000000000000000000000000000000008152506040518060400160405280600581526020017f465245534100000000000000000000000000000000000000000000000000000081525081600390816100b4919061078e565b5080600490816100c4919061078e565b5050505f73ffffffffffffffffffffffffffffffffffffffff168173ffffffffffffffffffffffffffffffffffffffff1603610137575f6040517f1e4fbdf700000000000000000000000000000000000000000000000000000000815260040161012e919061089c565b60405180910390fd5b6101468161017260201b60201c565b50610157338461023560201b60201c565b81600a5f018190555080600a60010181905550505050610972565b5f60055f9054906101000a900473ffffffffffffffffffffffffffffffffffffffff1690508160055f6101000a81548173ffffffffffffffffffffffffffffffffffffffff021916908373ffffffffffffffffffffffffffffffffffffffff1602179055508173ffffffffffffffffffffffffffffffffffffffff168173ffffffffffffffffffffffffffffffffffffffff167f8be0079c531659141344cd1fd0a4f28419497f9722a3daafe3b4186f6b6457e060405160405180910390a35050565b5f73ffffffffffffffffffffffffffffffffffffffff168273ffffffffffffffffffffffffffffffffffffffff16036102a5575f6040517fec442f0500000000000000000000000000000000000000000000000000000000815260040161029c919061089c565b60405180910390fd5b6102b65f83836102ba60201b60201c565b5050565b5f73ffffffffffffffffffffffffffffffffffffffff168373ffffffffffffffffffffffffffffffffffffffff160361030a578060025f8282546102fe91906108e2565b925050819055506103d8565b5f5f5f8573ffffffffffffffffffffffffffffffffffffffff1673ffffffffffffffffffffffffffffffffffffffff1681526020019081526020015f2054905081811015610393578381836040517fe450d38c00000000000000000000000000000000000000000000000000000000815260040161038a93929190610924565b60405180910390fd5b8181035f5f8673ffffffffffffffffffffffffffffffffffffffff1673ffffffffffffffffffffffffffffffffffffffff1681526020019081526020015f2081905550505b5f73ffffffffffffffffffffffffffffffffffffffff168273ffffffffffffffffffffffffffffffffffffffff160361041f578060025f8282540392505081905550610469565b805f5f8473ffffffffffffffffffffffffffffffffffffffff1673ffffffffffffffffffffffffffffffffffffffff1681526020019081526020015f205f82825401925050819055505b8173ffffffffffffffffffffffffffffffffffffffff168373ffffffffffffffffffffffffffffffffffffffff167fddf252ad1be2c89b69c2b068fc378daa952ba7f163c4a11628f55a4df523b3ef836040516104c69190610959565b60405180910390a3505050565b5f5ffd5b5f819050919050565b6104e9816104d7565b81146104f3575f5ffd5b50565b5f81519050610504816104e0565b92915050565b5f5f5f60608486031215610521576105206104d3565b5b5f61052e868287016104f6565b935050602061053f868287016104f6565b9250506040610550868287016104f6565b9150509250925092565b5f81519050919050565b7f4e487b71000000000000000000000000000000000000000000000000000000005f52604160045260245ffd5b7f4e487b71000000000000000000000000000000000000000000000000000000005f52602260045260245ffd5b5f60028204905060018216806105d557607f821691505b6020821081036105e8576105e7610591565b5b50919050565b5f819050815f5260205f209050919050565b5f6020601f8301049050919050565b5f82821b905092915050565b5f6008830261064a7fffffffffffffffffffffffffffffffffffffffffffffffffffffffffffffffff8261060f565b610654868361060f565b95508019841693508086168417925050509392505050565b5f819050919050565b5f61068f61068a610685846104d7565b61066c565b6104d7565b9050919050565b5f819050919050565b6106a883610675565b6106bc6106b482610696565b84845461061b565b825550505050565b5f5f905090565b6106d36106c4565b6106de81848461069f565b505050565b5b81811015610701576106f65f826106cb565b6001810190506106e4565b5050565b601f82111561074657610717816105ee565b61072084610600565b8101602085101561072f578190505b61074361073b85610600565b8301826106e3565b50505b505050565b5f82821c905092915050565b5f6107665f198460080261074b565b1980831691505092915050565b5f61077e8383610757565b9150826002028217905092915050565b6107978261055a565b67ffffffffffffffff8111156107b0576107af610564565b5b6107ba82546105be565b6107c5828285610705565b5f60209050601f8311600181146107f6575f84156107e4578287015190505b6107ee8582610773565b865550610855565b601f198416610804866105ee565b5f5b8281101561082b57848901518255600182019150602085019450602081019050610806565b868310156108485784890151610844601f891682610757565b8355505b6001600288020188555050505b505050505050565b5f73ffffffffffffffffffffffffffffffffffffffff82169050919050565b5f6108868261085d565b9050919050565b6108968161087c565b82525050565b5f6020820190506108af5f83018461088d565b92915050565b7f4e487b71000000000000000000000000000000000000000000000000000000005f52601160045260245ffd5b5f6108ec826104d7565b91506108f7836104d7565b925082820190508082111561090f5761090e6108b5565b5b92915050565b61091e816104d7565b82525050565b5f6060820190506109375f83018661088d565b6109446020830185610915565b6109516040830184610915565b949350505050565b5f60208201905061096c5f830184610915565b92915050565b612aa18061097f5f395ff3fe608060405234801561000f575f5ffd5b50600436106101c2575f3560e01c80635fec5c64116100f7578063b3a55a6611610095578063cdb12c831161006f578063cdb12c83146104ea578063dd62ed3e14610508578063e1913c8114610538578063f2fde38b14610556576101c2565b8063b3a55a6614610492578063ba13a572146104b0578063c9d27afe146104ce576101c2565b80637acb7757116100d15780637acb77571461040a5780638da5cb5b1461042657806395d89b4114610444578063a9059cbb14610462576101c2565b80635fec5c64146103b257806370a08231146103d0578063715018a614610400576101c2565b806318160ddd11610164578063313ce5671161013e578063313ce567146103525780633fd430981461037057806349c2a1a61461038c578063576b5002146103a8576101c2565b806318160ddd146102e857806323b872dd146103065780632e1a7d4d14610336576101c2565b80630c0512e9116101a05780630c0512e9146102475780630c56ae3b1461026557806313ed08461461028557806316934fc4146102b5576101c2565b8063013cf08b146101c657806306fdde03146101f9578063095ea7b314610217575b5f5ffd5b6101e060048036038101906101db9190611c00565b610572565b6040516101f09493929190611cc4565b60405180910390f35b610201610630565b60405161020e9190611d0e565b60405180910390f35b610231600480360381019061022c9190611d88565b6106c0565b60405161023e9190611dc6565b60405180910390f35b61024f6106e2565b60405161025c9190611ddf565b60405180910390f35b61026d6106e8565b60405161027c93929190611df8565b60405180910390f35b61029f600480360381019061029a9190611e2d565b6106ff565b6040516102ac9190611ddf565b60405180910390f35b6102cf60048036038101906102ca9190611e6b565b610780565b6040516102df9493929190611ea5565b60405180910390f35b6102f06107cb565b6040516102fd9190611ddf565b60405180910390f35b610320600480360381019061031b9190611ee8565b6107d4565b60405161032d9190611dc6565b60405180910390f35b610350600480360381019061034b9190611c00565b610802565b005b61035a610985565b6040516103679190611f53565b60405180910390f35b61038a60048036038101906103859190611c00565b61098d565b005b6103a660048036038101906103a19190612098565b610aa8565b005b6103b0610b84565b005b6103ba610cd6565b6040516103c79190611ddf565b60405180910390f35b6103ea60048036038101906103e59190611e6b565b610cdc565b6040516103f79190611ddf565b60405180910390f35b610408610d21565b005b610424600480360381019061041f91906120df565b610d34565b005b61042e610f8a565b60405161043b919061211d565b60405180910390f35b61044c610fb2565b6040516104599190611d0e565b60405180910390f35b61047c60048036038101906104779190611d88565b611042565b6040516104899190611dc6565b60405180910390f35b61049a611064565b6040516104a791906121ed565b60405180910390f35b6104b86110f1565b6040516104c59190611ddf565b60405180910390f35b6104e860048036038101906104e39190612237565b6110fd565b005b6104f26112a1565b6040516104ff9190611ddf565b60405180910390f35b610522600480360381019061051d9190612275565b6112ad565b60405161052f9190611ddf565b60405180910390f35b61054061132f565b60405161054d9190611ddf565b60405180910390f35b610570600480360381019061056b9190611e6b565b611334565b005b6007602052805f5260405f205f91509050805f018054610591906122e0565b80601f01602080910402602001604051908101604052809291908181526020018280546105bd906122e0565b80156106085780601f106105df57610100808354040283529160200191610608565b820191905f5260205f20905b8154815290600101906020018083116105eb57829003601f168201915b505050505090806001015490806002015490806003015f9054906101000a900460ff16905084565b60606003805461063f906122e0565b80601f016020809104026020016040519081016040528092919081815260200182805461066b906122e0565b80156106b65780601f1061068d576101008083540402835291602001916106b6565b820191905f5260205f20905b81548152906001019060200180831161069957829003601f168201915b5050505050905090565b5f5f6106ca6113b8565b90506106d78185856113bf565b600191505092915050565b600d5481565b600a805f0154908060010154908060020154905083565b5f5f69021e19e0c9bab2400000841161073157683635c9adc5dea00000841161072957600a61072c565b600c5b610734565b600f5b60ff1690505f62278d00841161074b57600161074e565b60025b60ff1690508060648387610762919061233d565b61076c91906123ab565b610776919061233d565b9250505092915050565b6006602052805f5260405f205f91509050805f015490806001015490806002015490806003015f9054906101000a900473ffffffffffffffffffffffffffffffffffffffff16905084565b5f600254905090565b5f5f6107de6113b8565b90506107eb8582856113d1565b6107f6858585611463565b60019150509392505050565b5f60065f3373ffffffffffffffffffffffffffffffffffffffff1673ffffffffffffffffffffffffffffffffffffffff1681526020019081526020015f20905081815f01541015610888576040517f08c379a000000000000000000000000000000000000000000000000000000000815260040161087f90612425565b60405180910390fd5b5f4290505f82600201548261089d9190612443565b90505f5f9050600e548210156108df5760646014866108bc919061233d565b6108c691906123ab565b90506108de306002836108d991906123ab565b611553565b5b5f81866108ec9190612443565b905085855f015f8282546109009190612443565b9250508190555085600a6002015f82825461091b9190612443565b9250508190555061092d303383611463565b3373ffffffffffffffffffffffffffffffffffffffff167f92ccf450a286a957af52509bc1c9939d1a6a481783e142e41e2499f0bb66ebc68284604051610975929190612476565b60405180910390a2505050505050565b5f6012905090565b5f81116109cf576040517f08c379a00000000000000000000000000000000000000000000000000000000081526004016109c6906124e7565b60405180910390fd5b6109da333083611463565b60085f0133908060018154018082558091505060019003905f5260205f20015f9091909190916101000a81548173ffffffffffffffffffffffffffffffffffffffff021916908373ffffffffffffffffffffffffffffffffffffffff1602179055508060086001015f828254610a509190612505565b925050819055503373ffffffffffffffffffffffffffffffffffffffff167fc28711c8dcc0cb3d25732e13809d1d8c2640669a0a3fb4f7729810a9caaffdff82604051610a9d9190611ddf565b60405180910390a250565b610ab06115d2565b600d5f815480929190610ac290612538565b919050555060405180608001604052808281526020015f81526020015f81526020015f151581525060075f600d5481526020019081526020015f205f820151815f019081610b10919061271f565b5060208201518160010155604082015181600201556060820151816003015f6101000a81548160ff021916908315150217905550905050600d547f9c770c289ab5bf7e57cb1d23c8ceae993aea46eb64847072fd3d78ca60d3e43282604051610b799190611d0e565b60405180910390a250565b610b8c6115d2565b5f60085f018054905011610bd5576040517f08c379a0000000000000000000000000000000000000000000000000000000008152600401610bcc90612838565b60405180910390fd5b5f60085f01805490504244604051602001610bf1929190612876565b604051602081830303815290604052805190602001205f1c610c1391906128a1565b90505f60085f018281548110610c2c57610c2b6128d1565b5b905f5260205f20015f9054906101000a900473ffffffffffffffffffffffffffffffffffffffff1690505f60086001015490505f60086001018190555060085f015f610c789190611b83565b610c83308383611463565b8173ffffffffffffffffffffffffffffffffffffffff167f275eaacf9e506f9c68b251c2f97cf723c4fb9a3b94e42a1dfb581543c135f0c082604051610cc99190611ddf565b60405180910390a2505050565b600e5481565b5f5f5f8373ffffffffffffffffffffffffffffffffffffffff1673ffffffffffffffffffffffffffffffffffffffff1681526020019081526020015f20549050919050565b610d296115d2565b610d325f611659565b565b5f8211610d76576040517f08c379a0000000000000000000000000000000000000000000000000000000008152600401610d6d90612948565b60405180910390fd5b610d81333084611463565b5f60065f3373ffffffffffffffffffffffffffffffffffffffff1673ffffffffffffffffffffffffffffffffffffffff1681526020019081526020015f2090505f4290505f825f01541115610e0b575f826002015482610de19190612443565b9050610df0835f0154826106ff565b836001015f828254610e029190612505565b92505081905550505b83825f015f828254610e1d9190612505565b925050819055508082600201819055505f73ffffffffffffffffffffffffffffffffffffffff168373ffffffffffffffffffffffffffffffffffffffff1614158015610e9557503373ffffffffffffffffffffffffffffffffffffffff168373ffffffffffffffffffffffffffffffffffffffff1614155b15610f04575f6064600586610eaa919061233d565b610eb491906123ab565b9050610ec0848261171c565b83836003015f6101000a81548173ffffffffffffffffffffffffffffffffffffffff021916908373ffffffffffffffffffffffffffffffffffffffff160217905550505b83600a6002015f828254610f189190612505565b925050819055508273ffffffffffffffffffffffffffffffffffffffff163373ffffffffffffffffffffffffffffffffffffffff167f9f9e4044c5742cca66ca090b21552bac14645e68bad7a92364a9d9ff18111a1c86604051610f7c9190611ddf565b60405180910390a350505050565b5f60055f9054906101000a900473ffffffffffffffffffffffffffffffffffffffff16905090565b606060048054610fc1906122e0565b80601f0160208091040260200160405190810160405280929190818152602001828054610fed906122e0565b80156110385780601f1061100f57610100808354040283529160200191611038565b820191905f5260205f20905b81548152906001019060200180831161101b57829003601f168201915b5050505050905090565b5f5f61104c6113b8565b9050611059818585611463565b600191505092915050565b606060085f018054806020026020016040519081016040528092919081815260200182805480156110e757602002820191905f5260205f20905b815f9054906101000a900473ffffffffffffffffffffffffffffffffffffffff1673ffffffffffffffffffffffffffffffffffffffff168152602001906001019080831161109e575b5050505050905090565b60088060010154905081565b5f60075f8481526020019081526020015f2090505f815f018054611120906122e0565b905011611162576040517f08c379a0000000000000000000000000000000000000000000000000000000008152600401611159906129b0565b60405180910390fd5b5f60065f3373ffffffffffffffffffffffffffffffffffffffff1673ffffffffffffffffffffffffffffffffffffffff1681526020019081526020015f205f015490505f81116111e7576040517f08c379a00000000000000000000000000000000000000000000000000000000081526004016111de90612a18565b60405180910390fd5b821561120c5780826001015f8282546112009190612505565b92505081905550611227565b80826002015f82825461121f9190612505565b925050819055505b8160020154826001015411826003015f6101000a81548160ff0219169083151502179055503373ffffffffffffffffffffffffffffffffffffffff16847ff2913dbe661ee2acc4a046d8fbcdc792373bda34c41c6086484b5345e5785e5f856040516112939190611dc6565b60405180910390a350505050565b5f600860010154905090565b5f60015f8473ffffffffffffffffffffffffffffffffffffffff1673ffffffffffffffffffffffffffffffffffffffff1681526020019081526020015f205f8373ffffffffffffffffffffffffffffffffffffffff1673ffffffffffffffffffffffffffffffffffffffff1681526020019081526020015f2054905092915050565b600581565b61133c6115d2565b5f73ffffffffffffffffffffffffffffffffffffffff168173ffffffffffffffffffffffffffffffffffffffff16036113ac575f6040517f1e4fbdf70000000000000000000000000000000000000000000000000000000081526004016113a3919061211d565b60405180910390fd5b6113b581611659565b50565b5f33905090565b6113cc838383600161179b565b505050565b5f6113dc84846112ad565b90507fffffffffffffffffffffffffffffffffffffffffffffffffffffffffffffffff811461145d578181101561144e578281836040517ffb8f41b200000000000000000000000000000000000000000000000000000000815260040161144593929190612a36565b60405180910390fd5b61145c84848484035f61179b565b5b50505050565b5f73ffffffffffffffffffffffffffffffffffffffff168373ffffffffffffffffffffffffffffffffffffffff16036114d3575f6040517f96c6fd1e0000000000000000000000000000000000000000000000000000000081526004016114ca919061211d565b60405180910390fd5b5f73ffffffffffffffffffffffffffffffffffffffff168273ffffffffffffffffffffffffffffffffffffffff1603611543575f6040517fec442f0500000000000000000000000000000000000000000000000000000000815260040161153a919061211d565b60405180910390fd5b61154e83838361196a565b505050565b5f73ffffffffffffffffffffffffffffffffffffffff168273ffffffffffffffffffffffffffffffffffffffff16036115c3575f6040517f96c6fd1e0000000000000000000000000000000000000000000000000000000081526004016115ba919061211d565b60405180910390fd5b6115ce825f8361196a565b5050565b6115da6113b8565b73ffffffffffffffffffffffffffffffffffffffff166115f8610f8a565b73ffffffffffffffffffffffffffffffffffffffff16146116575761161b6113b8565b6040517f118cdaa700000000000000000000000000000000000000000000000000000000815260040161164e919061211d565b60405180910390fd5b565b5f60055f9054906101000a900473ffffffffffffffffffffffffffffffffffffffff1690508160055f6101000a81548173ffffffffffffffffffffffffffffffffffffffff021916908373ffffffffffffffffffffffffffffffffffffffff1602179055508173ffffffffffffffffffffffffffffffffffffffff168173ffffffffffffffffffffffffffffffffffffffff167f8be0079c531659141344cd1fd0a4f28419497f9722a3daafe3b4186f6b6457e060405160405180910390a35050565b5f73ffffffffffffffffffffffffffffffffffffffff168273ffffffffffffffffffffffffffffffffffffffff160361178c575f6040517fec442f05000000000000000000000000000000000000000000000000000000008152600401611783919061211d565b60405180910390fd5b6117975f838361196a565b5050565b5f73ffffffffffffffffffffffffffffffffffffffff168473ffffffffffffffffffffffffffffffffffffffff160361180b575f6040517fe602df05000000000000000000000000000000000000000000000000000000008152600401611802919061211d565b60405180910390fd5b5f73ffffffffffffffffffffffffffffffffffffffff168373ffffffffffffffffffffffffffffffffffffffff160361187b575f6040517f94280d62000000000000000000000000000000000000000000000000000000008152600401611872919061211d565b60405180910390fd5b8160015f8673ffffffffffffffffffffffffffffffffffffffff1673ffffffffffffffffffffffffffffffffffffffff1681526020019081526020015f205f8573ffffffffffffffffffffffffffffffffffffffff1673ffffffffffffffffffffffffffffffffffffffff1681526020019081526020015f20819055508015611964578273ffffffffffffffffffffffffffffffffffffffff168473ffffffffffffffffffffffffffffffffffffffff167f8c5be1e5ebec7d5bd14f71427d1e84f3dd0314c0f7b2291e5b200ac8c7c3b9258460405161195b9190611ddf565b60405180910390a35b50505050565b5f73ffffffffffffffffffffffffffffffffffffffff168373ffffffffffffffffffffffffffffffffffffffff16036119ba578060025f8282546119ae9190612505565b92505081905550611a88565b5f5f5f8573ffffffffffffffffffffffffffffffffffffffff1673ffffffffffffffffffffffffffffffffffffffff1681526020019081526020015f2054905081811015611a43578381836040517fe450d38c000000000000000000000000000000000000000000000000000000008152600401611a3a93929190612a36565b60405180910390fd5b8181035f5f8673ffffffffffffffffffffffffffffffffffffffff1673ffffffffffffffffffffffffffffffffffffffff1681526020019081526020015f2081905550505b5f73ffffffffffffffffffffffffffffffffffffffff168273ffffffffffffffffffffffffffffffffffffffff1603611acf578060025f8282540392505081905550611b19565b805f5f8473ffffffffffffffffffffffffffffffffffffffff1673ffffffffffffffffffffffffffffffffffffffff1681526020019081526020015f205f82825401925050819055505b8173ffffffffffffffffffffffffffffffffffffffff168373ffffffffffffffffffffffffffffffffffffffff167fddf252ad1be2c89b69c2b068fc378daa952ba7f163c4a11628f55a4df523b3ef83604051611b769190611ddf565b60405180910390a3505050565b5080545f8255905f5260205f2090810190611b9e9190611ba1565b50565b5b80821115611bb8575f815f905550600101611ba2565b5090565b5f604051905090565b5f5ffd5b5f5ffd5b5f819050919050565b611bdf81611bcd565b8114611be9575f5ffd5b50565b5f81359050611bfa81611bd6565b92915050565b5f60208284031215611c1557611c14611bc5565b5b5f611c2284828501611bec565b91505092915050565b5f81519050919050565b5f82825260208201905092915050565b8281835e5f83830152505050565b5f601f19601f8301169050919050565b5f611c6d82611c2b565b611c778185611c35565b9350611c87818560208601611c45565b611c9081611c53565b840191505092915050565b611ca481611bcd565b82525050565b5f8115159050919050565b611cbe81611caa565b82525050565b5f6080820190508181035f830152611cdc8187611c63565b9050611ceb6020830186611c9b565b611cf86040830185611c9b565b611d056060830184611cb5565b95945050505050565b5f6020820190508181035f830152611d268184611c63565b905092915050565b5f73ffffffffffffffffffffffffffffffffffffffff82169050919050565b5f611d5782611d2e565b9050919050565b611d6781611d4d565b8114611d71575f5ffd5b50565b5f81359050611d8281611d5e565b92915050565b5f5f60408385031215611d9e57611d9d611bc5565b5b5f611dab85828601611d74565b9250506020611dbc85828601611bec565b9150509250929050565b5f602082019050611dd95f830184611cb5565b92915050565b5f602082019050611df25f830184611c9b565b92915050565b5f606082019050611e0b5f830186611c9b565b611e186020830185611c9b565b611e256040830184611c9b565b949350505050565b5f5f60408385031215611e4357611e42611bc5565b5b5f611e5085828601611bec565b9250506020611e6185828601611bec565b9150509250929050565b5f60208284031215611e8057611e7f611bc5565b5b5f611e8d84828501611d74565b91505092915050565b611e9f81611d4d565b82525050565b5f608082019050611eb85f830187611c9b565b611ec56020830186611c9b565b611ed26040830185611c9b565b611edf6060830184611e96565b95945050505050565b5f5f5f60608486031215611eff57611efe611bc5565b5b5f611f0c86828701611d74565b9350506020611f1d86828701611d74565b9250506040611f2e86828701611bec565b9150509250925092565b5f60ff82169050919050565b611f4d81611f38565b82525050565b5f602082019050611f665f830184611f44565b92915050565b5f5ffd5b5f5ffd5b7f4e487b71000000000000000000000000000000000000000000000000000000005f52604160045260245ffd5b611faa82611c53565b810181811067ffffffffffffffff82111715611fc957611fc8611f74565b5b80604052505050565b5f611fdb611bbc565b9050611fe78282611fa1565b919050565b5f67ffffffffffffffff82111561200657612005611f74565b5b61200f82611c53565b9050602081019050919050565b828183375f83830152505050565b5f61203c61203784611fec565b611fd2565b90508281526020810184848401111561205857612057611f70565b5b61206384828561201c565b509392505050565b5f82601f83011261207f5761207e611f6c565b5b813561208f84826020860161202a565b91505092915050565b5f602082840312156120ad576120ac611bc5565b5b5f82013567ffffffffffffffff8111156120ca576120c9611bc9565b5b6120d68482850161206b565b91505092915050565b5f5f604083850312156120f5576120f4611bc5565b5b5f61210285828601611bec565b925050602061211385828601611d74565b9150509250929050565b5f6020820190506121305f830184611e96565b92915050565b5f81519050919050565b5f82825260208201905092915050565b5f819050602082019050919050565b61216881611d4d565b82525050565b5f612179838361215f565b60208301905092915050565b5f602082019050919050565b5f61219b82612136565b6121a58185612140565b93506121b083612150565b805f5b838110156121e05781516121c7888261216e565b97506121d283612185565b9250506001810190506121b3565b5085935050505092915050565b5f6020820190508181035f8301526122058184612191565b905092915050565b61221681611caa565b8114612220575f5ffd5b50565b5f813590506122318161220d565b92915050565b5f5f6040838503121561224d5761224c611bc5565b5b5f61225a85828601611bec565b925050602061226b85828601612223565b9150509250929050565b5f5f6040838503121561228b5761228a611bc5565b5b5f61229885828601611d74565b92505060206122a985828601611d74565b9150509250929050565b7f4e487b71000000000000000000000000000000000000000000000000000000005f52602260045260245ffd5b5f60028204905060018216806122f757607f821691505b60208210810361230a576123096122b3565b5b50919050565b7f4e487b71000000000000000000000000000000000000000000000000000000005f52601160045260245ffd5b5f61234782611bcd565b915061235283611bcd565b925082820261236081611bcd565b9150828204841483151761237757612376612310565b5b5092915050565b7f4e487b71000000000000000000000000000000000000000000000000000000005f52601260045260245ffd5b5f6123b582611bcd565b91506123c083611bcd565b9250826123d0576123cf61237e565b5b828204905092915050565b7f496e73756666696369656e74207374616b65642062616c616e636500000000005f82015250565b5f61240f601b83611c35565b915061241a826123db565b602082019050919050565b5f6020820190508181035f83015261243c81612403565b9050919050565b5f61244d82611bcd565b915061245883611bcd565b92508282039050818111156124705761246f612310565b5b92915050565b5f6040820190506124895f830185611c9b565b6124966020830184611c9b565b9392505050565b7f43616e6e6f7420656e7465722077697468207a65726f20746f6b656e730000005f82015250565b5f6124d1601d83611c35565b91506124dc8261249d565b602082019050919050565b5f6020820190508181035f8301526124fe816124c5565b9050919050565b5f61250f82611bcd565b915061251a83611bcd565b925082820190508082111561253257612531612310565b5b92915050565b5f61254282611bcd565b91507fffffffffffffffffffffffffffffffffffffffffffffffffffffffffffffffff820361257457612573612310565b5b600182019050919050565b5f819050815f5260205f209050919050565b5f6020601f8301049050919050565b5f82821b905092915050565b5f600883026125db7fffffffffffffffffffffffffffffffffffffffffffffffffffffffffffffffff826125a0565b6125e586836125a0565b95508019841693508086168417925050509392505050565b5f819050919050565b5f61262061261b61261684611bcd565b6125fd565b611bcd565b9050919050565b5f819050919050565b61263983612606565b61264d61264582612627565b8484546125ac565b825550505050565b5f5f905090565b612664612655565b61266f818484612630565b505050565b5b81811015612692576126875f8261265c565b600181019050612675565b5050565b601f8211156126d7576126a88161257f565b6126b184612591565b810160208510156126c0578190505b6126d46126cc85612591565b830182612674565b50505b505050565b5f82821c905092915050565b5f6126f75f19846008026126dc565b1980831691505092915050565b5f61270f83836126e8565b9150826002028217905092915050565b61272882611c2b565b67ffffffffffffffff81111561274157612740611f74565b5b61274b82546122e0565b612756828285612696565b5f60209050601f831160018114612787575f8415612775578287015190505b61277f8582612704565b8655506127e6565b601f1984166127958661257f565b5f5b828110156127bc57848901518255600182019150602085019450602081019050612797565b868310156127d957848901516127d5601f8916826126e8565b8355505b6001600288020188555050505b505050505050565b7f4e6f207061727469636970616e747320696e20746865206c6f747465727900005f82015250565b5f612822601e83611c35565b915061282d826127ee565b602082019050919050565b5f6020820190508181035f83015261284f81612816565b9050919050565b5f819050919050565b61287061286b82611bcd565b612856565b82525050565b5f612881828561285f565b602082019150612891828461285f565b6020820191508190509392505050565b5f6128ab82611bcd565b91506128b683611bcd565b9250826128c6576128c561237e565b5b828206905092915050565b7f4e487b71000000000000000000000000000000000000000000000000000000005f52603260045260245ffd5b7f43616e6e6f74207374616b65207a65726f20746f6b656e7300000000000000005f82015250565b5f612932601883611c35565b915061293d826128fe565b602082019050919050565b5f6020820190508181035f83015261295f81612926565b9050919050565b7f496e76616c69642070726f706f73616c204944000000000000000000000000005f82015250565b5f61299a601383611c35565b91506129a582612966565b602082019050919050565b5f6020820190508181035f8301526129c78161298e565b9050919050565b7f4e6f207374616b656420746f6b656e7320746f20766f746500000000000000005f82015250565b5f612a02601883611c35565b9150612a0d826129ce565b602082019050919050565b5f6020820190508181035f830152612a2f816129f6565b9050919050565b5f606082019050612a495f830186611e96565b612a566020830185611c9b565b612a636040830184611c9b565b94935050505056fea264697066735822122039a9bc7d925fd2a79fbe5ca861c774e600bccd1ec7ea33dd3b1284506bac0a6364736f6c634300081c0033",
					"opcodes": "PUSH1 0x80 PUSH1 0x40 MSTORE PUSH3 0x93A80 PUSH1 0xE SSTORE CALLVALUE DUP1 ISZERO PUSH2 0x16 JUMPI PUSH0 PUSH0 REVERT JUMPDEST POP PUSH1 0x40 MLOAD PUSH2 0x3420 CODESIZE SUB DUP1 PUSH2 0x3420 DUP4 CODECOPY DUP2 DUP2 ADD PUSH1 0x40 MSTORE DUP2 ADD SWAP1 PUSH2 0x38 SWAP2 SWAP1 PUSH2 0x50A JUMP JUMPDEST CALLER PUSH1 0x40 MLOAD DUP1 PUSH1 0x40 ADD PUSH1 0x40 MSTORE DUP1 PUSH1 0x9 DUP2 MSTORE PUSH1 0x20 ADD PUSH32 0x4672657361436F696E0000000000000000000000000000000000000000000000 DUP2 MSTORE POP PUSH1 0x40 MLOAD DUP1 PUSH1 0x40 ADD PUSH1 0x40 MSTORE DUP1 PUSH1 0x5 DUP2 MSTORE PUSH1 0x20 ADD PUSH32 0x4652455341000000000000000000000000000000000000000000000000000000 DUP2 MSTORE POP DUP2 PUSH1 0x3 SWAP1 DUP2 PUSH2 0xB4 SWAP2 SWAP1 PUSH2 0x78E JUMP JUMPDEST POP DUP1 PUSH1 0x4 SWAP1 DUP2 PUSH2 0xC4 SWAP2 SWAP1 PUSH2 0x78E JUMP JUMPDEST POP POP POP PUSH0 PUSH20 0xFFFFFFFFFFFFFFFFFFFFFFFFFFFFFFFFFFFFFFFF AND DUP2 PUSH20 0xFFFFFFFFFFFFFFFFFFFFFFFFFFFFFFFFFFFFFFFF AND SUB PUSH2 0x137 JUMPI PUSH0 PUSH1 0x40 MLOAD PUSH32 0x1E4FBDF700000000000000000000000000000000000000000000000000000000 DUP2 MSTORE PUSH1 0x4 ADD PUSH2 0x12E SWAP2 SWAP1 PUSH2 0x89C JUMP JUMPDEST PUSH1 0x40 MLOAD DUP1 SWAP2 SUB SWAP1 REVERT JUMPDEST PUSH2 0x146 DUP2 PUSH2 0x172 PUSH1 0x20 SHL PUSH1 0x20 SHR JUMP JUMPDEST POP PUSH2 0x157 CALLER DUP5 PUSH2 0x235 PUSH1 0x20 SHL PUSH1 0x20 SHR JUMP JUMPDEST DUP2 PUSH1 0xA PUSH0 ADD DUP2 SWAP1 SSTORE POP DUP1 PUSH1 0xA PUSH1 0x1 ADD DUP2 SWAP1 SSTORE POP POP POP POP PUSH2 0x972 JUMP JUMPDEST PUSH0 PUSH1 0x5 PUSH0 SWAP1 SLOAD SWAP1 PUSH2 0x100 EXP SWAP1 DIV PUSH20 0xFFFFFFFFFFFFFFFFFFFFFFFFFFFFFFFFFFFFFFFF AND SWAP1 POP DUP2 PUSH1 0x5 PUSH0 PUSH2 0x100 EXP DUP2 SLOAD DUP2 PUSH20 0xFFFFFFFFFFFFFFFFFFFFFFFFFFFFFFFFFFFFFFFF MUL NOT AND SWAP1 DUP4 PUSH20 0xFFFFFFFFFFFFFFFFFFFFFFFFFFFFFFFFFFFFFFFF AND MUL OR SWAP1 SSTORE POP DUP2 PUSH20 0xFFFFFFFFFFFFFFFFFFFFFFFFFFFFFFFFFFFFFFFF AND DUP2 PUSH20 0xFFFFFFFFFFFFFFFFFFFFFFFFFFFFFFFFFFFFFFFF AND PUSH32 0x8BE0079C531659141344CD1FD0A4F28419497F9722A3DAAFE3B4186F6B6457E0 PUSH1 0x40 MLOAD PUSH1 0x40 MLOAD DUP1 SWAP2 SUB SWAP1 LOG3 POP POP JUMP JUMPDEST PUSH0 PUSH20 0xFFFFFFFFFFFFFFFFFFFFFFFFFFFFFFFFFFFFFFFF AND DUP3 PUSH20 0xFFFFFFFFFFFFFFFFFFFFFFFFFFFFFFFFFFFFFFFF AND SUB PUSH2 0x2A5 JUMPI PUSH0 PUSH1 0x40 MLOAD PUSH32 0xEC442F0500000000000000000000000000000000000000000000000000000000 DUP2 MSTORE PUSH1 0x4 ADD PUSH2 0x29C SWAP2 SWAP1 PUSH2 0x89C JUMP JUMPDEST PUSH1 0x40 MLOAD DUP1 SWAP2 SUB SWAP1 REVERT JUMPDEST PUSH2 0x2B6 PUSH0 DUP4 DUP4 PUSH2 0x2BA PUSH1 0x20 SHL PUSH1 0x20 SHR JUMP JUMPDEST POP POP JUMP JUMPDEST PUSH0 PUSH20 0xFFFFFFFFFFFFFFFFFFFFFFFFFFFFFFFFFFFFFFFF AND DUP4 PUSH20 0xFFFFFFFFFFFFFFFFFFFFFFFFFFFFFFFFFFFFFFFF AND SUB PUSH2 0x30A JUMPI DUP1 PUSH1 0x2 PUSH0 DUP3 DUP3 SLOAD PUSH2 0x2FE SWAP2 SWAP1 PUSH2 0x8E2 JUMP JUMPDEST SWAP3 POP POP DUP2 SWAP1 SSTORE POP PUSH2 0x3D8 JUMP JUMPDEST PUSH0 PUSH0 PUSH0 DUP6 PUSH20 0xFFFFFFFFFFFFFFFFFFFFFFFFFFFFFFFFFFFFFFFF AND PUSH20 0xFFFFFFFFFFFFFFFFFFFFFFFFFFFFFFFFFFFFFFFF AND DUP2 MSTORE PUSH1 0x20 ADD SWAP1 DUP2 MSTORE PUSH1 0x20 ADD PUSH0 KECCAK256 SLOAD SWAP1 POP DUP2 DUP2 LT ISZERO PUSH2 0x393 JUMPI DUP4 DUP2 DUP4 PUSH1 0x40 MLOAD PUSH32 0xE450D38C00000000000000000000000000000000000000000000000000000000 DUP2 MSTORE PUSH1 0x4 ADD PUSH2 0x38A SWAP4 SWAP3 SWAP2 SWAP1 PUSH2 0x924 JUMP JUMPDEST PUSH1 0x40 MLOAD DUP1 SWAP2 SUB SWAP1 REVERT JUMPDEST DUP2 DUP2 SUB PUSH0 PUSH0 DUP7 PUSH20 0xFFFFFFFFFFFFFFFFFFFFFFFFFFFFFFFFFFFFFFFF AND PUSH20 0xFFFFFFFFFFFFFFFFFFFFFFFFFFFFFFFFFFFFFFFF AND DUP2 MSTORE PUSH1 0x20 ADD SWAP1 DUP2 MSTORE PUSH1 0x20 ADD PUSH0 KECCAK256 DUP2 SWAP1 SSTORE POP POP JUMPDEST PUSH0 PUSH20 0xFFFFFFFFFFFFFFFFFFFFFFFFFFFFFFFFFFFFFFFF AND DUP3 PUSH20 0xFFFFFFFFFFFFFFFFFFFFFFFFFFFFFFFFFFFFFFFF AND SUB PUSH2 0x41F JUMPI DUP1 PUSH1 0x2 PUSH0 DUP3 DUP3 SLOAD SUB SWAP3 POP POP DUP2 SWAP1 SSTORE POP PUSH2 0x469 JUMP JUMPDEST DUP1 PUSH0 PUSH0 DUP5 PUSH20 0xFFFFFFFFFFFFFFFFFFFFFFFFFFFFFFFFFFFFFFFF AND PUSH20 0xFFFFFFFFFFFFFFFFFFFFFFFFFFFFFFFFFFFFFFFF AND DUP2 MSTORE PUSH1 0x20 ADD SWAP1 DUP2 MSTORE PUSH1 0x20 ADD PUSH0 KECCAK256 PUSH0 DUP3 DUP3 SLOAD ADD SWAP3 POP POP DUP2 SWAP1 SSTORE POP JUMPDEST DUP2 PUSH20 0xFFFFFFFFFFFFFFFFFFFFFFFFFFFFFFFFFFFFFFFF AND DUP4 PUSH20 0xFFFFFFFFFFFFFFFFFFFFFFFFFFFFFFFFFFFFFFFF AND PUSH32 0xDDF252AD1BE2C89B69C2B068FC378DAA952BA7F163C4A11628F55A4DF523B3EF DUP4 PUSH1 0x40 MLOAD PUSH2 0x4C6 SWAP2 SWAP1 PUSH2 0x959 JUMP JUMPDEST PUSH1 0x40 MLOAD DUP1 SWAP2 SUB SWAP1 LOG3 POP POP POP JUMP JUMPDEST PUSH0 PUSH0 REVERT JUMPDEST PUSH0 DUP2 SWAP1 POP SWAP2 SWAP1 POP JUMP JUMPDEST PUSH2 0x4E9 DUP2 PUSH2 0x4D7 JUMP JUMPDEST DUP2 EQ PUSH2 0x4F3 JUMPI PUSH0 PUSH0 REVERT JUMPDEST POP JUMP JUMPDEST PUSH0 DUP2 MLOAD SWAP1 POP PUSH2 0x504 DUP2 PUSH2 0x4E0 JUMP JUMPDEST SWAP3 SWAP2 POP POP JUMP JUMPDEST PUSH0 PUSH0 PUSH0 PUSH1 0x60 DUP5 DUP7 SUB SLT ISZERO PUSH2 0x521 JUMPI PUSH2 0x520 PUSH2 0x4D3 JUMP JUMPDEST JUMPDEST PUSH0 PUSH2 0x52E DUP7 DUP3 DUP8 ADD PUSH2 0x4F6 JUMP JUMPDEST SWAP4 POP POP PUSH1 0x20 PUSH2 0x53F DUP7 DUP3 DUP8 ADD PUSH2 0x4F6 JUMP JUMPDEST SWAP3 POP POP PUSH1 0x40 PUSH2 0x550 DUP7 DUP3 DUP8 ADD PUSH2 0x4F6 JUMP JUMPDEST SWAP2 POP POP SWAP3 POP SWAP3 POP SWAP3 JUMP JUMPDEST PUSH0 DUP2 MLOAD SWAP1 POP SWAP2 SWAP1 POP JUMP JUMPDEST PUSH32 0x4E487B7100000000000000000000000000000000000000000000000000000000 PUSH0 MSTORE PUSH1 0x41 PUSH1 0x4 MSTORE PUSH1 0x24 PUSH0 REVERT JUMPDEST PUSH32 0x4E487B7100000000000000000000000000000000000000000000000000000000 PUSH0 MSTORE PUSH1 0x22 PUSH1 0x4 MSTORE PUSH1 0x24 PUSH0 REVERT JUMPDEST PUSH0 PUSH1 0x2 DUP3 DIV SWAP1 POP PUSH1 0x1 DUP3 AND DUP1 PUSH2 0x5D5 JUMPI PUSH1 0x7F DUP3 AND SWAP2 POP JUMPDEST PUSH1 0x20 DUP3 LT DUP2 SUB PUSH2 0x5E8 JUMPI PUSH2 0x5E7 PUSH2 0x591 JUMP JUMPDEST JUMPDEST POP SWAP2 SWAP1 POP JUMP JUMPDEST PUSH0 DUP2 SWAP1 POP DUP2 PUSH0 MSTORE PUSH1 0x20 PUSH0 KECCAK256 SWAP1 POP SWAP2 SWAP1 POP JUMP JUMPDEST PUSH0 PUSH1 0x20 PUSH1 0x1F DUP4 ADD DIV SWAP1 POP SWAP2 SWAP1 POP JUMP JUMPDEST PUSH0 DUP3 DUP3 SHL SWAP1 POP SWAP3 SWAP2 POP POP JUMP JUMPDEST PUSH0 PUSH1 0x8 DUP4 MUL PUSH2 0x64A PUSH32 0xFFFFFFFFFFFFFFFFFFFFFFFFFFFFFFFFFFFFFFFFFFFFFFFFFFFFFFFFFFFFFFFF DUP3 PUSH2 0x60F JUMP JUMPDEST PUSH2 0x654 DUP7 DUP4 PUSH2 0x60F JUMP JUMPDEST SWAP6 POP DUP1 NOT DUP5 AND SWAP4 POP DUP1 DUP7 AND DUP5 OR SWAP3 POP POP POP SWAP4 SWAP3 POP POP POP JUMP JUMPDEST PUSH0 DUP2 SWAP1 POP SWAP2 SWAP1 POP JUMP JUMPDEST PUSH0 PUSH2 0x68F PUSH2 0x68A PUSH2 0x685 DUP5 PUSH2 0x4D7 JUMP JUMPDEST PUSH2 0x66C JUMP JUMPDEST PUSH2 0x4D7 JUMP JUMPDEST SWAP1 POP SWAP2 SWAP1 POP JUMP JUMPDEST PUSH0 DUP2 SWAP1 POP SWAP2 SWAP1 POP JUMP JUMPDEST PUSH2 0x6A8 DUP4 PUSH2 0x675 JUMP JUMPDEST PUSH2 0x6BC PUSH2 0x6B4 DUP3 PUSH2 0x696 JUMP JUMPDEST DUP5 DUP5 SLOAD PUSH2 0x61B JUMP JUMPDEST DUP3 SSTORE POP POP POP POP JUMP JUMPDEST PUSH0 PUSH0 SWAP1 POP SWAP1 JUMP JUMPDEST PUSH2 0x6D3 PUSH2 0x6C4 JUMP JUMPDEST PUSH2 0x6DE DUP2 DUP5 DUP5 PUSH2 0x69F JUMP JUMPDEST POP POP POP JUMP JUMPDEST JUMPDEST DUP2 DUP2 LT ISZERO PUSH2 0x701 JUMPI PUSH2 0x6F6 PUSH0 DUP3 PUSH2 0x6CB JUMP JUMPDEST PUSH1 0x1 DUP2 ADD SWAP1 POP PUSH2 0x6E4 JUMP JUMPDEST POP POP JUMP JUMPDEST PUSH1 0x1F DUP3 GT ISZERO PUSH2 0x746 JUMPI PUSH2 0x717 DUP2 PUSH2 0x5EE JUMP JUMPDEST PUSH2 0x720 DUP5 PUSH2 0x600 JUMP JUMPDEST DUP2 ADD PUSH1 0x20 DUP6 LT ISZERO PUSH2 0x72F JUMPI DUP2 SWAP1 POP JUMPDEST PUSH2 0x743 PUSH2 0x73B DUP6 PUSH2 0x600 JUMP JUMPDEST DUP4 ADD DUP3 PUSH2 0x6E3 JUMP JUMPDEST POP POP JUMPDEST POP POP POP JUMP JUMPDEST PUSH0 DUP3 DUP3 SHR SWAP1 POP SWAP3 SWAP2 POP POP JUMP JUMPDEST PUSH0 PUSH2 0x766 PUSH0 NOT DUP5 PUSH1 0x8 MUL PUSH2 0x74B JUMP JUMPDEST NOT DUP1 DUP4 AND SWAP2 POP POP SWAP3 SWAP2 POP POP JUMP JUMPDEST PUSH0 PUSH2 0x77E DUP4 DUP4 PUSH2 0x757 JUMP JUMPDEST SWAP2 POP DUP3 PUSH1 0x2 MUL DUP3 OR SWAP1 POP SWAP3 SWAP2 POP POP JUMP JUMPDEST PUSH2 0x797 DUP3 PUSH2 0x55A JUMP JUMPDEST PUSH8 0xFFFFFFFFFFFFFFFF DUP2 GT ISZERO PUSH2 0x7B0 JUMPI PUSH2 0x7AF PUSH2 0x564 JUMP JUMPDEST JUMPDEST PUSH2 0x7BA DUP3 SLOAD PUSH2 0x5BE JUMP JUMPDEST PUSH2 0x7C5 DUP3 DUP3 DUP6 PUSH2 0x705 JUMP JUMPDEST PUSH0 PUSH1 0x20 SWAP1 POP PUSH1 0x1F DUP4 GT PUSH1 0x1 DUP2 EQ PUSH2 0x7F6 JUMPI PUSH0 DUP5 ISZERO PUSH2 0x7E4 JUMPI DUP3 DUP8 ADD MLOAD SWAP1 POP JUMPDEST PUSH2 0x7EE DUP6 DUP3 PUSH2 0x773 JUMP JUMPDEST DUP7 SSTORE POP PUSH2 0x855 JUMP JUMPDEST PUSH1 0x1F NOT DUP5 AND PUSH2 0x804 DUP7 PUSH2 0x5EE JUMP JUMPDEST PUSH0 JUMPDEST DUP3 DUP2 LT ISZERO PUSH2 0x82B JUMPI DUP5 DUP10 ADD MLOAD DUP3 SSTORE PUSH1 0x1 DUP3 ADD SWAP2 POP PUSH1 0x20 DUP6 ADD SWAP5 POP PUSH1 0x20 DUP2 ADD SWAP1 POP PUSH2 0x806 JUMP JUMPDEST DUP7 DUP4 LT ISZERO PUSH2 0x848 JUMPI DUP5 DUP10 ADD MLOAD PUSH2 0x844 PUSH1 0x1F DUP10 AND DUP3 PUSH2 0x757 JUMP JUMPDEST DUP4 SSTORE POP JUMPDEST PUSH1 0x1 PUSH1 0x2 DUP9 MUL ADD DUP9 SSTORE POP POP POP JUMPDEST POP POP POP POP POP POP JUMP JUMPDEST PUSH0 PUSH20 0xFFFFFFFFFFFFFFFFFFFFFFFFFFFFFFFFFFFFFFFF DUP3 AND SWAP1 POP SWAP2 SWAP1 POP JUMP JUMPDEST PUSH0 PUSH2 0x886 DUP3 PUSH2 0x85D JUMP JUMPDEST SWAP1 POP SWAP2 SWAP1 POP JUMP JUMPDEST PUSH2 0x896 DUP2 PUSH2 0x87C JUMP JUMPDEST DUP3 MSTORE POP POP JUMP JUMPDEST PUSH0 PUSH1 0x20 DUP3 ADD SWAP1 POP PUSH2 0x8AF PUSH0 DUP4 ADD DUP5 PUSH2 0x88D JUMP JUMPDEST SWAP3 SWAP2 POP POP JUMP JUMPDEST PUSH32 0x4E487B7100000000000000000000000000000000000000000000000000000000 PUSH0 MSTORE PUSH1 0x11 PUSH1 0x4 MSTORE PUSH1 0x24 PUSH0 REVERT JUMPDEST PUSH0 PUSH2 0x8EC DUP3 PUSH2 0x4D7 JUMP JUMPDEST SWAP2 POP PUSH2 0x8F7 DUP4 PUSH2 0x4D7 JUMP JUMPDEST SWAP3 POP DUP3 DUP3 ADD SWAP1 POP DUP1 DUP3 GT ISZERO PUSH2 0x90F JUMPI PUSH2 0x90E PUSH2 0x8B5 JUMP JUMPDEST JUMPDEST SWAP3 SWAP2 POP POP JUMP JUMPDEST PUSH2 0x91E DUP2 PUSH2 0x4D7 JUMP JUMPDEST DUP3 MSTORE POP POP JUMP JUMPDEST PUSH0 PUSH1 0x60 DUP3 ADD SWAP1 POP PUSH2 0x937 PUSH0 DUP4 ADD DUP7 PUSH2 0x88D JUMP JUMPDEST PUSH2 0x944 PUSH1 0x20 DUP4 ADD DUP6 PUSH2 0x915 JUMP JUMPDEST PUSH2 0x951 PUSH1 0x40 DUP4 ADD DUP5 PUSH2 0x915 JUMP JUMPDEST SWAP5 SWAP4 POP POP POP POP JUMP JUMPDEST PUSH0 PUSH1 0x20 DUP3 ADD SWAP1 POP PUSH2 0x96C PUSH0 DUP4 ADD DUP5 PUSH2 0x915 JUMP JUMPDEST SWAP3 SWAP2 POP POP JUMP JUMPDEST PUSH2 0x2AA1 DUP1 PUSH2 0x97F PUSH0 CODECOPY PUSH0 RETURN INVALID PUSH1 0x80 PUSH1 0x40 MSTORE CALLVALUE DUP1 ISZERO PUSH2 0xF JUMPI PUSH0 PUSH0 REVERT JUMPDEST POP PUSH1 0x4 CALLDATASIZE LT PUSH2 0x1C2 JUMPI PUSH0 CALLDATALOAD PUSH1 0xE0 SHR DUP1 PUSH4 0x5FEC5C64 GT PUSH2 0xF7 JUMPI DUP1 PUSH4 0xB3A55A66 GT PUSH2 0x95 JUMPI DUP1 PUSH4 0xCDB12C83 GT PUSH2 0x6F JUMPI DUP1 PUSH4 0xCDB12C83 EQ PUSH2 0x4EA JUMPI DUP1 PUSH4 0xDD62ED3E EQ PUSH2 0x508 JUMPI DUP1 PUSH4 0xE1913C81 EQ PUSH2 0x538 JUMPI DUP1 PUSH4 0xF2FDE38B EQ PUSH2 0x556 JUMPI PUSH2 0x1C2 JUMP JUMPDEST DUP1 PUSH4 0xB3A55A66 EQ PUSH2 0x492 JUMPI DUP1 PUSH4 0xBA13A572 EQ PUSH2 0x4B0 JUMPI DUP1 PUSH4 0xC9D27AFE EQ PUSH2 0x4CE JUMPI PUSH2 0x1C2 JUMP JUMPDEST DUP1 PUSH4 0x7ACB7757 GT PUSH2 0xD1 JUMPI DUP1 PUSH4 0x7ACB7757 EQ PUSH2 0x40A JUMPI DUP1 PUSH4 0x8DA5CB5B EQ PUSH2 0x426 JUMPI DUP1 PUSH4 0x95D89B41 EQ PUSH2 0x444 JUMPI DUP1 PUSH4 0xA9059CBB EQ PUSH2 0x462 JUMPI PUSH2 0x1C2 JUMP JUMPDEST DUP1 PUSH4 0x5FEC5C64 EQ PUSH2 0x3B2 JUMPI DUP1 PUSH4 0x70A08231 EQ PUSH2 0x3D0 JUMPI DUP1 PUSH4 0x715018A6 EQ PUSH2 0x400 JUMPI PUSH2 0x1C2 JUMP JUMPDEST DUP1 PUSH4 0x18160DDD GT PUSH2 0x164 JUMPI DUP1 PUSH4 0x313CE567 GT PUSH2 0x13E JUMPI DUP1 PUSH4 0x313CE567 EQ PUSH2 0x352 JUMPI DUP1 PUSH4 0x3FD43098 EQ PUSH2 0x370 JUMPI DUP1 PUSH4 0x49C2A1A6 EQ PUSH2 0x38C JUMPI DUP1 PUSH4 0x576B5002 EQ PUSH2 0x3A8 JUMPI PUSH2 0x1C2 JUMP JUMPDEST DUP1 PUSH4 0x18160DDD EQ PUSH2 0x2E8 JUMPI DUP1 PUSH4 0x23B872DD EQ PUSH2 0x306 JUMPI DUP1 PUSH4 0x2E1A7D4D EQ PUSH2 0x336 JUMPI PUSH2 0x1C2 JUMP JUMPDEST DUP1 PUSH4 0xC0512E9 GT PUSH2 0x1A0 JUMPI DUP1 PUSH4 0xC0512E9 EQ PUSH2 0x247 JUMPI DUP1 PUSH4 0xC56AE3B EQ PUSH2 0x265 JUMPI DUP1 PUSH4 0x13ED0846 EQ PUSH2 0x285 JUMPI DUP1 PUSH4 0x16934FC4 EQ PUSH2 0x2B5 JUMPI PUSH2 0x1C2 JUMP JUMPDEST DUP1 PUSH4 0x13CF08B EQ PUSH2 0x1C6 JUMPI DUP1 PUSH4 0x6FDDE03 EQ PUSH2 0x1F9 JUMPI DUP1 PUSH4 0x95EA7B3 EQ PUSH2 0x217 JUMPI JUMPDEST PUSH0 PUSH0 REVERT JUMPDEST PUSH2 0x1E0 PUSH1 0x4 DUP1 CALLDATASIZE SUB DUP2 ADD SWAP1 PUSH2 0x1DB SWAP2 SWAP1 PUSH2 0x1C00 JUMP JUMPDEST PUSH2 0x572 JUMP JUMPDEST PUSH1 0x40 MLOAD PUSH2 0x1F0 SWAP5 SWAP4 SWAP3 SWAP2 SWAP1 PUSH2 0x1CC4 JUMP JUMPDEST PUSH1 0x40 MLOAD DUP1 SWAP2 SUB SWAP1 RETURN JUMPDEST PUSH2 0x201 PUSH2 0x630 JUMP JUMPDEST PUSH1 0x40 MLOAD PUSH2 0x20E SWAP2 SWAP1 PUSH2 0x1D0E JUMP JUMPDEST PUSH1 0x40 MLOAD DUP1 SWAP2 SUB SWAP1 RETURN JUMPDEST PUSH2 0x231 PUSH1 0x4 DUP1 CALLDATASIZE SUB DUP2 ADD SWAP1 PUSH2 0x22C SWAP2 SWAP1 PUSH2 0x1D88 JUMP JUMPDEST PUSH2 0x6C0 JUMP JUMPDEST PUSH1 0x40 MLOAD PUSH2 0x23E SWAP2 SWAP1 PUSH2 0x1DC6 JUMP JUMPDEST PUSH1 0x40 MLOAD DUP1 SWAP2 SUB SWAP1 RETURN JUMPDEST PUSH2 0x24F PUSH2 0x6E2 JUMP JUMPDEST PUSH1 0x40 MLOAD PUSH2 0x25C SWAP2 SWAP1 PUSH2 0x1DDF JUMP JUMPDEST PUSH1 0x40 MLOAD DUP1 SWAP2 SUB SWAP1 RETURN JUMPDEST PUSH2 0x26D PUSH2 0x6E8 JUMP JUMPDEST PUSH1 0x40 MLOAD PUSH2 0x27C SWAP4 SWAP3 SWAP2 SWAP1 PUSH2 0x1DF8 JUMP JUMPDEST PUSH1 0x40 MLOAD DUP1 SWAP2 SUB SWAP1 RETURN JUMPDEST PUSH2 0x29F PUSH1 0x4 DUP1 CALLDATASIZE SUB DUP2 ADD SWAP1 PUSH2 0x29A SWAP2 SWAP1 PUSH2 0x1E2D JUMP JUMPDEST PUSH2 0x6FF JUMP JUMPDEST PUSH1 0x40 MLOAD PUSH2 0x2AC SWAP2 SWAP1 PUSH2 0x1DDF JUMP JUMPDEST PUSH1 0x40 MLOAD DUP1 SWAP2 SUB SWAP1 RETURN JUMPDEST PUSH2 0x2CF PUSH1 0x4 DUP1 CALLDATASIZE SUB DUP2 ADD SWAP1 PUSH2 0x2CA SWAP2 SWAP1 PUSH2 0x1E6B JUMP JUMPDEST PUSH2 0x780 JUMP JUMPDEST PUSH1 0x40 MLOAD PUSH2 0x2DF SWAP5 SWAP4 SWAP3 SWAP2 SWAP1 PUSH2 0x1EA5 JUMP JUMPDEST PUSH1 0x40 MLOAD DUP1 SWAP2 SUB SWAP1 RETURN JUMPDEST PUSH2 0x2F0 PUSH2 0x7CB JUMP JUMPDEST PUSH1 0x40 MLOAD PUSH2 0x2FD SWAP2 SWAP1 PUSH2 0x1DDF JUMP JUMPDEST PUSH1 0x40 MLOAD DUP1 SWAP2 SUB SWAP1 RETURN JUMPDEST PUSH2 0x320 PUSH1 0x4 DUP1 CALLDATASIZE SUB DUP2 ADD SWAP1 PUSH2 0x31B SWAP2 SWAP1 PUSH2 0x1EE8 JUMP JUMPDEST PUSH2 0x7D4 JUMP JUMPDEST PUSH1 0x40 MLOAD PUSH2 0x32D SWAP2 SWAP1 PUSH2 0x1DC6 JUMP JUMPDEST PUSH1 0x40 MLOAD DUP1 SWAP2 SUB SWAP1 RETURN JUMPDEST PUSH2 0x350 PUSH1 0x4 DUP1 CALLDATASIZE SUB DUP2 ADD SWAP1 PUSH2 0x34B SWAP2 SWAP1 PUSH2 0x1C00 JUMP JUMPDEST PUSH2 0x802 JUMP JUMPDEST STOP JUMPDEST PUSH2 0x35A PUSH2 0x985 JUMP JUMPDEST PUSH1 0x40 MLOAD PUSH2 0x367 SWAP2 SWAP1 PUSH2 0x1F53 JUMP JUMPDEST PUSH1 0x40 MLOAD DUP1 SWAP2 SUB SWAP1 RETURN JUMPDEST PUSH2 0x38A PUSH1 0x4 DUP1 CALLDATASIZE SUB DUP2 ADD SWAP1 PUSH2 0x385 SWAP2 SWAP1 PUSH2 0x1C00 JUMP JUMPDEST PUSH2 0x98D JUMP JUMPDEST STOP JUMPDEST PUSH2 0x3A6 PUSH1 0x4 DUP1 CALLDATASIZE SUB DUP2 ADD SWAP1 PUSH2 0x3A1 SWAP2 SWAP1 PUSH2 0x2098 JUMP JUMPDEST PUSH2 0xAA8 JUMP JUMPDEST STOP JUMPDEST PUSH2 0x3B0 PUSH2 0xB84 JUMP JUMPDEST STOP JUMPDEST PUSH2 0x3BA PUSH2 0xCD6 JUMP JUMPDEST PUSH1 0x40 MLOAD PUSH2 0x3C7 SWAP2 SWAP1 PUSH2 0x1DDF JUMP JUMPDEST PUSH1 0x40 MLOAD DUP1 SWAP2 SUB SWAP1 RETURN JUMPDEST PUSH2 0x3EA PUSH1 0x4 DUP1 CALLDATASIZE SUB DUP2 ADD SWAP1 PUSH2 0x3E5 SWAP2 SWAP1 PUSH2 0x1E6B JUMP JUMPDEST PUSH2 0xCDC JUMP JUMPDEST PUSH1 0x40 MLOAD PUSH2 0x3F7 SWAP2 SWAP1 PUSH2 0x1DDF JUMP JUMPDEST PUSH1 0x40 MLOAD DUP1 SWAP2 SUB SWAP1 RETURN JUMPDEST PUSH2 0x408 PUSH2 0xD21 JUMP JUMPDEST STOP JUMPDEST PUSH2 0x424 PUSH1 0x4 DUP1 CALLDATASIZE SUB DUP2 ADD SWAP1 PUSH2 0x41F SWAP2 SWAP1 PUSH2 0x20DF JUMP JUMPDEST PUSH2 0xD34 JUMP JUMPDEST STOP JUMPDEST PUSH2 0x42E PUSH2 0xF8A JUMP JUMPDEST PUSH1 0x40 MLOAD PUSH2 0x43B SWAP2 SWAP1 PUSH2 0x211D JUMP JUMPDEST PUSH1 0x40 MLOAD DUP1 SWAP2 SUB SWAP1 RETURN JUMPDEST PUSH2 0x44C PUSH2 0xFB2 JUMP JUMPDEST PUSH1 0x40 MLOAD PUSH2 0x459 SWAP2 SWAP1 PUSH2 0x1D0E JUMP JUMPDEST PUSH1 0x40 MLOAD DUP1 SWAP2 SUB SWAP1 RETURN JUMPDEST PUSH2 0x47C PUSH1 0x4 DUP1 CALLDATASIZE SUB DUP2 ADD SWAP1 PUSH2 0x477 SWAP2 SWAP1 PUSH2 0x1D88 JUMP JUMPDEST PUSH2 0x1042 JUMP JUMPDEST PUSH1 0x40 MLOAD PUSH2 0x489 SWAP2 SWAP1 PUSH2 0x1DC6 JUMP JUMPDEST PUSH1 0x40 MLOAD DUP1 SWAP2 SUB SWAP1 RETURN JUMPDEST PUSH2 0x49A PUSH2 0x1064 JUMP JUMPDEST PUSH1 0x40 MLOAD PUSH2 0x4A7 SWAP2 SWAP1 PUSH2 0x21ED JUMP JUMPDEST PUSH1 0x40 MLOAD DUP1 SWAP2 SUB SWAP1 RETURN JUMPDEST PUSH2 0x4B8 PUSH2 0x10F1 JUMP JUMPDEST PUSH1 0x40 MLOAD PUSH2 0x4C5 SWAP2 SWAP1 PUSH2 0x1DDF JUMP JUMPDEST PUSH1 0x40 MLOAD DUP1 SWAP2 SUB SWAP1 RETURN JUMPDEST PUSH2 0x4E8 PUSH1 0x4 DUP1 CALLDATASIZE SUB DUP2 ADD SWAP1 PUSH2 0x4E3 SWAP2 SWAP1 PUSH2 0x2237 JUMP JUMPDEST PUSH2 0x10FD JUMP JUMPDEST STOP JUMPDEST PUSH2 0x4F2 PUSH2 0x12A1 JUMP JUMPDEST PUSH1 0x40 MLOAD PUSH2 0x4FF SWAP2 SWAP1 PUSH2 0x1DDF JUMP JUMPDEST PUSH1 0x40 MLOAD DUP1 SWAP2 SUB SWAP1 RETURN JUMPDEST PUSH2 0x522 PUSH1 0x4 DUP1 CALLDATASIZE SUB DUP2 ADD SWAP1 PUSH2 0x51D SWAP2 SWAP1 PUSH2 0x2275 JUMP JUMPDEST PUSH2 0x12AD JUMP JUMPDEST PUSH1 0x40 MLOAD PUSH2 0x52F SWAP2 SWAP1 PUSH2 0x1DDF JUMP JUMPDEST PUSH1 0x40 MLOAD DUP1 SWAP2 SUB SWAP1 RETURN JUMPDEST PUSH2 0x540 PUSH2 0x132F JUMP JUMPDEST PUSH1 0x40 MLOAD PUSH2 0x54D SWAP2 SWAP1 PUSH2 0x1DDF JUMP JUMPDEST PUSH1 0x40 MLOAD DUP1 SWAP2 SUB SWAP1 RETURN JUMPDEST PUSH2 0x570 PUSH1 0x4 DUP1 CALLDATASIZE SUB DUP2 ADD SWAP1 PUSH2 0x56B SWAP2 SWAP1 PUSH2 0x1E6B JUMP JUMPDEST PUSH2 0x1334 JUMP JUMPDEST STOP JUMPDEST PUSH1 0x7 PUSH1 0x20 MSTORE DUP1 PUSH0 MSTORE PUSH1 0x40 PUSH0 KECCAK256 PUSH0 SWAP2 POP SWAP1 POP DUP1 PUSH0 ADD DUP1 SLOAD PUSH2 0x591 SWAP1 PUSH2 0x22E0 JUMP JUMPDEST DUP1 PUSH1 0x1F ADD PUSH1 0x20 DUP1 SWAP2 DIV MUL PUSH1 0x20 ADD PUSH1 0x40 MLOAD SWAP1 DUP2 ADD PUSH1 0x40 MSTORE DUP1 SWAP3 SWAP2 SWAP1 DUP2 DUP2 MSTORE PUSH1 0x20 ADD DUP3 DUP1 SLOAD PUSH2 0x5BD SWAP1 PUSH2 0x22E0 JUMP JUMPDEST DUP1 ISZERO PUSH2 0x608 JUMPI DUP1 PUSH1 0x1F LT PUSH2 0x5DF JUMPI PUSH2 0x100 DUP1 DUP4 SLOAD DIV MUL DUP4 MSTORE SWAP2 PUSH1 0x20 ADD SWAP2 PUSH2 0x608 JUMP JUMPDEST DUP3 ADD SWAP2 SWAP1 PUSH0 MSTORE PUSH1 0x20 PUSH0 KECCAK256 SWAP1 JUMPDEST DUP2 SLOAD DUP2 MSTORE SWAP1 PUSH1 0x1 ADD SWAP1 PUSH1 0x20 ADD DUP1 DUP4 GT PUSH2 0x5EB JUMPI DUP3 SWAP1 SUB PUSH1 0x1F AND DUP3 ADD SWAP2 JUMPDEST POP POP POP POP POP SWAP1 DUP1 PUSH1 0x1 ADD SLOAD SWAP1 DUP1 PUSH1 0x2 ADD SLOAD SWAP1 DUP1 PUSH1 0x3 ADD PUSH0 SWAP1 SLOAD SWAP1 PUSH2 0x100 EXP SWAP1 DIV PUSH1 0xFF AND SWAP1 POP DUP5 JUMP JUMPDEST PUSH1 0x60 PUSH1 0x3 DUP1 SLOAD PUSH2 0x63F SWAP1 PUSH2 0x22E0 JUMP JUMPDEST DUP1 PUSH1 0x1F ADD PUSH1 0x20 DUP1 SWAP2 DIV MUL PUSH1 0x20 ADD PUSH1 0x40 MLOAD SWAP1 DUP2 ADD PUSH1 0x40 MSTORE DUP1 SWAP3 SWAP2 SWAP1 DUP2 DUP2 MSTORE PUSH1 0x20 ADD DUP3 DUP1 SLOAD PUSH2 0x66B SWAP1 PUSH2 0x22E0 JUMP JUMPDEST DUP1 ISZERO PUSH2 0x6B6 JUMPI DUP1 PUSH1 0x1F LT PUSH2 0x68D JUMPI PUSH2 0x100 DUP1 DUP4 SLOAD DIV MUL DUP4 MSTORE SWAP2 PUSH1 0x20 ADD SWAP2 PUSH2 0x6B6 JUMP JUMPDEST DUP3 ADD SWAP2 SWAP1 PUSH0 MSTORE PUSH1 0x20 PUSH0 KECCAK256 SWAP1 JUMPDEST DUP2 SLOAD DUP2 MSTORE SWAP1 PUSH1 0x1 ADD SWAP1 PUSH1 0x20 ADD DUP1 DUP4 GT PUSH2 0x699 JUMPI DUP3 SWAP1 SUB PUSH1 0x1F AND DUP3 ADD SWAP2 JUMPDEST POP POP POP POP POP SWAP1 POP SWAP1 JUMP JUMPDEST PUSH0 PUSH0 PUSH2 0x6CA PUSH2 0x13B8 JUMP JUMPDEST SWAP1 POP PUSH2 0x6D7 DUP2 DUP6 DUP6 PUSH2 0x13BF JUMP JUMPDEST PUSH1 0x1 SWAP2 POP POP SWAP3 SWAP2 POP POP JUMP JUMPDEST PUSH1 0xD SLOAD DUP2 JUMP JUMPDEST PUSH1 0xA DUP1 PUSH0 ADD SLOAD SWAP1 DUP1 PUSH1 0x1 ADD SLOAD SWAP1 DUP1 PUSH1 0x2 ADD SLOAD SWAP1 POP DUP4 JUMP JUMPDEST PUSH0 PUSH0 PUSH10 0x21E19E0C9BAB2400000 DUP5 GT PUSH2 0x731 JUMPI PUSH9 0x3635C9ADC5DEA00000 DUP5 GT PUSH2 0x729 JUMPI PUSH1 0xA PUSH2 0x72C JUMP JUMPDEST PUSH1 0xC JUMPDEST PUSH2 0x734 JUMP JUMPDEST PUSH1 0xF JUMPDEST PUSH1 0xFF AND SWAP1 POP PUSH0 PUSH3 0x278D00 DUP5 GT PUSH2 0x74B JUMPI PUSH1 0x1 PUSH2 0x74E JUMP JUMPDEST PUSH1 0x2 JUMPDEST PUSH1 0xFF AND SWAP1 POP DUP1 PUSH1 0x64 DUP4 DUP8 PUSH2 0x762 SWAP2 SWAP1 PUSH2 0x233D JUMP JUMPDEST PUSH2 0x76C SWAP2 SWAP1 PUSH2 0x23AB JUMP JUMPDEST PUSH2 0x776 SWAP2 SWAP1 PUSH2 0x233D JUMP JUMPDEST SWAP3 POP POP POP SWAP3 SWAP2 POP POP JUMP JUMPDEST PUSH1 0x6 PUSH1 0x20 MSTORE DUP1 PUSH0 MSTORE PUSH1 0x40 PUSH0 KECCAK256 PUSH0 SWAP2 POP SWAP1 POP DUP1 PUSH0 ADD SLOAD SWAP1 DUP1 PUSH1 0x1 ADD SLOAD SWAP1 DUP1 PUSH1 0x2 ADD SLOAD SWAP1 DUP1 PUSH1 0x3 ADD PUSH0 SWAP1 SLOAD SWAP1 PUSH2 0x100 EXP SWAP1 DIV PUSH20 0xFFFFFFFFFFFFFFFFFFFFFFFFFFFFFFFFFFFFFFFF AND SWAP1 POP DUP5 JUMP JUMPDEST PUSH0 PUSH1 0x2 SLOAD SWAP1 POP SWAP1 JUMP JUMPDEST PUSH0 PUSH0 PUSH2 0x7DE PUSH2 0x13B8 JUMP JUMPDEST SWAP1 POP PUSH2 0x7EB DUP6 DUP3 DUP6 PUSH2 0x13D1 JUMP JUMPDEST PUSH2 0x7F6 DUP6 DUP6 DUP6 PUSH2 0x1463 JUMP JUMPDEST PUSH1 0x1 SWAP2 POP POP SWAP4 SWAP3 POP POP POP JUMP JUMPDEST PUSH0 PUSH1 0x6 PUSH0 CALLER PUSH20 0xFFFFFFFFFFFFFFFFFFFFFFFFFFFFFFFFFFFFFFFF AND PUSH20 0xFFFFFFFFFFFFFFFFFFFFFFFFFFFFFFFFFFFFFFFF AND DUP2 MSTORE PUSH1 0x20 ADD SWAP1 DUP2 MSTORE PUSH1 0x20 ADD PUSH0 KECCAK256 SWAP1 POP DUP2 DUP2 PUSH0 ADD SLOAD LT ISZERO PUSH2 0x888 JUMPI PUSH1 0x40 MLOAD PUSH32 0x8C379A000000000000000000000000000000000000000000000000000000000 DUP2 MSTORE PUSH1 0x4 ADD PUSH2 0x87F SWAP1 PUSH2 0x2425 JUMP JUMPDEST PUSH1 0x40 MLOAD DUP1 SWAP2 SUB SWAP1 REVERT JUMPDEST PUSH0 TIMESTAMP SWAP1 POP PUSH0 DUP3 PUSH1 0x2 ADD SLOAD DUP3 PUSH2 0x89D SWAP2 SWAP1 PUSH2 0x2443 JUMP JUMPDEST SWAP1 POP PUSH0 PUSH0 SWAP1 POP PUSH1 0xE SLOAD DUP3 LT ISZERO PUSH2 0x8DF JUMPI PUSH1 0x64 PUSH1 0x14 DUP7 PUSH2 0x8BC SWAP2 SWAP1 PUSH2 0x233D JUMP JUMPDEST PUSH2 0x8C6 SWAP2 SWAP1 PUSH2 0x23AB JUMP JUMPDEST SWAP1 POP PUSH2 0x8DE ADDRESS PUSH1 0x2 DUP4 PUSH2 0x8D9 SWAP2 SWAP1 PUSH2 0x23AB JUMP JUMPDEST PUSH2 0x1553 JUMP JUMPDEST JUMPDEST PUSH0 DUP2 DUP7 PUSH2 0x8EC SWAP2 SWAP1 PUSH2 0x2443 JUMP JUMPDEST SWAP1 POP DUP6 DUP6 PUSH0 ADD PUSH0 DUP3 DUP3 SLOAD PUSH2 0x900 SWAP2 SWAP1 PUSH2 0x2443 JUMP JUMPDEST SWAP3 POP POP DUP2 SWAP1 SSTORE POP DUP6 PUSH1 0xA PUSH1 0x2 ADD PUSH0 DUP3 DUP3 SLOAD PUSH2 0x91B SWAP2 SWAP1 PUSH2 0x2443 JUMP JUMPDEST SWAP3 POP POP DUP2 SWAP1 SSTORE POP PUSH2 0x92D ADDRESS CALLER DUP4 PUSH2 0x1463 JUMP JUMPDEST CALLER PUSH20 0xFFFFFFFFFFFFFFFFFFFFFFFFFFFFFFFFFFFFFFFF AND PUSH32 0x92CCF450A286A957AF52509BC1C9939D1A6A481783E142E41E2499F0BB66EBC6 DUP3 DUP5 PUSH1 0x40 MLOAD PUSH2 0x975 SWAP3 SWAP2 SWAP1 PUSH2 0x2476 JUMP JUMPDEST PUSH1 0x40 MLOAD DUP1 SWAP2 SUB SWAP1 LOG2 POP POP POP POP POP POP JUMP JUMPDEST PUSH0 PUSH1 0x12 SWAP1 POP SWAP1 JUMP JUMPDEST PUSH0 DUP2 GT PUSH2 0x9CF JUMPI PUSH1 0x40 MLOAD PUSH32 0x8C379A000000000000000000000000000000000000000000000000000000000 DUP2 MSTORE PUSH1 0x4 ADD PUSH2 0x9C6 SWAP1 PUSH2 0x24E7 JUMP JUMPDEST PUSH1 0x40 MLOAD DUP1 SWAP2 SUB SWAP1 REVERT JUMPDEST PUSH2 0x9DA CALLER ADDRESS DUP4 PUSH2 0x1463 JUMP JUMPDEST PUSH1 0x8 PUSH0 ADD CALLER SWAP1 DUP1 PUSH1 0x1 DUP2 SLOAD ADD DUP1 DUP3 SSTORE DUP1 SWAP2 POP POP PUSH1 0x1 SWAP1 SUB SWAP1 PUSH0 MSTORE PUSH1 0x20 PUSH0 KECCAK256 ADD PUSH0 SWAP1 SWAP2 SWAP1 SWAP2 SWAP1 SWAP2 PUSH2 0x100 EXP DUP2 SLOAD DUP2 PUSH20 0xFFFFFFFFFFFFFFFFFFFFFFFFFFFFFFFFFFFFFFFF MUL NOT AND SWAP1 DUP4 PUSH20 0xFFFFFFFFFFFFFFFFFFFFFFFFFFFFFFFFFFFFFFFF AND MUL OR SWAP1 SSTORE POP DUP1 PUSH1 0x8 PUSH1 0x1 ADD PUSH0 DUP3 DUP3 SLOAD PUSH2 0xA50 SWAP2 SWAP1 PUSH2 0x2505 JUMP JUMPDEST SWAP3 POP POP DUP2 SWAP1 SSTORE POP CALLER PUSH20 0xFFFFFFFFFFFFFFFFFFFFFFFFFFFFFFFFFFFFFFFF AND PUSH32 0xC28711C8DCC0CB3D25732E13809D1D8C2640669A0A3FB4F7729810A9CAAFFDFF DUP3 PUSH1 0x40 MLOAD PUSH2 0xA9D SWAP2 SWAP1 PUSH2 0x1DDF JUMP JUMPDEST PUSH1 0x40 MLOAD DUP1 SWAP2 SUB SWAP1 LOG2 POP JUMP JUMPDEST PUSH2 0xAB0 PUSH2 0x15D2 JUMP JUMPDEST PUSH1 0xD PUSH0 DUP2 SLOAD DUP1 SWAP3 SWAP2 SWAP1 PUSH2 0xAC2 SWAP1 PUSH2 0x2538 JUMP JUMPDEST SWAP2 SWAP1 POP SSTORE POP PUSH1 0x40 MLOAD DUP1 PUSH1 0x80 ADD PUSH1 0x40 MSTORE DUP1 DUP3 DUP2 MSTORE PUSH1 0x20 ADD PUSH0 DUP2 MSTORE PUSH1 0x20 ADD PUSH0 DUP2 MSTORE PUSH1 0x20 ADD PUSH0 ISZERO ISZERO DUP2 MSTORE POP PUSH1 0x7 PUSH0 PUSH1 0xD SLOAD DUP2 MSTORE PUSH1 0x20 ADD SWAP1 DUP2 MSTORE PUSH1 0x20 ADD PUSH0 KECCAK256 PUSH0 DUP3 ADD MLOAD DUP2 PUSH0 ADD SWAP1 DUP2 PUSH2 0xB10 SWAP2 SWAP1 PUSH2 0x271F JUMP JUMPDEST POP PUSH1 0x20 DUP3 ADD MLOAD DUP2 PUSH1 0x1 ADD SSTORE PUSH1 0x40 DUP3 ADD MLOAD DUP2 PUSH1 0x2 ADD SSTORE PUSH1 0x60 DUP3 ADD MLOAD DUP2 PUSH1 0x3 ADD PUSH0 PUSH2 0x100 EXP DUP2 SLOAD DUP2 PUSH1 0xFF MUL NOT AND SWAP1 DUP4 ISZERO ISZERO MUL OR SWAP1 SSTORE POP SWAP1 POP POP PUSH1 0xD SLOAD PUSH32 0x9C770C289AB5BF7E57CB1D23C8CEAE993AEA46EB64847072FD3D78CA60D3E432 DUP3 PUSH1 0x40 MLOAD PUSH2 0xB79 SWAP2 SWAP1 PUSH2 0x1D0E JUMP JUMPDEST PUSH1 0x40 MLOAD DUP1 SWAP2 SUB SWAP1 LOG2 POP JUMP JUMPDEST PUSH2 0xB8C PUSH2 0x15D2 JUMP JUMPDEST PUSH0 PUSH1 0x8 PUSH0 ADD DUP1 SLOAD SWAP1 POP GT PUSH2 0xBD5 JUMPI PUSH1 0x40 MLOAD PUSH32 0x8C379A000000000000000000000000000000000000000000000000000000000 DUP2 MSTORE PUSH1 0x4 ADD PUSH2 0xBCC SWAP1 PUSH2 0x2838 JUMP JUMPDEST PUSH1 0x40 MLOAD DUP1 SWAP2 SUB SWAP1 REVERT JUMPDEST PUSH0 PUSH1 0x8 PUSH0 ADD DUP1 SLOAD SWAP1 POP TIMESTAMP PREVRANDAO PUSH1 0x40 MLOAD PUSH1 0x20 ADD PUSH2 0xBF1 SWAP3 SWAP2 SWAP1 PUSH2 0x2876 JUMP JUMPDEST PUSH1 0x40 MLOAD PUSH1 0x20 DUP2 DUP4 SUB SUB DUP2 MSTORE SWAP1 PUSH1 0x40 MSTORE DUP1 MLOAD SWAP1 PUSH1 0x20 ADD KECCAK256 PUSH0 SHR PUSH2 0xC13 SWAP2 SWAP1 PUSH2 0x28A1 JUMP JUMPDEST SWAP1 POP PUSH0 PUSH1 0x8 PUSH0 ADD DUP3 DUP2 SLOAD DUP2 LT PUSH2 0xC2C JUMPI PUSH2 0xC2B PUSH2 0x28D1 JUMP JUMPDEST JUMPDEST SWAP1 PUSH0 MSTORE PUSH1 0x20 PUSH0 KECCAK256 ADD PUSH0 SWAP1 SLOAD SWAP1 PUSH2 0x100 EXP SWAP1 DIV PUSH20 0xFFFFFFFFFFFFFFFFFFFFFFFFFFFFFFFFFFFFFFFF AND SWAP1 POP PUSH0 PUSH1 0x8 PUSH1 0x1 ADD SLOAD SWAP1 POP PUSH0 PUSH1 0x8 PUSH1 0x1 ADD DUP2 SWAP1 SSTORE POP PUSH1 0x8 PUSH0 ADD PUSH0 PUSH2 0xC78 SWAP2 SWAP1 PUSH2 0x1B83 JUMP JUMPDEST PUSH2 0xC83 ADDRESS DUP4 DUP4 PUSH2 0x1463 JUMP JUMPDEST DUP2 PUSH20 0xFFFFFFFFFFFFFFFFFFFFFFFFFFFFFFFFFFFFFFFF AND PUSH32 0x275EAACF9E506F9C68B251C2F97CF723C4FB9A3B94E42A1DFB581543C135F0C0 DUP3 PUSH1 0x40 MLOAD PUSH2 0xCC9 SWAP2 SWAP1 PUSH2 0x1DDF JUMP JUMPDEST PUSH1 0x40 MLOAD DUP1 SWAP2 SUB SWAP1 LOG2 POP POP POP JUMP JUMPDEST PUSH1 0xE SLOAD DUP2 JUMP JUMPDEST PUSH0 PUSH0 PUSH0 DUP4 PUSH20 0xFFFFFFFFFFFFFFFFFFFFFFFFFFFFFFFFFFFFFFFF AND PUSH20 0xFFFFFFFFFFFFFFFFFFFFFFFFFFFFFFFFFFFFFFFF AND DUP2 MSTORE PUSH1 0x20 ADD SWAP1 DUP2 MSTORE PUSH1 0x20 ADD PUSH0 KECCAK256 SLOAD SWAP1 POP SWAP2 SWAP1 POP JUMP JUMPDEST PUSH2 0xD29 PUSH2 0x15D2 JUMP JUMPDEST PUSH2 0xD32 PUSH0 PUSH2 0x1659 JUMP JUMPDEST JUMP JUMPDEST PUSH0 DUP3 GT PUSH2 0xD76 JUMPI PUSH1 0x40 MLOAD PUSH32 0x8C379A000000000000000000000000000000000000000000000000000000000 DUP2 MSTORE PUSH1 0x4 ADD PUSH2 0xD6D SWAP1 PUSH2 0x2948 JUMP JUMPDEST PUSH1 0x40 MLOAD DUP1 SWAP2 SUB SWAP1 REVERT JUMPDEST PUSH2 0xD81 CALLER ADDRESS DUP5 PUSH2 0x1463 JUMP JUMPDEST PUSH0 PUSH1 0x6 PUSH0 CALLER PUSH20 0xFFFFFFFFFFFFFFFFFFFFFFFFFFFFFFFFFFFFFFFF AND PUSH20 0xFFFFFFFFFFFFFFFFFFFFFFFFFFFFFFFFFFFFFFFF AND DUP2 MSTORE PUSH1 0x20 ADD SWAP1 DUP2 MSTORE PUSH1 0x20 ADD PUSH0 KECCAK256 SWAP1 POP PUSH0 TIMESTAMP SWAP1 POP PUSH0 DUP3 PUSH0 ADD SLOAD GT ISZERO PUSH2 0xE0B JUMPI PUSH0 DUP3 PUSH1 0x2 ADD SLOAD DUP3 PUSH2 0xDE1 SWAP2 SWAP1 PUSH2 0x2443 JUMP JUMPDEST SWAP1 POP PUSH2 0xDF0 DUP4 PUSH0 ADD SLOAD DUP3 PUSH2 0x6FF JUMP JUMPDEST DUP4 PUSH1 0x1 ADD PUSH0 DUP3 DUP3 SLOAD PUSH2 0xE02 SWAP2 SWAP1 PUSH2 0x2505 JUMP JUMPDEST SWAP3 POP POP DUP2 SWAP1 SSTORE POP POP JUMPDEST DUP4 DUP3 PUSH0 ADD PUSH0 DUP3 DUP3 SLOAD PUSH2 0xE1D SWAP2 SWAP1 PUSH2 0x2505 JUMP JUMPDEST SWAP3 POP POP DUP2 SWAP1 SSTORE POP DUP1 DUP3 PUSH1 0x2 ADD DUP2 SWAP1 SSTORE POP PUSH0 PUSH20 0xFFFFFFFFFFFFFFFFFFFFFFFFFFFFFFFFFFFFFFFF AND DUP4 PUSH20 0xFFFFFFFFFFFFFFFFFFFFFFFFFFFFFFFFFFFFFFFF AND EQ ISZERO DUP1 ISZERO PUSH2 0xE95 JUMPI POP CALLER PUSH20 0xFFFFFFFFFFFFFFFFFFFFFFFFFFFFFFFFFFFFFFFF AND DUP4 PUSH20 0xFFFFFFFFFFFFFFFFFFFFFFFFFFFFFFFFFFFFFFFF AND EQ ISZERO JUMPDEST ISZERO PUSH2 0xF04 JUMPI PUSH0 PUSH1 0x64 PUSH1 0x5 DUP7 PUSH2 0xEAA SWAP2 SWAP1 PUSH2 0x233D JUMP JUMPDEST PUSH2 0xEB4 SWAP2 SWAP1 PUSH2 0x23AB JUMP JUMPDEST SWAP1 POP PUSH2 0xEC0 DUP5 DUP3 PUSH2 0x171C JUMP JUMPDEST DUP4 DUP4 PUSH1 0x3 ADD PUSH0 PUSH2 0x100 EXP DUP2 SLOAD DUP2 PUSH20 0xFFFFFFFFFFFFFFFFFFFFFFFFFFFFFFFFFFFFFFFF MUL NOT AND SWAP1 DUP4 PUSH20 0xFFFFFFFFFFFFFFFFFFFFFFFFFFFFFFFFFFFFFFFF AND MUL OR SWAP1 SSTORE POP POP JUMPDEST DUP4 PUSH1 0xA PUSH1 0x2 ADD PUSH0 DUP3 DUP3 SLOAD PUSH2 0xF18 SWAP2 SWAP1 PUSH2 0x2505 JUMP JUMPDEST SWAP3 POP POP DUP2 SWAP1 SSTORE POP DUP3 PUSH20 0xFFFFFFFFFFFFFFFFFFFFFFFFFFFFFFFFFFFFFFFF AND CALLER PUSH20 0xFFFFFFFFFFFFFFFFFFFFFFFFFFFFFFFFFFFFFFFF AND PUSH32 0x9F9E4044C5742CCA66CA090B21552BAC14645E68BAD7A92364A9D9FF18111A1C DUP7 PUSH1 0x40 MLOAD PUSH2 0xF7C SWAP2 SWAP1 PUSH2 0x1DDF JUMP JUMPDEST PUSH1 0x40 MLOAD DUP1 SWAP2 SUB SWAP1 LOG3 POP POP POP POP JUMP JUMPDEST PUSH0 PUSH1 0x5 PUSH0 SWAP1 SLOAD SWAP1 PUSH2 0x100 EXP SWAP1 DIV PUSH20 0xFFFFFFFFFFFFFFFFFFFFFFFFFFFFFFFFFFFFFFFF AND SWAP1 POP SWAP1 JUMP JUMPDEST PUSH1 0x60 PUSH1 0x4 DUP1 SLOAD PUSH2 0xFC1 SWAP1 PUSH2 0x22E0 JUMP JUMPDEST DUP1 PUSH1 0x1F ADD PUSH1 0x20 DUP1 SWAP2 DIV MUL PUSH1 0x20 ADD PUSH1 0x40 MLOAD SWAP1 DUP2 ADD PUSH1 0x40 MSTORE DUP1 SWAP3 SWAP2 SWAP1 DUP2 DUP2 MSTORE PUSH1 0x20 ADD DUP3 DUP1 SLOAD PUSH2 0xFED SWAP1 PUSH2 0x22E0 JUMP JUMPDEST DUP1 ISZERO PUSH2 0x1038 JUMPI DUP1 PUSH1 0x1F LT PUSH2 0x100F JUMPI PUSH2 0x100 DUP1 DUP4 SLOAD DIV MUL DUP4 MSTORE SWAP2 PUSH1 0x20 ADD SWAP2 PUSH2 0x1038 JUMP JUMPDEST DUP3 ADD SWAP2 SWAP1 PUSH0 MSTORE PUSH1 0x20 PUSH0 KECCAK256 SWAP1 JUMPDEST DUP2 SLOAD DUP2 MSTORE SWAP1 PUSH1 0x1 ADD SWAP1 PUSH1 0x20 ADD DUP1 DUP4 GT PUSH2 0x101B JUMPI DUP3 SWAP1 SUB PUSH1 0x1F AND DUP3 ADD SWAP2 JUMPDEST POP POP POP POP POP SWAP1 POP SWAP1 JUMP JUMPDEST PUSH0 PUSH0 PUSH2 0x104C PUSH2 0x13B8 JUMP JUMPDEST SWAP1 POP PUSH2 0x1059 DUP2 DUP6 DUP6 PUSH2 0x1463 JUMP JUMPDEST PUSH1 0x1 SWAP2 POP POP SWAP3 SWAP2 POP POP JUMP JUMPDEST PUSH1 0x60 PUSH1 0x8 PUSH0 ADD DUP1 SLOAD DUP1 PUSH1 0x20 MUL PUSH1 0x20 ADD PUSH1 0x40 MLOAD SWAP1 DUP2 ADD PUSH1 0x40 MSTORE DUP1 SWAP3 SWAP2 SWAP1 DUP2 DUP2 MSTORE PUSH1 0x20 ADD DUP3 DUP1 SLOAD DUP1 ISZERO PUSH2 0x10E7 JUMPI PUSH1 0x20 MUL DUP3 ADD SWAP2 SWAP1 PUSH0 MSTORE PUSH1 0x20 PUSH0 KECCAK256 SWAP1 JUMPDEST DUP2 PUSH0 SWAP1 SLOAD SWAP1 PUSH2 0x100 EXP SWAP1 DIV PUSH20 0xFFFFFFFFFFFFFFFFFFFFFFFFFFFFFFFFFFFFFFFF AND PUSH20 0xFFFFFFFFFFFFFFFFFFFFFFFFFFFFFFFFFFFFFFFF AND DUP2 MSTORE PUSH1 0x20 ADD SWAP1 PUSH1 0x1 ADD SWAP1 DUP1 DUP4 GT PUSH2 0x109E JUMPI JUMPDEST POP POP POP POP POP SWAP1 POP SWAP1 JUMP JUMPDEST PUSH1 0x8 DUP1 PUSH1 0x1 ADD SLOAD SWAP1 POP DUP2 JUMP JUMPDEST PUSH0 PUSH1 0x7 PUSH0 DUP5 DUP2 MSTORE PUSH1 0x20 ADD SWAP1 DUP2 MSTORE PUSH1 0x20 ADD PUSH0 KECCAK256 SWAP1 POP PUSH0 DUP2 PUSH0 ADD DUP1 SLOAD PUSH2 0x1120 SWAP1 PUSH2 0x22E0 JUMP JUMPDEST SWAP1 POP GT PUSH2 0x1162 JUMPI PUSH1 0x40 MLOAD PUSH32 0x8C379A000000000000000000000000000000000000000000000000000000000 DUP2 MSTORE PUSH1 0x4 ADD PUSH2 0x1159 SWAP1 PUSH2 0x29B0 JUMP JUMPDEST PUSH1 0x40 MLOAD DUP1 SWAP2 SUB SWAP1 REVERT JUMPDEST PUSH0 PUSH1 0x6 PUSH0 CALLER PUSH20 0xFFFFFFFFFFFFFFFFFFFFFFFFFFFFFFFFFFFFFFFF AND PUSH20 0xFFFFFFFFFFFFFFFFFFFFFFFFFFFFFFFFFFFFFFFF AND DUP2 MSTORE PUSH1 0x20 ADD SWAP1 DUP2 MSTORE PUSH1 0x20 ADD PUSH0 KECCAK256 PUSH0 ADD SLOAD SWAP1 POP PUSH0 DUP2 GT PUSH2 0x11E7 JUMPI PUSH1 0x40 MLOAD PUSH32 0x8C379A000000000000000000000000000000000000000000000000000000000 DUP2 MSTORE PUSH1 0x4 ADD PUSH2 0x11DE SWAP1 PUSH2 0x2A18 JUMP JUMPDEST PUSH1 0x40 MLOAD DUP1 SWAP2 SUB SWAP1 REVERT JUMPDEST DUP3 ISZERO PUSH2 0x120C JUMPI DUP1 DUP3 PUSH1 0x1 ADD PUSH0 DUP3 DUP3 SLOAD PUSH2 0x1200 SWAP2 SWAP1 PUSH2 0x2505 JUMP JUMPDEST SWAP3 POP POP DUP2 SWAP1 SSTORE POP PUSH2 0x1227 JUMP JUMPDEST DUP1 DUP3 PUSH1 0x2 ADD PUSH0 DUP3 DUP3 SLOAD PUSH2 0x121F SWAP2 SWAP1 PUSH2 0x2505 JUMP JUMPDEST SWAP3 POP POP DUP2 SWAP1 SSTORE POP JUMPDEST DUP2 PUSH1 0x2 ADD SLOAD DUP3 PUSH1 0x1 ADD SLOAD GT DUP3 PUSH1 0x3 ADD PUSH0 PUSH2 0x100 EXP DUP2 SLOAD DUP2 PUSH1 0xFF MUL NOT AND SWAP1 DUP4 ISZERO ISZERO MUL OR SWAP1 SSTORE POP CALLER PUSH20 0xFFFFFFFFFFFFFFFFFFFFFFFFFFFFFFFFFFFFFFFF AND DUP5 PUSH32 0xF2913DBE661EE2ACC4A046D8FBCDC792373BDA34C41C6086484B5345E5785E5F DUP6 PUSH1 0x40 MLOAD PUSH2 0x1293 SWAP2 SWAP1 PUSH2 0x1DC6 JUMP JUMPDEST PUSH1 0x40 MLOAD DUP1 SWAP2 SUB SWAP1 LOG3 POP POP POP POP JUMP JUMPDEST PUSH0 PUSH1 0x8 PUSH1 0x1 ADD SLOAD SWAP1 POP SWAP1 JUMP JUMPDEST PUSH0 PUSH1 0x1 PUSH0 DUP5 PUSH20 0xFFFFFFFFFFFFFFFFFFFFFFFFFFFFFFFFFFFFFFFF AND PUSH20 0xFFFFFFFFFFFFFFFFFFFFFFFFFFFFFFFFFFFFFFFF AND DUP2 MSTORE PUSH1 0x20 ADD SWAP1 DUP2 MSTORE PUSH1 0x20 ADD PUSH0 KECCAK256 PUSH0 DUP4 PUSH20 0xFFFFFFFFFFFFFFFFFFFFFFFFFFFFFFFFFFFFFFFF AND PUSH20 0xFFFFFFFFFFFFFFFFFFFFFFFFFFFFFFFFFFFFFFFF AND DUP2 MSTORE PUSH1 0x20 ADD SWAP1 DUP2 MSTORE PUSH1 0x20 ADD PUSH0 KECCAK256 SLOAD SWAP1 POP SWAP3 SWAP2 POP POP JUMP JUMPDEST PUSH1 0x5 DUP2 JUMP JUMPDEST PUSH2 0x133C PUSH2 0x15D2 JUMP JUMPDEST PUSH0 PUSH20 0xFFFFFFFFFFFFFFFFFFFFFFFFFFFFFFFFFFFFFFFF AND DUP2 PUSH20 0xFFFFFFFFFFFFFFFFFFFFFFFFFFFFFFFFFFFFFFFF AND SUB PUSH2 0x13AC JUMPI PUSH0 PUSH1 0x40 MLOAD PUSH32 0x1E4FBDF700000000000000000000000000000000000000000000000000000000 DUP2 MSTORE PUSH1 0x4 ADD PUSH2 0x13A3 SWAP2 SWAP1 PUSH2 0x211D JUMP JUMPDEST PUSH1 0x40 MLOAD DUP1 SWAP2 SUB SWAP1 REVERT JUMPDEST PUSH2 0x13B5 DUP2 PUSH2 0x1659 JUMP JUMPDEST POP JUMP JUMPDEST PUSH0 CALLER SWAP1 POP SWAP1 JUMP JUMPDEST PUSH2 0x13CC DUP4 DUP4 DUP4 PUSH1 0x1 PUSH2 0x179B JUMP JUMPDEST POP POP POP JUMP JUMPDEST PUSH0 PUSH2 0x13DC DUP5 DUP5 PUSH2 0x12AD JUMP JUMPDEST SWAP1 POP PUSH32 0xFFFFFFFFFFFFFFFFFFFFFFFFFFFFFFFFFFFFFFFFFFFFFFFFFFFFFFFFFFFFFFFF DUP2 EQ PUSH2 0x145D JUMPI DUP2 DUP2 LT ISZERO PUSH2 0x144E JUMPI DUP3 DUP2 DUP4 PUSH1 0x40 MLOAD PUSH32 0xFB8F41B200000000000000000000000000000000000000000000000000000000 DUP2 MSTORE PUSH1 0x4 ADD PUSH2 0x1445 SWAP4 SWAP3 SWAP2 SWAP1 PUSH2 0x2A36 JUMP JUMPDEST PUSH1 0x40 MLOAD DUP1 SWAP2 SUB SWAP1 REVERT JUMPDEST PUSH2 0x145C DUP5 DUP5 DUP5 DUP5 SUB PUSH0 PUSH2 0x179B JUMP JUMPDEST JUMPDEST POP POP POP POP JUMP JUMPDEST PUSH0 PUSH20 0xFFFFFFFFFFFFFFFFFFFFFFFFFFFFFFFFFFFFFFFF AND DUP4 PUSH20 0xFFFFFFFFFFFFFFFFFFFFFFFFFFFFFFFFFFFFFFFF AND SUB PUSH2 0x14D3 JUMPI PUSH0 PUSH1 0x40 MLOAD PUSH32 0x96C6FD1E00000000000000000000000000000000000000000000000000000000 DUP2 MSTORE PUSH1 0x4 ADD PUSH2 0x14CA SWAP2 SWAP1 PUSH2 0x211D JUMP JUMPDEST PUSH1 0x40 MLOAD DUP1 SWAP2 SUB SWAP1 REVERT JUMPDEST PUSH0 PUSH20 0xFFFFFFFFFFFFFFFFFFFFFFFFFFFFFFFFFFFFFFFF AND DUP3 PUSH20 0xFFFFFFFFFFFFFFFFFFFFFFFFFFFFFFFFFFFFFFFF AND SUB PUSH2 0x1543 JUMPI PUSH0 PUSH1 0x40 MLOAD PUSH32 0xEC442F0500000000000000000000000000000000000000000000000000000000 DUP2 MSTORE PUSH1 0x4 ADD PUSH2 0x153A SWAP2 SWAP1 PUSH2 0x211D JUMP JUMPDEST PUSH1 0x40 MLOAD DUP1 SWAP2 SUB SWAP1 REVERT JUMPDEST PUSH2 0x154E DUP4 DUP4 DUP4 PUSH2 0x196A JUMP JUMPDEST POP POP POP JUMP JUMPDEST PUSH0 PUSH20 0xFFFFFFFFFFFFFFFFFFFFFFFFFFFFFFFFFFFFFFFF AND DUP3 PUSH20 0xFFFFFFFFFFFFFFFFFFFFFFFFFFFFFFFFFFFFFFFF AND SUB PUSH2 0x15C3 JUMPI PUSH0 PUSH1 0x40 MLOAD PUSH32 0x96C6FD1E00000000000000000000000000000000000000000000000000000000 DUP2 MSTORE PUSH1 0x4 ADD PUSH2 0x15BA SWAP2 SWAP1 PUSH2 0x211D JUMP JUMPDEST PUSH1 0x40 MLOAD DUP1 SWAP2 SUB SWAP1 REVERT JUMPDEST PUSH2 0x15CE DUP3 PUSH0 DUP4 PUSH2 0x196A JUMP JUMPDEST POP POP JUMP JUMPDEST PUSH2 0x15DA PUSH2 0x13B8 JUMP JUMPDEST PUSH20 0xFFFFFFFFFFFFFFFFFFFFFFFFFFFFFFFFFFFFFFFF AND PUSH2 0x15F8 PUSH2 0xF8A JUMP JUMPDEST PUSH20 0xFFFFFFFFFFFFFFFFFFFFFFFFFFFFFFFFFFFFFFFF AND EQ PUSH2 0x1657 JUMPI PUSH2 0x161B PUSH2 0x13B8 JUMP JUMPDEST PUSH1 0x40 MLOAD PUSH32 0x118CDAA700000000000000000000000000000000000000000000000000000000 DUP2 MSTORE PUSH1 0x4 ADD PUSH2 0x164E SWAP2 SWAP1 PUSH2 0x211D JUMP JUMPDEST PUSH1 0x40 MLOAD DUP1 SWAP2 SUB SWAP1 REVERT JUMPDEST JUMP JUMPDEST PUSH0 PUSH1 0x5 PUSH0 SWAP1 SLOAD SWAP1 PUSH2 0x100 EXP SWAP1 DIV PUSH20 0xFFFFFFFFFFFFFFFFFFFFFFFFFFFFFFFFFFFFFFFF AND SWAP1 POP DUP2 PUSH1 0x5 PUSH0 PUSH2 0x100 EXP DUP2 SLOAD DUP2 PUSH20 0xFFFFFFFFFFFFFFFFFFFFFFFFFFFFFFFFFFFFFFFF MUL NOT AND SWAP1 DUP4 PUSH20 0xFFFFFFFFFFFFFFFFFFFFFFFFFFFFFFFFFFFFFFFF AND MUL OR SWAP1 SSTORE POP DUP2 PUSH20 0xFFFFFFFFFFFFFFFFFFFFFFFFFFFFFFFFFFFFFFFF AND DUP2 PUSH20 0xFFFFFFFFFFFFFFFFFFFFFFFFFFFFFFFFFFFFFFFF AND PUSH32 0x8BE0079C531659141344CD1FD0A4F28419497F9722A3DAAFE3B4186F6B6457E0 PUSH1 0x40 MLOAD PUSH1 0x40 MLOAD DUP1 SWAP2 SUB SWAP1 LOG3 POP POP JUMP JUMPDEST PUSH0 PUSH20 0xFFFFFFFFFFFFFFFFFFFFFFFFFFFFFFFFFFFFFFFF AND DUP3 PUSH20 0xFFFFFFFFFFFFFFFFFFFFFFFFFFFFFFFFFFFFFFFF AND SUB PUSH2 0x178C JUMPI PUSH0 PUSH1 0x40 MLOAD PUSH32 0xEC442F0500000000000000000000000000000000000000000000000000000000 DUP2 MSTORE PUSH1 0x4 ADD PUSH2 0x1783 SWAP2 SWAP1 PUSH2 0x211D JUMP JUMPDEST PUSH1 0x40 MLOAD DUP1 SWAP2 SUB SWAP1 REVERT JUMPDEST PUSH2 0x1797 PUSH0 DUP4 DUP4 PUSH2 0x196A JUMP JUMPDEST POP POP JUMP JUMPDEST PUSH0 PUSH20 0xFFFFFFFFFFFFFFFFFFFFFFFFFFFFFFFFFFFFFFFF AND DUP5 PUSH20 0xFFFFFFFFFFFFFFFFFFFFFFFFFFFFFFFFFFFFFFFF AND SUB PUSH2 0x180B JUMPI PUSH0 PUSH1 0x40 MLOAD PUSH32 0xE602DF0500000000000000000000000000000000000000000000000000000000 DUP2 MSTORE PUSH1 0x4 ADD PUSH2 0x1802 SWAP2 SWAP1 PUSH2 0x211D JUMP JUMPDEST PUSH1 0x40 MLOAD DUP1 SWAP2 SUB SWAP1 REVERT JUMPDEST PUSH0 PUSH20 0xFFFFFFFFFFFFFFFFFFFFFFFFFFFFFFFFFFFFFFFF AND DUP4 PUSH20 0xFFFFFFFFFFFFFFFFFFFFFFFFFFFFFFFFFFFFFFFF AND SUB PUSH2 0x187B JUMPI PUSH0 PUSH1 0x40 MLOAD PUSH32 0x94280D6200000000000000000000000000000000000000000000000000000000 DUP2 MSTORE PUSH1 0x4 ADD PUSH2 0x1872 SWAP2 SWAP1 PUSH2 0x211D JUMP JUMPDEST PUSH1 0x40 MLOAD DUP1 SWAP2 SUB SWAP1 REVERT JUMPDEST DUP2 PUSH1 0x1 PUSH0 DUP7 PUSH20 0xFFFFFFFFFFFFFFFFFFFFFFFFFFFFFFFFFFFFFFFF AND PUSH20 0xFFFFFFFFFFFFFFFFFFFFFFFFFFFFFFFFFFFFFFFF AND DUP2 MSTORE PUSH1 0x20 ADD SWAP1 DUP2 MSTORE PUSH1 0x20 ADD PUSH0 KECCAK256 PUSH0 DUP6 PUSH20 0xFFFFFFFFFFFFFFFFFFFFFFFFFFFFFFFFFFFFFFFF AND PUSH20 0xFFFFFFFFFFFFFFFFFFFFFFFFFFFFFFFFFFFFFFFF AND DUP2 MSTORE PUSH1 0x20 ADD SWAP1 DUP2 MSTORE PUSH1 0x20 ADD PUSH0 KECCAK256 DUP2 SWAP1 SSTORE POP DUP1 ISZERO PUSH2 0x1964 JUMPI DUP3 PUSH20 0xFFFFFFFFFFFFFFFFFFFFFFFFFFFFFFFFFFFFFFFF AND DUP5 PUSH20 0xFFFFFFFFFFFFFFFFFFFFFFFFFFFFFFFFFFFFFFFF AND PUSH32 0x8C5BE1E5EBEC7D5BD14F71427D1E84F3DD0314C0F7B2291E5B200AC8C7C3B925 DUP5 PUSH1 0x40 MLOAD PUSH2 0x195B SWAP2 SWAP1 PUSH2 0x1DDF JUMP JUMPDEST PUSH1 0x40 MLOAD DUP1 SWAP2 SUB SWAP1 LOG3 JUMPDEST POP POP POP POP JUMP JUMPDEST PUSH0 PUSH20 0xFFFFFFFFFFFFFFFFFFFFFFFFFFFFFFFFFFFFFFFF AND DUP4 PUSH20 0xFFFFFFFFFFFFFFFFFFFFFFFFFFFFFFFFFFFFFFFF AND SUB PUSH2 0x19BA JUMPI DUP1 PUSH1 0x2 PUSH0 DUP3 DUP3 SLOAD PUSH2 0x19AE SWAP2 SWAP1 PUSH2 0x2505 JUMP JUMPDEST SWAP3 POP POP DUP2 SWAP1 SSTORE POP PUSH2 0x1A88 JUMP JUMPDEST PUSH0 PUSH0 PUSH0 DUP6 PUSH20 0xFFFFFFFFFFFFFFFFFFFFFFFFFFFFFFFFFFFFFFFF AND PUSH20 0xFFFFFFFFFFFFFFFFFFFFFFFFFFFFFFFFFFFFFFFF AND DUP2 MSTORE PUSH1 0x20 ADD SWAP1 DUP2 MSTORE PUSH1 0x20 ADD PUSH0 KECCAK256 SLOAD SWAP1 POP DUP2 DUP2 LT ISZERO PUSH2 0x1A43 JUMPI DUP4 DUP2 DUP4 PUSH1 0x40 MLOAD PUSH32 0xE450D38C00000000000000000000000000000000000000000000000000000000 DUP2 MSTORE PUSH1 0x4 ADD PUSH2 0x1A3A SWAP4 SWAP3 SWAP2 SWAP1 PUSH2 0x2A36 JUMP JUMPDEST PUSH1 0x40 MLOAD DUP1 SWAP2 SUB SWAP1 REVERT JUMPDEST DUP2 DUP2 SUB PUSH0 PUSH0 DUP7 PUSH20 0xFFFFFFFFFFFFFFFFFFFFFFFFFFFFFFFFFFFFFFFF AND PUSH20 0xFFFFFFFFFFFFFFFFFFFFFFFFFFFFFFFFFFFFFFFF AND DUP2 MSTORE PUSH1 0x20 ADD SWAP1 DUP2 MSTORE PUSH1 0x20 ADD PUSH0 KECCAK256 DUP2 SWAP1 SSTORE POP POP JUMPDEST PUSH0 PUSH20 0xFFFFFFFFFFFFFFFFFFFFFFFFFFFFFFFFFFFFFFFF AND DUP3 PUSH20 0xFFFFFFFFFFFFFFFFFFFFFFFFFFFFFFFFFFFFFFFF AND SUB PUSH2 0x1ACF JUMPI DUP1 PUSH1 0x2 PUSH0 DUP3 DUP3 SLOAD SUB SWAP3 POP POP DUP2 SWAP1 SSTORE POP PUSH2 0x1B19 JUMP JUMPDEST DUP1 PUSH0 PUSH0 DUP5 PUSH20 0xFFFFFFFFFFFFFFFFFFFFFFFFFFFFFFFFFFFFFFFF AND PUSH20 0xFFFFFFFFFFFFFFFFFFFFFFFFFFFFFFFFFFFFFFFF AND DUP2 MSTORE PUSH1 0x20 ADD SWAP1 DUP2 MSTORE PUSH1 0x20 ADD PUSH0 KECCAK256 PUSH0 DUP3 DUP3 SLOAD ADD SWAP3 POP POP DUP2 SWAP1 SSTORE POP JUMPDEST DUP2 PUSH20 0xFFFFFFFFFFFFFFFFFFFFFFFFFFFFFFFFFFFFFFFF AND DUP4 PUSH20 0xFFFFFFFFFFFFFFFFFFFFFFFFFFFFFFFFFFFFFFFF AND PUSH32 0xDDF252AD1BE2C89B69C2B068FC378DAA952BA7F163C4A11628F55A4DF523B3EF DUP4 PUSH1 0x40 MLOAD PUSH2 0x1B76 SWAP2 SWAP1 PUSH2 0x1DDF JUMP JUMPDEST PUSH1 0x40 MLOAD DUP1 SWAP2 SUB SWAP1 LOG3 POP POP POP JUMP JUMPDEST POP DUP1 SLOAD PUSH0 DUP3 SSTORE SWAP1 PUSH0 MSTORE PUSH1 0x20 PUSH0 KECCAK256 SWAP1 DUP2 ADD SWAP1 PUSH2 0x1B9E SWAP2 SWAP1 PUSH2 0x1BA1 JUMP JUMPDEST POP JUMP JUMPDEST JUMPDEST DUP1 DUP3 GT ISZERO PUSH2 0x1BB8 JUMPI PUSH0 DUP2 PUSH0 SWAP1 SSTORE POP PUSH1 0x1 ADD PUSH2 0x1BA2 JUMP JUMPDEST POP SWAP1 JUMP JUMPDEST PUSH0 PUSH1 0x40 MLOAD SWAP1 POP SWAP1 JUMP JUMPDEST PUSH0 PUSH0 REVERT JUMPDEST PUSH0 PUSH0 REVERT JUMPDEST PUSH0 DUP2 SWAP1 POP SWAP2 SWAP1 POP JUMP JUMPDEST PUSH2 0x1BDF DUP2 PUSH2 0x1BCD JUMP JUMPDEST DUP2 EQ PUSH2 0x1BE9 JUMPI PUSH0 PUSH0 REVERT JUMPDEST POP JUMP JUMPDEST PUSH0 DUP2 CALLDATALOAD SWAP1 POP PUSH2 0x1BFA DUP2 PUSH2 0x1BD6 JUMP JUMPDEST SWAP3 SWAP2 POP POP JUMP JUMPDEST PUSH0 PUSH1 0x20 DUP3 DUP5 SUB SLT ISZERO PUSH2 0x1C15 JUMPI PUSH2 0x1C14 PUSH2 0x1BC5 JUMP JUMPDEST JUMPDEST PUSH0 PUSH2 0x1C22 DUP5 DUP3 DUP6 ADD PUSH2 0x1BEC JUMP JUMPDEST SWAP2 POP POP SWAP3 SWAP2 POP POP JUMP JUMPDEST PUSH0 DUP2 MLOAD SWAP1 POP SWAP2 SWAP1 POP JUMP JUMPDEST PUSH0 DUP3 DUP3 MSTORE PUSH1 0x20 DUP3 ADD SWAP1 POP SWAP3 SWAP2 POP POP JUMP JUMPDEST DUP3 DUP2 DUP4 MCOPY PUSH0 DUP4 DUP4 ADD MSTORE POP POP POP JUMP JUMPDEST PUSH0 PUSH1 0x1F NOT PUSH1 0x1F DUP4 ADD AND SWAP1 POP SWAP2 SWAP1 POP JUMP JUMPDEST PUSH0 PUSH2 0x1C6D DUP3 PUSH2 0x1C2B JUMP JUMPDEST PUSH2 0x1C77 DUP2 DUP6 PUSH2 0x1C35 JUMP JUMPDEST SWAP4 POP PUSH2 0x1C87 DUP2 DUP6 PUSH1 0x20 DUP7 ADD PUSH2 0x1C45 JUMP JUMPDEST PUSH2 0x1C90 DUP2 PUSH2 0x1C53 JUMP JUMPDEST DUP5 ADD SWAP2 POP POP SWAP3 SWAP2 POP POP JUMP JUMPDEST PUSH2 0x1CA4 DUP2 PUSH2 0x1BCD JUMP JUMPDEST DUP3 MSTORE POP POP JUMP JUMPDEST PUSH0 DUP2 ISZERO ISZERO SWAP1 POP SWAP2 SWAP1 POP JUMP JUMPDEST PUSH2 0x1CBE DUP2 PUSH2 0x1CAA JUMP JUMPDEST DUP3 MSTORE POP POP JUMP JUMPDEST PUSH0 PUSH1 0x80 DUP3 ADD SWAP1 POP DUP2 DUP2 SUB PUSH0 DUP4 ADD MSTORE PUSH2 0x1CDC DUP2 DUP8 PUSH2 0x1C63 JUMP JUMPDEST SWAP1 POP PUSH2 0x1CEB PUSH1 0x20 DUP4 ADD DUP7 PUSH2 0x1C9B JUMP JUMPDEST PUSH2 0x1CF8 PUSH1 0x40 DUP4 ADD DUP6 PUSH2 0x1C9B JUMP JUMPDEST PUSH2 0x1D05 PUSH1 0x60 DUP4 ADD DUP5 PUSH2 0x1CB5 JUMP JUMPDEST SWAP6 SWAP5 POP POP POP POP POP JUMP JUMPDEST PUSH0 PUSH1 0x20 DUP3 ADD SWAP1 POP DUP2 DUP2 SUB PUSH0 DUP4 ADD MSTORE PUSH2 0x1D26 DUP2 DUP5 PUSH2 0x1C63 JUMP JUMPDEST SWAP1 POP SWAP3 SWAP2 POP POP JUMP JUMPDEST PUSH0 PUSH20 0xFFFFFFFFFFFFFFFFFFFFFFFFFFFFFFFFFFFFFFFF DUP3 AND SWAP1 POP SWAP2 SWAP1 POP JUMP JUMPDEST PUSH0 PUSH2 0x1D57 DUP3 PUSH2 0x1D2E JUMP JUMPDEST SWAP1 POP SWAP2 SWAP1 POP JUMP JUMPDEST PUSH2 0x1D67 DUP2 PUSH2 0x1D4D JUMP JUMPDEST DUP2 EQ PUSH2 0x1D71 JUMPI PUSH0 PUSH0 REVERT JUMPDEST POP JUMP JUMPDEST PUSH0 DUP2 CALLDATALOAD SWAP1 POP PUSH2 0x1D82 DUP2 PUSH2 0x1D5E JUMP JUMPDEST SWAP3 SWAP2 POP POP JUMP JUMPDEST PUSH0 PUSH0 PUSH1 0x40 DUP4 DUP6 SUB SLT ISZERO PUSH2 0x1D9E JUMPI PUSH2 0x1D9D PUSH2 0x1BC5 JUMP JUMPDEST JUMPDEST PUSH0 PUSH2 0x1DAB DUP6 DUP3 DUP7 ADD PUSH2 0x1D74 JUMP JUMPDEST SWAP3 POP POP PUSH1 0x20 PUSH2 0x1DBC DUP6 DUP3 DUP7 ADD PUSH2 0x1BEC JUMP JUMPDEST SWAP2 POP POP SWAP3 POP SWAP3 SWAP1 POP JUMP JUMPDEST PUSH0 PUSH1 0x20 DUP3 ADD SWAP1 POP PUSH2 0x1DD9 PUSH0 DUP4 ADD DUP5 PUSH2 0x1CB5 JUMP JUMPDEST SWAP3 SWAP2 POP POP JUMP JUMPDEST PUSH0 PUSH1 0x20 DUP3 ADD SWAP1 POP PUSH2 0x1DF2 PUSH0 DUP4 ADD DUP5 PUSH2 0x1C9B JUMP JUMPDEST SWAP3 SWAP2 POP POP JUMP JUMPDEST PUSH0 PUSH1 0x60 DUP3 ADD SWAP1 POP PUSH2 0x1E0B PUSH0 DUP4 ADD DUP7 PUSH2 0x1C9B JUMP JUMPDEST PUSH2 0x1E18 PUSH1 0x20 DUP4 ADD DUP6 PUSH2 0x1C9B JUMP JUMPDEST PUSH2 0x1E25 PUSH1 0x40 DUP4 ADD DUP5 PUSH2 0x1C9B JUMP JUMPDEST SWAP5 SWAP4 POP POP POP POP JUMP JUMPDEST PUSH0 PUSH0 PUSH1 0x40 DUP4 DUP6 SUB SLT ISZERO PUSH2 0x1E43 JUMPI PUSH2 0x1E42 PUSH2 0x1BC5 JUMP JUMPDEST JUMPDEST PUSH0 PUSH2 0x1E50 DUP6 DUP3 DUP7 ADD PUSH2 0x1BEC JUMP JUMPDEST SWAP3 POP POP PUSH1 0x20 PUSH2 0x1E61 DUP6 DUP3 DUP7 ADD PUSH2 0x1BEC JUMP JUMPDEST SWAP2 POP POP SWAP3 POP SWAP3 SWAP1 POP JUMP JUMPDEST PUSH0 PUSH1 0x20 DUP3 DUP5 SUB SLT ISZERO PUSH2 0x1E80 JUMPI PUSH2 0x1E7F PUSH2 0x1BC5 JUMP JUMPDEST JUMPDEST PUSH0 PUSH2 0x1E8D DUP5 DUP3 DUP6 ADD PUSH2 0x1D74 JUMP JUMPDEST SWAP2 POP POP SWAP3 SWAP2 POP POP JUMP JUMPDEST PUSH2 0x1E9F DUP2 PUSH2 0x1D4D JUMP JUMPDEST DUP3 MSTORE POP POP JUMP JUMPDEST PUSH0 PUSH1 0x80 DUP3 ADD SWAP1 POP PUSH2 0x1EB8 PUSH0 DUP4 ADD DUP8 PUSH2 0x1C9B JUMP JUMPDEST PUSH2 0x1EC5 PUSH1 0x20 DUP4 ADD DUP7 PUSH2 0x1C9B JUMP JUMPDEST PUSH2 0x1ED2 PUSH1 0x40 DUP4 ADD DUP6 PUSH2 0x1C9B JUMP JUMPDEST PUSH2 0x1EDF PUSH1 0x60 DUP4 ADD DUP5 PUSH2 0x1E96 JUMP JUMPDEST SWAP6 SWAP5 POP POP POP POP POP JUMP JUMPDEST PUSH0 PUSH0 PUSH0 PUSH1 0x60 DUP5 DUP7 SUB SLT ISZERO PUSH2 0x1EFF JUMPI PUSH2 0x1EFE PUSH2 0x1BC5 JUMP JUMPDEST JUMPDEST PUSH0 PUSH2 0x1F0C DUP7 DUP3 DUP8 ADD PUSH2 0x1D74 JUMP JUMPDEST SWAP4 POP POP PUSH1 0x20 PUSH2 0x1F1D DUP7 DUP3 DUP8 ADD PUSH2 0x1D74 JUMP JUMPDEST SWAP3 POP POP PUSH1 0x40 PUSH2 0x1F2E DUP7 DUP3 DUP8 ADD PUSH2 0x1BEC JUMP JUMPDEST SWAP2 POP POP SWAP3 POP SWAP3 POP SWAP3 JUMP JUMPDEST PUSH0 PUSH1 0xFF DUP3 AND SWAP1 POP SWAP2 SWAP1 POP JUMP JUMPDEST PUSH2 0x1F4D DUP2 PUSH2 0x1F38 JUMP JUMPDEST DUP3 MSTORE POP POP JUMP JUMPDEST PUSH0 PUSH1 0x20 DUP3 ADD SWAP1 POP PUSH2 0x1F66 PUSH0 DUP4 ADD DUP5 PUSH2 0x1F44 JUMP JUMPDEST SWAP3 SWAP2 POP POP JUMP JUMPDEST PUSH0 PUSH0 REVERT JUMPDEST PUSH0 PUSH0 REVERT JUMPDEST PUSH32 0x4E487B7100000000000000000000000000000000000000000000000000000000 PUSH0 MSTORE PUSH1 0x41 PUSH1 0x4 MSTORE PUSH1 0x24 PUSH0 REVERT JUMPDEST PUSH2 0x1FAA DUP3 PUSH2 0x1C53 JUMP JUMPDEST DUP2 ADD DUP2 DUP2 LT PUSH8 0xFFFFFFFFFFFFFFFF DUP3 GT OR ISZERO PUSH2 0x1FC9 JUMPI PUSH2 0x1FC8 PUSH2 0x1F74 JUMP JUMPDEST JUMPDEST DUP1 PUSH1 0x40 MSTORE POP POP POP JUMP JUMPDEST PUSH0 PUSH2 0x1FDB PUSH2 0x1BBC JUMP JUMPDEST SWAP1 POP PUSH2 0x1FE7 DUP3 DUP3 PUSH2 0x1FA1 JUMP JUMPDEST SWAP2 SWAP1 POP JUMP JUMPDEST PUSH0 PUSH8 0xFFFFFFFFFFFFFFFF DUP3 GT ISZERO PUSH2 0x2006 JUMPI PUSH2 0x2005 PUSH2 0x1F74 JUMP JUMPDEST JUMPDEST PUSH2 0x200F DUP3 PUSH2 0x1C53 JUMP JUMPDEST SWAP1 POP PUSH1 0x20 DUP2 ADD SWAP1 POP SWAP2 SWAP1 POP JUMP JUMPDEST DUP3 DUP2 DUP4 CALLDATACOPY PUSH0 DUP4 DUP4 ADD MSTORE POP POP POP JUMP JUMPDEST PUSH0 PUSH2 0x203C PUSH2 0x2037 DUP5 PUSH2 0x1FEC JUMP JUMPDEST PUSH2 0x1FD2 JUMP JUMPDEST SWAP1 POP DUP3 DUP2 MSTORE PUSH1 0x20 DUP2 ADD DUP5 DUP5 DUP5 ADD GT ISZERO PUSH2 0x2058 JUMPI PUSH2 0x2057 PUSH2 0x1F70 JUMP JUMPDEST JUMPDEST PUSH2 0x2063 DUP5 DUP3 DUP6 PUSH2 0x201C JUMP JUMPDEST POP SWAP4 SWAP3 POP POP POP JUMP JUMPDEST PUSH0 DUP3 PUSH1 0x1F DUP4 ADD SLT PUSH2 0x207F JUMPI PUSH2 0x207E PUSH2 0x1F6C JUMP JUMPDEST JUMPDEST DUP2 CALLDATALOAD PUSH2 0x208F DUP5 DUP3 PUSH1 0x20 DUP7 ADD PUSH2 0x202A JUMP JUMPDEST SWAP2 POP POP SWAP3 SWAP2 POP POP JUMP JUMPDEST PUSH0 PUSH1 0x20 DUP3 DUP5 SUB SLT ISZERO PUSH2 0x20AD JUMPI PUSH2 0x20AC PUSH2 0x1BC5 JUMP JUMPDEST JUMPDEST PUSH0 DUP3 ADD CALLDATALOAD PUSH8 0xFFFFFFFFFFFFFFFF DUP2 GT ISZERO PUSH2 0x20CA JUMPI PUSH2 0x20C9 PUSH2 0x1BC9 JUMP JUMPDEST JUMPDEST PUSH2 0x20D6 DUP5 DUP3 DUP6 ADD PUSH2 0x206B JUMP JUMPDEST SWAP2 POP POP SWAP3 SWAP2 POP POP JUMP JUMPDEST PUSH0 PUSH0 PUSH1 0x40 DUP4 DUP6 SUB SLT ISZERO PUSH2 0x20F5 JUMPI PUSH2 0x20F4 PUSH2 0x1BC5 JUMP JUMPDEST JUMPDEST PUSH0 PUSH2 0x2102 DUP6 DUP3 DUP7 ADD PUSH2 0x1BEC JUMP JUMPDEST SWAP3 POP POP PUSH1 0x20 PUSH2 0x2113 DUP6 DUP3 DUP7 ADD PUSH2 0x1D74 JUMP JUMPDEST SWAP2 POP POP SWAP3 POP SWAP3 SWAP1 POP JUMP JUMPDEST PUSH0 PUSH1 0x20 DUP3 ADD SWAP1 POP PUSH2 0x2130 PUSH0 DUP4 ADD DUP5 PUSH2 0x1E96 JUMP JUMPDEST SWAP3 SWAP2 POP POP JUMP JUMPDEST PUSH0 DUP2 MLOAD SWAP1 POP SWAP2 SWAP1 POP JUMP JUMPDEST PUSH0 DUP3 DUP3 MSTORE PUSH1 0x20 DUP3 ADD SWAP1 POP SWAP3 SWAP2 POP POP JUMP JUMPDEST PUSH0 DUP2 SWAP1 POP PUSH1 0x20 DUP3 ADD SWAP1 POP SWAP2 SWAP1 POP JUMP JUMPDEST PUSH2 0x2168 DUP2 PUSH2 0x1D4D JUMP JUMPDEST DUP3 MSTORE POP POP JUMP JUMPDEST PUSH0 PUSH2 0x2179 DUP4 DUP4 PUSH2 0x215F JUMP JUMPDEST PUSH1 0x20 DUP4 ADD SWAP1 POP SWAP3 SWAP2 POP POP JUMP JUMPDEST PUSH0 PUSH1 0x20 DUP3 ADD SWAP1 POP SWAP2 SWAP1 POP JUMP JUMPDEST PUSH0 PUSH2 0x219B DUP3 PUSH2 0x2136 JUMP JUMPDEST PUSH2 0x21A5 DUP2 DUP6 PUSH2 0x2140 JUMP JUMPDEST SWAP4 POP PUSH2 0x21B0 DUP4 PUSH2 0x2150 JUMP JUMPDEST DUP1 PUSH0 JUMPDEST DUP4 DUP2 LT ISZERO PUSH2 0x21E0 JUMPI DUP2 MLOAD PUSH2 0x21C7 DUP9 DUP3 PUSH2 0x216E JUMP JUMPDEST SWAP8 POP PUSH2 0x21D2 DUP4 PUSH2 0x2185 JUMP JUMPDEST SWAP3 POP POP PUSH1 0x1 DUP2 ADD SWAP1 POP PUSH2 0x21B3 JUMP JUMPDEST POP DUP6 SWAP4 POP POP POP POP SWAP3 SWAP2 POP POP JUMP JUMPDEST PUSH0 PUSH1 0x20 DUP3 ADD SWAP1 POP DUP2 DUP2 SUB PUSH0 DUP4 ADD MSTORE PUSH2 0x2205 DUP2 DUP5 PUSH2 0x2191 JUMP JUMPDEST SWAP1 POP SWAP3 SWAP2 POP POP JUMP JUMPDEST PUSH2 0x2216 DUP2 PUSH2 0x1CAA JUMP JUMPDEST DUP2 EQ PUSH2 0x2220 JUMPI PUSH0 PUSH0 REVERT JUMPDEST POP JUMP JUMPDEST PUSH0 DUP2 CALLDATALOAD SWAP1 POP PUSH2 0x2231 DUP2 PUSH2 0x220D JUMP JUMPDEST SWAP3 SWAP2 POP POP JUMP JUMPDEST PUSH0 PUSH0 PUSH1 0x40 DUP4 DUP6 SUB SLT ISZERO PUSH2 0x224D JUMPI PUSH2 0x224C PUSH2 0x1BC5 JUMP JUMPDEST JUMPDEST PUSH0 PUSH2 0x225A DUP6 DUP3 DUP7 ADD PUSH2 0x1BEC JUMP JUMPDEST SWAP3 POP POP PUSH1 0x20 PUSH2 0x226B DUP6 DUP3 DUP7 ADD PUSH2 0x2223 JUMP JUMPDEST SWAP2 POP POP SWAP3 POP SWAP3 SWAP1 POP JUMP JUMPDEST PUSH0 PUSH0 PUSH1 0x40 DUP4 DUP6 SUB SLT ISZERO PUSH2 0x228B JUMPI PUSH2 0x228A PUSH2 0x1BC5 JUMP JUMPDEST JUMPDEST PUSH0 PUSH2 0x2298 DUP6 DUP3 DUP7 ADD PUSH2 0x1D74 JUMP JUMPDEST SWAP3 POP POP PUSH1 0x20 PUSH2 0x22A9 DUP6 DUP3 DUP7 ADD PUSH2 0x1D74 JUMP JUMPDEST SWAP2 POP POP SWAP3 POP SWAP3 SWAP1 POP JUMP JUMPDEST PUSH32 0x4E487B7100000000000000000000000000000000000000000000000000000000 PUSH0 MSTORE PUSH1 0x22 PUSH1 0x4 MSTORE PUSH1 0x24 PUSH0 REVERT JUMPDEST PUSH0 PUSH1 0x2 DUP3 DIV SWAP1 POP PUSH1 0x1 DUP3 AND DUP1 PUSH2 0x22F7 JUMPI PUSH1 0x7F DUP3 AND SWAP2 POP JUMPDEST PUSH1 0x20 DUP3 LT DUP2 SUB PUSH2 0x230A JUMPI PUSH2 0x2309 PUSH2 0x22B3 JUMP JUMPDEST JUMPDEST POP SWAP2 SWAP1 POP JUMP JUMPDEST PUSH32 0x4E487B7100000000000000000000000000000000000000000000000000000000 PUSH0 MSTORE PUSH1 0x11 PUSH1 0x4 MSTORE PUSH1 0x24 PUSH0 REVERT JUMPDEST PUSH0 PUSH2 0x2347 DUP3 PUSH2 0x1BCD JUMP JUMPDEST SWAP2 POP PUSH2 0x2352 DUP4 PUSH2 0x1BCD JUMP JUMPDEST SWAP3 POP DUP3 DUP3 MUL PUSH2 0x2360 DUP2 PUSH2 0x1BCD JUMP JUMPDEST SWAP2 POP DUP3 DUP3 DIV DUP5 EQ DUP4 ISZERO OR PUSH2 0x2377 JUMPI PUSH2 0x2376 PUSH2 0x2310 JUMP JUMPDEST JUMPDEST POP SWAP3 SWAP2 POP POP JUMP JUMPDEST PUSH32 0x4E487B7100000000000000000000000000000000000000000000000000000000 PUSH0 MSTORE PUSH1 0x12 PUSH1 0x4 MSTORE PUSH1 0x24 PUSH0 REVERT JUMPDEST PUSH0 PUSH2 0x23B5 DUP3 PUSH2 0x1BCD JUMP JUMPDEST SWAP2 POP PUSH2 0x23C0 DUP4 PUSH2 0x1BCD JUMP JUMPDEST SWAP3 POP DUP3 PUSH2 0x23D0 JUMPI PUSH2 0x23CF PUSH2 0x237E JUMP JUMPDEST JUMPDEST DUP3 DUP3 DIV SWAP1 POP SWAP3 SWAP2 POP POP JUMP JUMPDEST PUSH32 0x496E73756666696369656E74207374616B65642062616C616E63650000000000 PUSH0 DUP3 ADD MSTORE POP JUMP JUMPDEST PUSH0 PUSH2 0x240F PUSH1 0x1B DUP4 PUSH2 0x1C35 JUMP JUMPDEST SWAP2 POP PUSH2 0x241A DUP3 PUSH2 0x23DB JUMP JUMPDEST PUSH1 0x20 DUP3 ADD SWAP1 POP SWAP2 SWAP1 POP JUMP JUMPDEST PUSH0 PUSH1 0x20 DUP3 ADD SWAP1 POP DUP2 DUP2 SUB PUSH0 DUP4 ADD MSTORE PUSH2 0x243C DUP2 PUSH2 0x2403 JUMP JUMPDEST SWAP1 POP SWAP2 SWAP1 POP JUMP JUMPDEST PUSH0 PUSH2 0x244D DUP3 PUSH2 0x1BCD JUMP JUMPDEST SWAP2 POP PUSH2 0x2458 DUP4 PUSH2 0x1BCD JUMP JUMPDEST SWAP3 POP DUP3 DUP3 SUB SWAP1 POP DUP2 DUP2 GT ISZERO PUSH2 0x2470 JUMPI PUSH2 0x246F PUSH2 0x2310 JUMP JUMPDEST JUMPDEST SWAP3 SWAP2 POP POP JUMP JUMPDEST PUSH0 PUSH1 0x40 DUP3 ADD SWAP1 POP PUSH2 0x2489 PUSH0 DUP4 ADD DUP6 PUSH2 0x1C9B JUMP JUMPDEST PUSH2 0x2496 PUSH1 0x20 DUP4 ADD DUP5 PUSH2 0x1C9B JUMP JUMPDEST SWAP4 SWAP3 POP POP POP JUMP JUMPDEST PUSH32 0x43616E6E6F7420656E7465722077697468207A65726F20746F6B656E73000000 PUSH0 DUP3 ADD MSTORE POP JUMP JUMPDEST PUSH0 PUSH2 0x24D1 PUSH1 0x1D DUP4 PUSH2 0x1C35 JUMP JUMPDEST SWAP2 POP PUSH2 0x24DC DUP3 PUSH2 0x249D JUMP JUMPDEST PUSH1 0x20 DUP3 ADD SWAP1 POP SWAP2 SWAP1 POP JUMP JUMPDEST PUSH0 PUSH1 0x20 DUP3 ADD SWAP1 POP DUP2 DUP2 SUB PUSH0 DUP4 ADD MSTORE PUSH2 0x24FE DUP2 PUSH2 0x24C5 JUMP JUMPDEST SWAP1 POP SWAP2 SWAP1 POP JUMP JUMPDEST PUSH0 PUSH2 0x250F DUP3 PUSH2 0x1BCD JUMP JUMPDEST SWAP2 POP PUSH2 0x251A DUP4 PUSH2 0x1BCD JUMP JUMPDEST SWAP3 POP DUP3 DUP3 ADD SWAP1 POP DUP1 DUP3 GT ISZERO PUSH2 0x2532 JUMPI PUSH2 0x2531 PUSH2 0x2310 JUMP JUMPDEST JUMPDEST SWAP3 SWAP2 POP POP JUMP JUMPDEST PUSH0 PUSH2 0x2542 DUP3 PUSH2 0x1BCD JUMP JUMPDEST SWAP2 POP PUSH32 0xFFFFFFFFFFFFFFFFFFFFFFFFFFFFFFFFFFFFFFFFFFFFFFFFFFFFFFFFFFFFFFFF DUP3 SUB PUSH2 0x2574 JUMPI PUSH2 0x2573 PUSH2 0x2310 JUMP JUMPDEST JUMPDEST PUSH1 0x1 DUP3 ADD SWAP1 POP SWAP2 SWAP1 POP JUMP JUMPDEST PUSH0 DUP2 SWAP1 POP DUP2 PUSH0 MSTORE PUSH1 0x20 PUSH0 KECCAK256 SWAP1 POP SWAP2 SWAP1 POP JUMP JUMPDEST PUSH0 PUSH1 0x20 PUSH1 0x1F DUP4 ADD DIV SWAP1 POP SWAP2 SWAP1 POP JUMP JUMPDEST PUSH0 DUP3 DUP3 SHL SWAP1 POP SWAP3 SWAP2 POP POP JUMP JUMPDEST PUSH0 PUSH1 0x8 DUP4 MUL PUSH2 0x25DB PUSH32 0xFFFFFFFFFFFFFFFFFFFFFFFFFFFFFFFFFFFFFFFFFFFFFFFFFFFFFFFFFFFFFFFF DUP3 PUSH2 0x25A0 JUMP JUMPDEST PUSH2 0x25E5 DUP7 DUP4 PUSH2 0x25A0 JUMP JUMPDEST SWAP6 POP DUP1 NOT DUP5 AND SWAP4 POP DUP1 DUP7 AND DUP5 OR SWAP3 POP POP POP SWAP4 SWAP3 POP POP POP JUMP JUMPDEST PUSH0 DUP2 SWAP1 POP SWAP2 SWAP1 POP JUMP JUMPDEST PUSH0 PUSH2 0x2620 PUSH2 0x261B PUSH2 0x2616 DUP5 PUSH2 0x1BCD JUMP JUMPDEST PUSH2 0x25FD JUMP JUMPDEST PUSH2 0x1BCD JUMP JUMPDEST SWAP1 POP SWAP2 SWAP1 POP JUMP JUMPDEST PUSH0 DUP2 SWAP1 POP SWAP2 SWAP1 POP JUMP JUMPDEST PUSH2 0x2639 DUP4 PUSH2 0x2606 JUMP JUMPDEST PUSH2 0x264D PUSH2 0x2645 DUP3 PUSH2 0x2627 JUMP JUMPDEST DUP5 DUP5 SLOAD PUSH2 0x25AC JUMP JUMPDEST DUP3 SSTORE POP POP POP POP JUMP JUMPDEST PUSH0 PUSH0 SWAP1 POP SWAP1 JUMP JUMPDEST PUSH2 0x2664 PUSH2 0x2655 JUMP JUMPDEST PUSH2 0x266F DUP2 DUP5 DUP5 PUSH2 0x2630 JUMP JUMPDEST POP POP POP JUMP JUMPDEST JUMPDEST DUP2 DUP2 LT ISZERO PUSH2 0x2692 JUMPI PUSH2 0x2687 PUSH0 DUP3 PUSH2 0x265C JUMP JUMPDEST PUSH1 0x1 DUP2 ADD SWAP1 POP PUSH2 0x2675 JUMP JUMPDEST POP POP JUMP JUMPDEST PUSH1 0x1F DUP3 GT ISZERO PUSH2 0x26D7 JUMPI PUSH2 0x26A8 DUP2 PUSH2 0x257F JUMP JUMPDEST PUSH2 0x26B1 DUP5 PUSH2 0x2591 JUMP JUMPDEST DUP2 ADD PUSH1 0x20 DUP6 LT ISZERO PUSH2 0x26C0 JUMPI DUP2 SWAP1 POP JUMPDEST PUSH2 0x26D4 PUSH2 0x26CC DUP6 PUSH2 0x2591 JUMP JUMPDEST DUP4 ADD DUP3 PUSH2 0x2674 JUMP JUMPDEST POP POP JUMPDEST POP POP POP JUMP JUMPDEST PUSH0 DUP3 DUP3 SHR SWAP1 POP SWAP3 SWAP2 POP POP JUMP JUMPDEST PUSH0 PUSH2 0x26F7 PUSH0 NOT DUP5 PUSH1 0x8 MUL PUSH2 0x26DC JUMP JUMPDEST NOT DUP1 DUP4 AND SWAP2 POP POP SWAP3 SWAP2 POP POP JUMP JUMPDEST PUSH0 PUSH2 0x270F DUP4 DUP4 PUSH2 0x26E8 JUMP JUMPDEST SWAP2 POP DUP3 PUSH1 0x2 MUL DUP3 OR SWAP1 POP SWAP3 SWAP2 POP POP JUMP JUMPDEST PUSH2 0x2728 DUP3 PUSH2 0x1C2B JUMP JUMPDEST PUSH8 0xFFFFFFFFFFFFFFFF DUP2 GT ISZERO PUSH2 0x2741 JUMPI PUSH2 0x2740 PUSH2 0x1F74 JUMP JUMPDEST JUMPDEST PUSH2 0x274B DUP3 SLOAD PUSH2 0x22E0 JUMP JUMPDEST PUSH2 0x2756 DUP3 DUP3 DUP6 PUSH2 0x2696 JUMP JUMPDEST PUSH0 PUSH1 0x20 SWAP1 POP PUSH1 0x1F DUP4 GT PUSH1 0x1 DUP2 EQ PUSH2 0x2787 JUMPI PUSH0 DUP5 ISZERO PUSH2 0x2775 JUMPI DUP3 DUP8 ADD MLOAD SWAP1 POP JUMPDEST PUSH2 0x277F DUP6 DUP3 PUSH2 0x2704 JUMP JUMPDEST DUP7 SSTORE POP PUSH2 0x27E6 JUMP JUMPDEST PUSH1 0x1F NOT DUP5 AND PUSH2 0x2795 DUP7 PUSH2 0x257F JUMP JUMPDEST PUSH0 JUMPDEST DUP3 DUP2 LT ISZERO PUSH2 0x27BC JUMPI DUP5 DUP10 ADD MLOAD DUP3 SSTORE PUSH1 0x1 DUP3 ADD SWAP2 POP PUSH1 0x20 DUP6 ADD SWAP5 POP PUSH1 0x20 DUP2 ADD SWAP1 POP PUSH2 0x2797 JUMP JUMPDEST DUP7 DUP4 LT ISZERO PUSH2 0x27D9 JUMPI DUP5 DUP10 ADD MLOAD PUSH2 0x27D5 PUSH1 0x1F DUP10 AND DUP3 PUSH2 0x26E8 JUMP JUMPDEST DUP4 SSTORE POP JUMPDEST PUSH1 0x1 PUSH1 0x2 DUP9 MUL ADD DUP9 SSTORE POP POP POP JUMPDEST POP POP POP POP POP POP JUMP JUMPDEST PUSH32 0x4E6F207061727469636970616E747320696E20746865206C6F74746572790000 PUSH0 DUP3 ADD MSTORE POP JUMP JUMPDEST PUSH0 PUSH2 0x2822 PUSH1 0x1E DUP4 PUSH2 0x1C35 JUMP JUMPDEST SWAP2 POP PUSH2 0x282D DUP3 PUSH2 0x27EE JUMP JUMPDEST PUSH1 0x20 DUP3 ADD SWAP1 POP SWAP2 SWAP1 POP JUMP JUMPDEST PUSH0 PUSH1 0x20 DUP3 ADD SWAP1 POP DUP2 DUP2 SUB PUSH0 DUP4 ADD MSTORE PUSH2 0x284F DUP2 PUSH2 0x2816 JUMP JUMPDEST SWAP1 POP SWAP2 SWAP1 POP JUMP JUMPDEST PUSH0 DUP2 SWAP1 POP SWAP2 SWAP1 POP JUMP JUMPDEST PUSH2 0x2870 PUSH2 0x286B DUP3 PUSH2 0x1BCD JUMP JUMPDEST PUSH2 0x2856 JUMP JUMPDEST DUP3 MSTORE POP POP JUMP JUMPDEST PUSH0 PUSH2 0x2881 DUP3 DUP6 PUSH2 0x285F JUMP JUMPDEST PUSH1 0x20 DUP3 ADD SWAP2 POP PUSH2 0x2891 DUP3 DUP5 PUSH2 0x285F JUMP JUMPDEST PUSH1 0x20 DUP3 ADD SWAP2 POP DUP2 SWAP1 POP SWAP4 SWAP3 POP POP POP JUMP JUMPDEST PUSH0 PUSH2 0x28AB DUP3 PUSH2 0x1BCD JUMP JUMPDEST SWAP2 POP PUSH2 0x28B6 DUP4 PUSH2 0x1BCD JUMP JUMPDEST SWAP3 POP DUP3 PUSH2 0x28C6 JUMPI PUSH2 0x28C5 PUSH2 0x237E JUMP JUMPDEST JUMPDEST DUP3 DUP3 MOD SWAP1 POP SWAP3 SWAP2 POP POP JUMP JUMPDEST PUSH32 0x4E487B7100000000000000000000000000000000000000000000000000000000 PUSH0 MSTORE PUSH1 0x32 PUSH1 0x4 MSTORE PUSH1 0x24 PUSH0 REVERT JUMPDEST PUSH32 0x43616E6E6F74207374616B65207A65726F20746F6B656E730000000000000000 PUSH0 DUP3 ADD MSTORE POP JUMP JUMPDEST PUSH0 PUSH2 0x2932 PUSH1 0x18 DUP4 PUSH2 0x1C35 JUMP JUMPDEST SWAP2 POP PUSH2 0x293D DUP3 PUSH2 0x28FE JUMP JUMPDEST PUSH1 0x20 DUP3 ADD SWAP1 POP SWAP2 SWAP1 POP JUMP JUMPDEST PUSH0 PUSH1 0x20 DUP3 ADD SWAP1 POP DUP2 DUP2 SUB PUSH0 DUP4 ADD MSTORE PUSH2 0x295F DUP2 PUSH2 0x2926 JUMP JUMPDEST SWAP1 POP SWAP2 SWAP1 POP JUMP JUMPDEST PUSH32 0x496E76616C69642070726F706F73616C20494400000000000000000000000000 PUSH0 DUP3 ADD MSTORE POP JUMP JUMPDEST PUSH0 PUSH2 0x299A PUSH1 0x13 DUP4 PUSH2 0x1C35 JUMP JUMPDEST SWAP2 POP PUSH2 0x29A5 DUP3 PUSH2 0x2966 JUMP JUMPDEST PUSH1 0x20 DUP3 ADD SWAP1 POP SWAP2 SWAP1 POP JUMP JUMPDEST PUSH0 PUSH1 0x20 DUP3 ADD SWAP1 POP DUP2 DUP2 SUB PUSH0 DUP4 ADD MSTORE PUSH2 0x29C7 DUP2 PUSH2 0x298E JUMP JUMPDEST SWAP1 POP SWAP2 SWAP1 POP JUMP JUMPDEST PUSH32 0x4E6F207374616B656420746F6B656E7320746F20766F74650000000000000000 PUSH0 DUP3 ADD MSTORE POP JUMP JUMPDEST PUSH0 PUSH2 0x2A02 PUSH1 0x18 DUP4 PUSH2 0x1C35 JUMP JUMPDEST SWAP2 POP PUSH2 0x2A0D DUP3 PUSH2 0x29CE JUMP JUMPDEST PUSH1 0x20 DUP3 ADD SWAP1 POP SWAP2 SWAP1 POP JUMP JUMPDEST PUSH0 PUSH1 0x20 DUP3 ADD SWAP1 POP DUP2 DUP2 SUB PUSH0 DUP4 ADD MSTORE PUSH2 0x2A2F DUP2 PUSH2 0x29F6 JUMP JUMPDEST SWAP1 POP SWAP2 SWAP1 POP JUMP JUMPDEST PUSH0 PUSH1 0x60 DUP3 ADD SWAP1 POP PUSH2 0x2A49 PUSH0 DUP4 ADD DUP7 PUSH2 0x1E96 JUMP JUMPDEST PUSH2 0x2A56 PUSH1 0x20 DUP4 ADD DUP6 PUSH2 0x1C9B JUMP JUMPDEST PUSH2 0x2A63 PUSH1 0x40 DUP4 ADD DUP5 PUSH2 0x1C9B JUMP JUMPDEST SWAP5 SWAP4 POP POP POP POP JUMP INVALID LOG2 PUSH5 0x6970667358 0x22 SLT KECCAK256 CODECOPY 0xA9 0xBC PUSH30 0x925FD2A79FBE5CA861C774E600BCCD1EC7EA33DD3B1284506BAC0A636473 PUSH16 0x6C634300081C00330000000000000000 "
				},
				"gasEstimates": {
					"creation": {
						"codeDepositCost": "2182600",
						"executionCost": "infinite",
						"totalCost": "infinite"
					},
					"external": {
						"REFERRAL_BONUS()": "413",
						"allowance(address,address)": "infinite",
						"approve(address,uint256)": "infinite",
						"balanceOf(address)": "2896",
						"calculateReward(uint256,uint256)": "infinite",
						"createProposal(string)": "infinite",
						"decimals()": "383",
						"drawLotteryWinner()": "infinite",
						"enterLottery(uint256)": "infinite",
						"getLotteryEntries()": "infinite",
						"getLotteryPrizePool()": "2482",
						"lottery()": "2506",
						"minStakeDuration()": "2471",
						"name()": "infinite",
						"owner()": "2582",
						"proposalCounter()": "2471",
						"proposals(uint256)": "infinite",
						"renounceOwnership()": "infinite",
						"stake(uint256,address)": "infinite",
						"stakes(address)": "infinite",
						"stakingPool()": "infinite",
						"symbol()": "infinite",
						"totalSupply()": "2478",
						"transfer(address,uint256)": "infinite",
						"transferFrom(address,address,uint256)": "infinite",
						"transferOwnership(address)": "infinite",
						"vote(uint256,bool)": "infinite",
						"withdraw(uint256)": "infinite"
					}
				},
				"methodIdentifiers": {
					"REFERRAL_BONUS()": "e1913c81",
					"allowance(address,address)": "dd62ed3e",
					"approve(address,uint256)": "095ea7b3",
					"balanceOf(address)": "70a08231",
					"calculateReward(uint256,uint256)": "13ed0846",
					"createProposal(string)": "49c2a1a6",
					"decimals()": "313ce567",
					"drawLotteryWinner()": "576b5002",
					"enterLottery(uint256)": "3fd43098",
					"getLotteryEntries()": "b3a55a66",
					"getLotteryPrizePool()": "cdb12c83",
					"lottery()": "ba13a572",
					"minStakeDuration()": "5fec5c64",
					"name()": "06fdde03",
					"owner()": "8da5cb5b",
					"proposalCounter()": "0c0512e9",
					"proposals(uint256)": "013cf08b",
					"renounceOwnership()": "715018a6",
					"stake(uint256,address)": "7acb7757",
					"stakes(address)": "16934fc4",
					"stakingPool()": "0c56ae3b",
					"symbol()": "95d89b41",
					"totalSupply()": "18160ddd",
					"transfer(address,uint256)": "a9059cbb",
					"transferFrom(address,address,uint256)": "23b872dd",
					"transferOwnership(address)": "f2fde38b",
					"vote(uint256,bool)": "c9d27afe",
					"withdraw(uint256)": "2e1a7d4d"
				}
			},
			"storageLayout": {
				"storage": [
					{
						"astId": 307,
						"contract": "contracts/FresaCoin.sol:FresaCoin",
						"label": "_balances",
						"offset": 0,
						"slot": "0",
						"type": "t_mapping(t_address,t_uint256)"
					},
					{
						"astId": 313,
						"contract": "contracts/FresaCoin.sol:FresaCoin",
						"label": "_allowances",
						"offset": 0,
						"slot": "1",
						"type": "t_mapping(t_address,t_mapping(t_address,t_uint256))"
					},
					{
						"astId": 315,
						"contract": "contracts/FresaCoin.sol:FresaCoin",
						"label": "_totalSupply",
						"offset": 0,
						"slot": "2",
						"type": "t_uint256"
					},
					{
						"astId": 317,
						"contract": "contracts/FresaCoin.sol:FresaCoin",
						"label": "_name",
						"offset": 0,
						"slot": "3",
						"type": "t_string_storage"
					},
					{
						"astId": 319,
						"contract": "contracts/FresaCoin.sol:FresaCoin",
						"label": "_symbol",
						"offset": 0,
						"slot": "4",
						"type": "t_string_storage"
					},
					{
						"astId": 8,
						"contract": "contracts/FresaCoin.sol:FresaCoin",
						"label": "_owner",
						"offset": 0,
						"slot": "5",
						"type": "t_address"
					},
					{
						"astId": 978,
						"contract": "contracts/FresaCoin.sol:FresaCoin",
						"label": "stakes",
						"offset": 0,
						"slot": "6",
						"type": "t_mapping(t_address,t_struct(Stake)951_storage)"
					},
					{
						"astId": 983,
						"contract": "contracts/FresaCoin.sol:FresaCoin",
						"label": "proposals",
						"offset": 0,
						"slot": "7",
						"type": "t_mapping(t_uint256,t_struct(Proposal)960_storage)"
					},
					{
						"astId": 986,
						"contract": "contracts/FresaCoin.sol:FresaCoin",
						"label": "lottery",
						"offset": 0,
						"slot": "8",
						"type": "t_struct(Lottery)966_storage"
					},
					{
						"astId": 989,
						"contract": "contracts/FresaCoin.sol:FresaCoin",
						"label": "stakingPool",
						"offset": 0,
						"slot": "10",
						"type": "t_struct(StakingPool)973_storage"
					},
					{
						"astId": 991,
						"contract": "contracts/FresaCoin.sol:FresaCoin",
						"label": "proposalCounter",
						"offset": 0,
						"slot": "13",
						"type": "t_uint256"
					},
					{
						"astId": 994,
						"contract": "contracts/FresaCoin.sol:FresaCoin",
						"label": "minStakeDuration",
						"offset": 0,
						"slot": "14",
						"type": "t_uint256"
					}
				],
				"types": {
					"t_address": {
						"encoding": "inplace",
						"label": "address",
						"numberOfBytes": "20"
					},
					"t_array(t_address)dyn_storage": {
						"base": "t_address",
						"encoding": "dynamic_array",
						"label": "address[]",
						"numberOfBytes": "32"
					},
					"t_bool": {
						"encoding": "inplace",
						"label": "bool",
						"numberOfBytes": "1"
					},
					"t_mapping(t_address,t_mapping(t_address,t_uint256))": {
						"encoding": "mapping",
						"key": "t_address",
						"label": "mapping(address => mapping(address => uint256))",
						"numberOfBytes": "32",
						"value": "t_mapping(t_address,t_uint256)"
					},
					"t_mapping(t_address,t_struct(Stake)951_storage)": {
						"encoding": "mapping",
						"key": "t_address",
						"label": "mapping(address => struct FresaCoin.Stake)",
						"numberOfBytes": "32",
						"value": "t_struct(Stake)951_storage"
					},
					"t_mapping(t_address,t_uint256)": {
						"encoding": "mapping",
						"key": "t_address",
						"label": "mapping(address => uint256)",
						"numberOfBytes": "32",
						"value": "t_uint256"
					},
					"t_mapping(t_uint256,t_struct(Proposal)960_storage)": {
						"encoding": "mapping",
						"key": "t_uint256",
						"label": "mapping(uint256 => struct FresaCoin.Proposal)",
						"numberOfBytes": "32",
						"value": "t_struct(Proposal)960_storage"
					},
					"t_string_storage": {
						"encoding": "bytes",
						"label": "string",
						"numberOfBytes": "32"
					},
					"t_struct(Lottery)966_storage": {
						"encoding": "inplace",
						"label": "struct FresaCoin.Lottery",
						"members": [
							{
								"astId": 963,
								"contract": "contracts/FresaCoin.sol:FresaCoin",
								"label": "entries",
								"offset": 0,
								"slot": "0",
								"type": "t_array(t_address)dyn_storage"
							},
							{
								"astId": 965,
								"contract": "contracts/FresaCoin.sol:FresaCoin",
								"label": "prizePool",
								"offset": 0,
								"slot": "1",
								"type": "t_uint256"
							}
						],
						"numberOfBytes": "64"
					},
					"t_struct(Proposal)960_storage": {
						"encoding": "inplace",
						"label": "struct FresaCoin.Proposal",
						"members": [
							{
								"astId": 953,
								"contract": "contracts/FresaCoin.sol:FresaCoin",
								"label": "description",
								"offset": 0,
								"slot": "0",
								"type": "t_string_storage"
							},
							{
								"astId": 955,
								"contract": "contracts/FresaCoin.sol:FresaCoin",
								"label": "votesFor",
								"offset": 0,
								"slot": "1",
								"type": "t_uint256"
							},
							{
								"astId": 957,
								"contract": "contracts/FresaCoin.sol:FresaCoin",
								"label": "votesAgainst",
								"offset": 0,
								"slot": "2",
								"type": "t_uint256"
							},
							{
								"astId": 959,
								"contract": "contracts/FresaCoin.sol:FresaCoin",
								"label": "isApproved",
								"offset": 0,
								"slot": "3",
								"type": "t_bool"
							}
						],
						"numberOfBytes": "128"
					},
					"t_struct(Stake)951_storage": {
						"encoding": "inplace",
						"label": "struct FresaCoin.Stake",
						"members": [
							{
								"astId": 944,
								"contract": "contracts/FresaCoin.sol:FresaCoin",
								"label": "amount",
								"offset": 0,
								"slot": "0",
								"type": "t_uint256"
							},
							{
								"astId": 946,
								"contract": "contracts/FresaCoin.sol:FresaCoin",
								"label": "rewardAccumulated",
								"offset": 0,
								"slot": "1",
								"type": "t_uint256"
							},
							{
								"astId": 948,
								"contract": "contracts/FresaCoin.sol:FresaCoin",
								"label": "lastStakedTimestamp",
								"offset": 0,
								"slot": "2",
								"type": "t_uint256"
							},
							{
								"astId": 950,
								"contract": "contracts/FresaCoin.sol:FresaCoin",
								"label": "referrer",
								"offset": 0,
								"slot": "3",
								"type": "t_address"
							}
						],
						"numberOfBytes": "128"
					},
					"t_struct(StakingPool)973_storage": {
						"encoding": "inplace",
						"label": "struct FresaCoin.StakingPool",
						"members": [
							{
								"astId": 968,
								"contract": "contracts/FresaCoin.sol:FresaCoin",
								"label": "rewardRate",
								"offset": 0,
								"slot": "0",
								"type": "t_uint256"
							},
							{
								"astId": 970,
								"contract": "contracts/FresaCoin.sol:FresaCoin",
								"label": "lockDuration",
								"offset": 0,
								"slot": "1",
								"type": "t_uint256"
							},
							{
								"astId": 972,
								"contract": "contracts/FresaCoin.sol:FresaCoin",
								"label": "totalStaked",
								"offset": 0,
								"slot": "2",
								"type": "t_uint256"
							}
						],
						"numberOfBytes": "96"
					},
					"t_uint256": {
						"encoding": "inplace",
						"label": "uint256",
						"numberOfBytes": "32"
					}
				}
			},
			"userdoc": {
				"kind": "user",
				"methods": {
					"calculateReward(uint256,uint256)": {
						"notice": "Calculate reward based on stake and duration"
					},
					"constructor": {
						"notice": "Constructor to initialize the contract"
					},
					"createProposal(string)": {
						"notice": "Create a governance proposal"
					},
					"drawLotteryWinner()": {
						"notice": "Draw a winner for the lottery"
					},
					"enterLottery(uint256)": {
						"notice": "Enter the lottery by staking tokens"
					},
					"getLotteryEntries()": {
						"notice": "Get lottery participants"
					},
					"getLotteryPrizePool()": {
						"notice": "Get the prize pool for the lottery"
					},
					"stake(uint256,address)": {
						"notice": "Stake tokens to earn rewards"
					},
					"vote(uint256,bool)": {
						"notice": "Vote on a governance proposal"
					},
					"withdraw(uint256)": {
						"notice": "Withdraw staked tokens with penalty if applicable"
					}
				},
				"version": 1
			}
		}
	}
}